:02000004080AE8
:1000000000000A0844460A08000006000600050130
:08001000040279050000000064
:040018005C400A0836
:1000200009480A4908B5884205D0094A824202D0E7
:10003000121A03F0CFFF0748074A0021121A03F0F3
:10004000D4FF064808BD00BF0000002094450A0800
:1000500088000020880000202007002020070020C2
:1000600070B502F01FFA074B074C1E46E41AA408AD
:100070000025A54204D056F8253098470135F8E709
:1000800070BD00BF54450A0890450A0800F050B8FA
:1000900008B500F039FBBDE8084002F0C5B901F031
:1000A000F3B901F0F9B90078B0FA80F0400970476F
:1000B000012303707047704710B50446054B036079
:1000C0006433036101F02CFE204601F061FF2046FD
:1000D00010BD00BFA8430A0810B50A4C02F018F87A
:1000E000094901F07CFB217829B10121072002F0A8
:1000F0003AFA002303E0072002F035FA01232370C7
:1001000010BD00BF0800002070400A0810B504466A
:10011000182102F0A0FA204610BD10B50446FFF7E2
:10012000CBFF20464C2102F096FA204610BD00007D
:1001300070B596B001F0ECFF4FF4E13101F0E2FF51
:100140003A493B4800F075FF3A4B0121188802F00C
:10015000F9F902F075F802F05AF80028F9D0364C97
:1001600000231A461946606801F02EF90022114654
:100170006068314D01F040F90028F7D002F060F8D6
:100180002E4901F02CFB2E4B002219882D4801F03E
:10019000A2FD002319462C4A686801F065F902F0B7
:1001A0004FF8064600244022002106A803F01DFF58
:1001B000402306AA21460094686801F05DF906A96B
:1001C00002A801F017FD0299304601F008FB02A8D1
:1001D00001F0C9FC02F034F8224606462146686860
:1001E00001F0EAF8811C06A801F000FA06A93046E1
:1001F00001F0FFFA1548012303701E2383706B235F
:10020000437000F0B8FD78B902F01AF8104901F017
:10021000E6FA02F015F80F4901F0E1FA02F010F8E1
:100220000D4901F0DCFAFEE716B070BDD9000A08EE
:1002300080010020000000201C06002076400A08F3
:10024000040000201C0100207C400A0898000020C7
:100250008D400A08B1400A08C6400A080B4B70B529
:1002600006461C461A6864251046314603F0D6FB44
:10027000013D0246F8D1064903F08CFD206001F0F3
:10028000DFFFBDE87040034901F0A9BA8C010020EE
:100290000000C8424E410A080B4B70B506461C468A
:1002A0001A6864251046314603F0B8FB013D02464A
:1002B000F8D1064903F06EFD206001F0C1FFBDE8F2
:1002C0007040034901F08BBA900100200000C84241
:1002D0004E410A08F7B5264C0225204600F014FED0
:1002E00001F0AEFF234901F061FA01F0A9FFB4F972
:1002F00028100646204600F0E2FA02F0EDFF024622
:1003000030461D4E0B46009501F07AFB01F098FF38
:10031000314601F04BFA01F093FFB4F92A10074679
:10032000204600F0CCFA02F0D7FF009502460B46BB
:10033000384601F065FB01F083FF314601F036FAE3
:1003400001F07EFFB4F92C100646204600F0B7FA03
:1003500002F0C2FF009502460B46304601F050FB0A
:1003600001F06EFF054903B0BDE8F04001F037BA77
:1003700098000020A6410A08AA410A08AD410A08CF
:10038000F7B5264C0225204600F08DFD01F058FF00
:10039000234901F00BFA01F053FFB4F92E10064681
:1003A000204600F095FA02F097FF024630461D4EB7
:1003B0000B46009501F024FB01F042FF314601F0AD
:1003C000F5F901F03DFFB4F930100746204600F082
:1003D0007FFA02F081FF009502460B46384601F095
:1003E0000FFB01F02DFF314601F0E0F901F028FF8D
:1003F000B4F932100646204600F06AFA02F06CFFAB
:10040000009502460B46304601F0FAFA01F018FF5B
:10041000054903B0BDE8F04001F0E1B998000020C3
:10042000B4410A08AA410A08B8410A08F7B5264C9F
:100430000225204600F0B0FD01F002FF234901F043
:10044000B5F901F0FDFEB4F934100646204600F07F
:1004500048FA02F041FF024630461D4E0B46009519
:1004600001F0CEFA01F0ECFE314601F09FF901F007
:10047000E7FEB4F936100746204600F032FA02F0E3
:100480002BFF009502460B46384601F0B9FA01F001
:10049000D7FE314601F08AF901F0D2FEB4F93810E6
:1004A0000646204600F01DFA02F016FF00950246AF
:1004B0000B46304601F0A4FA01F0C2FE054903B034
:1004C000BDE8F04001F08BB998000020BB410A085C
:1004D000AA410A08BF410A082DE9F74F0446104611
:1004E00092468B461D4602F0F7FE804689465846E6
:1004F00002F0F2FE42464B460D9F02F0F7F903F080
:1005000037FA59460646584603F090FB5146804656
:10051000504603F08BFB0146404603F07FFA02F0A1
:10052000DBFE02F0E5F98046894604F1004002F066
:10053000D3FE42464B4602F0D9F903F019FA804641
:10054000384602F0C9FE82468B46284602F0C4FEB9
:1005500052465B4602F0CAF90022614B02F010FFDE
:1005600059A3D3E9002303F035F803F001FA002181
:10057000044603F0F9FC20B120465A4903F04EFA34
:100580000446204602F0A8FE51A3D3E9002302F05E
:1005900045FD03F0EDF90746404602F09DFE4EA3EF
:1005A000D3E9002302F0ECFE03F0E2F90546304601
:1005B00002F092FE48A3D3E9002302F0E1FE03F02B
:1005C000D7F9494E044633783BB92846FFF746FE33
:1005D0002046FFF761FE01233370444E2846316800
:1005E00003F01AFA424D82462968204603F014FAB5
:1005F000814601F025FE3F4901F0D8F801F020FEC8
:100600008046504602F068FE022402460B460094E3
:10061000404601F0F5F901F013FE374901F0C6F844
:1006200001F00EFE8046484602F056FE0094024657
:100630000B46404601F0E9F901F002FE2F4901F0B6
:10064000CEF801F0FDFD8046384602F045FE0094EC
:1006500002460B46404601F0D8F901F0F1FD284969
:1006600001F0A4F801F0ECFD264B0746186802F0F3
:1006700033FE009402460B46384601F0C1F901F002
:10068000DFFD1D4901F092F801F0DAFD0746306800
:1006900002F022FE009402460B46384601F0B0F903
:1006A00001F0CEFD144901F081F801F0C9FD0646C4
:1006B000286802F011FE02460B4630460C9403B047
:1006C000BDE8F04F01F0A1B9182D4454FB210940B9
:1006D00097294F1CFEA8CF3FF8C1631ADCA54C40F8
:1006E000008066400000B443940100208C0100208B
:1006F00090010020C6410A08AA410A08D4410A080C
:10070000DE410A088C0000202DE9F341214C2248EB
:1007100000F083FC204600F0F7FB204600F0C3FB0E
:10072000204600F039FCFFF7D5FDFFF729FEFFF763
:100730007DFEB4F93600404203F024FA8046B4F955
:10074000320003F01FFA0746B4F9300003F01AFA3A
:100750000646B4F92E0003F015FA0546B4F9380040
:1007600003F010FA0190B4F93400404203F00AFAA1
:1007700043463A46314600902846FFF7ADFE01F069
:100780005FFD01F020F8FA2002B0BDE8F04100F072
:100790009BBE00BF980000208001002038B500F00B
:1007A00065FC0021012000F0E3FD134B00221A70CC
:1007B0005A804FF6FF72114C9A80022000F0C8FD5B
:1007C0000F4D204600F004FF20460E4C2A460E49ED
:1007D00001F03CFF204601F0BDFB2A460B492046B4
:1007E00001F034FF0A4800F063F8BDE838404FF4E8
:1007F0007A71084800F0F7BB9000002068010020E3
:10080000880000201C010020B7000A08B9000A086F
:10081000980000208001002030B502240170837010
:100820000621F523C47504244270C38001220023ED
:100830000172017680F8204003210724027142747E
:100840008274C2740275827542768276C276C277ED
:1008500080F8214043728372C372037343738373BE
:10086000C373037401774377837780F8223004469B
:1008700080F8231080F82720024680F8241080F8A2
:10088000253080F8263000250139E563A5646565CB
:1008900002F10202A2F85E30A2F86430A2F86A30D7
:1008A00004F10404F0D14FF0000380F8803030BD33
:1008B00010B51E236B220121FFF7AEFF10BD10B54E
:1008C0000446084603F05EF9616F03F0AFF910BD0E
:1008D00010B50446084603F055F9A16F03F0A6F9D8
:1008E00010BD10B50446084603F04CF9E16F03F063
:1008F0009DF910BD10B50446C08803F03FF94FF0D4
:10090000605103F093F9606710BD10B50446C07DD7
:1009100003F034F94FF0605103F088F9A06710BD7F
:1009200090F82030043B0C2B14D8DFE803F00713B9
:1009300013130A1313130D1313131000064B1B6824
:1009400007E0054B5B6804E0034B9B6801E0024B4A
:10095000DB68C367704700BF0C000020C388F52B1D
:1009600007D0B3F5FA7F04D0B3F5FA6F1CBFF523B7
:10097000C380C27D102A03D8084BD340DA0701D4C4
:100980000223C37590F82020102A03D8044BD340CB
:10099000DB0702D4042380F82030704714010100E3
:1009A0001011010010B50446012190F8730001F008
:1009B000C9FD94F87300012101F0D5FD94F872008F
:1009C000012101F0BFFD94F872000A4C012101F0F1
:1009D000CAFD204601F058F82046082101F0A6F88B
:1009E0002046012101F055F82046BDE810400021C5
:1009F00001F052B860060020F8B50C4617461E46B6
:100A0000094D2046002101F0AEFD07F03F012846C8
:100A100001F0A0F83146284601F09CF82046BDE8D8
:100A2000F840012101F09FBD60060020F8B51E4688
:100A300090F8723002F03F028B429DF8187042F03D
:100A4000800503D1012F88BF45F040058CB22046B8
:100A5000002101F088FD2946094801F07BF8354660
:100A6000AB1B9F4206DD0021054801F073F805F835
:100A7000010BF5E72046012101F075FD0120F8BDCD
:100A8000600600201FB5012300930DF10F03FFF74F
:100A9000CDFF9DF80F0005B05DF804FB08B501F02F
:100AA0007BFDBDE8084000F059BD70B50E46154607
:100AB0001C4601F071FD314600F062FD01F06CFD55
:100AC000036829469B68984701F066FD0368214644
:100AD0009A68904701F060FDBDE8704000F058BD95
:100AE0001346027810B4012A05D10A4610BC90F8CA
:100AF0007310FFF7DABF2AB90A4610BC90F87310DA
:100B0000FFF77ABF10BC704710B50379044613B1E4
:100B1000037A5B01DBB2E288B2F5FA7F05D0B2F569
:100B2000FA6F04D143F0180301E043F00803627A3E
:100B3000102102F003021A432046FFF7D1FF0022E2
:100B400011212046FFF7CCFFA37A002BE37A14BFD4
:100B5000802200222BB1237B03F00F0343F04003DC
:100B60001A4312212046FFF7BBFFE37C002BA37C36
:100B70000CBF0022202213B142F01002D2B2637CDB
:100B80000BB142F00802237D0BB142F002021E219C
:100B90002046FFF7A5FF637B002BA37B0CBF002241
:100BA000202213B142F01002D2B2E37B0BB142F02B
:100BB00008022046BDE810401321FFF791BF10B591
:100BC000C37E0446002B837E0CBF0022202213B17B
:100BD00042F01002D2B2637E0BB142F008021F2134
:100BE0002046FFF77DFFA27D12B1227E5201D2B2D4
:100BF000E37D082B06D0102B07D0042B07D142F041
:100C0000100204E042F0180201E042F0080294F9F8
:100C10001C302021002BA2BF03F003031A4342F033
:100C200004022046FFF75CFF627F2AB1A27F5201D7
:100C300002F0600242F080022046BDE8104021210F
:100C4000FFF74EBF1346027810B4012A05D10A46B9
:100C500010BC90F87210FFF728BF2AB90A4610BCE2
:100C600090F87210FFF7C8BE10BC704710B590F82E
:100C700022300446002B90F8233008BF00224FEAB0
:100C8000431303F0600190F8213018BF80229B00CD
:100C900003F01C030B431A432021FFF7D3FF94F802
:100CA00020302046083BDBB2082B96BF124A0022B8
:100CB000D25C2121FFF7C6FF94F825302046002B97
:100CC00094F826300CBF0022202203F003031A43BD
:100CD0002221FFF7B7FF94F824202046920002F06B
:100CE0000C022321FFF7AEFF2046BDE81040002292
:100CF0002421FFF7A7BF00BFF7410A0838B50C460B
:100D0000154601F049FC214600F03AFC01F044FC94
:100D1000036829469B68984701F03EFC002100F0DB
:100D200033FC01F039FC0122214600F026FC01F0E1
:100D300033FC03685B699847C0B238BD0A46017846
:100D4000012903D190F87310FFF7D8BF19B990F8B3
:100D50007310FFF797BE002070470A4601780129FB
:100D600003D190F87210FFF7C9BF19B990F872104B
:100D7000FFF788BE704738B50446437880F8733073
:100D8000837880F87230FFF7E9FDFFF7B3FD204666
:100D9000FFF7C6FD2046FFF7B8FD2378012B03D1EE
:100DA0002046FFF77BFE03E013B92046FFF7FAFD6C
:100DB0000F212046FFF7D1FF0F2105462046FFF700
:100DC000BDFF46F63D0345EA002005B29D420AD12B
:100DD0002046FFF799FE2046FFF7F1FE2046FFF779
:100DE00045FF284638BD002038BD2DE9F04190462A
:100DF0000C461D469DF8186000F030F9074601F0DA
:100E0000CBFB214600F0BCFB01F0C6FB036848F0B9
:100E100080019B68984701F0BFFB002100F0B4FB04
:100E200001F0BAFB2146324600F0A7FB002407F58B
:100E30007A77B4421ADA01F0AFFB03681B6998476E
:100E400040B101F0A9FB036804F101085B69984710
:100E50002855444600F002F9B842EAD92C44FF2351
:100E6000621B964205DD04F8013BF9E70120BDE86D
:100E7000F0810020BDE8F08137B50D4601780129E9
:100E800007D190F87310009313462A46FFF7ADFF81
:100E900007E031B990F87310009313462A46FFF724
:100EA000C5FD03B030BD37B506236A462821044688
:100EB000FFF7E2FF30B39DF800309DF801109DF878
:100EC000032043EA01219DF802309DF8055043EAD2
:100ED00002229DF8043009B243EA052394F88050B9
:100EE00012B21BB2E185228663865DB1B4F866500A
:100EF000491BE185B4F86810521A2286B4F86A20BA
:100F00009B1A638603B030BD37B506236A461821A5
:100F10000446FFF7B1FF30B39DF800309DF8011093
:100F20009DF8032043EA01219DF802309DF8055009
:100F300043EA02229DF8043009B243EA052394F8FB
:100F4000805012B21BB221856285A3855DB1B4F8D1
:100F50006050491B2185B4F86210521A6285B4F8BA
:100F600064209B1AA38503B030BD37B50D460178C8
:100F7000012907D190F87210009313462A46FFF713
:100F800034FF07E031B990F87210009313462A46F7
:100F9000FFF74CFD03B030BD13B506236A46282188
:100FA0000446FFF7E2FFA0B19DF801209DF8003054
:100FB00043EA0223A3869DF803209DF8023043EA0A
:100FC0000223E3869DF805209DF8043043EA0223BE
:100FD000238702B010BD00F049B810B5044600F0F8
:100FE0003DF8206010BD38B504460D46FFF7F5FF0B
:100FF00000236560A360204638BD10B5044600F0AC
:101000002DF82368C01A6368984204D32046FFF77E
:10101000E4FF012010BD002010BD10B58368044618
:1010200033B1FFF7EAFF18B1A368BDE810401847D5
:1010300010BD8160704700F019B8000008B5024B80
:101040001B681B6B019308BDD001060808B5024B55
:101050001B685B68019308BD9C01060808B5024B3C
:101060001B685B69019308BD9C01060808B5024B2B
:101070001B681B68019308BDB001060808B5024B48
:101080001B689B68019308BDB001060808B5024BB8
:101090001B68DB68019308BDB001060808B5024B68
:1010A0001B681B69019308BDB001060808B5024B17
:1010B0001B68DB6C019308BDAC01060808B5024B48
:1010C0001B685B6D019308BDAC01060808B5024BB7
:1010D0001B689B6D019308BDAC01060808B5024B67
:1010E0001B68DB6D019308BDAC01060808B5024B17
:1010F0001B681B6E019308BDAC01060808B5024BC6
:101100001B685B6E019308BDAC01060808B5024B75
:101110001B689B6E019308BDAC01060808B5024B25
:101120001B68DB6E019308BDAC01060808B5024BD5
:101130001B681B6F019308BDAC01060808B5024B84
:101140001B685B6F019308BDAC01060808B5034B33
:101150001B68D3F88030019308BD0000AC0106087D
:1011600008B5024B1B685B68019308BDBC0106080B
:1011700008B5024B1B689B68019308BDBC010608BB
:1011800008B5024B1B685B69019308BDBC010608EA
:1011900008B5024B1B68DB69019308BDBC0106085A
:1011A00008B5024B1B681B6A019308BDBC01060809
:1011B00008B5024B1B681B6B019308BDBC010608F8
:1011C00008B5024B1B681B68019308BDB4010608F3
:1011D00008B5024B1B689B68019308BDB401060863
:1011E00008B5024B1B68DB68019308BDB401060813
:1011F00008B5024B1B681B69019308BDB4010608C2
:1012000008B5024B1B685B69019308BDB401060871
:1012100008B5024B1B68DB69019308BDB4010608E1
:1012200008B5024B1B681B6A019308BDB401060890
:1012300008B5024B1B685B6A019308BDB401060840
:1012400008B5024B1B689B69019308BDC4010608E1
:1012500008B5024B1B685B6A019308BDC401060810
:1012600008B5024B1B689B6A019308BDC4010608C0
:1012700008B5024B1B68DB6A019308BDC401060870
:1012800008B5024B1B681B6B019308BDC40106081F
:1012900008B5024B1B685B6B019308BDC4010608CF
:1012A00008B5024B1B689B6B019308BDC40106087F
:1012B00008B5024B1B681B6C019308BDC4010608EE
:1012C00008B5024B1B68DB6C019308BDC40106081E
:1012D00008B5024B1B681B68019308BDD8010608BE
:1012E00008B5024B1B681B69019308BDD8010608AD
:1012F00008B5024B1B685B69019308BDD80106085D
:1013000008B5024B1B689B69019308BDD80106080C
:1013100008B5024B1B68DB69019308BDD8010608BC
:1013200008B5024B1B681B6A019308BDD80106086B
:1013300008B5024B1B685B6A019308BDD80106081B
:1013400008B5024B1B689B6C019308BDC0010608E1
:1013500008B5024B1B685B68019308BDA401060831
:1013600008B5024B1B685B69019308BDA401060820
:1013700008B5024B1B68DB6A019308BDA40106088F
:1013800008B5034B1B68D3F89030019308BD0000EB
:10139000A401060808B5034B1B68D3F89C300193E1
:1013A00008BD0000A401060808B5024B1B68DB6BF2
:1013B000019308BDCC01060808B5024B1B681B68E9
:1013C000019308BDC801060808B5024B1B685B689D
:1013D000019308BDC801060808B5024B1B689B684D
:1013E000019308BDC801060808B5024B1B68DB68FD
:1013F000019308BDC801060808B5024B1B681B69AC
:10140000019308BDC801060808B5024B1B685B695B
:10141000019308BDC801060808B5024B1B689B690B
:10142000019308BDC801060808B5024B1B68DB69BB
:10143000019308BDC801060808B5024B1B681B6A6A
:10144000019308BDC801060808B5024B1B681B6B59
:10145000019308BDC801060808B5024B1B685B6B09
:10146000019308BDC801060808B5024B1B689B6BB9
:10147000019308BDC801060808B5024B1B68DB6B69
:10148000019308BDC801060808B5024B1B681B681C
:10149000019308BDA001060808B5024B1B685B68F4
:1014A000019308BDA001060808B5024B1B689B68A4
:1014B000019308BDA001060808B5024B1B68DB6B51
:1014C000019308BDA00106080021FFF749BF10B530
:1014D0008368044613B1032201469847204610BD95
:1014E0007047F8B5064615460C468F18BC4206D024
:1014F000336814F8011B9B6830469847F6E7284686
:10150000F8BD0022007CFFF7F1BD0021007CFFF751
:10151000F5BD0021007CFFF7F9BD0021007CFFF73D
:10152000FDBD0021007CFFF701BE10B5044614216B
:1015300001F091F8204610BD10B5044608464FF45E
:101540007A73A360044B0021207461602360FFF76D
:10155000FDFD204610BD00BF08420A0800231A46C0
:101560001946007CFFF7A2BD13B50024007C00944F
:10157000FFF7A4FDC0B202B010BD0123FFF7F4BF16
:101580000022007CFFF7A2BD0022007CFFF7A6BD71
:101590000121FFF7F9BF0021007CFFF7CFBDF8B5AF
:1015A0000F4600F10806051D002416F8011D0A2249
:1015B000384600F052F9AE42044407D0002CF4D073
:1015C0002E21384600F0F6F80444EEE72046F8BD38
:1015D00010B50446044B112240F8043B002102F0F0
:1015E00004FD204610BD00BF30420A080346074AEA
:1015F00010B543F8042B01F1100251F8044B91424D
:1016000043F8044BF9D10A781A7010BD30420A0829
:10161000024A4160026004220275704730420A08A3
:1016200010B59DF8084044EA032343EA024242EA27
:10163000016104234160037510BD000037B5044DFE
:1016400005609DF818500095FFF7EAFF03B030BD24
:1016500030420A0837B50D788B784A78C9780091FE
:101660002946FFF7DDFF03B030BD0000014A024B01
:101670001A607047B2420A089801002000231A46F7
:101680004068FFF7A1BE002202214068FFF7ACBE10
:10169000002211464068FFF79FBE002211464068B5
:1016A000FFF7AABE00231A4619464068FFF7ACBEF2
:1016B00000231A4619464068FFF7AEBE002281F0AB
:1016C00001014068FFF7B0BE00224068FFF7BCBED2
:1016D000002211464068FFF7BFBE00221146406855
:1016E000FFF7AABE70B516468EB0044608A8FFF7ED
:1016F0006FFF1122002103A802F077FC304602F0B0
:10170000A5FC00250A4B009581B25B6803AA304610
:10171000FFF716FE20B129462046FFF779FF03E0C8
:1017200003A92046FFF762FF20460EB070BD00BF40
:101730001C060020034B044A04280CBF1046184620
:10174000704700BF9C0100201C060020024B034A8A
:101750001A6000225A6070479C01002024430A0846
:10176000F8B506460D468F180024BD420CD03368EC
:1017700015F8011B9B6830469847002801DB04449C
:10178000F3E7002C08BF04462046F8BD70B50546B7
:101790000C46084649B102F059FC2B680246214626
:1017A0002846BDE87040DB68184770BD08B5FFF7F4
:1017B000EDFF08BD03689B6818470B460A680146A1
:1017C00012681846104738B50D210546FFF7F2FF9D
:1017D0000A2104462846FFF7EDFF204438BD38B5FE
:1017E0000546FFF7D3FF04462846FFF7ECFF2044E9
:1017F00038BD38B50546FFF7E0FF04462846FFF739
:10180000E2FF204438BD012A98BF0A2230B50B46BA
:101810008BB000218DF824100DF12304B3FBF2F5F9
:1018200005FB1233DBB2092B94BF30333733DBB205
:10183000214604F801392B46002DEFD1FFF7A6FF12
:101840000BB030BD10B422B90368C9B29B6810BC9C
:101850001847D2B210BCFFF7D6BFFFF7F3BF2DE990
:10186000F04107460E4615462AB9BDE8F041036827
:10187000C9B29B6818470A2A02D1002901DA04E09C
:10188000D2B2BDE8F041FFF7BEBF2D21FFF792FFB6
:101890002A46044671423846FFF7B5FF2044BDE8AA
:1018A000F08100002DE9F84319468046104617469E
:1018B0001E469DF8205001F0FDFF08B1474912E097
:1018C00026F000444FF0FF32454B3846214601F0E8
:1018D000F1FF68B94FF0FF32414B3846214601F025
:1018E000CBFF28B93F494046FFF750FFBDE8F883DA
:1018F0004FF060423C4B3846314601F0D1FF08B111
:101900003A49F0E74FF06042394B3846314601F032
:10191000A9FF0028F4D1002200233846314601F007
:10192000A1FF38B12D214046FFF744FF06F10046E4
:10193000044600E004462F494FF0000900205FFAFA
:1019400089F39D4206D900222B4B01F043FE09F199
:101950000109F4E73A46334601F060FB0F460646BC
:1019600001F0E6FF0A22014681464046FFF74BFFA1
:1019700004447DB3484601F08DFC02460B463046D8
:10198000394601F049FB06460F4640461B49FFF722
:10199000FDFE0444184B00223046394601F0F0FCAD
:1019A0000F46064601F09CFF0A220146814640464A
:1019B000FFF755FF0444484601F07CFC02460B4605
:1019C0003046394601F028FB013D15F0FF0506467B
:1019D0000F46DFD12046BDE8F88300BF50430A0818
:1019E000FFFFEF7F58430A08FFFFEF4154430A0807
:1019F000FFFFEFC10000E03F0000244087410A08DC
:101A00009DF800100091FFF74DBF37B59DF81810F5
:101A100005460091FFF746FF04462846FFF7D3FE30
:101A2000204403B030BD10B50446FFF750FD2046FA
:101A300010BD0000034800238360034A034900F0FF
:101A400005BE00BFA401002088000020271A0A0854
:101A5000704710B50446102100F0FDFD204610BD72
:101A600070B504460E46074B0025036040F80C5F36
:101A7000FFF7E4FA30462671FFF7CAFBA56020465F
:101A800070BD00BF64430A084FF6FF710079FFF78D
:101A900097BB0079FFF79CBB0079FFF7A1BB000063
:101AA000054A0023995C814202D00133082BF9D109
:101AB000581CC0B2704700BF6C430A08400830B5DC
:101AC000186000241868E5B2884206D90134082C51
:101AD00002D040081860F5E70725024B5B5D1370E4
:101AE00030BD00BF6C430A0870B5044602FB01F527
:101AF00088B006791422002103A802F076FA0B239D
:101B000003A930460022ADF80C30FFF791FB02AB81
:101B10000DF1070229460498FFF7D0FF20799DF8C0
:101B20000710FFF765FB029808B070BD38B5044692
:101B3000A56808464DB1FFF7B3FF012225FA00F171
:101B40002046BDE83840FFF7CFBF2079BDE83840D8
:101B5000FFF74EBB08B50079FFF752FBC0B208BDD6
:101B60000079FFF75DBB10B504460068FFF794FCF1
:101B7000204610BD10B50446006808B1FFF78CFC84
:101B800000232360A360636010BD38B504460D4692
:101B900000680131FFF788FC10B184E821000120C2
:101BA00038BD10B50368044613B143688B4207D2B1
:101BB0002046FFF7EAFF20B1A3680BB92268137033
:101BC000012010BD70B50E46114604461546FFF7BC
:101BD000E8FF18B92046FFF7CDFF09E02A46314655
:101BE000A560206802F0F6F92268A3680021D154AC
:101BF000204670BD38B5002304460360436083600F
:101C000003730D4639B1084602F020FA2946024610
:101C10002046FFF7D7FF204638BD00004FF6FF7281
:101C2000034B0020187058809A80FFF791BB00BFCB
:101C3000B4010020024B1A68024B1A60704700BFC3
:101C40001C000020BC01002010B40468246BA446D2
:101C500010BC604703689B6C1847808E7047028FEA
:101C6000C08E101A704713B502AB026803F8011D4D
:101C7000D46819460122A04702B010BD10B5036810
:101C800004461B69984728B1E38EE26B591CE18634
:101C9000D05C10BD4FF0FF3010BD10B50368044696
:101CA0001B69984718B1E38EE26BD05C10BD4FF012
:101CB000FF3010BD70470346084610B4D98EDC6B68
:101CC0001A8F0368521ADB68214410BC1847A0F130
:101CD0001000FFF7F0BFF7B5054610460F46164651
:101CE000FFF728FD0368DB689847B8B102213B463F
:101CF000112208460096FFF73BFA6861FFF730FAB9
:101D0000044630B10023EB862B872F836E640120BD
:101D100004E02B6828465B6A9847204603B0F0BD74
:101D200038B504464569FFF743FA854202D0606939
:101D3000FFF736FAFFF73CFA00236061E38623875A
:101D400038BD30B587B0BDF828400225ADF8085041
:101D50008DF80B40250ADC798DF80A508DF80C407F
:101D60009C798DF80D405C791B798DF80E408DF8CB
:101D70000F301023019302AB009340690023FFF75B
:101D800007FA07B030BD38B5C36B0546C08E13B136
:101D90002C6C241A00E01C46944228BF14461844B8
:101DA000224602F017F9EB8E20462344EB8638BD1D
:101DB00070B5036804461B690E461546984788B1FE
:101DC000236820461B6998478542A8BF0546E38ED5
:101DD000E16B2A461944304602F0FCF8E38E2B44AE
:101DE000E38601E04FF0FF35284670BDF0B50446AC
:101DF00089B0406C0D461646FFF79CFC0368DB6813
:101E0000984710B36769FFF7D3F987421DD0E5B152
:101E100008AB102243F8142D01930DEB020300933D
:101E20002946002332466069FFF7AAF9051E0EDB3A
:101E30009DF812209DF8133005A943EA0223A386DA
:101E400004F11C00FFF706FC01E04FF0FF352846C7
:101E500009B0F0BD2DE9F041064694B0406C0D4646
:101E60009046FFF767FC0368DB689847F8B128469F
:101E700002F0ECF8002481B20094736C03AA2846A7
:101E8000FFF75EFA90B903A908A8FFF7AFFB336824
:101E90000FAC9F6B074B09AD0E930FCD0FC42B6892
:101EA000424623700EA93046B84700E0204614B0E1
:101EB000BDE8F08130420A0870B504460646054B7D
:101EC00001F1200544F8043B0FCD0FC42B683046C8
:101ED000237070BD30420A08F0B594468E4606461F
:101EE000026889B0976A094A03AC1D1D02920FCDA2
:101EF0000FC42B6862462370BDF8383071460093DA
:101F0000304602ABB84709B0F0BD00BF30420A0806
:101F1000F0B50446036889B09F6A0D4B03AD00F12C
:101F20002006B0F836E002930FCE0FC53368724634
:101F30002B70A38EE16B0093204602ABB847054699
:101F400023682046DB699847284609B0F0BD00BFEA
:101F500030420A0838B54FF47A7383600B4B002582
:101F600003F108026C330260036145600446FFF729
:101F70001FF9606104F11C00FFF72AFB4FF40073A6
:101F8000E5862587E5632364204638BDA0430A081B
:101F900010B590F84830044623B1C06B10B1012150
:101FA00000F059FB0023E36384F848302364E386A0
:101FB000238710BD70B5044616460D46FFF7E8FFAF
:101FC0000023E66323643EB935B12846FEF767F87F
:101FD0000123E06384F84830E36B03B12564206C8F
:101FE000003018BF012070BDF8B51746C26B05461A
:101FF0000C461AB9016C09B1FFF7DCFF05F12006A8
:1020000004340FCC0FC6236833700023AF86EB86F1
:102010002B87286CF8BD70B5C26B04461AB9016CE9
:1020200009B1FFF7C7FFE16B0023E386238741B1C6
:10203000226C32B12068056B2046A8470028C8BF33
:10204000208723682046BDE870401B691847704709
:102050004174704708B5007CFFF72AF920EAE07068
:1020600008BD08B5007CFFF7FBF820EAE07008BD6A
:1020700008B5007CFFF704F930EA200028BF4FF0D4
:10208000FF3008BD08B5007CFFF7F2F830EA200009
:1020900028BF4FF0FF3008BD007CFFF7F9B810B53E
:1020A0000446142100F0D7FA204610BD70B5457CD7
:1020B00004460E4625B9007CFFF7FAF8002805DD36
:1020C0003146207CBDE87040FFF7C2B8284670BD9D
:1020D00010B5044608461146002262604FF47A7239
:1020E000A260054A20742260012262741A46FFF73A
:1020F000A7F8204610BD00BF18440A080023007C42
:10210000FFF7DEB80022FFF7F9BF007CFFF7C8B881
:1021100038B50C4D296811F0010411D12846FDF79E
:10212000C2FF68B1084A2146084B0948FFF7D0FFB3
:102130002846FDF7BDFF074A0749054800F086FA23
:10214000034838BD580200205C020020D401002062
:10215000C0010020880000204F200A084174704709
:10216000704708B50021007CFFF7CAF830EA20006C
:1021700028BF4FF0FF3008BD08B50121007CFFF7F4
:10218000BFF830EA200028BF4FF0FF3008BD08B587
:10219000007CFFF7ADF820EAE07008BD08B5007CD0
:1021A000FFF79EF820EAE07008BD007CFFF7B8B8A2
:1021B00010B50446142100F04EFA204610BD38B583
:1021C0000446007C0D46FFF793F8002801DC607C94
:1021D00028B12946207CFFF79BF820EAE07038BD43
:1021E00010B50446002363604FF47A73A360054B77
:1021F000084623600123217463741146FFF768F8D1
:10220000204610BD48440A08007CFFF791B8FFF74C
:10221000FBBF000010B504461422002101F0E5FECA
:10222000054B20466360054BE36040F201132381B8
:102230008123238210BD00BF65030020E40200203B
:1022400030B50E4D87B001A8FFF7E4FF296811F003
:10225000010410D12846FDF726FF60B101AA2146EE
:102260000748FFF7BDFF2846FDF722FF054A06494C
:10227000034800F0EBF9024807B030BDE00200204F
:10228000680400208800002061210A0810B5044677
:102290001422002101F0A9FE054B20466360054B86
:1022A000E36040F2011323818123238210BD00BF2C
:1022B000180500208004002010B50E4C86B001A83F
:1022C000FFF7E4FF2368DB0710D42046FDF7EBFEA1
:1022D00060B101AA01210848FFF782FF2046FDF7FF
:1022E000E7FE064A0649044800F0B0F9024806B085
:1022F00010BD00BF7C0400200405002088000020E1
:1023000061210A08002211464068FFF775B8F0B550
:10231000164689B011220F460446002103A801F099
:1023200064FE304601F092FE0025009581B27B6884
:1023300003AA3046FFF704F820B129462046FFF7EC
:1023400067F903E003A92046FFF750F9204609B0DA
:10235000F0BD002211464068FFF76EB8002211461A
:102360004068FFF779B800224068FFF76DB8002297
:1023700081F001014068FFF757B800231A4619465B
:102380004068FFF749B800231A4619464068FFF72E
:102390003BB8002211464068FFF71EB80022022118
:1023A0004068FFF721B800231A464068FFF70CB8D1
:1023B000024B04225A60024A1A6070471C06002031
:1023C00078440A0808B5144B33B1FFF739FF0368A6
:1023D0001B699847002816DC104B33B1FFF798FEB5
:1023E00003681B699847002810DC0D4B0BB1AFF355
:1023F00000800C4B7BB1FFF75FFF03681B699847B8
:10240000002806DC08BDAFF30080E5E7AFF30080ED
:10241000EBE7AFF3008008BD000000000000000003
:10242000000000000000000008B5FFF7CBFFFEF73A
:1024300015FE014B186008BD2C0600200248034A17
:102440000349121A01F0C6BD004002400440024098
:1024500090450A0807B5002300931A466FF07701EC
:10246000FEF798FF03B05DF804FB000007B5438852
:102470000A2B08D0502B09D1094B1B683BB103B084
:102480005DF804EB1847FFF7E5FF06E00023009333
:102490001A466FF07701FEF77DFF03B05DF804FB8D
:1024A0002406002038B5104C104D2368AB42104B69
:1024B0000CBF012200221A7002D0FFF7BFFF256077
:1024C000FEF7C4FD044601F099FD0A4B13B1204606
:1024D000AFF3008000210748FEF766FFBDE83840F3
:1024E00000210548FEF74CBF004002401E1C279A01
:1024F00028060020000000006D240A0810B50446DC
:102500000F48FFF72DFB28B1A4F10D03022B01D8D2
:10251000002010BD00F040F8FFF73DF808B1012C95
:10252000F6D9FFF7F5FDFFF7F0FD18B1A4F112039E
:10253000012BEDD9172C8CBF0020012010BD00BF4E
:1025400060060020172838B504460D460AD8FF2932
:1025500008D0FFF7D3FF28B129462046BDE8384010
:10256000FEF78CBD38BD38B504460D46FEF78EFD2E
:10257000FF2810D0062804D84D2323FA00F0C30703
:1025800009D42046FFF7BAFF28B129462046BDE806
:102590003840FEF783BD38BD38B50B4D296811F0C2
:1025A00001040FD12846FDF77EFD58B121460748AA
:1025B000FEF7C2FF2846FDF77BFD054A05490348A3
:1025C00000F044F8014838BD3006002034060020F1
:1025D00088000020E1140A0813B5084C00231A46AD
:1025E000194600932046FFF729F82046044A05497A
:1025F00002B0BDE8104000F029B800BF4806002036
:1026000088000020B7000A0870B50C4C0C4E0D4D28
:1026100000212046FFF724FA20460B4C324629467B
:1026200000F014F801212046FFF71AFA3246294635
:102630002046BDE8704000F009B800BF60060020E9
:1026400088000020511A0A08700600200B46014637
:10265000184601F0B1BCFDF724BD0000244B1A68F8
:10266000D0075CBF01221A60224B1A68D1075CBFF9
:1026700001221A60204B1A68D2075CBF01221A603F
:102680001E4B1A68D0075CBF01221A601C4B1A68E7
:10269000D1075CBF01221A601A4B1A68D2075CBFCF
:1026A00001221A60184B1A68D0075CBF01221A6019
:1026B000164B1A68D1075CBF01221A60144B1A68C6
:1026C000D2075CBF01221A60124B1A68D0075CBFA8
:1026D00001221A60104B1A68D1075CBF01221A60F0
:1026E0000E4B1A68D2075CBF01221A60704700BF08
:1026F000AC060020A8060020A4060020A0060020AA
:102700009C060020980600209406002090060020D9
:102710008C06002088060020840600208006002009
:10272000184B1A68D1075CBF01221A60164B1A6851
:10273000D2075CBF01221A60144B1A68D0075CBF35
:1027400001221A60124B1A68D1075CBF01221A607D
:10275000104B1A68D2075CBF01221A600E4B1A6830
:10276000D0075CBF01221A600C4B1A68D1075CBF0E
:1027700001221A600A4B1A68D2075CBF01221A6054
:10278000704700BFCC060020C8060020C406002009
:10279000C0060020BC060020B8060020B4060020B9
:1027A000B0060020184B1A68D1075CBF01221A60DE
:1027B000164B1A68D2075CBF01221A60144B1A68C4
:1027C000D0075CBF01221A60124B1A68D1075CBFA8
:1027D00001221A60104B1A68D2075CBF01221A60EE
:1027E0000E4B1A68D0075CBF01221A600C4B1A68A6
:1027F000D1075CBF01221A600A4B1A68D2075CBF7E
:1028000001221A60704700BFEC060020E806002095
:10281000E4060020E0060020DC060020D8060020A8
:10282000D4060020D0060020244B1A68D0075CBFD5
:1028300001221A60224B1A68D1075CBF01221A607C
:10284000204B1A68D2075CBF01221A601E4B1A681F
:10285000D0075CBF01221A601C4B1A68D1075CBF0D
:1028600001221A601A4B1A68D2075CBF01221A6053
:10287000184B1A68D0075CBF01221A60164B1A6801
:10288000D1075CBF01221A60144B1A68D2075CBFE3
:1028900001221A60124B1A68D0075CBF01221A602D
:1028A000104B1A68D1075CBF01221A600E4B1A68E0
:1028B000D2075CBF01221A60704700BF1C070020CE
:1028C0001807002014070020100700200C07002024
:1028D000080700200407002000070020FC06002055
:1028E000F8060020F4060020F006002000F05CB896
:1028F0002DE9F04F8BB004460D4600F01FF9284B30
:10290000064693F900A00F46BAF1FF3F12D02246C7
:102910002B462046294600F0CDFF834650B94FF0A4
:1029200000084FF000092046294642464B4600F079
:1029300099FF20B9304639460BB0BDE8F08F194AEF
:102940000123CDF820B0CDE90445CDE9024501923F
:102950000093BAF1000F15D042464B464046494617
:1029600000F038FEBAF1020FCDE906010CD1FEF7F6
:10297000A3FD21230360089B63B9DDE906010BB0C9
:10298000BDE8F08FCDE90689684600F03FFB0028DE
:10299000F1D1ECE7FEF790FD089B0360EDE700BF87
:1029A00020000020A4440A082DE9F84F54421443A3
:1029B00023F00049DFF880E149EAD4747445064603
:1029C0000D463ED84442044321F0004B4BEAD474F8
:1029D00074458A4635D803F1404404F58014144305
:1029E00044D09C1704F0020444EAD17450EA0B016D
:1029F0002FD052EA090133D0F14546D0F3452FD00C
:102A0000C9EB0B094FEA2959B9F13C0F34DC002B13
:102A100057DB3046294600F0DDFD00F0F3FA00F008
:102A200053F9012C4AD0022C3BD084B132A3D3E914
:102A3000002300F0F1FA32A3D3E9002300F0ECFA0E
:102A400005E01046194632462B4600F0E7FABDE88D
:102A5000F88F022C14D0032C0CD12D482D49F6E709
:102A6000BAF1000F2A480EDB2B49F0E7BDE8F84F1A
:102A700000F02AB92946EAE723A1D1E90001D0E70D
:102A800023482649E3E72649E1E7CB451FD0022C3E
:102A9000F6D0032CE1D0012C4FF0000020D00146ED
:102AA000D5E715A3D3E9002300F0B6FA02460B469A
:102AB00013A1D1E9000100F0AFFAC8E701F100412C
:102AC000C5E719F13C0FA4DA00200021A9E7022C88
:102AD0000ED0032C09D0012C0D4804D01149B6E7C3
:102AE0004FF00041B3E71049B1E710481049AEE795
:102AF0000E481049ABE700BF075C143326A6A13C83
:102B0000182D4454FB210940182D4454FB21F93F52
:102B1000182D4454FB2109C0FB21F93FFB2109403A
:102B2000FB21F9BFFB21E93FFB21E9BFD221337F24
:102B30007CD902C07CD902400000F07F2DE9F04131
:102B40005F4E0C46B6460E407645054600F098802E
:102B500000290B46024674DD5FEA215E7FD0AEF2AB
:102B6000FF3EC3F313031EF0010F43F4801363D140
:102B700000273E4603EBD2710B444FEA6E0E520023
:102B800016204FF4001174189C424FEAD2754FEA98
:102B9000420202DC1B1B66180F44013805EB43039D
:102BA0004FEA5101EFD1844620244FF0004109E063
:102BB00020D003EBD275013C4FEA51012B444FEA80
:102BC000420220D09E4201EB0C05F1DA002D05EB0C
:102BD000010C09DBB0469542A3EB060300D9013B8B
:102BE0004646521B0844E4E7BCF1000FF2DB06F155
:102BF0000108F0E7954217D8002D05EB010C49DBE1
:102C000098460023ECE7134310D140087B1003F1F2
:102C10007F5303F50013FA0703EB0E57394648BFFD
:102C200040F00040BDE8F0813346C2E7411C35D09A
:102C300000F001031844E8E75B0003EBD273520095
:102C400096E721F000460643ECD079BB8E46D30AC6
:102C5000AEF1150E5205002BF9D0DD0221D4002172
:102C600000E001465B00DC0201F10100F9D5C0F192
:102C7000200422FA04F42343C1EB0E0E82406EE7D7
:102C800002460B4600F07CFB2A46234600F0C6F9BC
:102C9000BDE8F081BCF1000FA9DAB1E701372046A9
:102CA000B4E720244FF0FF310020E2E702460B4654
:102CB00000F0B2F902460B4600F08CFCB2E700BF10
:102CC0000000F07F000000002DE9F84FC04B21F01C
:102CD00000469E420D468A4604460FDDBD4B9E428D
:102CE00000F3B28000F0AD80BB4BBC49BC4CBAF1E4
:102CF000000FC8BF19462046BDE8F88FB94B9E4269
:102D000000F3BC80A3F1DE739E4240F3A7804FF036
:102D1000FF3B22462B462046294600F031FB024667
:102D20000B468046894600F02BFB91A3D3E9002394
:102D300006460F4600F024FB8FA3D3E9002300F0E2
:102D40006DF932463B4600F01BFB8DA3D3E900230F
:102D500000F064F932463B4600F012FB8AA3D3E947
:102D6000002300F05BF932463B4600F009FB88A3E4
:102D7000D3E9002300F052F932463B4600F000FB55
:102D800085A3D3E9002300F049F942464B4600F001
:102D9000F7FA83A3D3E900238046894630463946B3
:102DA00000F0EEFA80A3D3E9002300F035F93246B3
:102DB0003B4600F0E5FA7EA3D3E9002300F02CF9AE
:102DC00032463B4600F0DCFA7BA3D3E9002300F057
:102DD00023F932463B4600F0D3FA79A3D3E9002326
:102DE00000F01AF932463B4600F0CAFABBF1FF3F49
:102DF00002460B4669D04046494600F00FF922468C
:102E00002B4600F0BDFA784E784B4FEACB0B5E4470
:102E10009B44DBE9002300F0FFF822462B4600F03C
:102E2000FBF802460B46D6E9000100F0F5F8BAF1CE
:102E3000000F0446BFF65FAF01F100412046BDE838
:102E4000F88F00283FF450AF224620462B462946F3
:102E500000F0E4F804462046BDE8F88F5AA3D3E911
:102E6000002300F0DBF80022614B00F019FD002880
:102E70003FF44DAF29462046BDE8F88F00F0C2F878
:102E80005C4B04469E420D462FDCA3F550239E4228
:102E900054DC02460B4600F0C1F80022544B00F00F
:102EA000BBF8002206460F464FF0804320462946D5
:102EB00000F0B4F802460B463046394600F08AFB73
:102EC0004FF0000B04460D4623E74046494600F00C
:102ED000A5F822462B4600F053FA02460B46204640
:102EE000294600F099F8044605E7434B9E421ADC58
:102EF0000022424B00F090F8002206460F463F4B5E
:102F00002046294600F03CFA0022394B00F086F8B2
:102F100002460B463046394600F05CFB4FF0020B90
:102F200004460D46F5E602460B460020344900F003
:102F300051FB4FF0030B04460D46EAE600222C4BF2
:102F400000F06AF8002206460F46294B2046294623
:102F500000F064F802460B463046394600F03AFB72
:102F60004FF0010B04460D46D3E600BFAFF30080DF
:102F700011DA22E33AAD903FEB0D76244B7BA93F6B
:102F8000513DD0A0660DB13F6E204CC5CD45B73F39
:102F9000FF8300922449C23F0D5555555555D53FE5
:102FA0002F6C6A2C44B4A2BF9AFDDE522DDEAD3FD9
:102FB0006D9A74AFF2B0B33F711623FEC671BC3F79
:102FC000C4EB98999999C93F9C7500883CE4377E79
:102FD000FFFF0F440000F07FFB21F93FFB21F9BF09
:102FE000182D4454FFFFDB3FD0440A08B0440A08C0
:102FF0000000F03FFFFFF23FFF7F03400000F83F7B
:103000000000F0BF21F00041704700BF0020704772
:1030100081F0004102E000BF83F0004330B54FEA89
:1030200041044FEA430594EA050F08BF90EA020FF6
:103030001FBF54EA000C55EA020C7FEA645C7FEA89
:10304000655C00F0E2804FEA5454D4EB5555B8BFAC
:103050006D420CDD2C4480EA020281EA030382EA1D
:10306000000083EA010180EA020281EA0303362DAF
:1030700088BF30BD11F0004F4FEA01314FF4801C82
:103080004CEA113102D0404261EB410113F0004F94
:103090004FEA03334CEA133302D0524263EB43034B
:1030A00094EA050F00F0A780A4F10104D5F1200EE9
:1030B0000DDB02FA0EFC22FA05F2801841F1000144
:1030C00003FA0EF2801843FA05F359410EE0A5F118
:1030D00020050EF1200E012A03FA0EFC28BF4CF049
:1030E000020C43FA05F3C01851EBE37101F00045FF
:1030F00007D54FF0000EDCF1000C7EEB00006EEB0C
:103100000101B1F5801F1BD3B1F5001F0CD3490895
:103110005FEA30004FEA3C0C04F101044FEA4452EC
:1031200012F5800F80F09A80BCF1004F08BF5FEA73
:10313000500C50F1000041EB045141EA050130BD53
:103140005FEA4C0C404141EB010111F4801FA4F1F6
:103150000104E9D191F0000F04BF01460020B1FA4B
:1031600081F308BF2033A3F10B03B3F120020CDA83
:103170000C3208DD02F1140CC2F10C0201FA0CF061
:1031800021FA02F10CE002F11402D8BFC2F1200CC6
:1031900001FA02F120FA0CFCDCBF41EA0C0190407C
:1031A000E41AA2BF01EB0451294330BD6FEA0404C5
:1031B0001F3C1CDA0C340EDC04F11404C4F12002B0
:1031C00020FA04F001FA02F340EA030021FA04F3C2
:1031D00045EA030130BDC4F10C04C4F1200220FA19
:1031E00002F001FA04F340EA0300294630BD21FA57
:1031F00004F0294630BD94F0000F83F4801306BF1D
:1032000081F480110134013D4EE77FEA645C18BF10
:103210007FEA655C29D094EA050F08BF90EA020FA7
:1032200005D054EA000C04BF1946104630BD91EA9F
:10323000030F1EBF0021002030BD5FEA545C05D1A2
:103240004000494128BF41F0004130BD14F58004E1
:103250003CBF01F5801130BD01F0004545F0FE4155
:1032600041F470014FF0000030BD7FEA645C1ABF8A
:10327000194610467FEA655C1CBF0B46024650EAC1
:10328000013406BF52EA033591EA030F41F40021ED
:1032900030BD00BF90F0000F04BF0021704730B573
:1032A0004FF4806404F132044FF000054FF0000148
:1032B00050E700BF90F0000F04BF0021704730B509
:1032C0004FF4806404F1320410F0004548BF4042DE
:1032D0004FF000013EE700BF42004FEAE2014FEA33
:1032E00031014FEA02701FBF12F07F4393F07F4F0E
:1032F00081F06051704792F0000F14BF93F07F4F40
:10330000704730B54FF4607401F0004521F0004182
:1033100020E700BF50EA010208BF704730B54FF008
:1033200000050AE050EA010208BF704730B511F00D
:10333000004502D5404261EB41014FF4806404F145
:1033400032045FEA915C3FF4DCAE4FF003025FEAC7
:10335000DC0C18BF03325FEADC0C18BF033202EB4F
:10336000DC02C2F1200300FA03FC20FA02F001FAA9
:1033700003FE40EA0E0021FA02F11444C1E600BF48
:1033800070B54FF0FF0C4CF4E06C1CEA11541DBFFB
:103390001CEA135594EA0C0F95EA0C0F00F0DEF8C6
:1033A0002C4481EA030621EA4C5123EA4C5350EAAB
:1033B000013518BF52EA033541F4801143F48013FC
:1033C00038D0A0FB02CE4FF00005E1FB02E506F08D
:1033D0000042E0FB03E54FF00006E1FB03569CF0E2
:1033E000000F18BF4EF0010EA4F1FF04B6F5007FE8
:1033F00064F5407404D25FEA4E0E6D4146EB06065A
:1034000042EAC62141EA55514FEAC52040EA5E50E2
:103410004FEACE2EB4F1FD0C88BFBCF5E06F1ED88C
:10342000BEF1004F08BF5FEA500E50F1000041EBC3
:10343000045170BD06F0004646EA010140EA020070
:1034400081EA0301B4EB5C04C2BFD4EB0C0541EA92
:10345000045170BD41F480114FF0000E013C00F3A7
:10346000AB8014F1360FDEBF002001F0004170BDCB
:10347000C4F10004203C35DA0C341BDC04F11404E4
:10348000C4F1200500FA05F320FA04F001FA05F270
:1034900040EA020001F0004221F0004110EBD3703D
:1034A00021FA04F642EB06015EEA430E08BF20EA69
:1034B000D37070BDC4F10C04C4F1200500FA04F30C
:1034C00020FA05F001FA04F240EA020001F000419E
:1034D00010EBD37041F100015EEA430E08BF20EA11
:1034E000D37070BDC4F1200500FA05F24EEA020E59
:1034F00020FA04F301FA05F243EA020321FA04F088
:1035000001F0004121FA04F220EA020000EBD3703E
:103510005EEA430E08BF20EAD37070BD94F0000F3E
:103520000FD101F00046400041EB010111F4801F72
:1035300008BF013CF7D041EA060195F0000F18BF23
:10354000704703F00046520043EB030313F4801F5F
:1035500008BF013DF7D043EA0603704794EA0C0F19
:103560000CEA135518BF95EA0C0F0CD050EA41062F
:1035700018BF52EA4306D1D181EA030101F00041AC
:103580004FF0000070BD50EA410606BF10461946D4
:1035900052EA430619D094EA0C0F02D150EA0136E0
:1035A00013D195EA0C0F05D152EA03361CBF104621
:1035B00019460AD181EA030101F0004141F0FE41C0
:1035C00041F470014FF0000070BD41F0FE4141F444
:1035D000780170BD70B54FF0FF0C4CF4E06C1CEA44
:1035E00011541DBF1CEA135594EA0C0F95EA0C0FF9
:1035F00000F0A7F8A4EB050481EA030E52EA0335B4
:103600004FEA013100F088804FEA03334FF08055D4
:1036100045EA131343EA12634FEA022245EA111501
:1036200045EA10654FEA00260EF000419D4208BFB2
:10363000964244F1FD0404F5407402D25B084FEA5F
:103640003202B61A65EB03055B084FEA32024FF40B
:1036500080104FF4002CB6EB020E75EB030E22BF68
:10366000B61A754640EA0C005B084FEA3202B6EB28
:10367000020E75EB030E22BFB61A754640EA5C00D7
:103680005B084FEA3202B6EB020E75EB030E22BF67
:10369000B61A754640EA9C005B084FEA3202B6EB68
:1036A000020E75EB030E22BFB61A754640EADC0027
:1036B00055EA060E18D04FEA051545EA16754FEA89
:1036C00006164FEAC30343EA52734FEAC2025FEAA7
:1036D0001C1CC0D111F4801F0BD141EA00014FF036
:1036E00000004FF0004CB6E711F4801F04BF014307
:1036F0000020B4F1FD0C88BFBCF5E06F3FF6AFAE23
:10370000B5EB030C04BFB6EB020C5FEA500C50F1B2
:10371000000041EB045170BD0EF0004E4EEA113135
:1037200014EB5C04C2BFD4EB0C0541EA045170BD3C
:1037300041F480114FF0000E013C90E645EA060E80
:103740008DE60CEA135594EA0C0F08BF95EA0C0FAE
:103750003FF43BAF94EA0C0F0AD150EA01347FF4F6
:1037600034AF95EA0C0F7FF425AF104619462CE7CD
:1037700095EA0C0F06D152EA03353FF4FDAE104630
:10378000194622E750EA410618BF52EA43067FF481
:10379000C5AE50EA41047FF40DAF52EA43057FF411
:1037A000EBAE12E74FF0FF3C06E000BF4FF0010C1C
:1037B00002E000BF4FF0010C4DF804CD4FEA410C80
:1037C0007FEA6C5C4FEA430C18BF7FEA6C5C1BD04D
:1037D00001B050EA410C0CBF52EA430C91EA030FCE
:1037E00002BF90EA020F0020704710F1000F91EA2B
:1037F000030F58BF994208BF90422CBFD8176FEAF9
:10380000E37040F0010070474FEA410C7FEA6C5CC6
:1038100002D150EA013C07D14FEA430C7FEA6C5CCD
:10382000D6D152EA033CD3D05DF8040B704700BFF9
:103830008446104662468C461946634600E000BF47
:1038400001B5FFF7B7FF002848BF10F1000F01BD19
:103850004DF808EDFFF7F4FF0CBF012000205DF8E4
:1038600008FB00BF4DF808EDFFF7EAFF34BF012069
:1038700000205DF808FB00BF4DF808EDFFF7E0FF02
:1038800094BF012000205DF808FB00BF4DF808ED53
:10389000FFF7CEFF94BF012000205DF808FB00BFBA
:1038A0004DF808EDFFF7C4FF34BF012000205DF89C
:1038B00008FB00BF4FEA410C7FEA6C5C02D150EA82
:1038C000013C0AD14FEA430C7FEA6C5C02D152EA18
:1038D000033C02D14FF0000070474FF001007047E9
:1038E0004FEA410212F5001215D211D56FF4787328
:1038F000B3EB625212D94FEAC12343F0004343EACB
:10390000505311F0004F23FA02F018BF40427047A5
:103910004FF00000704750EA013005D111F000402F
:1039200008BF6FF0004070474FF00000704700BFC5
:103930004A0011D212F5001211D20DD56FF478732E
:10394000B3EB62520ED44FEAC12343F0004343EA83
:10395000505323FA02F070474FF00000704750EACE
:10396000013002D14FF0FF3070474FF00000704738
:103970004FEA4102B2F1E04324BFB3F5001CDCF191
:10398000FE5C0DD901F0004C4FEAC0024CEA5070C9
:10399000B2F1004F40EB830008BF20F001007047F8
:1039A00011F0804F21D113F13872BCBF01F00040FB
:1039B000704741F480114FEA5252C2F11802C2F12D
:1039C000200C10FA0CF320FA02F018BF40F00100AE
:1039D0004FEAC1234FEAD32303FA0CFC40EA0C0060
:1039E00023FA02F34FEA4303CCE77FEA625307D19D
:1039F00050EA01331EBF4FF0FE4040F440007047D4
:103A000001F0004040F0FE4040F40000704700BF6D
:103A100080F0004002E000BF81F0004142001FBF83
:103A20005FEA410392EA030F7FEA226C7FEA236C8C
:103A30006AD04FEA1262D2EB1363C1BFD218414081
:103A400048404140B8BF5B42192B88BF704710F017
:103A5000004F40F4000020F07F4018BF404211F0BA
:103A6000004F41F4000121F07F4118BF494292EA22
:103A7000030F3FD0A2F1010241FA03FC10EB0C004E
:103A8000C3F1200301FA03F100F0004302D54942DB
:103A900060EB4000B0F5000F13D3B0F1807F06D388
:103AA00040084FEA310102F10102FE2A51D2B1F180
:103AB000004F40EBC25008BF20F0010040EA030075
:103AC0007047490040EB000010F4000FA2F1010222
:103AD000EDD1B0FA80FCACF1080CB2EB0C0200FAAC
:103AE0000CF0AABF00EBC25052421843BCBFD040FA
:103AF0001843704792F0000F81F4000106BF80F474
:103B000000000132013BB5E74FEA41037FEA226C36
:103B100018BF7FEA236C21D092EA030F04D092F001
:103B2000000F08BF0846704790EA010F1CBF002035
:103B3000704712F07F4F04D1400028BF40F0004092
:103B4000704712F100723CBF00F50000704700F0B2
:103B5000004343F0FE4040F4000070477FEA2262D9
:103B600016BF08467FEA23630146420206BF5FEAAA
:103B7000412390EA010F40F4800070474FF00003AA
:103B800004E000BF10F0004348BF40425FEA000C71
:103B900008BF704743F0964301464FF000001CE019
:103BA00050EA010208BF70474FF000030AE000BF6F
:103BB00050EA010208BF704711F0004302D54042AD
:103BC00061EB41015FEA010C02BF8446014600201F
:103BD00043F0B64308BFA3F18053A3F50003BCFA3A
:103BE0008CF2083AA3EBC25310DB01FA02FC6344E7
:103BF00000FA02FCC2F12002BCF1004F20FA02F2EE
:103C000043EB020008BF20F00100704702F12002E0
:103C100001FA02FCC2F1200250EA4C0021FA02F241
:103C200043EB020008BF20EADC7070474FF0FF0C46
:103C30001CEAD0521EBF1CEAD15392EA0C0F93EA41
:103C40000C0F6FD01A4480EA010C400218BF5FEAE3
:103C500041211ED04FF0006343EA501043EA511156
:103C6000A0FB01310CF00040B1F5000F3EBF490050
:103C700041EAD3715B0040EA010062F17F02FD2A54
:103C80001DD8B3F1004F40EBC25008BF20F0010037
:103C9000704790F0000F0CF0004C08BF49024CEA4E
:103CA000502040EA51207F3AC2BFD2F1FF0340EAE0
:103CB000C250704740F400004FF00003013A5DDC51
:103CC00012F1190FDCBF00F000407047C2F1000292
:103CD000410021FA02F1C2F1200200FA02FC5FEA7F
:103CE000310040F1000053EA4C0308BF20EADC70C9
:103CF000704792F0000F00F0004C02BF400010F43B
:103D0000000F013AF9D040EA0C0093F0000F01F0E7
:103D1000004C02BF490011F4000F013BF9D041EA09
:103D20000C018FE70CEAD15392EA0C0F18BF93EA0B
:103D30000C0F0AD030F0004C18BF31F0004CD8D135
:103D400080EA010000F00040704790F0000F17BFBC
:103D500090F0004F084691F0000F91F0004F14D002
:103D600092EA0C0F01D142020FD193EA0C0F03D15A
:103D70004B0218BF084608D180EA010000F000405D
:103D800040F0FE4040F40000704740F0FE4040F438
:103D9000400070474FF0FF0C1CEAD0521EBF1CEAD7
:103DA000D15392EA0C0F93EA0C0F69D0A2EB0302F5
:103DB00080EA010C49024FEA402037D04FF080538F
:103DC00043EA111143EA10130CF000408B4238BF54
:103DD0005B0042F17D024FF4000C8B4224BF5B1A62
:103DE00040EA0C00B3EB510F24BFA3EB510340EAB0
:103DF0005C00B3EB910F24BFA3EB910340EA9C005E
:103E0000B3EBD10F24BFA3EBD10340EADC001B01CD
:103E100018BF5FEA1C1CE0D1FD2A3FF650AF8B4271
:103E200040EBC25008BF20F0010070470CF0004C7E
:103E30004CEA50207F32C2BFD2F1FF0340EAC250A9
:103E4000704740F400004FF00003013A37E792F06A
:103E5000000F00F0004C02BF400010F4000F013AC8
:103E6000F9D040EA0C0093F0000F01F0004C02BFC3
:103E7000490011F4000F013BF9D041EA0C0195E72C
:103E80000CEAD15392EA0C0F08D142027FF47DAFC5
:103E900093EA0C0F7FF470AF084676E793EA0C0FB5
:103EA00004D14B023FF44CAF08466EE730F0004CB3
:103EB00018BF31F0004CCAD130F000427FF45CAF43
:103EC00031F000437FF43CAF5FE700BF4FF0FF3CB1
:103ED00006E000BF4FF0010C02E000BF4FF0010C04
:103EE0004DF804CD4FEA40024FEA41037FEA226CCD
:103EF00018BF7FEA236C11D001B052EA530C18BFEF
:103F000090EA010F58BFB2EB030088BFC81738BF53
:103F10006FEAE17018BF40F0010070477FEA226C41
:103F200002D15FEA402C05D17FEA236CE4D15FEA3D
:103F3000412CE1D05DF8040B704700BF8446084671
:103F40006146FFE70FB5FFF7C9FF002848BF10F132
:103F5000000F0FBD4DF808EDFFF7F4FF0CBF012077
:103F600000205DF808FB00BF4DF808EDFFF7EAFF01
:103F700034BF012000205DF808FB00BF4DF808EDBC
:103F8000FFF7E0FF94BF012000205DF808FB00BFB1
:103F90004DF808EDFFF7D2FF94BF012000205DF837
:103FA00008FB00BF4DF808EDFFF7C8FF34BF012044
:103FB00000205DF808FB00BF10B5054C13462CB17E
:103FC0000A4601460220AFF3008010BD204610BD16
:103FD0000000000010B5431E0A44914204D011F8BD
:103FE000014B03F8014FF8E710BD0346024493422A
:103FF00002D003F8011BFAE77047000038B5124BF6
:1040000005461C68A36BD3B91820FDF73DFA43F2AF
:104010000E33A06303804AF6CD33438041F234234C
:1040200083804EF26D63C3804DF6EC6303810523FC
:1040300043810B23838101220023C0E90423A36B66
:1040400000221D615A6138BD84000020034613F828
:10405000012B002AFBD1181A0138704721000A08E9
:1040600061000A088D000A0891000A08000000009B
:1040700048656C6C6F005365747570004851526FE1
:10408000757465725F5055424C49534800466169EA
:104090006C656420746F20636F6D6D756E6963610C
:1040A00074652077697468204C534D394453312E20
:1040B00000446F75626C652D636865636B2077697A
:1040C00072696E672E0044656661756C7420736555
:1040D0007474696E677320696E20746869732073E5
:1040E0006B657463682077696C6C20776F726B20E6
:1040F000666F7220616E206F7574206F6620746821
:104100006520626F78204C534D3944533120427200
:1041100065616B6F75742C20627574206D617920F8
:104120006E65656420746F206265206D6F646966DA
:104130006965642069662074686520626F617264D5
:10414000206A756D70657273206172652E003D3D49
:104150003D3D3D3D3D3D3D3D3D3D3D3D3D3D3D3D8F
:1041600048454144494E472043414C4942524154FD
:1041700045440063616C6962726174696E672073A3
:10418000656E736F722E2E2E00646F6E6500726501
:104190006620583A200020726566593A2000207245
:1041A00065665A3A2000473A20002C2000206465BA
:1041B000672F7300413A20002067004D3A2000200D
:1041C00067617573730050697463682C20526F6C5B
:1041D0006C3A200048656164696E673A20006F722E
:1041E0006967696E202C207069746368482C20729E
:1041F0006F6C6C483A200020000000400000006016
:104200000000000000000000E1140A082B150A0855
:1042100003150A08E3140A080B150A0813150A08FF
:104220001B150A0823150A08000000000000000002
:104230009F150A08B7000A080D010A086261756433
:104240000053657269616C00555342536572696130
:104250006C31007479706500706172616D00636D1E
:104260006400696400686E64007374726D0066694E
:104270006C74006C766C0061646448616E646C659B
:10428000720072656D6F766548616E646C65720070
:10429000656E756D48616E646C657273004A534F4C
:1042A0004E53747265616D4C6F6748616E646C65E6
:1042B000720061707000253031307520005D200083
:1042C00025640028293A2000205B00636F64652084
:1042D0003D200025690064657461696C73203D2090
:1042E000000D0A006C6E00666E00636F646500640A
:1042F000657461696C006E6F6E65007472616365F0
:1043000000696E666F007761726E006572726F721F
:104310000070616E696300616C6C00000000000059
:10432000000000007D160A0887160A0891160A0880
:104330009B160A08A5160A08B1160A08BD160A082F
:10434000C9160A08D1160A08DB160A08E5160A0873
:104350006E616E006F766600696E66000000000098
:1043600000000000511A0A08531A0A080008101821
:10437000202830385A00252B3033643A25303275E6
:104380000025592D256D2D25645425483A254D3A93
:104390002553257A0061736374696D650000000020
:1043A0000000000000000000B9000A081B010A0814
:1043B000671C0A08871D0A085F1C0A087D1C0A087A
:1043C0009B1C0A08B51C0A08D71C0A08211D0A08EC
:1043D000431D0A08D91E0A08ED1D0A08491C0A08CF
:1043E000E91F0A08551E0A08111F0A0817200A08A3
:1043F000B11D0A08551C0A08B91E0A085B1C0A08E8
:10440000B71C0A08F0FFFFFF00000000CF1C0A08DD
:1044100000000000000000004F200A089F200A084A
:10442000AD200A0861170A0863200A0885200A08D7
:1044300071200A0899200A0851200A0855200A0804
:10444000000000000000000061210A08B1210A08F4
:10445000BF210A0861170A089D210A0863210A087A
:1044600079210A08AB210A088F210A085D210A0870
:104470000000000000000000A7230A089D230A088E
:1044800093230A0805230A0887230A087B230A08BE
:104490006F230A0867230A085D230A0853230A08C2
:1044A0000F230A08737172740000000000000000FE
:1044B000E2652F227F2B7A3C075C143326A6813CD1
:1044C000BDCBF07A8807703C075C143326A6913C7C
:1044D0004FBB610567ACDD3F182D4454FB21E93F1C
:1044E0009BF681D20B73EF3F182D4454FB21F93F0B
:1044F00000000000000000000000000000000000BC
:1045000000000000000000000000000000000000AB
:10451000000000000000000000000000000000009B
:10452000000000000000000000000000000000008B
:10453000000000000000000000000000000000007B
:10454000000000000000000000000000000000006B
:10455000430000009D070A08D70F0A0837100A0811
:104560006D160A084D170A08351A0A081D1C0A0894
:10457000351C0A08B1230A08D9250A0809260A08A1
:104580005D260A0821270A08A5270A0829280A08FB
:044590000000000027
:1045940007000000B822000001000000F7CC123927
:1045A400240B98399F71E139240B183A95430A0872
:1045B4000100000000000000F0440A0810450A0849
:1045C40030450A0800000000000000000000000060
:1045D4000000000050450A08000000000000000030
:1045E40000000000000000000000000000000000C7
:1045F40000000000000000000000000000000000B7
:1046040000000000000000000000000000000000A6
:0846140000000000240000205A
:10461C00FFFFFFFF00000102030405060708090A5B
:10462C000B0C0D0E0F101112131415161718191A56
:08463C001B1C1D1E1F2028009D
:04464400785634125E
:04000005080A0020C5
:00000001FF
