:02000004080AE8
:1000000000000A08803F0A080000060006000501FB
:08001000040279050000000064
:04001800F0390A08A9
:10001C0009480A4908B5884205D0094A824202D0EB
:10002C00121A03F09BFC0748074A0021121A03F02E
:10003C00A0FC064808BD00BF00000020B43E0A0822
:10004C00A4000020A40000206807002068070020FE
:10005C0070B502F0F7FA074B074C1E46E41AA408D9
:10006C000025A54204D056F8253098470135F8E70D
:10007C0070BD00BF683E0A08A43E0A0800F09CB898
:10008C0008B500F0FFFABDE8084002F09DBA01F097
:10009C00E3BA01F0E9BA0078B0FA80F04009704791
:1000AC00012303707047704710B50446054B03607D
:1000BC006433036101F006FF204602F03BF8204652
:1000CC0010BD00BF083D0A0810B50446182102F007
:1000DC00B8FB204610BD10B50446FFF7E5FF2046DF
:1000EC004C2102F0AEFB204610BD2DE9F041164626
:1000FC001F4604460D461FFA81F84046012102F0C6
:10010C00F1FA0121B0B202F0EDFA0121B8B202F01D
:10011C00E9FA0021404602F0F6FA27606660A56015
:10012C00BDE8F08138B51B4C1E23A3706B231A4A13
:10013C0063701A4B01251A60194B4FF07E52204602
:10014C0025701A6000F00DFE78B902F049F91549D6
:10015C0001F025FC02F044F9134901F020FC02F0F7
:10016C003FF9124901F01BFCFEE702F039F9104986
:10017C0001F015FC2946204600F0F8FE29462046E1
:10018C0000F0C0FF02F02CF9BDE83840094901F03D
:10019C0006BC00BFA80000200000A04040010020C9
:1001AC00B0010020043A0A08283A0A083D3A0A0825
:1001BC00C53A0A08D93A0A0870B53B4B96B018886C
:1001CC00012102F08FFA394B394A3A491B681268FF
:1001DC0009683948FFF789FF384B394A39491B6898
:1001EC00126809683848FFF780FF02F0F9F802F04E
:1001FC00DEF80028F9D0354C00231A461946606801
:10020C0001F0CAF9002211466068304D01F0DCF9AA
:10021C000028F7D002F0E4F82D4901F0C0FB2D4B7B
:10022C00002219882C4801F028FE002319462B4A7D
:10023C00686801F001FA02F0D3F806460024402267
:10024C00002106A803F095FB402306AA2146009442
:10025C00686801F0F9F906A902A801F09DFD029960
:10026C00304601F09CFB02A801F04FFD02F0B8F8FB
:10027C00224606462146686801F086F9811C06A8CC
:10028C0001F094FA06A9304601F093FB02F0A8F8AD
:10029C004FF4165102F084F8FFF744FF104911484F
:1002AC0000F08CFA16B070BD24000020280000204D
:1002BC000400002020000020480100200C00002039
:1002CC001000002018000020D4010020640600203B
:1002DC00EE3A0A080800002054010020F43A0A08FB
:1002EC0029070A08A0010020442813D002D842286C
:1002FC0014D070474C2802D053280FD070470D4BA8
:10030C004FF4FA721A600C4B4FF47A721A604FF475
:10031C00FA6200E00022094B1A607047054A4FF45C
:10032C00FA631360044A4FF47A711160034A136044
:10033C00704700BF00000020140000201C000020AB
:10034C002DE9F0410546174698460E4602F048F84E
:10035C000F4901F024FB0121288802F0D4F9002474
:10036C0044450FDA0121A88802F0CDF9304600F09F
:10037C003DFF0021A88802F0C6F9304600F036FF98
:10038C000134EDE73846BDE8F04101F07DB900BF1E
:10039C00053B0A082DE9F0410546174698460E46DE
:1003AC0002F01EF80F4901F0FAFA0021288802F039
:1003BC00AAF9002444450FDA0121A88802F0A3F918
:1003CC00304600F013FF0021A88802F09CF930465B
:1003DC0000F00CFF0134EDE73846BDE8F04101F0C8
:1003EC0053B900BF153B0A082DE9F84304460F46E4
:1003FC0016469846DDF8209001F0F2FF154901F001
:10040C00CEFA0121208802F07EF90121388802F011
:10041C007AF900254D4517DA0121A08802F073F90D
:10042C000121B88802F06FF9304600F0DFFE0021A0
:10043C00A08802F068F90021208902F064F93046A6
:10044C0000F0D4FE0135E5E74046BDE8F84301F085
:10045C001BB900BF243B0A082DE9F84304460F469C
:10046C0016469846DDF8209001F0BAFF154901F0C8
:10047C0096FA0021208802F046F90021388802F013
:10048C0042F900254D4517DA0121A08802F03BF90D
:10049C000121B88802F037F9304600F0A7FE0021A0
:1004AC00A08802F030F90021208902F02CF93046A6
:1004BC0000F09CFE0135E5E74046BDE8F84301F04D
:1004CC00E3B800BF333B0A08334A2DE9F84F904696
:1004DC00324C334D334E0023DFF8CCA0DFF8D8B0CC
:1004EC0023602B60336013604FF00A092E4800F034
:1004FC0010FC10B12C4800F0D7FCBAF92E102A4889
:10050C0000F0B3F9DBF8001002F09AFF03F0F2F9F7
:10051C000028B8BF404203F049F8216802F092FF6E
:10052C00BAF930102060204800F09FF91F4B196871
:10053C0002F086FF03F0DEF90028B8BF404203F05A
:10054C0035F8296802F07EFFBAF932102860164897
:10055C0000F08BF9164B196802F072FF03F0CAF920
:10056C000028B8BF404203F021F8316802F06AFF5E
:10057C00074630602968206802F064FF394602F0B3
:10058C0061FF0C4903F01AF9B9F10109C8F8000030
:10059C00ACD1BDE8F88F00BFAC0100203C010020BD
:1005AC00D001002044010020A80000202C010020D4
:1005BC003001002000004040CC01002037B501F094
:1005CC000FFF274901F0D2F901F00AFF254B054630
:1005DC00186802F0E5FB022402460B4600942846FC
:1005EC0001F0EEFA01F0FCFE1F4901F0BFF901F039
:1005FC00F7FE1E4B0546186802F0D2FB009402462B
:10060C000B46284601F0DCFA01F0EAFE184901F02D
:10061C00ADF901F0E5FE174B0546186802F0C0FB7A
:10062C00009402460B46284601F0CAFA01F0D8FEA7
:10063C00114901F09BF901F0D3FE104B05461868E7
:10064C0002F0AEFB009402460B46284601F0B8FAC5
:10065C0001F0C6FE0A4903B0BDE8304001F09FB975
:10066C00413B0A083C010020453B0A08D001002010
:10067C00493B0A08440100204D3B0A08AC0100200C
:10068C00203C0A082DE9F341FFF71EFFFFF796FF08
:10069C001C4B1D4E1D4D1E4C1E4F1888FF2102F089
:1006AC004BF8DFF874804C20FFF71EFE33682A6885
:1006BC0021683846FFF744FE33682A6821684046B3
:1006CC00FFF73EFE33682A6821683846FFF762FE62
:1006DC0033682A6821684046FFF75CFE336822685D
:1006EC00009341462B683846FFF77EFE336822683C
:1006FC00009341462B683846FFF7AEFE02B0BDE8CA
:10070C00F08100BF240000201C00002014000020F9
:10071C000000002048010020D4010020FFF74EBF4C
:10072C0038B500F073FD0021012000F009FF134BD8
:10073C0000221A705A804FF6FF72114C9A800220D8
:10074C0000F0EEFE0F4D204601F022F820460E4C34
:10075C002A460E4902F070F8204601F0CDFC2A46DC
:10076C000B49204602F068F80A4800F077F8BDE81B
:10077C0038404FF47A71084800F016B83401002064
:10078C00B4010020A400002054010020B3000A088A
:10079C00B5000A08A8000020A001002010B50446EE
:1007AC0000F02CFD206010BD38B504460D46FFF757
:1007BC00F5FF00236560A360204638BD816070475B
:1007CC0000F024BD30B50224017083700621F5239E
:1007DC00C47504244270C380012200230172017687
:1007EC0080F8204003210724027142748274C27481
:1007FC000275827542768276C276C27780F8214085
:10080C0043728372C372037343738373C37303742E
:10081C0001774377837780F82230044680F82310E1
:10082C0080F82720024680F8241080F8253080F8C4
:10083C00263000250139E563A564656502F10202E5
:10084C00A2F85E30A2F86430A2F86A3004F1040415
:10085C00F0D14FF0000380F8803030BD10B51E236E
:10086C006B220121FFF7AEFF10BD10B50446084600
:10087C0002F09CFEA16F02F0EDFE10BD10B5044617
:10088C00C08802F08FFE4FF0605102F0E3FE60670B
:10089C0010BD10B50446C07D02F084FE4FF06051CF
:1008AC0002F0D8FEA06710BD90F82030043B0C2B52
:1008BC0014D8DFE803F0071313130A1313130D13E3
:1008CC0013131000064B1B6807E0054B5B6804E034
:1008DC00034B9B6801E0024BDB68C367704700BFAA
:1008EC002C000020C388F52B07D0B3F5FA7F04D079
:1008FC00B3F5FA6F1CBFF523C380C27D102A03D851
:10090C00084BD340DA0701D40223C37590F820209A
:10091C00102A03D8044BD340DB0702D4042380F8FD
:10092C0020307047140101001011010010B504466D
:10093C00012190F8730001F0D5FE94F873000121A9
:10094C0001F0E1FE94F87200012101F0CBFE94F865
:10095C0072000A4C012101F0D6FE204601F066F926
:10096C002046082101F0B4F92046012101F063F979
:10097C002046BDE81040002101F060B9A806002017
:10098C00F8B50C4617461E46094D2046002101F0CD
:10099C00BAFE07F03F01284601F0AEF93146284671
:1009AC0001F0AAF92046BDE8F840012101F0ABBEE8
:1009BC00A8060020F8B51E4690F8723002F03F02EF
:1009CC008B429DF8187042F0800503D1012F88BF2F
:1009DC0045F040058CB22046002101F094FE2946DA
:1009EC00094801F089F93546AB1B9F4206DD002111
:1009FC00054801F081F905F8010BF5E720460121C6
:100A0C0001F081FE0120F8BDA80600201FB50123CE
:100A1C0000930DF10F03FFF7CDFF9DF80F0005B00C
:100A2C005DF804FB08B501F0ADFEBDE8084000F030
:100A3C0075BE70B50E4615461C4601F0A3FE314638
:100A4C0000F07EFE01F09EFE036829469B689847E5
:100A5C0001F098FE036821469A68904701F092FED7
:100A6C00BDE8704000F074BE1346027810B4012A41
:100A7C0005D10A4610BC90F87310FFF7DABF2AB9FB
:100A8C000A4610BC90F87310FFF77ABF10BC704781
:100A9C0010B50379044613B1037A5B01DBB2E2882B
:100AAC00B2F5FA7F05D0B2F5FA6F04D143F0180312
:100ABC0001E043F00803627A102102F003021A43AA
:100ACC002046FFF7D1FF002211212046FFF7CCFF73
:100ADC00A37A002BE37A14BF802200222BB1237B54
:100AEC0003F00F0343F040031A4312212046FFF793
:100AFC00BBFFE37C002BA37C0CBF0022202213B194
:100B0C0042F01002D2B2637C0BB142F00802237D9A
:100B1C000BB142F002021E212046FFF7A5FF637BBA
:100B2C00002BA37B0CBF0022202213B142F0100239
:100B3C00D2B2E37B0BB142F008022046BDE8104074
:100B4C001321FFF791BF10B5C37E0446002B837EA3
:100B5C000CBF0022202213B142F01002D2B2637EED
:100B6C000BB142F008021F212046FFF77DFFA27D4A
:100B7C0012B1227E5201D2B2E37D082B06D0102B8B
:100B8C0007D0042B07D142F0100204E042F0180207
:100B9C0001E042F0080294F91C302021002BA2BF86
:100BAC0003F003031A4342F004022046FFF75CFFF4
:100BBC00627F2AB1A27F520102F0600242F08002F1
:100BCC002046BDE810402121FFF74EBF13460278A6
:100BDC0010B4012A05D10A4610BC90F87210FFF728
:100BEC0028BF2AB90A4610BC90F87210FFF7C8BE8D
:100BFC0010BC7047022970B506460C46154610D835
:100C0C0049000531D2B2C9B2FFF7E0FFE11C49003F
:100C1C00C5F307223046BDE8704001F0FE01FFF736
:100C2C00D5BF70BD10B590F822300446002B90F85B
:100C3C00233008BF00224FEA431303F0600190F801
:100C4C00213018BF80229B0003F01C030B431A4376
:100C5C002021FFF7BBFF94F820302046083BDBB285
:100C6C00082B96BF124A0022D25C2121FFF7AEFF5F
:100C7C0094F825302046002B94F826300CBF002227
:100C8C00202203F003031A432221FFF79FFF94F85D
:100C9C0024202046920002F00C022321FFF796FF3D
:100CAC002046BDE8104000222421FFF78FBF00BF73
:100CBC00533B0A0838B50C46154601F063FD214636
:100CCC0000F03EFD01F05EFD036829469B689847E5
:100CDC0001F058FD002100F037FD01F053FD012219
:100CEC00214600F02AFD01F04DFD03685B69984731
:100CFC00C0B238BD0A460178012903D190F87310AF
:100D0C00FFF7D8BF19B990F87310FFF77FBE00201A
:100D1C00704708B52721FFF7EDFF00F0010008BD73
:100D2C0038B50D4623210446FFF7E4FF1DB140F012
:100D3C000202D2B201E000F0FD022046BDE83840CC
:100D4C002321FFF791BE0A460178012903D190F8BF
:100D5C007210FFF7AFBF19B990F87210FFF756BEBB
:100D6C00704738B50446437880F87330837880F840
:100D7C007230FFF7B7FDFFF781FD2046FFF794FDBA
:100D8C002046FFF786FD2378012B03D12046FFF781
:100D9C0049FE03E013B92046FFF7C8FD0F2120469A
:100DAC00FFF7D1FF0F2105462046FFF7A3FF46F6BC
:100DBC003D0345EA002005B29D420AD12046FFF7CB
:100DCC0067FE2046FFF7BFFE2046FFF72BFF2846A5
:100DDC0038BD002038BD10B50C462721FFF7B3FFF6
:100DEC000121A14008402041C0B210BD2DE9F041C5
:100DFC0090460C461D469DF8186000F0FFF907461A
:100E0C0001F0C0FC214600F09BFC01F0BBFC036828
:100E1C0048F080019B68984701F0B4FC002100F079
:100E2C0093FC01F0AFFC2146324600F086FC002416
:100E3C0007F57A77B4421ADA01F0A4FC03681B694F
:100E4C00984740B101F09EFC036804F101085B690E
:100E5C0098472855444600F0D1F9B842EAD92C44B9
:100E6C00FF23621B964205DD04F8013BF9E70120E4
:100E7C00BDE8F0810020BDE8F08137B50D46017862
:100E8C00012907D190F87310009313462A46FFF7F7
:100E9C00ADFF07E031B990F87310009313462A4662
:100EAC00FFF788FD03B030BD37B506236A4628210D
:100EBC000446FFF7E2FF30B39DF800309DF80110B7
:100ECC009DF8032043EA01219DF802309DF805505E
:100EDC0043EA02229DF8043009B243EA052394F850
:100EEC00805012B21BB2E185228663865DB1B4F8E4
:100EFC006650491BE185B4F86810521A2286B4F882
:100F0C006A209B1A638603B030BD37B506236A4648
:100F1C0018210446FFF7B1FF30B39DF800309DF85F
:100F2C0001109DF8032043EA01219DF802309DF841
:100F3C00055043EA02229DF8043009B243EA052326
:100F4C0094F8805012B21BB221856285A3855DB1E5
:100F5C00B4F86050491B2185B4F86210521A6285AE
:100F6C00B4F864209B1AA38503B030BD2DE9F04F73
:100F7C0004468BB000230191012104930593069341
:100F8C00079308930993FFF7CBFE3F222E212046AF
:100F9C00FFF76AFD2F212046FFF7ACFE00F03F065D
:100FAC001E2EF7D90027B74232DA2046FFF7ADFFE5
:100FBC00079AB4F92830204613440793089AB4F9D9
:100FCC002A30013713440893099AB4F92C3013448E
:100FDC000993FFF769FF049AB4F92E30A06F1344FC
:100FEC000493059AB4F93030B4F932501344059394
:100FFC0001F0D6FE02460B460020264902F04EF8C0
:10100C0002F0D2F900B22D1A069805440695CAE7EB
:10101C00D4F874B0D4F878A004F15E0204F1380866
:10102C0004F1640704F14409002507A951F82500CF
:10103C0090FBF6F000B222F8020F0292039202F03B
:10104C00B5FA594602F006FB04AB48F8040F53F806
:10105C002500013590FBF6F000B227F8020F02F0E4
:10106C00A5FA514602F0F6FA032D49F8040F029A3C
:10107C00DBD100212046FFF753FE00222E21204613
:10108C00FFF7F2FC019B13B1012384F880300BB005
:10109C00BDE8F08F0000F03F37B50D46017801290F
:1010AC0007D190F87210009313462A46FFF79EFE64
:1010BC0007E031B990F87210009313462A46FFF7F7
:1010CC0079FC03B030BD13B506236A4628210446CB
:1010DC00FFF7E2FFA0B19DF801209DF8003043EA34
:1010EC000223A3869DF803209DF8023043EA0223D5
:1010FC00E3869DF805209DF8043043EA02232387FC
:10110C0002B010BD2DE9F04F05468A4687B000238A
:10111C00ADF80030ADF80230ADF80430ADF8083061
:10112C00ADF80A30ADF80C30802402AF032128460C
:10113C00FFF751FE0028F9D02846FFF7C4FFAB8E0D
:10114C00ADF81030EB8EADF812302B8FADF81430AB
:10115C00002304AA32F9132037F9131091423DF9F8
:10116C001310B8BF27F813209142C8BF2DF81320D5
:10117C000133032BEDD1013CD8D105F16A0905F1FE
:10118C0050084FF0020B3DF9143037F914601E442F
:10119C0096FBFBF636B229F8026F304602F006FADF
:1011AC000146E86F02F056FA48F8040FBAF1000F46
:1011BC0004D03246E1B22846FFF71CFD0134032C63
:1011CC00E1D107B0BDE8F08F00F020B808B5024BB4
:1011DC001B681B6B019308BDD001060808B5024BB8
:1011EC001B685B68019308BD9C01060808B5024B9F
:1011FC001B68DB68019308BD9C01060808B5024B0F
:10120C001B685B69019308BD9C01060808B5024B7D
:10121C001B681B68019308BDB001060808B5024B9A
:10122C001B685B68019308BDB001060808B5024B4A
:10123C001B689B68019308BDB001060808B5024BFA
:10124C001B68DB68019308BDB001060808B5024BAA
:10125C001B681B69019308BDB001060808B5024B59
:10126C001B689B6A019308BDB001060808B5024BC8
:10127C001B689B6F019308BDB001060808B5024BB3
:10128C001B68DB6C019308BDAC01060808B5024B6A
:10129C001B685B6D019308BDAC01060808B5024BD9
:1012AC001B689B6D019308BDAC01060808B5024B89
:1012BC001B68DB6D019308BDAC01060808B5024B39
:1012CC001B681B6E019308BDAC01060808B5024BE8
:1012DC001B685B6E019308BDAC01060808B5024B98
:1012EC001B689B6E019308BDAC01060808B5024B48
:1012FC001B68DB6E019308BDAC01060808B5024BF8
:10130C001B681B6F019308BDAC01060808B5024BA6
:10131C001B685B6F019308BDAC01060808B5034B55
:10132C001B68D3F88030019308BD0000AC0106089F
:10133C0008B5024B1B685B68019308BDBC0106082D
:10134C0008B5024B1B689B68019308BDBC010608DD
:10135C0008B5024B1B685B69019308BDBC0106080C
:10136C0008B5024B1B68DB69019308BDBC0106087C
:10137C0008B5024B1B681B6A019308BDBC0106082B
:10138C0008B5024B1B681B6B019308BDBC0106081A
:10139C0008B5024B1B681B68019308BDB401060815
:1013AC0008B5024B1B689B68019308BDB401060885
:1013BC0008B5024B1B68DB68019308BDB401060835
:1013CC0008B5024B1B681B69019308BDB4010608E4
:1013DC0008B5024B1B685B69019308BDB401060894
:1013EC0008B5024B1B68DB69019308BDB401060804
:1013FC0008B5024B1B681B6A019308BDB4010608B3
:10140C0008B5024B1B685B6A019308BDB401060862
:10141C0008B5024B1B689B69019308BDC401060803
:10142C0008B5024B1B685B6A019308BDC401060832
:10143C0008B5024B1B689B6A019308BDC4010608E2
:10144C0008B5024B1B68DB6A019308BDC401060892
:10145C0008B5024B1B681B6B019308BDC401060841
:10146C0008B5024B1B685B6B019308BDC4010608F1
:10147C0008B5024B1B689B6B019308BDC4010608A1
:10148C0008B5024B1B681B6C019308BDC401060810
:10149C0008B5024B1B681B68019308BDD8010608F0
:1014AC0008B5024B1B685B68019308BDD8010608A0
:1014BC0008B5024B1B681B69019308BDD8010608CF
:1014CC0008B5024B1B685B69019308BDD80106087F
:1014DC0008B5024B1B689B69019308BDD80106082F
:1014EC0008B5024B1B68DB69019308BDD8010608DF
:1014FC0008B5024B1B681B6A019308BDD80106088E
:10150C0008B5024B1B685B6A019308BDD80106083D
:10151C0008B5024B1B689B6C019308BDC001060803
:10152C0008B5024B1B685B68019308BDA401060853
:10153C0008B5024B1B685B69019308BDA401060842
:10154C0008B5024B1B68DB6A019308BDA4010608B1
:10155C0008B5034B1B68D3F89030019308BD00000D
:10156C00A401060808B5034B1B68D3F89C30019303
:10157C0008BD0000A401060808B5024B1B68DB6B14
:10158C00019308BDCC01060808B5024B1B681B680B
:10159C00019308BDC801060808B5024B1B685B68BF
:1015AC00019308BDC801060808B5024B1B689B686F
:1015BC00019308BDC801060808B5024B1B68DB681F
:1015CC00019308BDC801060808B5024B1B681B69CE
:1015DC00019308BDC801060808B5024B1B685B697E
:1015EC00019308BDC801060808B5024B1B689B692E
:1015FC00019308BDC801060808B5024B1B68DB69DE
:10160C00019308BDC801060808B5024B1B681B6A8C
:10161C00019308BDC801060808B5024B1B681B6B7B
:10162C00019308BDC801060808B5024B1B685B6B2B
:10163C00019308BDC801060808B5024B1B689B6BDB
:10164C00019308BDC801060808B5024B1B68DB6B8B
:10165C00019308BDC801060808B5024B1B681B683E
:10166C00019308BDA001060808B5024B1B685B6816
:10167C00019308BDA001060808B5024B1B689B68C6
:10168C00019308BDA00106080021FFF751BF10B55A
:10169C008368044613B1032201469847204610BDC7
:1016AC007047F8B5064615460C468F18BC4206D056
:1016BC00336814F8011B9B6830469847F6E72846B8
:1016CC00F8BD0022007CFFF7F9BD0021007CFFF77C
:1016DC00FDBD0021007CFFF701BE0021007CFFF75F
:1016EC0005BE0021007CFFF709BE10B5044614218D
:1016FC0001F0A7F8204610BD10B5044608464FF47B
:10170C007A73A360044B0021207461602360FFF79F
:10171C0005FE204610BD00BF643B0A0800231A4694
:10172C001946007CFFF7AABD13B50024007C009479
:10173C00FFF7ACFDC0B202B010BD0123FFF7F4BF40
:10174C000022007CFFF7AABD0022007CFFF7AEBD93
:10175C000121FFF7F9BF0021007CFFF7D7BDF8B5D9
:10176C000F4600F10806051D002416F8011D0A227B
:10177C00384600F052F9AE42044407D0002CF4D0A5
:10178C002E21384600F0F6F80444EEE72046F8BD6A
:10179C0010B50446044B112240F8043B002102F022
:1017AC00E8F8204610BD00BF8C3B0A080346074AE8
:1017BC0010B543F8042B01F1100251F8044B91427F
:1017CC0043F8044BF9D10A781A7010BD8C3B0A0807
:1017DC00024A416002600422027570478C3B0A0881
:1017EC0010B59DF8084044EA032343EA024242EA5A
:1017FC00016104234160037510BD000037B5044D31
:10180C0005609DF818500095FFF7EAFF03B030BD56
:10181C008C3B0A0837B50D788B784A78C9780091DB
:10182C002946FFF7DDFF03B030BD0000014A024B33
:10183C001A6070470E3C0A08E001002000231A468B
:10184C004068FFF7A9BE002202214068FFF7B4BE32
:10185C00002211464068FFF7A7BE002211464068DF
:10186C00FFF7B2BE00231A4619464068FFF7B4BE14
:10187C0000231A4619464068FFF7B6BE002281F0D5
:10188C0001014068FFF7B8BE00224068FFF7C4BEF4
:10189C00002211464068FFF7C7BE0022114640687F
:1018AC00FFF7B2BE70B516468EB0044608A8FFF717
:1018BC006FFF1122002103A802F05BF8304602F002
:1018CC0089F800250A4B009581B25B6803AA304663
:1018DC00FFF71EFE20B129462046FFF779FF03E0F3
:1018EC0003A92046FFF762FF20460EB070BD00BF73
:1018FC0064060020034B044A04280CBF104618460B
:10190C00704700BFE401002064060020024B034A2C
:10191C001A6000225A607047E4010020843C0A08D7
:10192C00F8B506460D468F180024BD420CD033681E
:10193C0015F8011B9B6830469847002801DB0444CE
:10194C00F3E7002C08BF04462046F8BD70B50546E9
:10195C000C46084649B102F03DF82B680246214678
:10196C002846BDE87040DB68184770BD08B5FFF726
:10197C00EDFF08BD03689B6818470B460A680146D3
:10198C0012681846104738B50D210546FFF7F2FFCF
:10199C000A2104462846FFF7EDFF204438BD38B530
:1019AC000546FFF7D3FF04462846FFF7ECFF20441B
:1019BC0038BD38B50546FFF7E0FF04462846FFF76B
:1019CC00E2FF204438BD012A98BF0A2230B50B46ED
:1019DC008BB000218DF824100DF12304B3FBF2F52C
:1019EC0005FB1233DBB2092B94BF30333733DBB238
:1019FC00214604F801392B46002DEFD1FFF7A6FF45
:101A0C000BB030BD10B422B90368C9B29B6810BCCE
:101A1C001847D2B210BCFFF7D6BFFFF7F3BF2DE9C2
:101A2C00F04107460E4615462AB9BDE8F041036859
:101A3C00C9B29B6818470A2A02D1002901DA04E0CE
:101A4C00D2B2BDE8F041FFF7BEBF2D21FFF792FFE8
:101A5C002A46044671423846FFF7B5FF2044BDE8DC
:101A6C00F08100002DE9F8431946804610461746D0
:101A7C001E469DF8205001F081FC08B1474912E048
:101A8C0026F000444FF0FF32454B3846214601F01A
:101A9C0075FC68B94FF0FF32414B3846214601F0D6
:101AAC004FFC28B93F494046FFF750FFBDE8F8838B
:101ABC004FF060423C4B3846314601F055FC08B1C2
:101ACC003A49F0E74FF06042394B3846314601F065
:101ADC002DFC0028F4D1002200233846314601F0B9
:101AEC0025FC38B12D214046FFF744FF06F1004696
:101AFC00044600E004462F494FF0000900205FFA2D
:101B0C0089F39D4206D900222B4B01F0C7FA09F14B
:101B1C000109F4E73A46334600F0E4FF0F46064667
:101B2C0001F06AFC0A22014681464046FFF74BFF52
:101B3C0004447DB3484601F011F902460B46304689
:101B4C00394600F0CDFF06460F4640461B49FFF7CD
:101B5C00FDFE0444184B00223046394601F074F95E
:101B6C000F46064601F020FC0A22014681464046FB
:101B7C00FFF755FF0444484601F000F902460B46B6
:101B8C003046394600F0ACFF013D15F0FF05064626
:101B9C000F46DFD12046BDE8F88300BFB03C0A08F1
:101BAC00FFFFEF7FB83C0A08FFFFEF41B43C0A0887
:101BBC00FFFFEFC10000E03F00002440263A0A0876
:101BCC009DF800100091FFF74DBF10B50446FFF7CC
:101BDC005EFD204610BD0000034800238360034ACD
:101BEC00034900F029BE00BFEC010020A400002036
:101BFC00D71B0A08704710B50446102100F021FECF
:101C0C00204610BD70B504460E46074B00250360F8
:101C1C0040F80C5FFFF7DAFA30462671FFF7E0FB6D
:101C2C00A560204670BD00BFC43C0A084FF6FF718A
:101C3C000079FFF7ADBB0079FFF7B2BB0079FFF776
:101C4C00B7BB0000054A0023995C814202D00133E6
:101C5C00082BF9D1581CC0B2704700BFCC3C0A0805
:101C6C00400830B5186000241868E5B2884206D9DF
:101C7C000134082C02D040081860F5E70725024B08
:101C8C005B5D137030BD00BFCC3C0A0870B50446D8
:101C9C0002FB01F588B006791422002103A801F09B
:101CAC0068FE0B2303A930460022ADF80C30FFF779
:101CBC00A7FB02AB0DF1070229460498FFF7D0FFF2
:101CCC0020799DF80710FFF77BFB029808B070BDD8
:101CDC0038B50446A56808464DB1FFF7B3FF01229D
:101CEC0025FA00F12046BDE83840FFF7CFBF207938
:101CFC00BDE83840FFF764BB08B50079FFF768FB17
:101D0C00C0B208BD0079FFF773BB10B5044600687C
:101D1C00FFF7AAFC204610BD10B50446006808B1B8
:101D2C00FFF7A2FC00232360A360636010BD38B5ED
:101D3C0004460D4600680131FFF79EFC10B184E8A3
:101D4C002100012038BD10B50368044613B1436867
:101D5C008B4207D22046FFF7EAFF20B1A3680BB9EC
:101D6C0022681370012010BD70B50E461146044652
:101D7C001546FFF7E8FF18B92046FFF7CDFF09E03D
:101D8C002A463146A560206801F0E8FD2268A36868
:101D9C000021D154204670BD38B5002304460360A1
:101DAC004360836003730D4639B1084601F012FE9F
:101DBC00294602462046FFF7D7FF204638BD0000D3
:101DCC004FF6FF72034B0020187058809A80FFF773
:101DDC00A7BB00BFFC010020024B1A68024B1A6023
:101DEC00704700BF3C0000200402002010B40468BF
:101DFC00246BA44610BC604703689B6C1847808E0C
:101E0C007047028FC08E101A704713B502AB026870
:101E1C0003F8011DD46819460122A04702B010BD79
:101E2C0010B5036804461B69984728B1E38EE26B32
:101E3C00591CE186D05C10BD4FF0FF3010BD10B5C1
:101E4C00036804461B69984718B1E38EE26BD05CBB
:101E5C0010BD4FF0FF3010BD70470346084610B45C
:101E6C00D98EDC6B1A8F0368521ADB68214410BCC4
:101E7C001847A0F11000FFF7F0BFF7B50546104664
:101E8C000F461646FFF736FD0368DB689847B8B176
:101E9C0002213B46112208460096FFF751FA686171
:101EAC00FFF746FA044630B10023EB862B872F83CD
:101EBC006E64012004E02B6828465B6A9847204634
:101ECC0003B0F0BD38B504464569FFF759FA8542B1
:101EDC0002D06069FFF74CFAFFF752FA00236061F9
:101EEC00E386238738BD30B587B0BDF8284002257E
:101EFC00ADF808508DF80B40250ADC798DF80A50A6
:101F0C008DF80C409C798DF80D405C791B798DF81F
:101F1C000E408DF80F301023019302AB00934069F3
:101F2C000023FFF71DFA07B030BD38B5C36B05466B
:101F3C00C08E13B12C6C241A00E01C46944228BFAE
:101F4C0014461844224601F009FDEB8E204623442A
:101F5C00EB8638BD70B5036804461B690E46154602
:101F6C00984788B1236820461B6998478542A8BFCB
:101F7C000546E38EE16B2A461944304601F0EEFC2F
:101F8C00E38E2B44E38601E04FF0FF35284670BD0D
:101F9C00F0B5044689B0406C0D461646FFF7AAFC16
:101FAC000368DB68984710B36769FFF7E9F9874264
:101FBC001DD0E5B108AB102243F8142D01930DEBA5
:101FCC00020300932946002332466069FFF7C0F9EB
:101FDC00051E0EDB9DF812209DF8133005A943EA6F
:101FEC000223A38604F11C00FFF714FC01E04FF060
:101FFC00FF35284609B0F0BD2DE9F041064694B0F6
:10200C00406C0D469046FFF775FC0368DB689847FB
:10201C00F8B1284601F0DEFC002481B20094736C08
:10202C0003AA2846FFF774FA90B903A908A8FFF78A
:10203C00BDFB33680FAC9F6B074B09AD0E930FCDF7
:10204C000FC42B68424623700EA93046B84700E0F7
:10205C00204614B0BDE8F0818C3B0A0870B50446EC
:10206C000646054B01F1200544F8043B0FCD0FC487
:10207C002B683046237070BD8C3B0A08F0B5944633
:10208C008E460646026889B0976A094A03AC1D1D44
:10209C0002920FCD0FC42B6862462370BDF8383006
:1020AC0071460093304602ABB84709B0F0BD00BF93
:1020BC008C3B0A08F0B50446036889B09F6A0D4B47
:1020CC0003AD00F12006B0F836E002930FCE0FC539
:1020DC00336872462B70A38EE16B0093204602ABE3
:1020EC00B847054623682046DB699847284609B05F
:1020FC00F0BD00BF8C3B0A0838B54FF47A7383608F
:10210C000B4B002503F108026C3302600361456040
:10211C000446FFF735F9606104F11C00FFF738FB4A
:10212C004FF40073E5862587E5632364204638BDAC
:10213C00003D0A0810B590F84830044623B1C06B36
:10214C0010B1012100F07DFB0023E36384F84830DB
:10215C002364E386238710BD70B5044616460D46EE
:10216C00FFF7E8FF0023E66323643EB935B1284648
:10217C00FDF78DFF0123E06384F84830E36B03B176
:10218C002564206C003018BF012070BDF8B51746CF
:10219C00C26B05460C461AB9016C09B1FFF7DCFF9E
:1021AC0005F1200604340FCC0FC6236833700023CE
:1021BC00AF86EB862B87286CF8BD70B5C26B0446D6
:1021CC001AB9016C09B1FFF7C7FFE16B0023E38675
:1021DC00238741B1226C32B12068056B2046A84799
:1021EC000028C8BF208723682046BDE870401B69C3
:1021FC00184770474174704708B5007CFFF740F9E9
:10220C0020EAE07008BD08B5007CFFF711F920EA60
:10221C00E07008BD08B5007CFFF71AF930EA200021
:10222C0028BF4FF0FF3008BD08B5007CFFF708F958
:10223C0030EA200028BF4FF0FF3008BD007CFFF7CC
:10224C000FB910B50446142100F0FBFA204610BD5E
:10225C0070B5457C04460E4625B9007CFFF710F995
:10226C00002805DD3146207CBDE87040FFF7D8B86A
:10227C00284670BD10B5044608461146002262601F
:10228C004FF47A72A260054A2074226001226274B3
:10229C001A46FFF7BDF8204610BD00BF783D0A086E
:1022AC00007CFFF7E5B8000038B50C4D296811F03B
:1022BC00010411D12846FDF7EEFE68B1084A21460B
:1022CC00084B0948FFF7D6FF2846FDF7E9FE074AF9
:1022DC000749054800F0B0FA034838BDA0020020B9
:1022EC00A40200201C02002008020020A4000020F0
:1022FC00FF210A0841747047704708B50021007C23
:10230C00FFF7E6F830EA200028BF4FF0FF3008BD99
:10231C0008B50121007CFFF7DBF830EA200028BF6C
:10232C004FF0FF3008BD08B5007CFFF7C9F820EA74
:10233C00E07008BD08B5007CFFF7BAF820EAE07041
:10234C0008BD007CFFF7D4B810B50446142100F08A
:10235C0078FA204610BD38B50446007C0D46FFF7D0
:10236C00AFF8002801DC607C28B12946207CFFF7FF
:10237C00B7F820EAE07038BD10B50446002363605E
:10238C004FF47A73A360054B084623600123217434
:10239C0063741146FFF77CF8204610BDA83D0A086F
:1023AC000022007CFFF77CB8007CFFF7A9B8FFF790
:1023BC00FBBF000010B504461422002101F0D9FA2D
:1023CC00054B20466360054BE36040F2011323810B
:1023DC008123238210BD00BFAD0300202C030020FD
:1023EC0030B50E4D87B001A8FFF7E4FF296811F056
:1023FC00010410D12846FDF74EFE60B101AA21461A
:10240C000748FFF7B9FF2846FDF74AFE054A06497B
:10241C00034800F011FA024807B030BD2803002031
:10242C00B0040020A400002005230A0810B50446BF
:10243C001422002101F09DFA054B20466360054BE8
:10244C00E36040F2011323818123238210BD00BF7E
:10245C0060050020C804002010B50E4C86B001A801
:10246C00FFF7E4FF2368DB0710D42046FDF713FECB
:10247C0060B101AA01210848FFF77EFF2046FDF755
:10248C000FFE064A0649044800F0D6F9024806B089
:10249C0010BD00BFC40400204C050020A400002087
:1024AC0005230A08002211464068FFF78DB8F0B5E5
:1024BC00164689B011220F460446002103A801F0EC
:1024CC0058FA304601F086FA0025009581B27B68F7
:1024DC0003AA3046FFF71CF820B129462046FFF727
:1024EC0077F903E003A92046FFF760F9204609B00D
:1024FC00F0BD002211464068FFF786B80022114655
:10250C004068FFF791B800224068FFF785B80022B9
:10251C0081F001014068FFF76FB800231A46194695
:10252C004068FFF761B800231A4619464068FFF768
:10253C0053B8002211464068FFF736B8002202213A
:10254C004068FFF739B800231A464068FFF724B8F3
:10255C00024B04225A60024A1A607047640600203B
:10256C00D83D0A0808B5144B33B1FFF739FF03689F
:10257C001B699847002816DC104B33B1FFF794FE0B
:10258C0003681B699847002810DC0D4B0BB1AFF3A7
:10259C0000800C4B7BB1FFF75FFF03681B6998470A
:1025AC00002806DC08BDAFF30080E5E7AFF3008040
:1025BC00EBE7AFF3008008BD000000000000000056
:1025CC00000000000000000008B5FFF7CBFFFEF78D
:1025DC0015FE014B186008BD740600200248034A22
:1025EC000349121A01F0BAB90040024004400240FB
:1025FC00B03E0A0807B5002300931A466FF0770126
:10260C00FEF7B0FF03B05DF804FB000007B543888C
:10261C000A2B08D0502B09D1094B1B683BB103B0D6
:10262C005DF804EB1847FFF7E5FF06E00023009385
:10263C001A466FF07701FEF795FF03B05DF804FBC7
:10264C006C06002038B5104C104D2368AB42104B73
:10265C000CBF012200221A7002D0FFF7BFFF2560C9
:10266C00FEF7BCFD044601F08DF90A4B13B1204670
:10267C00AFF3008000210748FEF77EFFBDE838402D
:10268C0000210548FEF764BF004002401E1C279A3B
:10269C00700600200000000019260A0810B5044638
:1026AC000F48FFF72FFB28B1A4F10D03022B01D823
:1026BC00002010BD00F066F8FFF74DF808B1012CB2
:1026CC00F6D9FFF7F1FDFFF7EBFD18B1A4F11203FA
:1026DC00012BEDD9172C8CBF0020012010BD00BFA1
:1026EC00A8060020172838B504460D460AD8FF293D
:1026FC0008D0FFF7D3FF28B129462046BDE8384063
:10270C00FEF794BD38BD38B504460D46FEF796FD70
:10271C00FF2810D0062804D84D2323FA00F0C30755
:10272C0009D42046FFF7BAFF28B129462046BDE858
:10273C003840FEF78BBD38BD38B504460D46FFF763
:10274C00ADFFF0B104212046FEF768FD042805D149
:10275C00A9B22046BDE83840FEF780BD02212046D4
:10276C00FEF75CFD02280CD12046FEF767FD012820
:10277C0001D0042805D129462046BDE83840FEF793
:10278C0075BD38BD38B50B4D296811F001040FD15A
:10279C002846FDF780FC58B121460748FEF7ACFFF0
:1027AC002846FDF77DFC054A0549034800F044F82E
:1027BC00014838BD780600207C060020A4000020CB
:1027CC00AD160A0813B5084C00231A461946009397
:1027DC002046FFF713F82046044A054902B0BDE82D
:1027EC00104000F029B800BF90060020A400002083
:1027FC00B3000A0870B50C4C0C4E0D4D0021204650
:10280C00FFF700FA20460B4C3246294600F014F82C
:10281C0001212046FFF7F6F9324629462046BDE84D
:10282C00704000F009B800BFA8060020A4000020EA
:10283C00011C0A08B80600200B460146184601F098
:10284C007FB8FDF726BC0000244B1A68D0075CBF8C
:10285C0001221A60224B1A68D1075CBF01221A6050
:10286C00204B1A68D2075CBF01221A601E4B1A68F3
:10287C00D0075CBF01221A601C4B1A68D1075CBFE1
:10288C0001221A601A4B1A68D2075CBF01221A6027
:10289C00184B1A68D0075CBF01221A60164B1A68D5
:1028AC00D1075CBF01221A60144B1A68D2075CBFB7
:1028BC0001221A60124B1A68D0075CBF01221A6001
:1028CC00104B1A68D1075CBF01221A600E4B1A68B4
:1028DC00D2075CBF01221A60704700BFF4060020CB
:1028EC00F0060020EC060020E8060020E40600209C
:1028FC00E0060020DC060020D8060020D4060020CC
:10290C00D0060020CC060020C8060020184B1A6800
:10291C00D1075CBF01221A60164B1A68D2075CBF44
:10292C0001221A60144B1A68D0075CBF01221A608E
:10293C00124B1A68D1075CBF01221A60104B1A683F
:10294C00D2075CBF01221A600E4B1A68D0075CBF1D
:10295C0001221A600C4B1A68D1075CBF01221A6065
:10296C000A4B1A68D2075CBF01221A60704700BF7D
:10297C0014070020100700200C0700200807002077
:10298C000407002000070020FC060020F8060020A9
:10299C00184B1A68D1075CBF01221A60164B1A68D3
:1029AC00D2075CBF01221A60144B1A68D0075CBFB7
:1029BC0001221A60124B1A68D1075CBF01221A60FF
:1029CC00104B1A68D2075CBF01221A600E4B1A68B2
:1029DC00D0075CBF01221A600C4B1A68D1075CBF90
:1029EC0001221A600A4B1A68D2075CBF01221A60D6
:1029FC00704700BF34070020300700202C07002050
:102A0C002807002024070020200700201C07002096
:102A1C0018070020244B1A68D0075CBF01221A60EB
:102A2C00224B1A68D1075CBF01221A60204B1A682E
:102A3C00D2075CBF01221A601E4B1A68D0075CBF1C
:102A4C0001221A601C4B1A68D1075CBF01221A6064
:102A5C001A4B1A68D2075CBF01221A60184B1A680D
:102A6C00D0075CBF01221A60164B1A68D1075CBFF5
:102A7C0001221A60144B1A68D2075CBF01221A603B
:102A8C00124B1A68D0075CBF01221A60104B1A68EF
:102A9C00D1075CBF01221A600E4B1A68D2075CBFCB
:102AAC0001221A60704700BF6407002060070020F5
:102ABC005C07002058070020540700205007002016
:102ACC004C07002048070020440700204007002046
:102ADC003C0700203807002081F0004102E000BFD5
:102AEC0083F0004330B54FEA41044FEA430594EAC2
:102AFC00050F08BF90EA020F1FBF54EA000C55EAFD
:102B0C00020C7FEA645C7FEA655C00F0E2804FEACD
:102B1C005454D4EB5555B8BF6D420CDD2C4480EAAF
:102B2C00020281EA030382EA000083EA010180EADF
:102B3C00020281EA0303362D88BF30BD11F0004F2D
:102B4C004FEA01314FF4801C4CEA113102D0404263
:102B5C0061EB410113F0004F4FEA03334CEA13339E
:102B6C0002D0524263EB430394EA050F00F0A780B6
:102B7C00A4F10104D5F1200E0DDB02FA0EFC22FAB1
:102B8C0005F2801841F1000103FA0EF2801843FAA5
:102B9C0005F359410EE0A5F120050EF1200E012A96
:102BAC0003FA0EFC28BF4CF0020C43FA05F3C018D4
:102BBC0051EBE37101F0004507D54FF0000EDCF14D
:102BCC00000C7EEB00006EEB0101B1F5801F1BD3F6
:102BDC00B1F5001F0CD349085FEA30004FEA3C0CFA
:102BEC0004F101044FEA445212F5800F80F09A80F0
:102BFC00BCF1004F08BF5FEA500C50F1000041EBF4
:102C0C00045141EA050130BD5FEA4C0C404141EBF7
:102C1C00010111F4801FA4F10104E9D191F0000F1E
:102C2C0004BF01460020B1FA81F308BF2033A3F1A1
:102C3C000B03B3F120020CDA0C3208DD02F1140C98
:102C4C00C2F10C0201FA0CF021FA02F10CE002F1D3
:102C5C001402D8BFC2F1200C01FA02F120FA0CFCCC
:102C6C00DCBF41EA0C019040E41AA2BF01EB045115
:102C7C00294330BD6FEA04041F3C1CDA0C340EDC13
:102C8C0004F11404C4F1200220FA04F001FA02F356
:102C9C0040EA030021FA04F345EA030130BDC4F114
:102CAC000C04C4F1200220FA02F001FA04F340EA09
:102CBC000300294630BD21FA04F0294630BD94F0BA
:102CCC00000F83F4801306BF81F480110134013DA1
:102CDC004EE77FEA645C18BF7FEA655C29D094EA12
:102CEC00050F08BF90EA020F05D054EA000C04BF90
:102CFC001946104630BD91EA030F1EBF002100207B
:102D0C0030BD5FEA545C05D14000494128BF41F019
:102D1C00004130BD14F580043CBF01F5801130BD7D
:102D2C0001F0004545F0FE4141F470014FF0000008
:102D3C0030BD7FEA645C1ABF194610467FEA655CB9
:102D4C001CBF0B46024650EA013406BF52EA03355B
:102D5C0091EA030F41F4002130BD00BF90F0000F49
:102D6C0004BF0021704730B54FF4806404F1320485
:102D7C004FF000054FF0000150E700BF90F0000F3E
:102D8C0004BF0021704730B54FF4806404F1320465
:102D9C0010F0004548BF40424FF000013EE700BF35
:102DAC0042004FEAE2014FEA31014FEA02701FBFC5
:102DBC0012F07F4393F07F4F81F06051704792F097
:102DCC00000F14BF93F07F4F704730B54FF4607411
:102DDC0001F0004521F0004120E700BF50EA01025C
:102DEC0008BF704730B54FF000050AE050EA010209
:102DFC0008BF704730B511F0004502D5404261EB79
:102E0C0041014FF4806404F132045FEA915C3FF4B9
:102E1C00DCAE4FF003025FEADC0C18BF03325FEA52
:102E2C00DC0C18BF033202EBDC02C2F1200300FA07
:102E3C0003FC20FA02F001FA03FE40EA0E0021FA2C
:102E4C0002F11444C1E600BF70B54FF0FF0C4CF416
:102E5C00E06C1CEA11541DBF1CEA135594EA0C0FCC
:102E6C0095EA0C0F00F0DEF82C4481EA030621EA07
:102E7C004C5123EA4C5350EA013518BF52EA033542
:102E8C0041F4801143F4801338D0A0FB02CE4FF0F4
:102E9C000005E1FB02E506F00042E0FB03E54FF024
:102EAC000006E1FB03569CF0000F18BF4EF0010E1C
:102EBC00A4F1FF04B6F5007F64F5407404D25FEA18
:102ECC004E0E6D4146EB060642EAC62141EA5551CB
:102EDC004FEAC52040EA5E504FEACE2EB4F1FD0C0D
:102EEC0088BFBCF5E06F1ED8BEF1004F08BF5FEA8B
:102EFC00500E50F1000041EB045170BD06F000463D
:102F0C0046EA010140EA020081EA0301B4EB5C04E9
:102F1C00C2BFD4EB0C0541EA045170BD41F48011E1
:102F2C004FF0000E013C00F3AB8014F1360FDEBF06
:102F3C00002001F0004170BDC4F10004203C35DAE2
:102F4C000C341BDC04F11404C4F1200500FA05F365
:102F5C0020FA04F001FA05F240EA020001F0004206
:102F6C0021F0004110EBD37021FA04F642EB06017C
:102F7C005EEA430E08BF20EAD37070BDC4F10C04A6
:102F8C00C4F1200500FA04F320FA05F001FA04F26A
:102F9C0040EA020001F0004110EBD37041F1000156
:102FAC005EEA430E08BF20EAD37070BDC4F1200561
:102FBC0000FA05F24EEA020E20FA04F301FA05F2C9
:102FCC0043EA020321FA04F001F0004121FA04F271
:102FDC0020EA020000EBD3705EEA430E08BF20EA41
:102FEC00D37070BD94F0000F0FD101F0004640007B
:102FFC0041EB010111F4801F08BF013CF7D041EAFD
:10300C00060195F0000F18BF704703F00046520000
:10301C0043EB030313F4801F08BF013DF7D043EAD1
:10302C000603704794EA0C0F0CEA135518BF95EA87
:10303C000C0F0CD050EA410618BF52EA4306D1D10E
:10304C0081EA030101F000414FF0000070BD50EA2D
:10305C00410606BF1046194652EA430619D094EAB7
:10306C000C0F02D150EA013613D195EA0C0F05D1A1
:10307C0052EA03361CBF104619460AD181EA0301F5
:10308C0001F0004141F0FE4141F470014FF00000AD
:10309C0070BD41F0FE4141F4780170BD70B54FF048
:1030AC00FF0C4CF4E06C1CEA11541DBF1CEA1355C8
:1030BC0094EA0C0F95EA0C0F00F0A7F8A4EB0504AA
:1030CC0081EA030E52EA03354FEA013100F08880A1
:1030DC004FEA03334FF0805545EA131343EA12636A
:1030EC004FEA022245EA111545EA10654FEA00261F
:1030FC000EF000419D4208BF964244F1FD0404F5D8
:10310C00407402D25B084FEA3202B61A65EB030533
:10311C005B084FEA32024FF480104FF4002CB6EBF0
:10312C00020E75EB030E22BFB61A754640EA0C0070
:10313C005B084FEA3202B6EB020E75EB030E22BFB0
:10314C00B61A754640EA5C005B084FEA3202B6EBF1
:10315C00020E75EB030E22BFB61A754640EA9C00B0
:10316C005B084FEA3202B6EB020E75EB030E22BF80
:10317C00B61A754640EADC0055EA060E18D04FEA3E
:10318C00051545EA16754FEA06164FEAC30343EADE
:10319C0052734FEAC2025FEA1C1CC0D111F4801FAB
:1031AC000BD141EA00014FF000004FF0004CB6E7A4
:1031BC0011F4801F04BF01430020B4F1FD0C88BF43
:1031CC00BCF5E06F3FF6AFAEB5EB030C04BFB6EB4E
:1031DC00020C5FEA500C50F1000041EB045170BD41
:1031EC000EF0004E4EEA113114EB5C04C2BFD4EB6E
:1031FC000C0541EA045170BD41F480114FF0000EF2
:10320C00013C90E645EA060E8DE60CEA135594EA6D
:10321C000C0F08BF95EA0C0F3FF43BAF94EA0C0F70
:10322C000AD150EA01347FF434AF95EA0C0F7FF4E5
:10323C0025AF104619462CE795EA0C0F06D152EA39
:10324C0003353FF4FDAE1046194622E750EA41061D
:10325C0018BF52EA43067FF4C5AE50EA41047FF42E
:10326C000DAF52EA43057FF4EBAE12E74FF0FF3C93
:10327C0006E000BF4FF0010C02E000BF4FF0010C64
:10328C004DF804CD4FEA410C7FEA6C5C4FEA430CDD
:10329C0018BF7FEA6C5C1BD001B050EA410C0CBF2C
:1032AC0052EA430C91EA030F02BF90EA020F00208E
:1032BC00704710F1000F91EA030F58BF994208BFF5
:1032CC0090422CBFD8176FEAE37040F001007047B2
:1032DC004FEA410C7FEA6C5C02D150EA013C07D109
:1032EC004FEA430C7FEA6C5CD6D152EA033CD3D054
:1032FC005DF8040B704700BF8446104662468C464E
:10330C001946634600E000BF01B5FFF7B7FF002880
:10331C0048BF10F1000F01BD4DF808EDFFF7F4FFA9
:10332C000CBF012000205DF808FB00BF4DF808ED34
:10333C00FFF7EAFF34BF012000205DF808FB00BF57
:10334C004DF808EDFFF7E0FF94BF012000205DF879
:10335C0008FB00BF4DF808EDFFF7CEFF94BF01202E
:10336C0000205DF808FB00BF4DF808EDFFF7C4FF27
:10337C0034BF012000205DF808FB00BF4FEA410C70
:10338C007FEA6C5C02D150EA013C0AD14FEA430C53
:10339C007FEA6C5C02D152EA033C02D14FF0000090
:1033AC0070474FF0010070474FEA410212F50012CE
:1033BC0015D211D56FF47873B3EB625212D94FEA70
:1033CC00C12343F0004343EA505311F0004F23FA5A
:1033DC0002F018BF404270474FF00000704750EAAF
:1033EC00013005D111F0004008BF6FF0004070476C
:1033FC004FF00000704700BF4A0011D212F50012C6
:10340C0011D20DD56FF47873B3EB62520ED44FEA30
:10341C00C12343F0004343EA505323FA02F07047B0
:10342C004FF00000704750EA013002D14FF0FF30EE
:10343C0070474FF00000704780F0004002E000BF82
:10344C0081F0004142001FBF5FEA410392EA030F83
:10345C007FEA226C7FEA236C6AD04FEA1262D2EBCD
:10346C001363C1BFD218414048404140B8BF5B42D2
:10347C00192B88BF704710F0004F40F4000020F06B
:10348C007F4018BF404211F0004F41F4000121F081
:10349C007F4118BF494292EA030F3FD0A2F10102CB
:1034AC0041FA03FC10EB0C00C3F1200301FA03F109
:1034BC0000F0004302D5494260EB4000B0F5000F2C
:1034CC0013D3B0F1807F06D340084FEA310102F1EB
:1034DC000102FE2A51D2B1F1004F40EBC25008BF9D
:1034EC0020F0010040EA03007047490040EB000067
:1034FC0010F4000FA2F10102EDD1B0FA80FCACF196
:10350C00080CB2EB0C0200FA0CF0AABF00EBC25094
:10351C0052421843BCBFD0401843704792F0000F82
:10352C0081F4000106BF80F400000132013BB5E7D5
:10353C004FEA41037FEA226C18BF7FEA236C21D04B
:10354C0092EA030F04D092F0000F08BF08467047B0
:10355C0090EA010F1CBF0020704712F07F4F04D17E
:10356C00400028BF40F00040704712F100723CBF91
:10357C0000F50000704700F0004343F0FE4040F4BB
:10358C00000070477FEA226216BF08467FEA236379
:10359C000146420206BF5FEA412390EA010F40F464
:1035AC00800070474FF0000304E000BF10F00043B0
:1035BC0048BF40425FEA000C08BF704743F0964397
:1035CC0001464FF000001CE050EA010208BF7047B2
:1035DC004FF000030AE000BF50EA010208BF704739
:1035EC0011F0004302D5404261EB41015FEA010C4E
:1035FC0002BF84460146002043F0B64308BFA3F146
:10360C008053A3F50003BCFA8CF2083AA3EBC25327
:10361C0010DB01FA02FC634400FA02FCC2F1200246
:10362C00BCF1004F20FA02F243EB020008BF20F07D
:10363C000100704702F1200201FA02FCC2F12002E3
:10364C0050EA4C0021FA02F243EB020008BF20EAD8
:10365C00DC7070474FF0FF0C1CEAD0521EBF1CEA06
:10366C00D15392EA0C0F93EA0C0F6FD01A4480EAF4
:10367C00010C400218BF5FEA41211ED04FF00063DD
:10368C0043EA501043EA5111A0FB01310CF0004009
:10369C00B1F5000F3EBF490041EAD3715B0040EA2F
:1036AC00010062F17F02FD2A1DD8B3F1004F40EBFF
:1036BC00C25008BF20F00100704790F0000F0CF0D2
:1036CC00004C08BF49024CEA502040EA51207F3A96
:1036DC00C2BFD2F1FF0340EAC250704740F4000071
:1036EC004FF00003013A5DDC12F1190FDCBF00F062
:1036FC0000407047C2F10002410021FA02F1C2F110
:10370C00200200FA02FC5FEA310040F1000053EAAB
:10371C004C0308BF20EADC70704792F0000F00F0F9
:10372C00004C02BF400010F4000F013AF9D040EAFF
:10373C000C0093F0000F01F0004C02BF490011F493
:10374C00000F013BF9D041EA0C018FE70CEAD15391
:10375C0092EA0C0F18BF93EA0C0F0AD030F0004C11
:10376C0018BF31F0004CD8D180EA010000F00040C5
:10377C00704790F0000F17BF90F0004F084691F083
:10378C00000F91F0004F14D092EA0C0F01D14202BD
:10379C000FD193EA0C0F03D14B0218BF084608D186
:1037AC0080EA010000F0004040F0FE4040F40000D0
:1037BC00704740F0FE4040F4400070474FF0FF0C63
:1037CC001CEAD0521EBF1CEAD15392EA0C0F93EAAA
:1037DC000C0F69D0A2EB030280EA010C49024FEAFC
:1037EC00402037D04FF0805343EA111143EA1013B5
:1037FC000CF000408B4238BF5B0042F17D024FF46D
:10380C00000C8B4224BF5B1A40EA0C00B3EB510F47
:10381C0024BFA3EB510340EA5C00B3EB910F24BF30
:10382C00A3EB910340EA9C00B3EBD10F24BFA3EBB5
:10383C00D10340EADC001B0118BF5FEA1C1CE0D17D
:10384C00FD2A3FF650AF8B4240EBC25008BF20F030
:10385C00010070470CF0004C4CEA50207F32C2BF84
:10386C00D2F1FF0340EAC250704740F400004FF021
:10387C000003013A37E792F0000F00F0004C02BF52
:10388C00400010F4000F013AF9D040EA0C0093F01C
:10389C00000F01F0004C02BF490011F4000F013B76
:1038AC00F9D041EA0C0195E70CEAD15392EA0C0FDE
:1038BC0008D142027FF47DAF93EA0C0F7FF470AF16
:1038CC00084676E793EA0C0F04D14B023FF44CAF59
:1038DC0008466EE730F0004C18BF31F0004CCAD1EE
:1038EC0030F000427FF45CAF31F000437FF43CAF2A
:1038FC005FE700BF4FEA4002B2F1FE4F0FD34FF02B
:10390C009E03B3EB12620DD94FEA002343F0004340
:10391C0010F0004F23FA02F018BF404270474FF0EE
:10392C000000704712F1610F01D1420205D110F075
:10393C00004008BF6FF0004070474FF00000704728
:10394C0010B5054C13462CB10A4601460220AFF3C4
:10395C00008010BD204610BD0000000010B5431EB5
:10396C000A44914204D011F8014B03F8014FF8E7D7
:10397C0010BD03460244934202D003F8011BFAE740
:10398C007047000038B5124B05461C68A36BD3B9C1
:10399C001820FDF761FE43F20E33A06303804AF654
:1039AC00CD33438041F2342383804EF26D63C38068
:1039BC004DF6EC630381052343810B2383810122A4
:1039CC000023C0E90423A36B00221D615A6138BD9A
:1039DC00A0000020034613F8012B002AFBD1181A73
:1039EC00013870471D000A085D000A0889000A08A2
:1039FC008D000A08000000004661696C6564207443
:103A0C006F20636F6D6D756E696361746520776986
:103A1C007468204C534D394453312E00446F7562F9
:103A2C006C652D636865636B20776972696E672EB0
:103A3C000044656661756C742073657474696E6797
:103A4C007320696E207468697320736B6574636886
:103A5C002077696C6C20776F726B20666F722061B7
:103A6C006E206F7574206F662074686520626F78A5
:103A7C00204C534D3944533120427265616B6F7544
:103A8C00742C20627574206D6179206E65656420DC
:103A9C00746F206265206D6F646966696564206966
:103AAC00662074686520626F617264206A756D703F
:103ABC00657273206172652E0063616C696272615C
:103ACC0074696F6E20737461727465640043616C09
:103ADC006962726174696F6E2066696E697368657C
:103AEC0064005365747570004851526F757465723B
:103AFC005F5055424C49534800535445502052494D
:103B0C0047485420534F4C4F0053544550204C457C
:103B1C00465420534F4C4F00535445502052494764
:103B2C0048542044554F0053544550204C4546545E
:103B3C002044554F00783A200020593A00205A3A38
:103B4C00002061763A200020000000400000006058
:103B5C000000000000000000AD160A08F7160A0865
:103B6C00CF160A08AF160A08D7160A08DF160A0875
:103B7C00E7160A08EF160A08000000000000000013
:103B8C006B170A08B3000A08D5000A08626175644D
:103B9C000053657269616C005553425365726961DB
:103BAC006C31007479706500706172616D00636DC9
:103BBC006400696400686E64007374726D006669F9
:103BCC006C74006C766C0061646448616E646C6546
:103BDC00720072656D6F766548616E646C6572001B
:103BEC00656E756D48616E646C657273004A534FF7
:103BFC004E53747265616D4C6F6748616E646C6591
:103C0C00720061707000253031307520005D20002D
:103C1C002564002C200028293A2000205B00636FCB
:103C2C006465203D200025690064657461696C73CE
:103C3C00203D20000D0A006C6E00666E00636F6400
:103C4C00650064657461696C006E6F6E65007472FA
:103C5C0061636500696E666F007761726E006572F4
:103C6C00726F720070616E696300616C6C000000B1
:103C7C00000000000000000049180A0853180A0848
:103C8C005D180A0867180A0871180A087D180A08CE
:103C9C0089180A0895180A089D180A08A7180A080E
:103CAC00B1180A086E616E006F766600696E660068
:103CBC000000000000000000011C0A08031C0A0898
:103CCC0000081018202830385A00252B3033643A5D
:103CDC00253032750025592D256D2D256454254828
:103CEC003A254D3A2553257A0061736374696D65E5
:103CFC00000000000000000000000000B5000A08F1
:103D0C00E3000A08171E0A08371F0A080F1E0A08C4
:103D1C002D1E0A084B1E0A08651E0A08871E0A0873
:103D2C00D11E0A08F31E0A0889200A089D1F0A08DA
:103D3C00F91D0A0899210A0805200A08C1200A0859
:103D4C00C7210A08611F0A08051E0A0869200A080B
:103D5C000B1E0A08671E0A08F0FFFFFF0000000098
:103D6C007F1E0A080000000000000000FF210A0866
:103D7C004F220A085D220A082D190A0813220A0884
:103D8C0035220A0821220A0849220A0801220A08B7
:103D9C0005220A08000000000000000005230A08A4
:103DAC0055230A0863230A082D190A0841230A0817
:103DBC0007230A081D230A084F230A0833230A087D
:103DCC0001230A08000000000000000053250A0827
:103DDC0049250A083F250A08B1240A0833250A0890
:103DEC0027250A081B250A0813250A0809250A088D
:103DFC00FF240A08BB240A08000000000000000091
:103E0C0000000000000000000000000000000000A6
:103E1C000000000000000000000000000000000096
:103E2C000000000000000000000000000000000086
:103E3C000000000000000000000000000000000076
:103E4C000000000000000000000000000000000066
:103E5C000000000000000000430000002D070A08CD
:103E6C00CD070A08D5110A0839180A0819190A08C1
:103E7C00E51B0A08CD1D0A08E51D0A085D250A0880
:103E8C00D1270A0801280A0855280A0819290A08FE
:103E9C009D290A08212A0A080000000000000000E1
:043EAC000000000012
:043EB000000000000E
:103EB400F40100000E000000B82200000A00000017
:103EC4000B000000E80300000C000000D007000015
:103ED4000F000000020000000D000000F7CC1239B2
:103EE400240B98399F71E139240B183AF53C0A08E0
:103EF40000000000043E0A08243E0A08443E0A0862
:103F040000000000000000000000000000000000AD
:103F1400643E0A08000000000000000000000000E9
:103F2400000000000000000000000000000000008D
:103F3400000000000000000000000000000000007D
:103F4400000000000000000000000000000000006D
:043F54004000002009
:103F5800FFFFFFFF00000102030405060708090A26
:103F68000B0C0D0E0F101112131415161718191A21
:083F78001B1C1D1E1F20280068
:043F80007856341229
:04000005080A001CC9
:00000001FF
