:02000004080AE8
:1000000000000A0848210A08000006000600050151
:08001000040279050000000064
:04001800001D0A08B5
:10001C0009480A4908B5884205D0094A824202D0EB
:10002C00121A01F019FE0748074A0021121A01F0B2
:10003C001EFE064808BD00BF00000020B4200A08C0
:10004C006C0000206C000020580600205806002090
:10005C0070B501F05DFA074B074C1E46E41AA40874
:10006C000025A54204D056F8253098470135F8E70D
:10007C0070BD00BF6C200A08A8200A0800F0ACB8BC
:10008C0008B500F017F9BDE8084001F003BA00F01C
:10009C00CBBB00F0D1BB0078B0FA80F040097047C0
:1000AC00012303707047704708B501F0FFF8BDE8F5
:1000BC000840014900F0F5BC141D0A0808B501F010
:1000CC00F5F8BDE80840014900F0EBBC1A1D0A0820
:1000DC0030B597B001A800F065F901F0E7F82349B5
:1000EC0000F0DFFC0021224800F0D1FF041E32DDBD
:1000FC0001F0DCF81F4900F0D4FC14F1FF3412D3EA
:10010C0001F0D4F81C4900F0CCFC194800F0F2FDC9
:10011C00C5B201F0CBF8294600F0CDFC294601A868
:10012C0000F07BF9E9E701A800F086F970B101F065
:10013C00BDF8124900F0B5FC114A124901A800F0B3
:10014C00F7F9114A114901A800F0F2F901F0AEF8E3
:10015C0000F09BFC04E001F0A9F80D4900F0A1FCB3
:10016C0001A800F03DF917B030BD00BF1F1D0A08F3
:10017C0084000020381D0A084A1D0A08591D0A0867
:10018C00B5000A08611D0A08C9000A08671D0A089B
:10019C006D1D0A0810B50446054B036064330361FA
:1001AC0000F0FAFD204600F02FFF204610BD00BFE6
:1001BC000C1F0A0810B50446182101F014FA204649
:1001CC0010BD10B50446FFF7E5FF20464C2101F0A9
:1001DC000AFA204610BD000070B596B001F066F822
:1001EC0001F04BF80028F9D02B4C00231A46194685
:1001FC00606800F0B9FA002211466068264D00F0E4
:10020C00CBFA0028F7D001F051F8244900F049FC52
:10021C00234B00221988234800F099FD002319462E
:10022C00214A686800F0F0FA01F040F80646002414
:10023C004022002106A801F01AFD402306AA2146FF
:10024C000094686800F0E8FA06A902A800F0EBFC3C
:10025C000299304600F025FC02A800F09DFC01F04C
:10026C0025F8224606462146686800F075FA811C7E
:10027C0006A800F021FB06A9304600F026FC01F090
:10028C0015F84FF4165100F0F1FF0849084800F03A
:10029C007DF816B070BD00BF6C050020781D0A08F3
:1002AC0000000020840000207E1D0A08DD000A08E2
:1002BC0070000020014800F05DB800BF7000002005
:1002CC0038B500F05DF90021012000F021FA124B45
:1002DC0000221A705A804FF6FF72104C9A8002203E
:1002EC0000F00EFA0E4D204600F0D8FA20460D4CC8
:1002FC002A460D4901F072F9204600F067FE2A46A5
:10030C000A49204601F06AF9BDE838404FF4FA7109
:10031C00074800F015B800BF7C000020D00000207A
:10032C006C00002084000020B3000A08A1010A0818
:10033C007000002010B5044600F01AF9206010BDC2
:10034C0038B504460D46FFF7F5FF00236560A36042
:10035C00204638BD10B5044600F00AF92368C01ACF
:10036C006368984204D32046FFF7E4FF012010BDD8
:10037C00002010BD10B58368044633B1FFF7EAFFC7
:10038C0018B1A368BDE81040184710BD81607047D4
:10039C0000F0F6B80023036083624360C364036516
:1003AC007047000038B504460C4D0830294600F063
:1003BC003AFC294604F1180000F035FC294604F1FA
:1003CC002C0000F030FC294604F13C0000F02BFC22
:1003DC002046FFF7DFFF204638BD00BF5A1E0A0833
:1003EC0010B50446006800F027FAA06A00F024FA61
:1003FC00E06C00F021FA04F13C0000F0CDFB04F1BC
:10040C002C0000F0C9FB04F1180000F0C5FB04F14E
:10041C00080000F0C1FB204610BD38B50D46416800
:10042C0004460131006800F00FFA206018B16368CF
:10043C005A1C6260C55438BD4FF0FF322DE9F04FA5
:10044C00064614469146904683B000F1180B00AF57
:10045C00D6F804A0551CAA4561DD31684B5D2C2BE8
:10046C0010D1E846D31D23F00703ADEB030D68460E
:10047C0001F0F2FB694606F1080000F0E7FBC54607
:10048C00A8464AE0B8F1000F47DDBBB9B9F1000F3F
:10049C0014DAE946C8EB0503063323F00703ADEB8A
:1004AC00030D08F101031944684601F0D5FB6946B8
:1004BC00584600F0CBFBCD46A9462EE0B9F1000F13
:1004CC002BDD002C28DAC8EB09000423441E90FB1A
:1004DC00F3F0002806DB01F023FB0022134B01F0A4
:1004EC00D3F905E001F01CFB0022104B01F0CAF916
:1004FC0001F07CFBC4EB800403344C44C4EB0A02D3
:10050C0010467A6000F090F93168B06221447A6844
:10051C0001F0A2FB544600E003D12A4698E70020E4
:10052C0000E001200C37BD46BDE8F08F0000E03F35
:10053C0070B504460830154600F099FB20B12046F2
:10054C002B46BDE87040184770BD00F019B800008C
:10055C0008B5024B1B681B6B019308BDD001060844
:10056C0008B5024B1B685B68019308BD9C0106082B
:10057C0008B5024B1B685B69019308BD9C0106081A
:10058C0008B5024B1B681B68019308BDB001060837
:10059C0008B5024B1B685B68019308BDBC010608DB
:1005AC0008B5024B1B689B68019308BDBC0106088B
:1005BC0008B5024B1B685B69019308BDBC010608BA
:1005CC0008B5024B1B68DB69019308BDBC0106082A
:1005DC0008B5024B1B681B6A019308BDBC010608D9
:1005EC0008B5024B1B681B6B019308BDBC010608C8
:1005FC0008B5024B1B68DB69019308BDB401060802
:10060C0008B5024B1B689B69019308BDC401060821
:10061C0008B5024B1B685B6A019308BDC401060850
:10062C0008B5024B1B689B6A019308BDC401060800
:10063C0008B5024B1B68DB6A019308BDC4010608B0
:10064C0008B5024B1B681B6B019308BDC40106085F
:10065C0008B5024B1B685B6B019308BDC40106080F
:10066C0008B5024B1B681B6C019308BDC40106083E
:10067C0008B5024B1B681B68019308BDD80106081E
:10068C0008B5024B1B685B68019308BDD8010608CE
:10069C0008B5024B1B681B69019308BDD8010608FD
:1006AC0008B5024B1B685B69019308BDD8010608AD
:1006BC0008B5024B1B689B69019308BDD80106085D
:1006CC0008B5024B1B68DB69019308BDD80106080D
:1006DC0008B5024B1B681B6A019308BDD8010608BC
:1006EC0008B5024B1B685B6A019308BDD80106086C
:1006FC0008B5024B1B689B6C019308BDC001060832
:10070C0008B5024B1B685B68019308BDA401060881
:10071C0008B5024B1B68DB6A019308BDA4010608EF
:10072C0008B5034B1B68D3F89030019308BD00004B
:10073C00A401060808B5034B1B68D3F89C30019341
:10074C0008BD0000A401060808B5024B1B68DB6B52
:10075C00019308BDCC01060808B5024B1B681B6849
:10076C00019308BDC801060808B5024B1B685B68FD
:10077C00019308BDC801060808B5024B1B689B68AD
:10078C00019308BDC801060808B5024B1B68DB685D
:10079C00019308BDC801060808B5024B1B681B690C
:1007AC00019308BDC801060808B5024B1B685B69BC
:1007BC00019308BDC801060808B5024B1B689B696C
:1007CC00019308BDC801060808B5024B1B68DB691C
:1007DC00019308BDC801060808B5024B1B681B6ACB
:1007EC00019308BDC801060808B5024B1B681B6BBA
:1007FC00019308BDC801060808B5024B1B685B6B6A
:10080C00019308BDC801060808B5024B1B689B6B19
:10081C00019308BDC801060808B5024B1B68DB6BC9
:10082C00019308BDC801060808B5024B1B681B687C
:10083C00019308BDA001060808B5024B1B685B6854
:10084C00019308BDA001060808B5024B1B689B6804
:10085C00019308BDA001060810B58368044613B1C6
:10086C00032201469847204610BDF8B50F4600F10B
:10087C000806051D002416F8011D0A22384600F052
:10088C0058F9AE42044407D0002CF4D02E2138463F
:10089C0000F0F2F80444EEE72046F8BD10B504462B
:1008AC00044B112240F8043B002101F0E0F92046F2
:1008BC0010BD00BFA41D0A080346074A10B543F833
:1008CC00042B01F1100251F8044B914243F8044BF4
:1008DC00F9D10A781A7010BDA41D0A08024A4160A9
:1008EC000260042202757047A41D0A0810B59DF819
:1008FC00084044EA032343EA024242EA016104232A
:10090C004160037510BD000037B5044D05609DF8BE
:10091C0018500095FFF7EAFF03B030BDA41D0A087C
:10092C0037B50D788B784A78C97800912946FFF74E
:10093C00DDFF03B030BD0000014A024B1A60704766
:10094C00261E0A08E800002000231A464068FFF71C
:10095C000BBF002202214068FFF716BF0022114690
:10096C004068FFF709BF002211464068FFF714BF2B
:10097C0000231A4619464068FFF716BF00231A4693
:10098C0019464068FFF718BF002281F0010140684A
:10099C00FFF71ABF00224068FFF726BF002211465E
:1009AC004068FFF729BF002211464068FFF714BFCB
:1009BC0070B516468EB0044608A8FFF76FFF1122DB
:1009CC00002103A801F053F9304601F08BF9002502
:1009DC000A4B009581B25B6803AA3046FFF788FE8C
:1009EC0020B129462046FFF779FF03E003A92046F2
:1009FC00FFF762FF20460EB070BD00BF6C050020F3
:100A0C00034B044A04280CBF10461846704700BF1D
:100A1C00EC0000206C050020024B034A1A600022F7
:100A2C005A607047EC0000209C1E0A08F8B5064678
:100A3C000D468F180024BD420CD0336815F8011BED
:100A4C009B6830469847002801DB0444F3E7002CF0
:100A5C0008BF04462046F8BD70B505460C4608464E
:100A6C0049B101F03FF92B68024621462846BDE802
:100A7C007040DB68184770BD03689B6818470B46CD
:100A8C000A68014612681846104738B50D2105460C
:100A9C00FFF7F2FF0A2104462846FFF7EDFF20443A
:100AAC0038BD38B50546FFF7D7FF04462846FFF793
:100ABC00ECFF204438BD38B50546FFF7DDFF044692
:100ACC002846FFF7E2FF204438BD38B50546FFF74E
:100ADC00D6FF04462846FFF7D8FF204438BD012A2C
:100AEC0098BF0A2230B50B468BB000218DF824102C
:100AFC000DF12304B3FBF2F505FB1233DBB2092B2A
:100B0C0094BF30333733DBB2214604F801392B461E
:100B1C00002DEFD1FFF7A0FF0BB030BD10B422B900
:100B2C000368C9B29B6810BC1847D2B210BCFFF75F
:100B3C00D6BFFFF7F3BF10B50446FFF78DFE204676
:100B4C0010BD0000034800238360034A034900F0F2
:100B5C0045BD00BFF40000206C000020430B0A08C8
:100B6C00704710B50446102100F03DFD204610BD25
:100B7C0070B504460E46074B0025036040F80C5F29
:100B8C00FFF7E6FC30462671FFF732FDA5602046E4
:100B9C0070BD00BFD01E0A0810B504460068FFF7F0
:100BAC004BFE204610BD10B50446006808B1FFF797
:100BBC0043FE00232360A360636010BD38B5044678
:100BCC000D4600680131FFF73FFE10B184E82100AB
:100BDC00012038BD10B50368044613B143688B423D
:100BEC0007D22046FFF7EAFF20B1A3680BB92268B1
:100BFC001370012010BD70B50E4611460446154603
:100C0C00FFF7E8FF18B92046FFF7CDFF09E02A46A9
:100C1C003146A560206801F01FF82268A368002106
:100C2C00D154204670BD38B50023044603604360A0
:100C3C00836003730D4639B1084601F053F8294619
:100C4C0002462046FFF7D7FF204638BD38B505468B
:100C5C000C4641B1084601F045F8214602462846AB
:100C6C00FFF7C9FF01E0FFF79EFF284638BD08B526
:100C7C0082680B4612B919B9012008BD11B9036875
:100C8C00187802E0006801F023F8B0FA80F040090F
:100C9C0008BD00004FF6FF72034B002018705880FF
:100CAC009A80FFF72DBD00BF04010020024B1A688B
:100CBC00024B1A60704700BF040000200C0100209A
:100CCC0010B40468246BA44610BC604703689B6C8A
:100CDC001847808E7047028FC08E101A704713B55C
:100CEC0002AB026803F8011DD46819460122A04723
:100CFC0002B010BD10B5036804461B69984728B1B3
:100D0C00E38EE26B591CE186D05C10BD4FF0FF30D6
:100D1C0010BD10B5036804461B69984718B1E38EE3
:100D2C00E26BD05C10BD4FF0FF3010BD7047034636
:100D3C00084610B4D98EDC6B1A8F0368521ADB6824
:100D4C00214410BC1847A0F11000FFF7F0BFF7B515
:100D5C00054610460F461646FFF752FE0368DB6841
:100D6C009847B8B102213B46112208460096FFF77E
:100D7C0017FC6861FFF70CFC044630B10023EB86CE
:100D8C002B872F836E64012004E02B6828465B6A56
:100D9C009847204603B0F0BD38B504464569FFF7C7
:100DAC001FFC854202D06069FFF712FCFFF718FCAC
:100DBC0000236061E386238738BD30B587B0BDF86A
:100DCC0028400225ADF808508DF80B40250ADC7937
:100DDC008DF80A508DF80C409C798DF80D405C799B
:100DEC001B798DF80E408DF80F301023019302AB58
:100DFC00009340690023FFF7E3FB07B030BD38B523
:100E0C00C36B0546C08E13B12C6C241A00E01C4633
:100E1C00944228BF14461844224600F01DFFEB8E66
:100E2C0020462344EB8638BD70B5036804461B6925
:100E3C000E461546984788B1236820461B6998478B
:100E4C008542A8BF0546E38EE16B2A46194430461D
:100E5C0000F002FFE38E2B44E38601E04FF0FF35F8
:100E6C00284670BDF0B5044689B0406C0D46164658
:100E7C00FFF7C6FD0368DB68984710B36769FFF797
:100E8C00AFFB87421DD0E5B108AB102243F8142DFF
:100E9C0001930DEB0203009329460023324660694F
:100EAC00FFF786FB051E0EDB9DF812209DF8133014
:100EBC0005A943EA0223A38604F11C00FFF730FDC9
:100ECC0001E04FF0FF35284609B0F0BD2DE9F041A7
:100EDC00064694B0406C0D469046FFF791FD0368B2
:100EEC00DB689847F8B1284600F0FCFE002481B27C
:100EFC000094736C03AA2846FFF7FAFB90B903A978
:100F0C0008A8FFF7D9FC33680FAC9F6B074B09ADF2
:100F1C000E930FCD0FC42B68424623700EA930469A
:100F2C00B84700E0204614B0BDE8F081A41D0A08C3
:100F3C0070B504460646054B01F1200544F8043B08
:100F4C000FCD0FC42B683046237070BDA41D0A084A
:100F5C00F0B594468E460646026889B0976A094AEF
:100F6C0003AC1D1D02920FCD0FC42B68624623707B
:100F7C00BDF8383071460093304602ABB84709B023
:100F8C00F0BD00BFA41D0A08F0B50446036889B083
:100F9C009F6A0D4B03AD00F12006B0F836E00293CA
:100FAC000FCE0FC5336872462B70A38EE16B009386
:100FBC00204602ABB847054623682046DB699847B4
:100FCC00284609B0F0BD00BFA41D0A0838B54FF47F
:100FDC007A7383600B4B002503F108026C330260BB
:100FEC00036145600446FFF7FBFA606104F11C00E5
:100FFC00FFF754FC4FF40073E5862587E563236403
:10100C00204638BD041F0A0810B590F84830044635
:10101C0023B1C06B10B1012100F0E5FA0023E363AA
:10102C0084F848302364E386238710BD70B50446EA
:10103C0016460D46FFF7E8FF0023E66323643EB92E
:10104C0035B12846FFF723F80123E06384F84830D4
:10105C00E36B03B12564206C003018BF012070BD18
:10106C00F8B51746C26B05460C461AB9016C09B1A6
:10107C00FFF7DCFF05F1200604340FCC0FC6236804
:10108C0033700023AF86EB862B87286CF8BD70B5C8
:10109C00C26B04461AB9016C09B1FFF7C7FFE16BCB
:1010AC000023E386238741B1226C32B12068056BA3
:1010BC002046A8470028C8BF208723682046BDE8E3
:1010CC0070401B69184770474174704708B5007C25
:1010DC00FFF7C6FA20EAE07008BD08B5007CFFF700
:1010EC009FFA20EAE07008BD08B5007CFFF7A8FA6B
:1010FC0030EA200028BF4FF0FF3008BD08B5007C57
:10110C00FFF796FA30EA200028BF4FF0FF3008BDF9
:10111C00007CFFF79DBA10B50446142100F063FA69
:10112C00204610BD70B5457C04460E4625B9007CA2
:10113C00FFF796FA002805DD3146207CBDE87040AB
:10114C00FFF766BA284670BD10B50446084611462E
:10115C00002262604FF47A72A260054A2074226009
:10116C00012262741A46FFF74BFA204610BD00BFED
:10117C007C1F0A0838B50C4D296811F0010411D1F7
:10118C002846FEF788FF68B1084A2146084B0948F3
:10119C00FFF7DAFF2846FEF783FF074A07490548A1
:1011AC0000F01CFA034838BDA8010020AC01002057
:1011BC0024010020100100206C000020D3100A082C
:1011CC0041747047704708B50021007CFFF770FA36
:1011DC0030EA200028BF4FF0FF3008BD08B50121D0
:1011EC00007CFFF765FA30EA200028BF4FF0FF3093
:1011FC0008BD08B5007CFFF753FA20EAE07008BD83
:10120C0008B5007CFFF744FA20EAE07008BD007CCA
:10121C00FFF75EBA10B50446142100F0E4F920463D
:10122C0010BD38B50446007C0D46FFF739FA00288E
:10123C0001DC607C28B12946207CFFF741FA20EACA
:10124C00E07038BD10B50446002363604FF47A7328
:10125C00A360054B08462360012321746374114677
:10126C00FFF706FA204610BDAC1F0A080022007CCE
:10127C00FFF706BA007CFFF733BAFFF7FBBF00009D
:10128C0010B504461422002100F0F1FC054B204659
:10129C006360054BE36040F20113238181232382B9
:1012AC0010BD00BFB50200203402002030B50E4D39
:1012BC0087B001A8FFF7E4FF296811F0010410D1F1
:1012CC002846FEF7E8FE60B101AA21460748FFF761
:1012DC00B9FF2846FEF7E4FE054A0649034800F02C
:1012EC007DF9024807B030BD30020020B803002061
:1012FC006C000020D1110A0810B5044614220021FC
:10130C0000F0B5FC054B20466360054BE36040F2F2
:10131C00011323818123238210BD00BF68040020A8
:10132C00D003002010B50E4C86B001A8FFF7E4FFE7
:10133C002368DB0710D42046FEF7ADFE60B101AA8E
:10134C0001210848FFF77EFF2046FEF7A9FE064A5A
:10135C000649044800F042F9024806B010BD00BF2F
:10136C00CC030020540400206C000020D1110A088A
:10137C00002211464068FFF70FBAF0B5164689B047
:10138C0011220F460446002103A800F070FC3046E1
:10139C0000F0A8FC0025009581B27B6803AA3046BA
:1013AC00FFF7A6F920B129462046FFF797FA03E08C
:1013BC0003A92046FFF780FA204609B0F0BD0022B1
:1013CC0011464068FFF708BA002211464068FFF743
:1013DC0013BA00224068FFF707BA002281F001011E
:1013EC004068FFF7F1B900231A4619464068FFF729
:1013FC00E3B900231A4619464068FFF7D5B9002215
:10140C0011464068FFF7B8B9002202214068FFF787
:10141C00BBB900231A464068FFF7A6B9024B042259
:10142C005A60024A1A6070476C050020DC1F0A08DB
:10143C0008B5144B33B1FFF739FF03681B699847A4
:10144C00002816DC104B33B1FFF794FE03681B69C0
:10145C009847002810DC0D4B0BB1AFF300800C4B00
:10146C007BB1FFF75FFF03681B699847002806DC18
:10147C0008BDAFF30080E5E7AFF30080EBE7AFF317
:10148C00008008BD0000000000000000000000000B
:10149C000000000008B5FFF7CBFFFFF769F8014B20
:1014AC00186008BD7C0500200248034A0349121A43
:1014BC0000F0D2BB0040024004400240B0200A08B9
:1014CC0007B5002300931A466FF07701FFF732F946
:1014DC0003B05DF804FB000007B543880A2B08D065
:1014EC00502B09D1094B1B683BB103B05DF804EBE1
:1014FC001847FFF7E5FF06E0002300931A466FF04C
:10150C007701FFF717F903B05DF804FB74050020B1
:10151C0038B5104C104D2368AB42104B0CBF012258
:10152C0000221A7002D0FFF7BFFF2560FFF718F8F2
:10153C00044600F0A5FB0A4B13B12046AFF3008024
:10154C0000210748FFF700F9BDE8384000210548A5
:10155C00FFF7E6B8004002401E1C279A78050020D1
:10156C0000000000E5140A0813B5084C00231A46C5
:10157C00194600932046FFF7C7F92046044A05494F
:10158C0002B0BDE8104000F029B800BF8005002073
:10159C006C000020B3000A0870B50C4C0C4E0D4DBD
:1015AC0000212046FFF7E4FA20460B4C3246294630
:1015BC0000F014F801212046FFF7DAFA32462946EA
:1015CC002046BDE8704000F009B800BF9805002027
:1015DC006C0000206D0B0A08A80500200B46014684
:1015EC00184600F02BBBFEF754BD0000244B1A68C4
:1015FC00D0075CBF01221A60224B1A68D1075CBF6E
:10160C0001221A60204B1A68D2075CBF01221A60B3
:10161C001E4B1A68D0075CBF01221A601C4B1A685B
:10162C00D1075CBF01221A601A4B1A68D2075CBF43
:10163C0001221A60184B1A68D0075CBF01221A608D
:10164C00164B1A68D1075CBF01221A60144B1A683A
:10165C00D2075CBF01221A60124B1A68D0075CBF1C
:10166C0001221A60104B1A68D1075CBF01221A6064
:10167C000E4B1A68D2075CBF01221A60704700BF7C
:10168C00E4050020E0050020DC050020D805002042
:10169C00D4050020D0050020CC050020C805002072
:1016AC00C4050020C0050020BC050020B8050020A2
:1016BC00184B1A68D1075CBF01221A60164B1A68C6
:1016CC00D2075CBF01221A60144B1A68D0075CBFAA
:1016DC0001221A60124B1A68D1075CBF01221A60F2
:1016EC00104B1A68D2075CBF01221A600E4B1A68A5
:1016FC00D0075CBF01221A600C4B1A68D1075CBF83
:10170C0001221A600A4B1A68D2075CBF01221A60C8
:10171C00704700BF0406002000060020FC050020D6
:10172C00F8050020F4050020F0050020EC05002051
:10173C00E8050020184B1A68D1075CBF01221A601B
:10174C00164B1A68D2075CBF01221A60144B1A6838
:10175C00D0075CBF01221A60124B1A68D1075CBF1C
:10176C0001221A60104B1A68D2075CBF01221A6062
:10177C000E4B1A68D0075CBF01221A600C4B1A681A
:10178C00D1075CBF01221A600A4B1A68D2075CBFF2
:10179C0001221A60704700BF24060020200600209A
:1017AC001C0600201806002014060020100600203D
:1017BC000C06002008060020244B1A68D0075CBFDA
:1017CC0001221A60224B1A68D1075CBF01221A60F1
:1017DC00204B1A68D2075CBF01221A601E4B1A6894
:1017EC00D0075CBF01221A601C4B1A68D1075CBF82
:1017FC0001221A601A4B1A68D2075CBF01221A60C8
:10180C00184B1A68D0075CBF01221A60164B1A6875
:10181C00D1075CBF01221A60144B1A68D2075CBF57
:10182C0001221A60124B1A68D0075CBF01221A60A1
:10183C00104B1A68D1075CBF01221A600E4B1A6854
:10184C00D2075CBF01221A60704700BF540600200B
:10185C00500600204C0600204806002044060020BC
:10186C00400600203C0600203806002034060020EC
:10187C00300600202C0600202806002081F00041B4
:10188C0002E000BF83F0004330B54FEA41044FEA59
:10189C00430594EA050F08BF90EA020F1FBF54EAF4
:1018AC00000C55EA020C7FEA645C7FEA655C00F090
:1018BC00E2804FEA5454D4EB5555B8BF6D420CDD61
:1018CC002C4480EA020281EA030382EA000083EAE4
:1018DC00010180EA020281EA0303362D88BF30BD84
:1018EC0011F0004F4FEA01314FF4801C4CEA1131DA
:1018FC0002D0404261EB410113F0004F4FEA033339
:10190C004CEA133302D0524263EB430394EA050FC3
:10191C0000F0A780A4F10104D5F1200E0DDB02FA32
:10192C000EFC22FA05F2801841F1000103FA0EF2C6
:10193C00801843FA05F359410EE0A5F120050EF18C
:10194C00200E012A03FA0EFC28BF4CF0020C43FABD
:10195C0005F3C01851EBE37101F0004507D54FF0CA
:10196C00000EDCF1000C7EEB00006EEB0101B1F51A
:10197C00801F1BD3B1F5001F0CD349085FEA300060
:10198C004FEA3C0C04F101044FEA445212F5800F6B
:10199C0080F09A80BCF1004F08BF5FEA500C50F108
:1019AC00000041EB045141EA050130BD5FEA4C0CEB
:1019BC00404141EB010111F4801FA4F10104E9D174
:1019CC0091F0000F04BF01460020B1FA81F308BF6B
:1019DC002033A3F10B03B3F120020CDA0C3208DD37
:1019EC0002F1140CC2F10C0201FA0CF021FA02F112
:1019FC000CE002F11402D8BFC2F1200C01FA02F182
:101A0C0020FA0CFCDCBF41EA0C019040E41AA2BFA6
:101A1C0001EB0451294330BD6FEA04041F3C1CDA6E
:101A2C000C340EDC04F11404C4F1200220FA04F08E
:101A3C0001FA02F340EA030021FA04F345EA030138
:101A4C0030BDC4F10C04C4F1200220FA02F001FAFA
:101A5C0004F340EA0300294630BD21FA04F029467C
:101A6C0030BD94F0000F83F4801306BF81F4801115
:101A7C000134013D4EE77FEA645C18BF7FEA655C88
:101A8C0029D094EA050F08BF90EA020F05D054EA5A
:101A9C00000C04BF1946104630BD91EA030F1EBF5F
:101AAC000021002030BD5FEA545C05D14000494163
:101ABC0028BF41F0004130BD14F580043CBF01F556
:101ACC00801130BD01F0004545F0FE4141F470013C
:101ADC004FF0000030BD7FEA645C1ABF1946104617
:101AEC007FEA655C1CBF0B46024650EA013406BF18
:101AFC0052EA033591EA030F41F4002130BD00BFD7
:101B0C0090F0000F04BF0021704730B54FF4806493
:101B1C0004F132044FF000054FF0000150E700BF14
:101B2C0090F0000F04BF0021704730B54FF4806473
:101B3C0004F1320410F0004548BF40424FF0000160
:101B4C003EE700BF42004FEAE2014FEA31014FEAA3
:101B5C0002701FBF12F07F4393F07F4F81F06051F2
:101B6C00704792F0000F14BF93F07F4F704730B561
:101B7C004FF4607401F0004521F0004120E700BFF4
:101B8C0050EA010208BF704730B54FF000050AE07B
:101B9C0050EA010208BF704730B511F0004502D57C
:101BAC00404261EB41014FF4806404F132045FEA7E
:101BBC00915C3FF4DCAE4FF003025FEADC0C18BF23
:101BCC0003325FEADC0C18BF033202EBDC02C2F119
:101BDC00200300FA03FC20FA02F001FA03FE40EAAB
:101BEC000E0021FA02F11444C1E600BF4FEA410293
:101BFC0012F5001215D211D56FF47873B3EB625253
:101C0C0012D94FEAC12343F0004343EA505311F079
:101C1C00004F23FA02F018BF404270474FF000000B
:101C2C00704750EA013005D111F0004008BF6FF049
:101C3C00004070474FF00000704700BF10B5054CD6
:101C4C0013462CB10A4601460220AFF3008010BDAA
:101C5C00204610BD0000000010B5431E0A449142FE
:101C6C0004D011F8014B03F8014FF8E710BD0346FF
:101C7C000244934202D003F8011BFAE770470000BC
:101C8C0038B5124B05461C68A36BD3B91820FEF768
:101C9C00CBFD43F20E33A06303804AF6CD33438071
:101CAC0041F2342383804EF26D63C3804DF6EC63B6
:101CBC000381052343810B23838101220023C0E987
:101CCC000423A36B00221D615A6138BD68000020FB
:101CDC0010F8012B11F8013B012A28BF9A42F7D0CA
:101CEC00D01A7047034613F8012B002AFBD1181A9F
:101CFC00013870471D000A085D000A0889000A08AF
:101D0C008D000A08000000005354494C4C004D4F04
:101D1C005645004C495354454E494E472D2D2D2DBB
:101D2C002D2D2D2D2D2D2D2D2D2D2D007265636519
:101D3C006976696E67206D657373616765002D2D1B
:101D4C002D696E207768696C652D2D2D00504152E0
:101D5C0053494E47007374696C6C002F6D6F766538
:101D6C00004E6F206D657373616765005365747504
:101D7C0070004851526F757465725F5055424C49F2
:101D8C00534800203A20000A2D2D2D2D0000000074
:101D9C00000000000000000077080A08B3000A08E1
:101DAC00C1010A08626175640053657269616C0057
:101DBC0055534253657269616C31007479706500DA
:101DCC00706172616D00636D6400696400686E64BB
:101DDC00007374726D0066696C74006C766C0061D3
:101DEC00646448616E646C65720072656D6F7665D3
:101DFC0048616E646C657200656E756D48616E64E9
:101E0C006C657273004A534F4E53747265616D4C1E
:101E1C006F6748616E646C6572006170700025308C
:101E2C0031307520005D20002564002C200028290D
:101E3C003A2000205B00636F6465203D200025691B
:101E4C000064657461696C73203D20000D0A0066A6
:101E5C00006C6E00666E00636F646500646574618F
:101E6C00696C006E6F6E6500747261636500696EFB
:101E7C00666F007761726E006572726F72007061CE
:101E8C006E696300616C6C000000000000000000D3
:101E9C0055090A085F090A0869090A0873090A083A
:101EAC007D090A0889090A0895090A08A1090A087E
:101EBC00A9090A08B3090A08BD090A0800000000AC
:101ECC00000000006D0B0A086F0B0A085A00252B46
:101EDC003033643A253032750025592D256D2D256A
:101EEC00645425483A254D3A2553257A006173638D
:101EFC0074696D6500000000000000000000000027
:101F0C00A1010A08CF010A08EB0C0A080B0E0A08FB
:101F1C00E30C0A08010D0A081F0D0A08390D0A08FE
:101F2C005B0D0A08A50D0A08C70D0A085D0F0A0803
:101F3C00710E0A08CD0C0A086D100A08D90E0A0891
:101F4C00950F0A089B100A08350E0A08D90C0A08C6
:101F5C003D0F0A08DF0C0A083B0D0A08F0FFFFFFD3
:101F6C0000000000530D0A080000000000000000F3
:101F7C00D3100A0823110A0831110A08390A0A0871
:101F8C00E7100A0809110A08F5100A081D110A08B9
:101F9C00D5100A08D9100A08000000000000000043
:101FAC00D1110A0821120A082F120A08390A0A0844
:101FBC000D120A08D3110A08E9110A081B120A08A3
:101FCC00FF110A08CD110A080000000000000000F3
:101FDC001F140A0815140A080B140A087D130A08A2
:101FEC00FF130A08F3130A08E7130A08DF130A0899
:101FFC00D5130A08CB130A0887130A08000000003F
:10200C0000000000000000000000000000000000C4
:10201C0000000000000000000000000000000000B4
:10202C0000000000000000000000000000000000A4
:10203C000000000000000000000000000000000094
:10204C000000000000000000000000000000000084
:10205C000000000000000000000000004300000031
:10206C00CD020A089D030A0857050A0845090A0803
:10207C00250A0A08510B0A08A10C0A08B90C0A080F
:10208C0029140A0875150A08A5150A08F9150A086D
:10209C00BD160A0841170A08C5170A0800000000F7
:0420AC000000000030
:0420B000000000002C
:1020B400B8220000F91E0A080000000008200A08DF
:1020C40028200A0848200A08000000000000000038
:1020D400000000000000000068200A080000000062
:1020E40000000000000000000000000000000000EC
:1020F40000000000000000000000000000000000DC
:1021040000000000000000000000000000000000CB
:0C21140000000000000000000800002097
:10212000FFFFFFFF00000102030405060708090A7C
:102130000B0C0D0E0F101112131415161718191A77
:082140001B1C1D1E1F202800BE
:04214800785634127F
:04000005080A001CC9
:00000001FF
