:02000004080AE8
:1000000000000A0858380A0800000600060005012A
:08001000040279050000000064
:0400180000340A089E
:10001C0009480A4908B5884205D0094A824202D0EB
:10002C00121A03F0A3F90748074A0021121A03F029
:10003C00A8F9064808BD00BF00000020C4370A0814
:10004C006C0000206C000020940600209406002018
:10005C0070B502F05FFC074B074C1E46E41AA4086F
:10006C000025A54204D056F8253098470135F8E70D
:10007C0070BD00BF88370A08C0370A0800F036B8D0
:10008C0008B500F0B3F9BDE8084002F005BC01F07A
:10009C007DBD01F083BD0078B0FA80F04009704757
:1000AC00012303707047704710B50446054B03607D
:1000BC006433036102F06EF8204602F0A3F9204687
:1000CC0010BD00BF28360A0810B50446182102F0EE
:1000DC00FAFC204610BD10B50446FFF7E5FF20469C
:1000EC004C2102F0F0FC204610BD000070B596B01B
:1000FC0002F0DEFA02F0C3FA0028F9D0314C0023EA
:10010C001A461946606801F0E1FC0022114660684D
:10011C002C4D01F0F3FC0028F7D002F0C9FA2A4963
:10012C0001F0BBFE294B00221988294802F00DF87A
:10013C0000231946274A686801F018FD02F0B8FA46
:10014C00064600244022002106A803F01AF9402399
:10015C0006AA21460094686801F010FD06A902A8C1
:10016C0001F082FF0299304601F097FE02A801F0DF
:10017C0034FF02F09DFA224606462146686801F0DB
:10018C009DFC811C06A801F08FFD06A9304601F0EC
:10019C008EFE02F08DFA4FF4165102F069FA0E4BF6
:1001AC000122E2540134182CFBD132210B4801F00E
:1001BC00DAFA0A4800F08EF9084800F0C1F916B0D6
:1001CC0070BD00BF9005002014340A080000002008
:1001DC00A40000201A340A087000002088000020B7
:1001EC00C043C0B254280AD800EB4002A0EB8000F8
:1001FC0001380023D2B21946C0B201F0ABBAA9281B
:10020C000CD85538C1B2A1EB8102013A01EB410186
:10021C000023D2B2C9B2184601F09CBA5630C0B213
:10022C00A0EB8001013900EB400000231A46C9B253
:10023C00C0B201F08FBA00002DE9F0410646174616
:10024C001E4898460C4601F08CFA02F031FA1C4913
:10025C0001F00AFE02F02CFA0A22314601F07FFE70
:10026C003D46EB1B9E4227DD00221146104601F055
:10027C006CFA02F01DFA134901F0F6FD02F018FABF
:10028C000A22294601F06BFE02F012FA0E4901F027
:10029C00EBFD02F00DFA21460A2201F060FEA1B23C
:1002AC00069A064801F006FAA9B24246034801F044
:1002BC0001FA0135013CD4E7BDE8F081880000204B
:1002CC002D340A083A340A0840340A082DE9F04F54
:1002DC000024254687B004900391039B9C4279DA55
:1002EC0000263E4801F03DFAC0F34F083B4801F0B0
:1002FC0038FAC0F34F074FEA072B072F4EDD37486C
:10030C0001F02FFA9BFBF0F03044C0B2FFF768FF0E
:10031C008246284602F0DCFD314902F0E1FE8146BE
:10032C002E4801F046FA5FFA8AF002F0D1FD4946F8
:10033C0002F022FE02F0E6FFC3B2CAF307400293BA
:10034C0002F0C6FD494602F017FE02F0DBFF029AEE
:10035C00C1B2002001F0F9F90590CAF3072002F0B0
:10036C00B7FD494602F008FE02F0CCFF029A0021CC
:10037C00C0B201F0EAF942463946059B00900720CD
:10038C00FFF75AFF154800F0DBF8049808F1010854
:10039C0001F014FC013FABF5807BAEE744B9284675
:1003AC0002F096FD0F4902F085FF08B101350BE014
:1003BC00039B013B9C4207D1304602F089FD0A4960
:1003CC0002F096FF00B1013D0136B6F5807F88D171
:1003DC00013482E707B0BDE8F08F00BF8800002031
:1003EC000000C8420000C64200001B430322114615
:1003FC00F420FFF76BBF000038B501F009FA0021BB
:10040C00012001F037FB154B00221A705A804FF671
:10041C00FF72134D9A80022001F01CFB114C2846F0
:10042C0001F034FC2846104D2246104902F046FBE0
:10043C00284601F0C9FF22460D4928460D4D02F011
:10044C003DFB02231A461821284600F068F8224684
:10045C002846BDE83840084902F030BB9C0000201B
:10046C00F00000206C000020A4000020B3000A085B
:10047C00B5000A08880000208D040A0801F0B8B9FC
:10048C0010B50446C06808B101F088FB23781BB195
:10049C000021E07902F08EFA204610BD38B50446F2
:1004AC00C0680D4608B101F079FBA379062B0CBF8F
:1004BC0004200320684380B2A08001F067FBE06059
:1004CC0028B1A288002102F05CFF658038BDA080B5
:1004DC00608038BD10B504460121C07902F06AFA7B
:1004EC000021E07902F077FA0123237010BD38B5B2
:1004FC00037805460C461BB10021C07902F05AFA6C
:10050C002B78EC7153B1A4B22046012102F052FABF
:10051C002046BDE83840002102F05DBA38BD70B508
:10052C00044616460025837105700572C560056189
:10053C00FFF7B4FF20463146FFF7D9FF204670BDC8
:10054C00C368002B00F08E852DE9F04104468379B9
:10055C0086B0023BDBB2042B96BF294A322552F8F7
:10056C002350FFF78BFF2369C01AA842F9D372B648
:10057C00A179A3880229ADF80A30D4F80CE000F078
:10058C007282072900F06F82062900F03284052957
:10059C0000F0AB83082900F0A883002940F06385A4
:1005AC00184A4FF40006BDF80A309BB2002B00F03D
:1005BC0095830496BDF80A300EF10305033B9BB2FC
:1005CC00ADF80A309EF80030DBB28DF807309EF89B
:1005DC000130DBB28DF806309EF80230DBB28DF8BC
:1005EC0008309DF807709DF806309DF808001B0236
:1005FC0043EA0743034303938DF805101BE100BF47
:10060C007C340A0808010020004600BF00BF00BF70
:10061C0000BF00BF00BF00BF00BF00BF00BF00BFD6
:10062C0000BF00BF00BF00BF00BF00BF00BF00BFC6
:10063C0000BF00BF00BF00BF00BF00BF00BF00BFB6
:10064C0000BF00BF00BF00BF00BF00BF00BF00BFA6
:10065C0000BF00BF00BF00BF00BF00BF00BF00BF96
:10066C0000BF00BF00BF00BF00BF00BF00BF00BF86
:10067C0000BF00BF00BF00BF00BF00BF00BF00BF76
:10068C0000BF00BF00BF00BF00BF00BF00BF00BF66
:10069C0000BF00BF00BF00BF00BF00BF00BF00BF56
:1006AC0000BF00BF00BF00BF00BF00BF00BF00BF46
:1006BC0000BF00BF00BF00BF00BF00BF00BF00BF36
:1006CC0000BF00BF00BF00BF00BF00BF00BF00BF26
:1006DC0000BF00BF00BF00BF00BF00BF00BF00BF16
:1006EC0000BF00BF00BF00BF00BF00BF00BF00BF06
:1006FC0000BF00BF00BF00BF00BF00BF00BF00BFF6
:10070C0000BF00BF00BF00BF00BF00BF00BF00BFE5
:10071C00E3791068C3EBC30300EB8307BF8850F881
:10072C0023305F83004600BF00BF00BF00BF00BF87
:10073C0000BF00BF00BF00BF00BF00BF00BF00BFB5
:10074C0000BF00BF00BF00BF00BF00BF00BF00BFA5
:10075C0000BF00BF00BF00BF00BF00BF00BF00BF95
:10076C0000BF00BF00BF00BF00BF00BF00BF00BF85
:10077C0000BF00BF00BF00BF00BF00BF00BF00BF75
:10078C0000BF00BF00BF00BF00BF00BF00BF00BF65
:10079C0000BF00BF00BF00BF00BF00BF00BF00BF55
:1007AC0000BF00BF00BF00BF00BF00BF00BF00BF45
:1007BC0000BF00BF00BF00BF00BF00BF00BF00BF35
:1007CC0000BF00BF00BF00BF00BF00BF00BF00BF25
:1007DC0000BF00BF00BF00BF00BF00BF00BF00BF15
:1007EC0000BF00BF00BF00BF00BF00BF00BF00BF05
:1007FC0000BF00BF00BF00BF00BF00BF00BF00BFF5
:10080C0000BF00BF00BF00BF00BF00BF00BF00BFE4
:10081C0000BF00BF00BF00BF00BF00BF00BF049BF4
:10082C005B0804939DF805300133DBB2172B8DF870
:10083C00053000F2DB82E3791068C3EBC30300EBF5
:10084C008307BF8850F823301F830398049B1842FA
:10085C007FF4DAAE004600BF00BF00BF00BF00BF90
:10086C0000BF00BF00BF00BF00BF00BF00BF00BF84
:10087C0000BF00BF00BF00BF00BF00BF00BF00BF74
:10088C0000BF00BF00BF00BF00BF00BF00BF00BF64
:10089C0000BF00BF00BF00BF00BF00BF00BF00BF54
:1008AC0000BF00BF00BFE3791068C3EBC30300EBCC
:1008BC008307BF8850F823305F83004600BF00BF1A
:1008CC0000BF00BF00BF00BF00BF00BF00BF00BF24
:1008DC0000BF00BF00BF00BF00BF00BF00BF00BF14
:1008EC0000BF00BF00BF00BF00BF00BF00BF00BF04
:1008FC0000BF00BF00BF00BF00BF00BF00BF00BFF4
:10090C0000BF00BF00BF00BF00BF00BF00BF00BFE3
:10091C0000BF00BF00BF00BF00BF00BF00BF00BFD3
:10092C0000BF00BF00BF00BF00BF00BF00BF00BFC3
:10093C0000BF00BF00BF00BF00BF00BF00BF00BFB3
:10094C0000BF00BF00BF00BF00BF00BF00BF00BFA3
:10095C0000BF00BF00BF00BF00BF00BF00BF00BF93
:10096C0000BF00BF00BF00BF00BF00BF00BF00BF83
:10097C0000BF00BF00BF00BF00BF00BF00BF00BF73
:10098C0000BF00BF00BF00BF00BF00BF00BF00BF63
:10099C0000BF00BF00BF00BF00BF00BF00BF00BF53
:1009AC0000BF00BF00BF00BF00BF00BF00BF00BF43
:1009BC0000BF00BF00BF00BF00BF00BF00BF00BF33
:1009CC0000BF00BF00BF00BF00BF00BF00BF00BF23
:1009DC0000BF00BF00BF00BF00BF00BF00BF00BF13
:1009EC0000BF00BF00BF00BF00BF00BF00BF00BF03
:1009FC0000BF00BF00BF00BF00BF00BF00BF00BFF3
:100A0C0000BF00BF00BF00BF00BF00BF00BF00BFE2
:100A1C0000BF00BF00BF00BF00BF00BF00BF00BFD2
:100A2C0000BF00BF00BF00BF00BF00BF00BF00BFC2
:100A3C0000BF00BF00BF00BF00BF00BF00BF00BFB2
:100A4C0000BF00BF00BF00BF00BF00BF00BF00BFA2
:100A5C0000BF00BF00BF00BF00BF00BF00BF00BF92
:100A6C0000BF00BFDBE6BDF80A30174A9BB24FF45B
:100A7C0000050026002B00F031810495BDF80A30EA
:100A8C000EF10301033B9BB2ADF80A309EF8003027
:100A9C00DBB28DF806309EF80130DBB28DF80730F2
:100AAC009EF80230DBB28DF808309DF806309DF8C8
:100ABC0007009DF80870000240EA03433B43039390
:100ACC008DF8056080E000BF08010020004600BFE3
:100ADC0000BF00BF00BF00BF00BF00BF00BF00BF12
:100AEC0000BF00BF00BF00BF00BF00BF00BF00BF02
:100AFC0000BF00BF00BF00BF00BF00BF00BF00BFF2
:100B0C0000BF00BF00BF00BF00BF00BF00BF00BFE1
:100B1C0000BF00BF00BF00BF00BF00BF00BF00BFD1
:100B2C0000BF00BF00BF00BF00BF00BF00BF00BFC1
:100B3C0000BF00BF00BF00BF00BF00BF00BF00BFB1
:100B4C0000BF00BF00BF00BF00BF00BF00BF00BFA1
:100B5C0000BF00BF00BF00BF00BF00BF00BF00BF91
:100B6C0000BF00BF00BFE3791068C3EBC30300EB09
:100B7C008307BF8850F823305F83004600BF00BF57
:100B8C0000BF00BF00BF00BF00BF00BF00BF00BF61
:100B9C0000BF00BF00BF00BF00BF00BF00BF00BF51
:100BAC0000BF00BF00BF00BF00BF00BF00BF00BF41
:100BBC00049B5B0804939DF805300133DBB2172BC3
:100BCC008DF8053000F28380E3791068C3EBC30322
:100BDC0000EB8307BF8850F823301F830398049BD6
:100BEC0018427FF473AF004600BF00BF00BF00BFC8
:100BFC0000BF00BF00BF00BF00BF00BF00BF00BFF1
:100C0C0000BF00BF00BF00BF00BF00BF00BFE37943
:100C1C001068C3EBC30300EB8307BF8850F8233085
:100C2C005F83004600BF00BF00BF00BF00BF00BF16
:100C3C0000BF00BF00BF00BF00BF00BF00BF00BFB0
:100C4C0000BF00BF00BF00BF00BF00BF00BF00BFA0
:100C5C0000BF00BF00BF00BF00BF00BF00BF00BF90
:100C6C0000BF00BF00BF00BF00BF00BF00BF00BF80
:100C7C0000BF00BF00BF00BF00BF00BF00BF00BF70
:100C8C0000BF00BF00BF00BF00BF00BF00BF00BF60
:100C9C0000BF00BF00BF00BF00BF00BF00BF00BF50
:100CAC0000BF00BF00BF00BF00BF00BF00BF00BF40
:100CBC0000BF00BF00BF00BF00BF00BF00BF00BF30
:100CCC0000BF00BF00BF00BF00BF00BF70E7BDF892
:100CDC000A308E469BB2002B7FF4CFAE62B6FFF784
:100CEC00CDFB206106B0BDE8F0815E4B5E4A184634
:100CFC0011684FF400080027BDF80A2092B2002AB0
:100D0C00ECD0CDF81080BDF80A200EF10305033AA3
:100D1C0092B2ADF80A209EF80020D2B28DF80620CF
:100D2C009EF80120D2B28DF807209EF80220D2B294
:100D3C008DF808209DF806209DF807E09DF808C066
:100D4C004FEA0E2E4EEA024242EA0C0203928DF852
:100D5C000570E2795E68C2EBC20201EB820EBEF84E
:100D6C0004E051F822200596A2F818E0039E049A9C
:100D7C00164223D05A68059E921B4F2AFAD9E27963
:100D8C00C2EBC20201EB820EBEF804E051F8222045
:100D9C00A2F81AE0426805925A68059E921B072A2F
:100DAC00FAD9049A520804929DF805200132D2B265
:100DBC00172A8DF80520CCD9AE469DE75A68059EBA
:100DCC00921B182AFAD9E279C2EBC20201EB820E0D
:100DDC00BEF804E051F82220A2F81AE0426805920D
:100DEC005A68059E921B452AFAD9DAE7AE46FFF7F8
:100DFC00DABB1D4A4FF000450026BDF80A309BB205
:100E0C00002B3FF46BAF0495BDF80A300EF10401D2
:100E1C00043B9BB2ADF80A309EF80030DBB28DF883
:100E2C0007309EF80130DBB28DF806309EF80230A8
:100E3C00DBB28DF808309EF80330DBB28DF8093048
:100E4C009DF807309DF806709DF808E03F049DF86A
:100E5C00090047EA0363034343EA0E2303938DF827
:100E6C0005607EE0001000E008010020004600BF95
:100E7C0000BF00BF00BF00BF00BF00BF00BF00BF6E
:100E8C0000BF00BF00BF00BF00BF00BF00BF00BF5E
:100E9C0000BF00BF00BF00BF00BF00BF00BF00BF4E
:100EAC0000BF00BF00BF00BF00BF00BF00BF00BF3E
:100EBC0000BF00BF00BF00BF00BF00BF00BF00BF2E
:100ECC0000BF00BF00BF00BF00BF00BF00BF00BF1E
:100EDC0000BF00BF00BF00BF00BFE3791068C3EBC9
:100EEC00C30300EB8307BF8850F823305F830046B1
:100EFC0000BF00BF00BF00BF00BF00BF00BF00BFEE
:100F0C0000BF00BF00BF00BF00BF00BF00BF00BFDD
:100F1C0000BF00BF00BF00BF00BF00BF00BF00BFCD
:100F2C0000BF00BF00BF00BF00BF00BF00BF00BFBD
:100F3C0000BF00BF00BF00BF00BF00BF00BF00BFAD
:100F4C0000BF00BF00BF00BF00BF00BF049B5B0819
:100F5C0004939DF805300133DBB21F2B8DF805305F
:100F6C007ED8E3791068C3EBC30300EB8307BF881B
:100F7C0050F823301F830398049B18427FF476AFFC
:100F8C00004600BF00BF00BF00BF00BF00BF00BFD6
:100F9C0000BF00BF00BF00BF00BF00BF00BF00BF4D
:100FAC0000BF00BF00BF00BFE3791068C3EBC303F1
:100FBC0000EB8307BF8850F823305F83004600BFE7
:100FCC0000BF00BF00BF00BF00BF00BF00BF00BF1D
:100FDC0000BF00BF00BF00BF00BF00BF00BF00BF0D
:100FEC0000BF00BF00BF00BF00BF00BF00BF00BFFD
:100FFC0000BF00BF00BF00BF00BF00BF00BF00BFED
:10100C0000BF00BF00BF00BF00BF00BF00BF00BFDC
:10101C0000BF00BF00BF00BF00BF00BF00BF00BFCC
:10102C0000BF00BF00BF00BF00BF00BF00BF00BFBC
:10103C0000BF00BF00BF00BF00BF00BF00BF00BFAC
:10104C0000BF00BF00BF00BF00BF00BF00BF00BF9C
:10105C0000BF00BF00BF00BF00BF00BF00BF75E7EF
:10106C008E46CAE67047032900F02E811E4A4FF4C3
:10107C0000050026BDF80A309BB2002B3FF42EAEC3
:10108C000495BDF80A30E079033B9BB2ADF80A3009
:10109C009EF800300EF10301DBB28DF807309EF89C
:1010AC000130C0EBC000DBB28DF808309EF8023086
:1010BC00D2F800E0DBB28DF806309DF807709DF891
:1010CC0008300EEB800C1B0243EA07439DF80670B8
:1010DC00BCF804C05EF820003B4303938DF8056018
:1010EC00A0F81AC07DE000BF08010020049B5B083B
:1010FC000493004600BF00BF00BF00BF00BF00BF8D
:10110C0000BF00BF00BF00BF00BF00BF00BF00BFDB
:10111C0000BF00BF00BF00BF00BF00BF00BF00BFCB
:10112C0000BF00BF00BF00BF00BF00BF00BF00BFBB
:10113C0000BF00BF00BF00BF00BF00BF00BF00BFAB
:10114C0000BF00BF00BF00BF00BF00BF00BF00BF9B
:10115C0000BF00BF00BF00BF00BF00BF00BF00BF8B
:10116C0000BF00BF00BF00BF00BF00BF00BF00BF7B
:10117C0000BF00BF00BF00BFE07917689DF80530C5
:10118C00C0EBC00007EB800EBEF804E057F820005F
:10119C000133DBB28DF80530A0F818E0004600BF33
:1011AC0000BF00BF00BF00BF00BF00BF00BF00BF3B
:1011BC0000BF00BF00BF00BF00BF00BF00BF00BF2B
:1011CC0000BF00BF00BF9DF80530182B7AD0E37923
:1011DC001068C3EBC30300EB8307BF8850F82330C0
:1011EC005F830398049B184280D1004600BF00BF68
:1011FC0000BF00BF00BF00BF00BF00BF00BF00BFEB
:10120C0000BF00BF00BF00BF00BF00BFE379106884
:10121C00C3EBC30300EB8307BF8850F823301F8355
:10122C009DF805300133DBB28DF80530049B5B086B
:10123C000493004600BF00BF00BF00BF00BF00BF4B
:10124C0000BF00BF00BF00BF00BF00BF00BF00BF9A
:10125C0000BF00BF00BF00BF00BF00BF00BF00BF8A
:10126C0000BF00BF00BF00BF00BF00BF00BF00BF7A
:10127C0000BF00BF00BF00BF00BF00BF00BF00BF6A
:10128C0000BF00BF00BF00BF00BF00BF00BF00BF5A
:10129C0000BF00BF00BF00BF00BF00BF00BF00BF4A
:1012AC0000BF00BF00BF00BF00BF00BF00BF00BF3A
:1012BC0000BF00BF00BF00BF00BF00BF9DF80530DE
:1012CC00182B84D18E46D5E6174A4FF4000500261C
:1012DC00BDF80A309BB2002B3FF400AD0495BDF86D
:1012EC000A300EF10301033B9BB2ADF80A309EF8B5
:1012FC000030DBB28DF807309EF80130DBB28DF890
:10130C0006309EF80230DBB28DF808309DF807707D
:10131C009DF806309DF808001B0243EA074303437F
:10132C0003938DF80560E0E008010020004600BF43
:10133C0000BF00BF00BF00BF00BF00BF00BF00BFA9
:10134C0000BF00BF00BF00BF00BF00BF00BF00BF99
:10135C0000BF00BF00BF00BF00BF00BF00BF00BF89
:10136C0000BF00BF00BF00BF00BF00BF00BF00BF79
:10137C0000BF00BF00BF00BF00BF00BF00BF00BF69
:10138C0000BF00BF00BF00BF00BF00BF00BF00BF59
:10139C0000BF00BF00BF00BF00BF00BF00BF00BF49
:1013AC0000BF00BF00BF00BF00BF00BF00BF00BF39
:1013BC0000BF00BF00BF00BF00BF00BF00BF00BF29
:1013CC0000BF00BF00BF00BF00BF00BF00BF00BF19
:1013DC0000BF00BF00BF00BF00BF00BF00BF00BF09
:1013EC0000BF00BF00BF00BF00BF00BF00BF00BFF9
:1013FC0000BF00BF00BF00BF00BF00BF00BF00BFE9
:10140C0000BF00BF00BF00BF00BF00BF00BF00BFD8
:10141C0000BF00BF00BF00BF00BF00BF00BF00BFC8
:10142C0000BF00BF00BF00BF00BF00BF00BF00BFB8
:10143C0000BF00BF00BF00BF00BF00BF00BF00BFA8
:10144C0000BF00BF00BF00BF00BF00BF00BFE379FB
:10145C001068C3EBC30300EB8307BF8850F823303D
:10146C005F83004600BF00BF00BF00BF00BF00BFCE
:10147C0000BF00BF00BF00BF00BF00BF00BF00BF68
:10148C0000BF00BF00BF00BF00BF00BF00BF00BF58
:10149C0000BF00BF00BF00BF00BF00BF00BF00BF48
:1014AC0000BF00BF00BF00BF00BF00BF00BF00BF38
:1014BC0000BF00BF00BF00BF00BF00BF00BF00BF28
:1014CC0000BF00BF00BF00BF00BF00BF00BF00BF18
:1014DC0000BF049B5B0804939DF805300133DBB21D
:1014EC00172B8DF8053000F2E380E3791068C3EB1D
:1014FC00C30300EB8307BF8850F823301F83039886
:10150C00049B18427FF412AF004600BF00BF00BF1F
:10151C0000BF00BF00BF00BF00BF00BF00BF00BFC7
:10152C0000BF00BF00BF00BF00BF00BF00BF00BFB7
:10153C0000BF00BF00BF00BF00BF00BF00BF00BFA7
:10154C0000BF00BF00BF00BF00BF00BF00BF00BF97
:10155C0000BF00BF00BF00BF00BF00BF00BF00BF87
:10156C0000BF00BF00BF00BF00BF00BF00BF00BF77
:10157C0000BF00BF00BF00BF00BF00BF00BF00BF67
:10158C0000BF00BF00BF00BF00BFE3791068C3EB12
:10159C00C30300EB8307BF8850F823305F830046FA
:1015AC0000BF00BF00BF00BF00BF00BF00BF00BF37
:1015BC0000BF00BF00BF00BF00BF00BF00BF00BF27
:1015CC0000BF00BF00BF00BF00BF00BF00BF00BF17
:1015DC0000BF00BF00BF00BF00BF00BF00BF00BF07
:1015EC0000BF00BF00BF00BF00BF00BF00BF00BFF7
:1015FC0000BF00BF00BF00BF00BF00BF00BF00BFE7
:10160C0000BF00BF00BF00BF00BF00BF00BF00BFD6
:10161C0000BF00BF00BF00BF00BF00BF00BF00BFC6
:10162C0000BF00BF00BF00BF00BF00BF00BF00BFB6
:10163C0000BF00BF00BF00BF00BF00BF00BF00BFA6
:10164C0000BF00BF00BF00BF00BF00BF00BF00BF96
:10165C0000BF00BF00BF00BF00BF00BF00BF00BF86
:10166C0000BF00BF00BF00BF00BF00BF00BF00BF76
:10167C0000BF00BF00BF00BF00BF00BF00BF00BF66
:10168C0000BF00BF00BF00BF00BF00BF00BF00BF56
:10169C0000BF00BF00BF00BF00BF00BF00BF00BF46
:1016AC0000BF00BF00BF00BF00BF00BF00BF10E7FE
:1016BC008E460DE64388F0B58B4245D9057AC2F3C8
:1016CC000743C2F30724D6B245B16B436C436E4358
:1016DC00C3F30723C4F30724C6F3072690F806C008
:1016EC00C768BCF1060F0CBF042503256943BCF188
:1016FC00080F07EB010524D84FF0010E0EFA0CFE73
:10170C001EF4D27F0CD11EF0400F0DD11EF0100F25
:10171C0017D0FF2B08BFFE237B546E70AC70F0BD4E
:10172C007C546B70AE70F0BD7B546C70AE70037AF1
:10173C00120E0BB9D2B202E05A43C2F30722EA707E
:10174C00F0BD7B546C70AE70F0BD42EA012242EAEF
:10175C000040704742EA012242EA004040EA03603E
:10176C007047408870474A1C037AD2B29A4270B5CF
:10177C001ED0013B13F0FF03C4680CD0FF290FBF30
:10178C004FF6FF71110201F1FF3191FBF3F30CBF26
:10179C0091FBF3F39BB22546291B868889B28E42B6
:1017AC0005D929785943091205F8011BF4E702728F
:1017BC0070BD82880021C06801F0E3BD08B500F05F
:1017CC0027F800F025F8014B186008BD080100202F
:1017DC0008B5024B1B681B6B019308BDD0010608B2
:1017EC0008B5024B1B685B68019308BD9C01060899
:1017FC0008B5024B1B681B69019308BD9C010608C8
:10180C0008B5024B1B685B69019308BD9C01060877
:10181C0008B5024B1B681B68019308BDB001060894
:10182C0008B5024B1B689B68019308BDB001060804
:10183C0008B5024B1B68DB68019308BDB0010608B4
:10184C0008B5024B1B681B69019308BDB001060863
:10185C0008B5024B1B681B6E019308BDAC01060852
:10186C0008B5024B1B685B6E019308BDAC01060802
:10187C0008B5024B1B689B6E019308BDAC010608B2
:10188C0008B5024B1B68DB6E019308BDAC01060862
:10189C0008B5024B1B681B6F019308BDAC01060811
:1018AC0008B5024B1B685B6F019308BDAC010608C1
:1018BC0008B5034B1B68D3F88030019308BD0000BA
:1018CC00AC01060808B5024B1B685B68019308BDA8
:1018DC00BC01060808B5024B1B689B68019308BD48
:1018EC00BC01060808B5024B1B685B69019308BD77
:1018FC00BC01060808B5024B1B68DB69019308BDE7
:10190C00BC01060808B5024B1B681B6A019308BD95
:10191C00BC01060808B5024B1B681B6B019308BD84
:10192C00BC01060808B5024B1B68DB69019308BDB6
:10193C00B401060808B5024B1B681B6A019308BD6D
:10194C00B401060808B5024B1B689B69019308BDDE
:10195C00C401060808B5024B1B685B6A019308BDFD
:10196C00C401060808B5024B1B689B6A019308BDAD
:10197C00C401060808B5024B1B68DB6A019308BD5D
:10198C00C401060808B5024B1B681B6B019308BD0C
:10199C00C401060808B5024B1B685B6B019308BDBC
:1019AC00C401060808B5024B1B689B6B019308BD6C
:1019BC00C401060808B5024B1B681B6C019308BDDB
:1019CC00C401060808B5024B1B681B68019308BDCF
:1019DC00D801060808B5024B1B685B68019308BD6B
:1019EC00D801060808B5024B1B681B69019308BD9A
:1019FC00D801060808B5024B1B685B69019308BD4A
:101A0C00D801060808B5024B1B689B69019308BDF9
:101A1C00D801060808B5024B1B68DB69019308BDA9
:101A2C00D801060808B5024B1B681B6A019308BD58
:101A3C00D801060808B5024B1B685B6A019308BD08
:101A4C00D801060808B5024B1B689B6C019308BDB6
:101A5C00C001060808B5024B1B685B68019308BD02
:101A6C00A401060808B5024B1B685B69019308BD0D
:101A7C00A401060808B5024B1B68DB6A019308BD7C
:101A8C00A401060808B5034B1B68D3F890300193EA
:101A9C0008BD0000A401060808B5034B1B68D3F869
:101AAC009C30019308BD0000A401060808B5024B48
:101ABC001B68DB6B019308BDCC01060808B5024B13
:101ACC001B681B68019308BDC801060808B5024BCA
:101ADC001B685B68019308BDC801060808B5024B7A
:101AEC001B689B68019308BDC801060808B5024B2A
:101AFC001B68DB68019308BDC801060808B5024BDA
:101B0C001B681B69019308BDC801060808B5024B88
:101B1C001B685B69019308BDC801060808B5024B38
:101B2C001B689B69019308BDC801060808B5024BE8
:101B3C001B68DB69019308BDC801060808B5024B98
:101B4C001B681B6A019308BDC801060808B5024B47
:101B5C001B681B6B019308BDC801060808B5024B36
:101B6C001B685B6B019308BDC801060808B5024BE6
:101B7C001B689B6B019308BDC801060808B5024B96
:101B8C001B68DB6B019308BDC801060808B5024B46
:101B9C001B681B68019308BDA001060808B5024B21
:101BAC001B685B68019308BDA001060808B5024BD1
:101BBC001B689B68019308BDA00106080021FFF774
:101BCC0051BF10B58368044613B1032201469847F0
:101BDC00204610BD7047F8B5064615460C468F18C2
:101BEC00BC4206D0336814F8011B9B6830469847FA
:101BFC00F6E72846F8BD0022007CFFF729BE00213D
:101C0C00007CFFF72DBE0021007CFFF731BE0021C8
:101C1C00007CFFF735BE0021007CFFF739BE10B504
:101C2C000446142100F04FFF204610BD10B50446A9
:101C3C0008464FF47A73A360044B00212074616052
:101C4C002360FFF735FE204610BD00BF98340A080C
:101C5C000021007CFFF724BEF8B50F4600F1080602
:101C6C00051D002416F8011D0A22384600F053F910
:101C7C00AE42044407D0002CF4D02E21384600F09C
:101C8C00F7F80444EEE72046F8BD000010B5044612
:101C9C00044B112240F8043B002101F072FB20465A
:101CAC0010BD00BFC0340A080346074A10B543F8FC
:101CBC00042B01F1100251F8044B914243F8044BF0
:101CCC00F9D10A781A7010BDC0340A08024A416072
:101CDC000260042202757047C0340A0810B59DF8E2
:101CEC00084044EA032343EA024242EA0161042326
:101CFC004160037510BD000037B5044D05609DF8BB
:101D0C0018500095FFF7EAFF03B030BDC0340A0845
:101D1C0037B50D788B784A78C97800912946FFF74A
:101D2C00DDFF03B030BD0000014A024B1A60704762
:101D3C0042350A080C01002000231A464068FFF7C0
:101D4C00C5BE002202214068FFF7D0BE002211461A
:101D5C004068FFF7C3BE002211464068FFF7CEBEB5
:101D6C0000231A4619464068FFF7D0BE00231A46D6
:101D7C0019464068FFF7D2BE002281F0010140688D
:101D8C00FFF7D4BE00224068FFF7E0BE00221146E8
:101D9C004068FFF7E3BE002211464068FFF7CEBE55
:101DAC0070B516468EB0044608A8FFF76FFF1122D7
:101DBC00002103A801F0E5FA304601F013FB0025E1
:101DCC000A4B009581B25B6803AA3046FFF73AFED6
:101DDC0020B129462046FFF779FF03E003A92046EE
:101DEC00FFF762FF20460EB070BD00BF90050020CB
:101DFC00034B044A04280CBF10461846704700BF1A
:101E0C001001002090050020024B034A1A600022AA
:101E1C005A60704710010020B8350A08F8B506461C
:101E2C000D468F180024BD420CD0336815F8011BE9
:101E3C009B6830469847002801DB0444F3E7002CEC
:101E4C0008BF04462046F8BD70B505460C4608464A
:101E5C0049B101F0C7FA2B68024621462846BDE875
:101E6C007040DB68184770BD08B5FFF7EDFF08BD83
:101E7C0003689B6818470B460A68014612681846A7
:101E8C00104738B50D210546FFF7F2FF0A2104462D
:101E9C002846FFF7EDFF204438BD38B50546FFF75F
:101EAC00D3FF04462846FFF7ECFF204438BD38B575
:101EBC000546FFF7E0FF04462846FFF7E2FF204403
:101ECC0038BD012A98BF0A2230B50B468BB00021D1
:101EDC008DF824100DF12304B3FBF2F505FB12333E
:101EEC00DBB2092B94BF30333733DBB2214604F815
:101EFC0001392B46002DEFD1FFF7A6FF0BB030BDFB
:101F0C0010B422B90368C9B29B6810BC1847D2B28E
:101F1C0010BCFFF7D6BFFFF7F3BF2DE9F041074622
:101F2C000E4615462AB9BDE8F0410368C9B29B6854
:101F3C0018470A2A02D1002901DA04E0D2B2BDE81E
:101F4C00F041FFF7BEBF2D21FFF792FF2A46044652
:101F5C0071423846FFF7B5FF2044BDE8F08138B533
:101F6C000546FFF7DAFF04462846FFF78AFF2044B0
:101F7C0038BD10B50446FFF724FE204610BD000006
:101F8C00034800238360034A034900F097BD00BF58
:101F9C00180100206C0000207F1F0A08704710B544
:101FAC000446102100F08FFD204610BD70B504468C
:101FBC000E46074B0025036040F80C5FFFF708FC4A
:101FCC0030462671FFF7AEFCA560204670BD00BF01
:101FDC00EC350A080079FFF7ADBC10B50446006873
:101FEC00FFF7DCFD204610BD10B50446006808B1B3
:101FFC00FFF7D4FD00232360A360636010BD38B5E8
:10200C0004460D4600680131FFF7D0FD10B184E89D
:10201C002100012038BD10B50368044613B1436894
:10202C008B4207D22046FFF7EAFF20B1A3680BB919
:10203C0022681370012010BD70B50E46114604467F
:10204C001546FFF7E8FF18B92046FFF7CDFF09E06A
:10205C002A463146A560206801F088F92268A368F9
:10206C000021D154204670BD38B5002304460360CE
:10207C004360836003730D4639B1084601F0B2F931
:10208C00294602462046FFF7D7FF204638BD000000
:10209C004FF6FF72034B0020187058809A80FFF7A0
:1020AC00D9BC00BF28010020024B1A68024B1A60F1
:1020BC00704700BF040000203001002010B40468F9
:1020CC00246BA44610BC604703689B6C1847808E39
:1020DC007047028FC08E101A704713B502AB02689E
:1020EC0003F8011DD46819460122A04702B010BDA7
:1020FC0010B5036804461B69984728B1E38EE26B60
:10210C00591CE186D05C10BD4FF0FF3010BD10B5EE
:10211C00036804461B69984718B1E38EE26BD05CE8
:10212C0010BD4FF0FF3010BD70470346084610B489
:10213C00D98EDC6B1A8F0368521ADB68214410BCF1
:10214C001847A0F11000FFF7F0BFF7B50546104691
:10215C000F461646FFF74CFE0368DB689847B8B18C
:10216C0002213B46112208460096FFF7B3FB68613B
:10217C00FFF7A8FB044630B10023EB862B872F8397
:10218C006E64012004E02B6828465B6A9847204661
:10219C0003B0F0BD38B504464569FFF7BBFB85427B
:1021AC0002D06069FFF7AEFBFFF7B4FB0023606160
:1021BC00E386238738BD30B587B0BDF828400225AB
:1021CC00ADF808508DF80B40250ADC798DF80A50D3
:1021DC008DF80C409C798DF80D405C791B798DF84D
:1021EC000E408DF80F301023019302AB0093406921
:1021FC000023FFF77FFB07B030BD38B5C36B054636
:10220C00C08E13B12C6C241A00E01C46944228BFDB
:10221C0014461844224601F0A9F8EB8E20462344BC
:10222C00EB8638BD70B5036804461B690E4615462F
:10223C00984788B1236820461B6998478542A8BFF8
:10224C000546E38EE16B2A461944304601F08EF8C0
:10225C00E38E2B44E38601E04FF0FF35284670BD3A
:10226C00F0B5044689B0406C0D461646FFF7C0FD2C
:10227C000368DB68984710B36769FFF74BFB87422D
:10228C001DD0E5B108AB102243F8142D01930DEBD2
:10229C00020300932946002332466069FFF722FBB4
:1022AC00051E0EDB9DF812209DF8133005A943EA9C
:1022BC000223A38604F11C00FFF72AFD01E04FF076
:1022CC00FF35284609B0F0BD2DE9F041064694B023
:1022DC00406C0D469046FFF78BFD0368DB68984712
:1022EC00F8B1284601F07EF8002481B20094736C9A
:1022FC0003AA2846FFF7A6FB90B903A908A8FFF785
:10230C00D3FC33680FAC9F6B074B09AD0E930FCD0D
:10231C000FC42B68424623700EA93046B84700E024
:10232C00204614B0BDE8F081C0340A0870B50446EC
:10233C000646054B01F1200544F8043B0FCD0FC4B4
:10234C002B683046237070BDC0340A08F0B5944633
:10235C008E460646026889B0976A094A03AC1D1D71
:10236C0002920FCD0FC42B6862462370BDF8383033
:10237C0071460093304602ABB84709B0F0BD00BFC0
:10238C00C0340A08F0B50446036889B09F6A0D4B47
:10239C0003AD00F12006B0F836E002930FCE0FC566
:1023AC00336872462B70A38EE16B0093204602AB10
:1023BC00B847054623682046DB699847284609B08C
:1023CC00F0BD00BFC0340A0838B54FF47A7383608F
:1023DC000B4B002503F108026C330260036145606E
:1023EC000446FFF797FA606104F11C00FFF74EFCFE
:1023FC004FF40073E5862587E5632364204638BDDA
:10240C0020360A0810B590F84830044623B1C06B4A
:10241C0010B1012100F057FB0023E36384F848302E
:10242C002364E386238710BD70B5044616460D461B
:10243C00FFF7E8FF0023E66323643EB935B1284675
:10244C00FDF725FE0123E06384F84830E36B03B10C
:10245C002564206C003018BF012070BDF8B51746FC
:10246C00C26B05460C461AB9016C09B1FFF7DCFFCB
:10247C0005F1200604340FCC0FC6236833700023FB
:10248C00AF86EB862B87286CF8BD70B5C26B044603
:10249C001AB9016C09B1FFF7C7FFE16B0023E386A2
:1024AC00238741B1226C32B12068056B2046A847C6
:1024BC000028C8BF208723682046BDE870401B69F0
:1024CC00184770474174704708B5007CFFF772FAE3
:1024DC0020EAE07008BD08B5007CFFF743FA20EA5B
:1024EC00E07008BD08B5007CFFF74CFA30EA20001C
:1024FC0028BF4FF0FF3008BD08B5007CFFF73AFA53
:10250C0030EA200028BF4FF0FF3008BD007CFFF7F9
:10251C0041BA10B50446142100F0D5FA204610BD7E
:10252C0070B5457C04460E4625B9007CFFF742FA8F
:10253C00002805DD3146207CBDE87040FFF70ABA63
:10254C00284670BD10B5044608461146002262604C
:10255C004FF47A72A260054A2074226001226274E0
:10256C001A46FFF7EFF9204610BD00BF98360A084F
:10257C00007CFFF717BA000038B50C4D296811F034
:10258C00010411D12846FDF786FD68B1084A2146A1
:10259C00084B0948FFF7D6FF2846FDF781FD074A8F
:1025AC000749054800F08AFA034838BDCC010020E1
:1025BC00D001002048010020340100206C000020D4
:1025CC00CF240A0841747047704708B50021007C7D
:1025DC00FFF718FA30EA200028BF4FF0FF3008BD93
:1025EC0008B50121007CFFF70DFA30EA200028BF66
:1025FC004FF0FF3008BD08B5007CFFF7FBF920EA6F
:10260C00E07008BD08B5007CFFF7ECF920EAE0703B
:10261C0008BD007CFFF706BA10B50446142100F083
:10262C0052FA204610BD38B50446007C0D46FFF723
:10263C00E1F9002801DC607C28B12946207CFFF7F9
:10264C00E9F920EAE07038BD10B504460023636058
:10265C004FF47A73A360054B084623600123217461
:10266C0063741146FFF7AEF9204610BDC8360A0850
:10267C000022007CFFF7AEB9007CFFF7DBB9FFF757
:10268C00FBBF000010B504461422002100F079FEB7
:10269C00054B20466360054BE36040F20113238138
:1026AC008123238210BD00BFD902002058020020D4
:1026BC0030B50E4D87B001A8FFF7E4FF296811F083
:1026CC00010410D12846FDF7E6FC60B101AA2146B1
:1026DC000748FFF7B9FF2846FDF7E2FC054A064913
:1026EC00034800F0EBF9024807B030BD540200205B
:1026FC00DC0300206C000020D5250A0810B5044628
:10270C001422002100F03DFE054B20466360054B72
:10271C00E36040F2011323818123238210BD00BFAB
:10272C008C040020F403002010B50E4C86B001A8D8
:10273C00FFF7E4FF2368DB0710D42046FDF7ABFC62
:10274C0060B101AA01210848FFF77EFF2046FDF782
:10275C00A7FC064A0649044800F0B0F9024806B046
:10276C0010BD00BFF0030020780400206C00002096
:10277C00D5250A08002211464068FFF7BFB9F0B50D
:10278C00164689B011220F460446002103A800F01A
:10279C00F8FD304600F026FE0025009581B27B68DE
:1027AC0003AA3046FFF74EF920B129462046FFF721
:1027BC008DFA03E003A92046FFF776FA204609B00C
:1027CC00F0BD002211464068FFF7B8B9002211464F
:1027DC004068FFF7C3B900224068FFF7B7B9002281
:1027EC0081F001014068FFF7A1B900231A46194690
:1027FC004068FFF793B900231A4619464068FFF763
:10280C0085B9002211464068FFF768B90022022101
:10281C004068FFF76BB900231A464068FFF756B9BA
:10282C00024B04225A60024A1A607047900500203D
:10283C00F8360A0808B5144B33B1FFF739FF0368B3
:10284C001B699847002816DC104B33B1FFF794FE38
:10285C0003681B699847002810DC0D4B0BB1AFF3D4
:10286C0000800C4B7BB1FFF75FFF03681B69984737
:10287C00002806DC08BDAFF30080E5E7AFF300806D
:10288C00EBE7AFF3008008BD000000000000000083
:10289C00000000000000000008B5FFF7CBFFFEF7BA
:1028AC00AFFF014B186008BDA00500200248034A89
:1028BC000349121A00F05ABD004002400440024085
:1028CC00C0370A0807B5002300931A466FF077014A
:1028DC00FFF7E2F803B05DF804FB000007B543888E
:1028EC000A2B08D0502B09D1094B1B683BB103B004
:1028FC005DF804EB1847FFF7E5FF06E000230093B3
:10290C001A466FF07701FFF7C7F803B05DF804FBC8
:10291C009805002038B5104C104D2368AB42104B75
:10292C000CBF012200221A7002D0FFF7BFFF2560F6
:10293C00FEF756FF044600F02DFD0A4B13B120465E
:10294C00AFF3008000210748FFF7B0F8BDE838402E
:10295C0000210548FFF796B8004002401E1C279A3C
:10296C009C05002000000000E9280A0810B5044668
:10297C000F48FFF72FFB28B1A4F10D03022B01D850
:10298C00002010BD00F040F8FFF762F908B1012CEF
:10299C00F6D9FFF7F1FDFFF7EBFD18B1A4F1120327
:1029AC00012BEDD9172C8CBF0020012010BD00BFCE
:1029BC00D4050020172838B504460D460AD8FF293F
:1029CC0008D0FFF7D3FF28B129462046BDE8384090
:1029DC00FEF726BF38BD38B504460D46FEF728FF76
:1029EC00FF2810D0062804D84D2323FA00F0C30783
:1029FC0009D42046FFF7BAFF28B129462046BDE886
:102A0C003840FEF71DBF38BD38B50B4D296811F0A5
:102A1C0001040FD12846FDF73EFB58B1214607486B
:102A2C00FFF704F92846FDF73BFB054A0549034827
:102A3C0000F044F8014838BDA4050020A80500208A
:102A4C006C000020E11B0A0813B5084C00231A4641
:102A5C00194600932046FFF74FF92046044A0549D2
:102A6C0002B0BDE8104000F029B800BFBC05002042
:102A7C006C000020B3000A0870B50C4C0C4E0D4DC8
:102A8C0000212046FFF792FA20460B4C324629468D
:102A9C0000F014F801212046FFF788FA3246294647
:102AAC002046BDE8704000F009B800BFD4050020F6
:102ABC006C000020A91F0A08E40500200B46014603
:102ACC00184600F045BCFDF7E4BA0000244B1A6828
:102ADC00D0075CBF01221A60224B1A68D1075CBF79
:102AEC0001221A60204B1A68D2075CBF01221A60BF
:102AFC001E4B1A68D0075CBF01221A601C4B1A6867
:102B0C00D1075CBF01221A601A4B1A68D2075CBF4E
:102B1C0001221A60184B1A68D0075CBF01221A6098
:102B2C00164B1A68D1075CBF01221A60144B1A6845
:102B3C00D2075CBF01221A60124B1A68D0075CBF27
:102B4C0001221A60104B1A68D1075CBF01221A606F
:102B5C000E4B1A68D2075CBF01221A60704700BF87
:102B6C00200600201C060020180600201406002059
:102B7C00100600200C060020080600200406002089
:102B8C0000060020FC050020F8050020F4050020BC
:102B9C00184B1A68D1075CBF01221A60164B1A68D1
:102BAC00D2075CBF01221A60144B1A68D0075CBFB5
:102BBC0001221A60124B1A68D1075CBF01221A60FD
:102BCC00104B1A68D2075CBF01221A600E4B1A68B0
:102BDC00D0075CBF01221A600C4B1A68D1075CBF8E
:102BEC0001221A600A4B1A68D2075CBF01221A60D4
:102BFC00704700BF400600203C060020380600202D
:102C0C0034060020300600202C0600202806002068
:102C1C0024060020184B1A68D1075CBF01221A60E9
:102C2C00164B1A68D2075CBF01221A60144B1A6843
:102C3C00D0075CBF01221A60124B1A68D1075CBF27
:102C4C0001221A60104B1A68D2075CBF01221A606D
:102C5C000E4B1A68D0075CBF01221A600C4B1A6825
:102C6C00D1075CBF01221A600A4B1A68D2075CBFFD
:102C7C0001221A60704700BF600600205C0600202D
:102C8C005806002054060020500600204C06002058
:102C9C004806002044060020244B1A68D0075CBF6D
:102CAC0001221A60224B1A68D1075CBF01221A60FC
:102CBC00204B1A68D2075CBF01221A601E4B1A689F
:102CCC00D0075CBF01221A601C4B1A68D1075CBF8D
:102CDC0001221A601A4B1A68D2075CBF01221A60D3
:102CEC00184B1A68D0075CBF01221A60164B1A6881
:102CFC00D1075CBF01221A60144B1A68D2075CBF63
:102D0C0001221A60124B1A68D0075CBF01221A60AC
:102D1C00104B1A68D1075CBF01221A600E4B1A685F
:102D2C00D2075CBF01221A60704700BF90060020DA
:102D3C008C060020880600208406002080060020D7
:102D4C007C06002078060020740600207006002007
:102D5C006C060020680600206406002080F000400D
:102D6C0002E000BF81F0004142001FBF5FEA410357
:102D7C0092EA030F7FEA226C7FEA236C6AD04FEA57
:102D8C001262D2EB1363C1BFD2184140484041409C
:102D9C00B8BF5B42192B88BF704710F0004F40F44E
:102DAC00000020F07F4018BF404211F0004F41F46A
:102DBC00000121F07F4118BF494292EA030F3FD036
:102DCC00A2F1010241FA03FC10EB0C00C3F1200349
:102DDC0001FA03F100F0004302D5494260EB4000D8
:102DEC00B0F5000F13D3B0F1807F06D340084FEA43
:102DFC00310102F10102FE2A51D2B1F1004F40EB38
:102E0C00C25008BF20F0010040EA0300704749009F
:102E1C0040EB000010F4000FA2F10102EDD1B0FA6A
:102E2C0080FCACF1080CB2EB0C0200FA0CF0AABF5F
:102E3C0000EBC25052421843BCBFD04018437047FD
:102E4C0092F0000F81F4000106BF80F40000013203
:102E5C00013BB5E74FEA41037FEA226C18BF7FEADA
:102E6C00236C21D092EA030F04D092F0000F08BF1C
:102E7C000846704790EA010F1CBF0020704712F003
:102E8C007F4F04D1400028BF40F00040704712F142
:102E9C0000723CBF00F50000704700F0004343F0A7
:102EAC00FE4040F4000070477FEA226216BF0846DD
:102EBC007FEA23630146420206BF5FEA412390EAA0
:102ECC00010F40F4800070474FF0000304E000BF96
:102EDC0010F0004348BF40425FEA000C08BF704747
:102EEC0043F0964301464FF000001CE050EA01020B
:102EFC0008BF70474FF000030AE000BF50EA010220
:102F0C0008BF704711F0004302D5404261EB41010C
:102F1C005FEA010C02BF84460146002043F0B64331
:102F2C0008BFA3F18053A3F50003BCFA8CF2083A56
:102F3C00A3EBC25310DB01FA02FC634400FA02FC5F
:102F4C00C2F12002BCF1004F20FA02F243EB020066
:102F5C0008BF20F00100704702F1200201FA02FCC8
:102F6C00C2F1200250EA4C0021FA02F243EB0200BB
:102F7C0008BF20EADC7070474FF0FF0C1CEAD052FF
:102F8C001EBF1CEAD15392EA0C0F93EA0C0F6FD0C0
:102F9C001A4480EA010C400218BF5FEA41211ED09E
:102FAC004FF0006343EA501043EA5111A0FB01318A
:102FBC000CF00040B1F5000F3EBF490041EAD3715F
:102FCC005B0040EA010062F17F02FD2A1DD8B3F1DB
:102FDC00004F40EBC25008BF20F00100704790F04A
:102FEC00000F0CF0004C08BF49024CEA502040EA9C
:102FFC0051207F3AC2BFD2F1FF0340EAC250704762
:10300C0040F400004FF00003013A5DDC12F1190F9F
:10301C00DCBF00F000407047C2F10002410021FA11
:10302C0002F1C2F1200200FA02FC5FEA310040F129
:10303C00000053EA4C0308BF20EADC70704792F0A2
:10304C00000F00F0004C02BF400010F4000F013ADA
:10305C00F9D040EA0C0093F0000F01F0004C02BFD5
:10306C00490011F4000F013BF9D041EA0C018FE744
:10307C000CEAD15392EA0C0F18BF93EA0C0F0AD04A
:10308C0030F0004C18BF31F0004CD8D180EA010070
:10309C0000F00040704790F0000F17BF90F0004F09
:1030AC00084691F0000F91F0004F14D092EA0C0FEB
:1030BC0001D142020FD193EA0C0F03D14B0218BF7E
:1030CC00084608D180EA010000F0004040F0FE40C4
:1030DC0040F40000704740F0FE4040F44000704760
:1030EC004FF0FF0C1CEAD0521EBF1CEAD15392EADF
:1030FC000C0F93EA0C0F69D0A2EB030280EA010CCF
:10310C0049024FEA402037D04FF0805343EA111167
:10311C0043EA10130CF000408B4238BF5B0042F1C5
:10312C007D024FF4000C8B4224BF5B1A40EA0C006A
:10313C00B3EB510F24BFA3EB510340EA5C00B3EB9C
:10314C00910F24BFA3EB910340EA9C00B3EBD10F8A
:10315C0024BFA3EBD10340EADC001B0118BF5FEADC
:10316C001C1CE0D1FD2A3FF650AF8B4240EBC25005
:10317C0008BF20F0010070470CF0004C4CEA5020C6
:10318C007F32C2BFD2F1FF0340EAC250704740F415
:10319C0000004FF00003013A37E792F0000F00F007
:1031AC00004C02BF400010F4000F013AF9D040EA85
:1031BC000C0093F0000F01F0004C02BF490011F419
:1031CC00000F013BF9D041EA0C0195E70CEAD15311
:1031DC0092EA0C0F08D142027FF47DAF93EA0C0FF8
:1031EC007FF470AF084676E793EA0C0F04D14B02DC
:1031FC003FF44CAF08466EE730F0004C18BF31F08E
:10320C00004CCAD130F000427FF45CAF31F0004387
:10321C007FF43CAF5FE700BF4FF0FF3C06E000BF20
:10322C004FF0010C02E000BF4FF0010C4DF804CD43
:10323C004FEA40024FEA41037FEA226C18BF7FEA53
:10324C00236C11D001B052EA530C18BF90EA010F55
:10325C0058BFB2EB030088BFC81738BF6FEAE170E4
:10326C0018BF40F0010070477FEA226C02D15FEA80
:10327C00402C05D17FEA236CE4D15FEA412CE1D0EC
:10328C005DF8040B704700BF844608466146FFE7B3
:10329C000FB5FFF7C9FF002848BF10F1000F0FBD95
:1032AC004DF808EDFFF7F4FF0CBF012000205DF88E
:1032BC0008FB00BF4DF808EDFFF7EAFF34BF012013
:1032CC0000205DF808FB00BF4DF808EDFFF7E0FFAC
:1032DC0094BF012000205DF808FB00BF4DF808EDFD
:1032EC00FFF7D2FF94BF012000205DF808FB00BF60
:1032FC004DF808EDFFF7C8FF34BF012000205DF842
:10330C0008FB00BF4FEA4002B2F1FE4F0FD34FF063
:10331C009E03B3EB12620DD94FEA002343F0004336
:10332C0010F0004F23FA02F018BF404270474FF0E4
:10333C000000704712F1610F01D1420205D110F06B
:10334C00004008BF6FF0004070474FF0000070471E
:10335C0010B5054C13462CB10A4601460220AFF3BA
:10336C00008010BD204610BD0000000010B5431EAB
:10337C000A44914204D011F8014B03F8014FF8E7CD
:10338C0010BD03460244934202D003F8011BFAE736
:10339C007047000038B5124B05461C68A36BD3B9B7
:1033AC001820FEF7F3FB43F20E33A06303804AF6BA
:1033BC00CD33438041F2342383804EF26D63C3805E
:1033CC004DF6EC630381052343810B23838101229A
:1033DC000023C0E90423A36B00221D615A6138BD90
:1033EC0068000020034613F8012B002AFBD1181AA1
:1033FC00013870471D000A085D000A0889000A0898
:10340C008D000A0800000000536574757000485167
:10341C00526F757465725F4E454F504958454C5309
:10342C00004E554D5F4C494D49542D2D3A00555089
:10343C002D2D3A00444F574E2D2D3A0053494E2D09
:10344C002D2D2D2D00454E44204649525354204CD1
:10345C004F4F50004C494D49542D2D00444F574E61
:10346C002D2D005345434F4E44204C4F4F500000E0
:10347C002C01000018000000F40100002C010000D9
:10348C00500000000000000000000000E11B0A08D2
:10349C002B1C0A08031C0A08E31B0A080B1C0A084D
:1034AC00131C0A081B1C0A08231C0A080000000035
:1034BC0000000000651C0A08B3000A08D5000A08C1
:1034CC00626175640053657269616C0055534253B7
:1034DC00657269616C31007479706500706172613C
:1034EC006D00636D6400696400686E6400737472CF
:1034FC006D0066696C74006C766C00616464486184
:10350C006E646C65720072656D6F766548616E6491
:10351C006C657200656E756D48616E646C65727376
:10352C00004A534F4E53747265616D4C6F6748611E
:10353C006E646C65720061707000253031307520DE
:10354C00005D20002564002C200028293A20002052
:10355C005B00636F6465203D200025690064657421
:10356C0061696C73203D20000D0A0066006C6E00D2
:10357C00666E00636F64650064657461696C006EEF
:10358C006F6E6500747261636500696E666F0077BB
:10359C0061726E006572726F720070616E696300A9
:1035AC00616C6C000000000000000000451D0A0862
:1035BC004F1D0A08591D0A08631D0A086D1D0A08CB
:1035CC00791D0A08851D0A08911D0A08991D0A080B
:1035DC00A31D0A08AD1D0A08000000000000000031
:1035EC00A91F0A08AB1F0A085A00252B3033643A6E
:1035FC00253032750025592D256D2D25645425480F
:10360C003A254D3A2553257A0061736374696D65CB
:10361C00000000000000000000000000B5000A08D7
:10362C00E3000A08E7200A0807220A08DF200A0834
:10363C00FD200A081B210A0835210A0857210A080F
:10364C00A1210A08C3210A0859230A086D220A0875
:10365C00C9200A0869240A08D5220A0891230A08F5
:10366C0097240A0831220A08D5200A0839230A08A7
:10367C00DB200A0837210A08F0FFFFFF00000000DA
:10368C004F210A080000000000000000CF240A08A7
:10369C001F250A082D250A08291E0A08E3240A08F2
:1036AC0005250A08F1240A0819250A08D1240A0854
:1036BC00D5240A080000000000000000D5250A08E7
:1036CC0025260A0833260A08291E0A0811260A0884
:1036DC00D7250A08ED250A081F260A0803260A081A
:1036EC00D1250A08000000000000000023280A0869
:1036FC0019280A080F280A0881270A0803280A082B
:10370C00F7270A08EB270A08E3270A08D9270A082B
:10371C00CF270A088B270A080000000000000000D1
:10372C00000000000000000000000000000000008D
:10373C00000000000000000000000000000000007D
:10374C00000000000000000000000000000000006D
:10375C00000000000000000000000000000000005D
:10376C00000000000000000000000000000000004D
:10377C0000000000000000004300000005040A08DF
:10378C00C9170A08351D0A08151E0A088D1F0A08D4
:10379C009D200A08B5200A082D280A08552A0A086F
:1037AC00852A0A08D92A0A089D2B0A08212C0A08FE
:0437BC00A52C0A0826
:0437C0000000000005
:1037C400B822000015360A080000000024370A0851
:1037D40044370A0864370A080000000000000000AB
:1037E400000000000000000084370A080000000008
:1037F40000000000000000000000000000000000C5
:1038040000000000000000000000000000000000B4
:1038140000000000000000000000000000000000A4
:0C38240000000000000000000800002070
:10383000FFFFFFFF00000102030405060708090A55
:103840000B0C0D0E0F101112131415161718191A50
:083850001B1C1D1E1F20280097
:043858007856341258
:04000005080A001CC9
:00000001FF
