:02000004080AE8
:1000000000000A0848200A08000006000600050152
:08001000040279050000000064
:040018004C1C0A086A
:10001C0009480A4908B5884205D0094A824202D0EB
:10002C00121A01F0C9FD0748074A0021121A01F003
:10003C00CEFD064808BD00BF00000020B41F0A0812
:10004C006C0000206C000020580600205806002090
:10005C0070B501F00DFA074B074C1E46E41AA408C4
:10006C000025A54204D056F8253098470135F8E70D
:10007C0070BD00BF681F0A08A41F0A0800F036B83C
:10008C0008B500F0A1F8BDE8084001F0B3B900F0E4
:10009C0097BB00F09DBB0078B0FA80F04009704728
:1000AC00012303707047704710B50446054B03607D
:1000BC006433036100F020FE204600F055FF20461B
:1000CC0010BD00BF081E0A0810B50446182101F027
:1000DC003AFA204610BD10B50446FFF7E5FF20465E
:1000EC004C2101F030FA204610BD000070B596B0DE
:1000FC0001F08CF801F071F80028F9D02B4C00239A
:10010C001A461946606800F0FBFA00221146606836
:10011C00264D00F00DFB0028F7D001F077F82449AC
:10012C0000F08BFC234B00221988234800F0BFFD04
:10013C0000231946214A686800F032FB01F066F88A
:10014C00064600244022002106A801F040FD402371
:10015C0006AA21460094686800F02AFB06A902A8AA
:10016C0000F023FD0299304600F067FC02A800F075
:10017C00D5FC01F04BF8224606462146686800F093
:10018C00B7FA811C06A800F063FB06A9304600F004
:10019C005EFC01F03BF84FF4165101F017F80849DA
:1001AC00084800F0B9F816B070BD00BF6C0500200F
:1001BC00601C0A080000002084000020661C0A084D
:1001CC0055020A0870000020014800F099B800BFE1
:1001DC007000002030B56523A9B0A8220093C0217F
:1001EC00002307A800F05CFB134903A800F0DDFC1A
:1001FC00039913A800F09CF8104B0EAC08AD0D93AE
:10020C000FCD0FC42B680DAA23700D4C42F2B823EE
:10021C00214613A800F0CEF8204600F06DFD00F04A
:10022C00F5FF084900F009FC13A800F0A5F803A895
:10023C0000F074FC29B030BD771C0A08A01C0A0819
:10024C00840000207C1C0A08FFF7C4BF38B500F0FE
:10025C0063F90021012000F027FA124B00221A70DA
:10026C005A804FF6FF72104C9A80022000F014FA5C
:10027C000E4D204600F0DEFA20460D4C2A460D4964
:10028C0001F05CF9204600F051FE2A460A4920464E
:10029C0001F054F9BDE838404FF4FA71074800F00A
:1002AC0015B800BF7C000020D00000206C0000209E
:1002BC0084000020B3000A08B5000A087000002072
:1002CC0010B5044600F020F9206010BD38B5044686
:1002DC000D46FFF7F5FF00236560A360204638BD8F
:1002EC0010B5044600F010F92368C01A63689842F0
:1002FC0004D32046FFF7E4FF012010BD002010BD01
:10030C0010B58368044633B1FFF7EAFF18B1A36850
:10031C00BDE81040184710BD8160704700F0FCB874
:10032C000023036083624360C3640365704700006D
:10033C00F8B504460F460F4D0830294600F035FC41
:10034C0004F12C06294604F1180000F02EFC294675
:10035C00304600F02AFC294604F13C0000F025FC54
:10036C002046FFF7DDFF3946304600F031FC2046D1
:10037C00F8BD00BF561D0A0810B50446006800F011
:10038C0027FAA06A00F024FAE06C00F021FA04F1DC
:10039C003C0000F0C3FB04F12C0000F0BFFB04F1A7
:1003AC00180000F0BBFB04F1080000F0B7FB20467E
:1003BC0010BD00002DE9F04F8BB0D0F82C8000AFB1
:1003CC00814640460E46FA60BB6001F031FC0546A2
:1003DC000330800801F044FB0022404B01F004FA8A
:1003EC0001F0B4FBD9F83CA08400504601F020FC8D
:1003FC00651B0134834604440130800801F030FB56
:10040C000022364B01F0F0F901F0A0FBCBF1030B0D
:10041C00D9F850300BEB800B5C441C44E21D22F0ED
:10042C000702ADEB020D0021224668463B6001F04D
:10043C00CEFB404601F0FCFB41460246684601F00B
:10044C00BBFB404601F0F4FB0DEB05022C211154D3
:10045C00404601F0EDFB7860504601F0E9FB7A680C
:10046C00514602F1010EAE4402460DEB0E0001F0B6
:10047C00A3FB404601F0DCFB8046504601F0D8FB64
:10048C00404401303B68054405EB0B001A46D9F893
:10049C004C10684401F090FB3368FD68D3F8388049
:1004AC000F4B07F1140E04353B610FCDAEE80F0076
:1004BC002B683A898EF8003007F110013046C0479E
:1004CC00336822466946DB683046984733683046C5
:1004DC001B6C98472C37BD46BDE8F08F0000E03F01
:1004EC00A01C0A0800F018B808B5024B1B681B6B5F
:1004FC00019308BDD001060808B5024B1B685B6868
:10050C00019308BD9C01060808B5024B1B685B698A
:10051C00019308BD9C01060808B5024B1B681B68BB
:10052C00019308BDB001060808B5024B1B685B6857
:10053C00019308BDBC01060808B5024B1B689B68FB
:10054C00019308BDBC01060808B5024B1B685B692A
:10055C00019308BDBC01060808B5024B1B68DB699A
:10056C00019308BDBC01060808B5024B1B681B6A49
:10057C00019308BDBC01060808B5024B1B681B6B38
:10058C00019308BDBC01060808B5024B1B68DB696A
:10059C00019308BDB401060808B5024B1B689B69A2
:1005AC00019308BDC401060808B5024B1B685B6AC1
:1005BC00019308BDC401060808B5024B1B689B6A71
:1005CC00019308BDC401060808B5024B1B68DB6A21
:1005DC00019308BDC401060808B5024B1B681B6BD0
:1005EC00019308BDC401060808B5024B1B685B6B80
:1005FC00019308BDC401060808B5024B1B681B6CAF
:10060C00019308BDC401060808B5024B1B681B68A2
:10061C00019308BDD801060808B5024B1B685B683E
:10062C00019308BDD801060808B5024B1B681B696D
:10063C00019308BDD801060808B5024B1B685B691D
:10064C00019308BDD801060808B5024B1B689B69CD
:10065C00019308BDD801060808B5024B1B68DB697D
:10066C00019308BDD801060808B5024B1B681B6A2C
:10067C00019308BDD801060808B5024B1B685B6ADC
:10068C00019308BDD801060808B5024B1B689B6C8A
:10069C00019308BDC001060808B5024B1B685B68D6
:1006AC00019308BDA401060808B5024B1B68DB6A60
:1006BC00019308BDA401060808B5034B1B68D3F8C9
:1006CC009030019308BD0000A401060808B5034B47
:1006DC001B68D3F89C30019308BD0000A4010608E8
:1006EC0008B5024B1B68DB6B019308BDCC010608F7
:1006FC0008B5024B1B681B68019308BDC8010608AE
:10070C0008B5024B1B685B68019308BDC80106085D
:10071C0008B5024B1B689B68019308BDC80106080D
:10072C0008B5024B1B68DB68019308BDC8010608BD
:10073C0008B5024B1B681B69019308BDC80106086C
:10074C0008B5024B1B685B69019308BDC80106081C
:10075C0008B5024B1B689B69019308BDC8010608CC
:10076C0008B5024B1B68DB69019308BDC80106087C
:10077C0008B5024B1B681B6A019308BDC80106082B
:10078C0008B5024B1B681B6B019308BDC80106081A
:10079C0008B5024B1B685B6B019308BDC8010608CA
:1007AC0008B5024B1B689B6B019308BDC80106087A
:1007BC0008B5024B1B68DB6B019308BDC80106082A
:1007CC0008B5024B1B681B68019308BDA001060805
:1007DC0008B5024B1B685B68019308BDA0010608B5
:1007EC0008B5024B1B689B68019308BDA001060865
:1007FC0010B58368044613B103220146984720467E
:10080C0010BDF8B50F4600F10806051D002416F8BA
:10081C00011D0A22384600F04EF9AE42044407D0BE
:10082C00002CF4D02E21384600F0F2F80444EEE708
:10083C002046F8BD10B50446044B112240F8043B89
:10084C00002101F0C4F9204610BD00BFA01C0A080D
:10085C000346074A10B543F8042B01F1100251F876
:10086C00044B914243F8044BF9D10A781A7010BD2D
:10087C00A01C0A08024A41600260042202757047FB
:10088C00A01C0A0810B59DF8084044EA032343EA6B
:10089C00024242EA016104234160037510BD00006D
:1008AC0037B5044D05609DF818500095FFF7EAFF29
:1008BC0003B030BDA01C0A0837B50D788B784A7888
:1008CC00C97800912946FFF7DDFF03B030BD000069
:1008DC00014A024B1A607047221D0A08E8000020EA
:1008EC0000231A464068FFF70BBF00220221406824
:1008FC00FFF716BF002211464068FFF709BF002220
:10090C0011464068FFF714BF00231A461946406889
:10091C00FFF716BF00231A4619464068FFF718BFA9
:10092C00002281F001014068FFF71ABF00224068E5
:10093C00FFF726BF002211464068FFF729BF0022AF
:10094C0011464068FFF714BF70B516468EB00446CA
:10095C0008A8FFF76FFF1122002103A801F037F957
:10096C00304601F065F900250A4B009581B25B68B1
:10097C0003AA3046FFF788FE20B129462046FFF730
:10098C0079FF03E003A92046FFF762FF20460EB073
:10099C0070BD00BF6C050020034B044A04280CBF3B
:1009AC0010461846704700BFEC0000206C05002074
:1009BC00024B034A1A6000225A607047EC00002078
:1009CC00981D0A08F8B506460D468F180024BD423E
:1009DC000CD0336815F8011B9B68304698470028EB
:1009EC0001DB0444F3E7002C08BF04462046F8BDA5
:1009FC0070B505460C46084649B101F019F92B684B
:100A0C00024621462846BDE87040DB68184770BD99
:100A1C0003689B6818470B460A680146126818461B
:100A2C00104738B50D210546FFF7F2FF0A210446A1
:100A3C002846FFF7EDFF204438BD38B50546FFF7D3
:100A4C00D7FF04462846FFF7ECFF204438BD38B5E5
:100A5C000546FFF7E0FF04462846FFF7E2FF204477
:100A6C0038BD012A98BF0A2230B50B468BB0002145
:100A7C008DF824100DF12304B3FBF2F505FB1233B2
:100A8C00DBB2092B94BF30333733DBB2214604F889
:100A9C0001392B46002DEFD1FFF7AAFF0BB030BD6B
:100AAC0010B422B90368C9B29B6810BC1847D2B203
:100ABC0010BCFFF7D6BFFFF7F3BF10B50446FFF726
:100ACC0097FE204610BD0000034800238360034AB4
:100ADC00034900F033BD00BFF40000206C0000207F
:100AEC00C70A0A08704710B50446102100F02BFD08
:100AFC00204610BD70B504460E46074B002503601A
:100B0C0040F80C5FFFF7F0FC30462671FFF73CFD18
:100B1C00A560204670BD00BFCC1D0A0810B5044668
:100B2C000068FFF755FE204610BD10B5044600685E
:100B3C0008B1FFF74DFE00232360A360636010BD76
:100B4C0038B504460D4600680131FFF749FE10B177
:100B5C0084E82100012038BD10B50368044613B1A8
:100B6C0043688B4207D22046FFF7EAFF20B1A36807
:100B7C000BB922681370012010BD70B50E461146DA
:100B8C0004461546FFF7E8FF18B92046FFF7CDFFDE
:100B9C0009E02A463146A560206801F00DF822686C
:100BAC00A3680021D154204670BD38B500230446FB
:100BBC0003604360836003730D4639B1084601F04E
:100BCC0037F8294602462046FFF7D7FF204638BDA6
:100BDC0038B505460C4641B1084601F029F82146C6
:100BEC0002462846FFF7C9FF01E0FFF79EFF2846A3
:100BFC0038BD00004FF6FF72034B00201870588070
:100C0C009A80FFF749BD00BF04010020024B1A680F
:100C1C00024B1A60704700BF040000200C0100203A
:100C2C0010B40468246BA44610BC604703689B6C2A
:100C3C001847808E7047028FC08E101A704713B5FC
:100C4C0002AB026803F8011DD46819460122A047C3
:100C5C0002B010BD10B5036804461B69984728B153
:100C6C00E38EE26B591CE186D05C10BD4FF0FF3077
:100C7C0010BD10B5036804461B69984718B1E38E84
:100C8C00E26BD05C10BD4FF0FF3010BD70470346D7
:100C9C00084610B4D98EDC6B1A8F0368521ADB68C5
:100CAC00214410BC1847A0F11000FFF7F0BFF7B5B6
:100CBC00054610460F461646FFF76EFE0368DB68C6
:100CCC009847B8B102213B46112208460096FFF71F
:100CDC0033FC6861FFF728FC044630B10023EB8637
:100CEC002B872F836E64012004E02B6828465B6AF7
:100CFC009847204603B0F0BD38B504464569FFF768
:100D0C003BFC854202D06069FFF72EFCFFF734FCF8
:100D1C0000236061E386238738BD30B587B0BDF80A
:100D2C0028400225ADF808508DF80B40250ADC79D7
:100D3C008DF80A508DF80C409C798DF80D405C793B
:100D4C001B798DF80E408DF80F301023019302ABF8
:100D5C00009340690023FFF7FFFB07B030BD38B5A7
:100D6C00C36B0546C08E13B12C6C241A00E01C46D4
:100D7C00944228BF14461844224600F01DFFEB8E07
:100D8C0020462344EB8638BD70B5036804461B69C6
:100D9C000E461546984788B1236820461B6998472C
:100DAC008542A8BF0546E38EE16B2A4619443046BE
:100DBC0000F002FFE38E2B44E38601E04FF0FF3599
:100DCC00284670BDF0B5044689B0406C0D461646F9
:100DDC00FFF7E2FD0368DB68984710B36769FFF71C
:100DEC00CBFB87421DD0E5B108AB102243F8142D84
:100DFC0001930DEB020300932946002332466069F0
:100E0C00FFF7A2FB051E0EDB9DF812209DF8133098
:100E1C0005A943EA0223A38604F11C00FFF74CFD4D
:100E2C0001E04FF0FF35284609B0F0BD2DE9F04147
:100E3C00064694B0406C0D469046FFF7ADFD036836
:100E4C00DB689847F8B1284600F0F2FE002481B226
:100E5C000094736C03AA2846FFF716FC90B903A9FB
:100E6C0008A8FFF7F5FC33680FAC9F6B074B09AD77
:100E7C000E930FCD0FC42B68424623700EA930463B
:100E8C00B84700E0204614B0BDE8F081A01C0A0869
:100E9C0070B504460646054B01F1200544F8043BA9
:100EAC000FCD0FC42B683046237070BDA01C0A08F0
:100EBC00F0B594468E460646026889B0976A094A90
:100ECC0003AC1D1D02920FCD0FC42B68624623701C
:100EDC00BDF8383071460093304602ABB84709B0C4
:100EEC00F0BD00BFA01C0A08F0B50446036889B029
:100EFC009F6A0D4B03AD00F12006B0F836E002936B
:100F0C000FCE0FC5336872462B70A38EE16B009326
:100F1C00204602ABB847054623682046DB69984754
:100F2C00284609B0F0BD00BFA01C0A0838B54FF424
:100F3C007A7383600B4B002503F108026C3302605B
:100F4C00036145600446FFF717FB606104F11C0068
:100F5C00FFF770FC4FF40073E5862587E563236487
:100F6C00204638BD001E0A0810B590F848300446DB
:100F7C0023B1C06B10B1012100F0E5FA0023E3634B
:100F8C0084F848302364E386238710BD70B504468B
:100F9C0016460D46FFF7E8FF0023E66323643EB9CF
:100FAC0035B12846FFF773F80123E06384F8483025
:100FBC00E36B03B12564206C003018BF012070BDB9
:100FCC00F8B51746C26B05460C461AB9016C09B147
:100FDC00FFF7DCFF05F1200604340FCC0FC62368A5
:100FEC0033700023AF86EB862B87286CF8BD70B569
:100FFC00C26B04461AB9016C09B1FFF7C7FFE16B6C
:10100C000023E386238741B1226C32B12068056B43
:10101C002046A8470028C8BF208723682046BDE883
:10102C0070401B69184770474174704708B5007CC5
:10103C00FFF7E2FA20EAE07008BD08B5007CFFF784
:10104C00BBFA20EAE07008BD08B5007CFFF7C4FAD3
:10105C0030EA200028BF4FF0FF3008BD08B5007CF7
:10106C00FFF7B2FA30EA200028BF4FF0FF3008BD7E
:10107C00007CFFF7B9BA10B50446142100F063FAEE
:10108C00204610BD70B5457C04460E4625B9007C43
:10109C00FFF7B2FA002805DD3146207CBDE8704030
:1010AC00FFF782BA284670BD10B5044608461146B3
:1010BC00002262604FF47A72A260054A20742260AA
:1010CC00012262741A46FFF767FA204610BD00BF72
:1010DC00781E0A0838B50C4D296811F0010411D19D
:1010EC002846FEF7D8FF68B1084A2146084B094844
:1010FC00FFF7DAFF2846FEF7D3FF074A07490548F2
:10110C0000F01CFA034838BDA8010020AC010020F7
:10111C0024010020100100206C00002033100A086C
:10112C0041747047704708B50021007CFFF78CFABA
:10113C0030EA200028BF4FF0FF3008BD08B5012170
:10114C00007CFFF781FA30EA200028BF4FF0FF3017
:10115C0008BD08B5007CFFF76FFA20EAE07008BD07
:10116C0008B5007CFFF760FA20EAE07008BD007C4F
:10117C00FFF77ABA10B50446142100F0E4F92046C2
:10118C0010BD38B50446007C0D46FFF755FA002813
:10119C0001DC607C28B12946207CFFF75DFA20EA4F
:1011AC00E07038BD10B50446002363604FF47A73C9
:1011BC00A360054B08462360012321746374114618
:1011CC00FFF722FA204610BDA81E0A080022007C58
:1011DC00FFF722BA007CFFF74FBAFFF7FBBF000006
:1011EC0010B504461422002100F0F1FC054B2046FA
:1011FC006360054BE36040F201132381812323825A
:10120C0010BD00BFB50200203402002030B50E4DD9
:10121C0087B001A8FFF7E4FF296811F0010410D191
:10122C002846FEF738FF60B101AA21460748FFF7B0
:10123C00B9FF2846FEF734FF054A0649034800F07B
:10124C007DF9024807B030BD30020020B803002001
:10125C006C00002031110A0810B50446142200213C
:10126C0000F0B5FC054B20466360054BE36040F293
:10127C00011323818123238210BD00BF6804002049
:10128C00D003002010B50E4C86B001A8FFF7E4FF88
:10129C002368DB0710D42046FEF7FDFE60B101AADF
:1012AC0001210848FFF77EFF2046FEF7F9FE064AAB
:1012BC000649044800F042F9024806B010BD00BFD0
:1012CC00CC030020540400206C00002031110A08CB
:1012DC00002211464068FFF72BBAF0B5164689B0CC
:1012EC0011220F460446002103A800F070FC304682
:1012FC0000F09EFC0025009581B27B6803AA304665
:10130C00FFF7C2F920B129462046FFF7B3FA03E0F4
:10131C0003A92046FFF79CFA204609B0F0BD002235
:10132C0011464068FFF724BA002211464068FFF7C7
:10133C002FBA00224068FFF723BA002281F0010186
:10134C004068FFF70DBA00231A4619464068FFF7AC
:10135C00FFB900231A4619464068FFF7F1B900227D
:10136C0011464068FFF7D4B9002202214068FFF70C
:10137C00D7B900231A464068FFF7C2B9024B0422C2
:10138C005A60024A1A6070476C050020D81E0A0881
:10139C0008B5144B33B1FFF739FF03681B69984745
:1013AC00002816DC104B33B1FFF794FE03681B6961
:1013BC009847002810DC0D4B0BB1AFF300800C4BA1
:1013CC007BB1FFF75FFF03681B699847002806DCB9
:1013DC0008BDAFF30080E5E7AFF30080EBE7AFF3B8
:1013EC00008008BD000000000000000000000000AC
:1013FC000000000008B5FFF7CBFFFFF785F8014BA5
:10140C00186008BD7C0500200248034A0349121AE3
:10141C0000F0D2BB0040024004400240B01F0A085A
:10142C0007B5002300931A466FF07701FFF74EF9CA
:10143C0003B05DF804FB000007B543880A2B08D005
:10144C00502B09D1094B1B683BB103B05DF804EB81
:10145C001847FFF7E5FF06E0002300931A466FF0EC
:10146C007701FFF733F903B05DF804FB7405002036
:10147C0038B5104C104D2368AB42104B0CBF0122F9
:10148C0000221A7002D0FFF7BFFF2560FFF734F877
:10149C00044600F0A5FB0A4B13B12046AFF30080C5
:1014AC0000210748FFF71CF9BDE83840002105482A
:1014BC00FFF702B9004002401E1C279A7805002055
:1014CC000000000045140A0813B5084C00231A4606
:1014DC00194600932046FFF7E3F92046044A0549D4
:1014EC0002B0BDE8104000F029B800BF8005002014
:1014FC006C000020B3000A0870B50C4C0C4E0D4D5E
:10150C0000212046FFF7F6FA20460B4C32462946BE
:10151C0000F014F801212046FFF7ECFA3246294678
:10152C002046BDE8704000F009B800BF98050020C7
:10153C006C000020F10A0A08A80500200B460146A1
:10154C00184600F02BBBFEF7A4BD0000244B1A6814
:10155C00D0075CBF01221A60224B1A68D1075CBF0E
:10156C0001221A60204B1A68D2075CBF01221A6054
:10157C001E4B1A68D0075CBF01221A601C4B1A68FC
:10158C00D1075CBF01221A601A4B1A68D2075CBFE4
:10159C0001221A60184B1A68D0075CBF01221A602E
:1015AC00164B1A68D1075CBF01221A60144B1A68DB
:1015BC00D2075CBF01221A60124B1A68D0075CBFBD
:1015CC0001221A60104B1A68D1075CBF01221A6005
:1015DC000E4B1A68D2075CBF01221A60704700BF1D
:1015EC00E4050020E0050020DC050020D8050020E3
:1015FC00D4050020D0050020CC050020C805002013
:10160C00C4050020C0050020BC050020B805002042
:10161C00184B1A68D1075CBF01221A60164B1A6866
:10162C00D2075CBF01221A60144B1A68D0075CBF4A
:10163C0001221A60124B1A68D1075CBF01221A6092
:10164C00104B1A68D2075CBF01221A600E4B1A6845
:10165C00D0075CBF01221A600C4B1A68D1075CBF23
:10166C0001221A600A4B1A68D2075CBF01221A6069
:10167C00704700BF0406002000060020FC05002077
:10168C00F8050020F4050020F0050020EC050020F2
:10169C00E8050020184B1A68D1075CBF01221A60BC
:1016AC00164B1A68D2075CBF01221A60144B1A68D9
:1016BC00D0075CBF01221A60124B1A68D1075CBFBD
:1016CC0001221A60104B1A68D2075CBF01221A6003
:1016DC000E4B1A68D0075CBF01221A600C4B1A68BB
:1016EC00D1075CBF01221A600A4B1A68D2075CBF93
:1016FC0001221A60704700BF24060020200600203B
:10170C001C060020180600201406002010060020DD
:10171C000C06002008060020244B1A68D0075CBF7A
:10172C0001221A60224B1A68D1075CBF01221A6091
:10173C00204B1A68D2075CBF01221A601E4B1A6834
:10174C00D0075CBF01221A601C4B1A68D1075CBF22
:10175C0001221A601A4B1A68D2075CBF01221A6068
:10176C00184B1A68D0075CBF01221A60164B1A6816
:10177C00D1075CBF01221A60144B1A68D2075CBFF8
:10178C0001221A60124B1A68D0075CBF01221A6042
:10179C00104B1A68D1075CBF01221A600E4B1A68F5
:1017AC00D2075CBF01221A60704700BF54060020AC
:1017BC00500600204C06002048060020440600205D
:1017CC00400600203C06002038060020340600208D
:1017DC00300600202C0600202806002081F0004155
:1017EC0002E000BF83F0004330B54FEA41044FEAFA
:1017FC00430594EA050F08BF90EA020F1FBF54EA95
:10180C00000C55EA020C7FEA645C7FEA655C00F030
:10181C00E2804FEA5454D4EB5555B8BF6D420CDD01
:10182C002C4480EA020281EA030382EA000083EA84
:10183C00010180EA020281EA0303362D88BF30BD24
:10184C0011F0004F4FEA01314FF4801C4CEA11317A
:10185C0002D0404261EB410113F0004F4FEA0333D9
:10186C004CEA133302D0524263EB430394EA050F64
:10187C0000F0A780A4F10104D5F1200E0DDB02FAD3
:10188C000EFC22FA05F2801841F1000103FA0EF267
:10189C00801843FA05F359410EE0A5F120050EF12D
:1018AC00200E012A03FA0EFC28BF4CF0020C43FA5E
:1018BC0005F3C01851EBE37101F0004507D54FF06B
:1018CC00000EDCF1000C7EEB00006EEB0101B1F5BB
:1018DC00801F1BD3B1F5001F0CD349085FEA300001
:1018EC004FEA3C0C04F101044FEA445212F5800F0C
:1018FC0080F09A80BCF1004F08BF5FEA500C50F1A9
:10190C00000041EB045141EA050130BD5FEA4C0C8B
:10191C00404141EB010111F4801FA4F10104E9D114
:10192C0091F0000F04BF01460020B1FA81F308BF0B
:10193C002033A3F10B03B3F120020CDA0C3208DDD7
:10194C0002F1140CC2F10C0201FA0CF021FA02F1B2
:10195C000CE002F11402D8BFC2F1200C01FA02F122
:10196C0020FA0CFCDCBF41EA0C019040E41AA2BF47
:10197C0001EB0451294330BD6FEA04041F3C1CDA0F
:10198C000C340EDC04F11404C4F1200220FA04F02F
:10199C0001FA02F340EA030021FA04F345EA0301D9
:1019AC0030BDC4F10C04C4F1200220FA02F001FA9B
:1019BC0004F340EA0300294630BD21FA04F029461D
:1019CC0030BD94F0000F83F4801306BF81F48011B6
:1019DC000134013D4EE77FEA645C18BF7FEA655C29
:1019EC0029D094EA050F08BF90EA020F05D054EAFB
:1019FC00000C04BF1946104630BD91EA030F1EBF00
:101A0C000021002030BD5FEA545C05D14000494103
:101A1C0028BF41F0004130BD14F580043CBF01F5F6
:101A2C00801130BD01F0004545F0FE4141F47001DC
:101A3C004FF0000030BD7FEA645C1ABF19461046B7
:101A4C007FEA655C1CBF0B46024650EA013406BFB8
:101A5C0052EA033591EA030F41F4002130BD00BF77
:101A6C0090F0000F04BF0021704730B54FF4806434
:101A7C0004F132044FF000054FF0000150E700BFB5
:101A8C0090F0000F04BF0021704730B54FF4806414
:101A9C0004F1320410F0004548BF40424FF0000101
:101AAC003EE700BF42004FEAE2014FEA31014FEA44
:101ABC0002701FBF12F07F4393F07F4F81F0605193
:101ACC00704792F0000F14BF93F07F4F704730B502
:101ADC004FF4607401F0004521F0004120E700BF95
:101AEC0050EA010208BF704730B54FF000050AE01C
:101AFC0050EA010208BF704730B511F0004502D51D
:101B0C00404261EB41014FF4806404F132045FEA1E
:101B1C00915C3FF4DCAE4FF003025FEADC0C18BFC3
:101B2C0003325FEADC0C18BF033202EBDC02C2F1B9
:101B3C00200300FA03FC20FA02F001FA03FE40EA4B
:101B4C000E0021FA02F11444C1E600BF4FEA410233
:101B5C0012F5001215D211D56FF47873B3EB6252F3
:101B6C0012D94FEAC12343F0004343EA505311F01A
:101B7C00004F23FA02F018BF404270474FF00000AC
:101B8C00704750EA013005D111F0004008BF6FF0EA
:101B9C00004070474FF00000704700BF10B5054C77
:101BAC0013462CB10A4601460220AFF3008010BD4B
:101BBC00204610BD0000000010B5431E0A4491429F
:101BCC0004D011F8014B03F8014FF8E710BD0346A0
:101BDC000244934202D003F8011BFAE7704700005D
:101BEC0038B5124B05461C68A36BD3B91820FEF709
:101BFC00E7FD43F20E33A06303804AF6CD334380F6
:101C0C0041F2342383804EF26D63C3804DF6EC6356
:101C1C000381052343810B23838101220023C0E927
:101C2C000423A36B00221D615A6138BD680000209B
:101C3C00034613F8012B002AFBD1181A0138704700
:101C4C001D000A085D000A0889000A088D000A08B0
:101C5C00000000005365747570004851526F757424
:101C6C0065725F5055424C4953480074657374005B
:101C7C00696E2073656E64206D6574686F640020F6
:101C8C003A20000A2D2D2D2D000000000000000030
:101C9C00000000000F080A08B3000A08D5000A0863
:101CAC00626175640053657269616C0055534253EF
:101CBC00657269616C310074797065007061726174
:101CCC006D00636D6400696400686E640073747207
:101CDC006D0066696C74006C766C006164644861BC
:101CEC006E646C65720072656D6F766548616E64CA
:101CFC006C657200656E756D48616E646C657273AF
:101D0C00004A534F4E53747265616D4C6F67486156
:101D1C006E646C6572006170700025303130752016
:101D2C00005D20002564002C200028293A2000208A
:101D3C005B00636F6465203D200025690064657459
:101D4C0061696C73203D20000D0A0066006C6E000A
:101D5C00666E00636F64650064657461696C006E27
:101D6C006F6E6500747261636500696E666F0077F3
:101D7C0061726E006572726F720070616E696300E1
:101D8C00616C6C000000000000000000ED080A0807
:101D9C00F7080A0801090A080B090A0815090A08B4
:101DAC0021090A082D090A0839090A0841090A08F3
:101DBC004B090A0855090A08000000000000000041
:101DCC00F10A0A08F30A0A085A00252B3033643A40
:101DDC00253032750025592D256D2D256454254847
:101DEC003A254D3A2553257A0061736374696D6504
:101DFC00000000000000000000000000B5000A0810
:101E0C00E3000A084B0C0A086B0D0A08430C0A087D
:101E1C00610C0A087F0C0A08990C0A08BB0C0A080A
:101E2C00050D0A08270D0A08BD0E0A08D10D0A086F
:101E3C002D0C0A08CD0F0A08390E0A08F50E0A08EF
:101E4C00FB0F0A08950D0A08390C0A089D0E0A08A2
:101E5C003F0C0A089B0C0A08F0FFFFFF0000000073
:101E6C00B30C0A08000000000000000033100A0840
:101E7C0083100A0891100A08D1090A0847100A08A9
:101E8C0069100A0855100A087D100A0835100A084E
:101E9C0039100A08000000000000000031110A0887
:101EAC0081110A088F110A08D1090A086D110A0854
:101EBC0033110A0849110A087B110A085F110A0834
:101ECC002D110A0800000000000000007F130A0812
:101EDC0075130A086B130A08DD120A085F130A0847
:101EEC0053130A0847130A083F130A0835130A0844
:101EFC002B130A08E7120A0800000000000000007B
:101F0C0000000000000000000000000000000000C5
:101F1C0000000000000000000000000000000000B5
:101F2C0000000000000000000000000000000000A5
:101F3C000000000000000000000000000000000095
:101F4C000000000000000000000000000000000085
:101F5C0000000000000000004300000059020A08C5
:101F6C0029030A08F1040A08DD080A08BD090A0851
:101F7C00D50A0A08010C0A08190C0A0889130A0860
:101F8C00D5140A0805150A0859150A081D160A0859
:101F9C00A1160A0825170A0800000000000000001E
:041FAC000000000031
:041FB000000000002D
:101FB400B8220000F51D0A0800000000041F0A08EA
:101FC400241F0A08441F0A08000000000000000043
:101FD4000000000000000000641F0A080000000068
:101FE40000000000000000000000000000000000ED
:101FF40000000000000000000000000000000000DD
:1020040000000000000000000000000000000000CC
:0C20140000000000000000000800002098
:10202000FFFFFFFF00000102030405060708090A7D
:102030000B0C0D0E0F101112131415161718191A78
:082040001B1C1D1E1F202800BF
:042048007856341280
:04000005080A001CC9
:00000001FF
