:02000004080AE8
:1000000000000A08141E0A08000006000600050188
:08001000040279050000000064
:0400180004190A08B5
:10001C0009480A4908B5884205D0094A824202D0EB
:10002C00121A01F025FC0748074A0021121A01F0A8
:10003C002AFC064808BD00BF00000020741C0A08FA
:10004C0078010020780100207C0700207C0700202C
:10005C0070B501F0DBF9074B074C1E46E41AA408F7
:10006C000025A54204D056F8253098470135F8E70D
:10007C0070BD00BF2C1C0A08641C0A0800F036B8BE
:10008C0008B500F099F8BDE8084001F081B900F01E
:10009C0029BB00F02FBB0078B0FA80F04009704704
:1000AC00012303707047704710B50446054B03607D
:1000BC006433036100F0EAFD204600F01FFF204688
:1000CC0010BD00BFCC1A0A0810B50446182101F067
:1000DC0076FA204610BD10B50446FFF7E5FF204622
:1000EC004C2101F06CFA204610BD000070B596B0A2
:1000FC0001F05AF801F03FF80028F9D0294C002300
:10010C001A461946606800F08DFA002211466068A4
:10011C00244D00F09FFA0028F7D001F045F8224951
:10012C0000F063FC214B00221988214800F089FD66
:10013C00002319461F4A686800F0C4FA01F034F82D
:10014C00064600244022002106A801F09CFB402317
:10015C0006AA21460094686800F0BCFA06A902A819
:10016C0000F0FEFC0299304600F03FFC02A800F0C3
:10017C00B0FC01F019F8224606462146686800F0EA
:10018C0049FA811C06A800F03BFB06A9304600F09A
:10019C0036FC01F009F84FF4165100F0E5FF16B0EB
:1001AC0070BD00BF7806002018190A080C01002049
:1001BC00900100201E190A0843220249024800F04F
:1001CC0080B800BF000000207C01002038B500F092
:1001DC00CBF80021012000F0F9F9124B00221A7023
:1001EC005A804FF6FF72104C9A80022000F0DEF914
:1001FC000E4D204600F0F6FA20460D4C2A460D49CD
:10020C0001F0D8F9204600F05BFE2A460A49204648
:10021C0001F0D0F9BDE8384007220621074800F06C
:10022C000FB800BF88010020DC01002078010020FD
:10023C0090010020B3000A08B5000A087C010020D8
:10024C0010B5044680E8060090B2012101F02EF9A9
:10025C002088012101F02AF90023A360204610BD5B
:10026C0070B5836804461944816000F06DF8A3688A
:10027C0006461D1A13D000F067F8801B85420ED974
:10028C000121208801F023F90A2000F055F820887C
:10029C00002101F01CF9092000F04EF8EBE770BDCD
:1002AC0038B5836804461944816000F04DF8A368A2
:1002BC0005461C1A04D000F047F8401B8442FAD8BB
:1002CC0038BD2DE9F04104460F4680880121904647
:1002DC0001F0FDF800F038F80125A0600026B045CB
:1002EC000ED957F826102046FFF7BAFFA84504D9B7
:1002FC0057F825102046FFF7D3FF02360235EEE7FC
:10030C00A088002101F0E3F8BDE8F04141F288300B
:10031C0000F000BA00F028B808B5024B1B681B6B44
:10032C00019308BDD001060808B5024B1B685B6839
:10033C00019308BD9C01060808B5024B1B68DB68DD
:10034C00019308BD9C01060808B5024B1B681B698C
:10035C00019308BD9C01060808B5024B1B685B693C
:10036C00019308BD9C01060808B5024B1B681B686D
:10037C00019308BDB001060808B5024B1B689B68C9
:10038C00019308BDB001060808B5024B1B68DB6879
:10039C00019308BDB001060808B5024B1B681B6928
:1003AC00019308BDB001060808B5024B1B681B6E13
:1003BC00019308BDAC01060808B5024B1B685B6EC7
:1003CC00019308BDAC01060808B5024B1B689B6E77
:1003DC00019308BDAC01060808B5024B1B68DB6E27
:1003EC00019308BDAC01060808B5024B1B681B6FD6
:1003FC00019308BDAC01060808B5024B1B685B6F86
:10040C00019308BDAC01060808B5034B1B68D3F873
:10041C008030019308BD0000AC01060808B5024B02
:10042C001B685B68019308BDBC01060808B5024B4C
:10043C001B689B68019308BDBC01060808B5024BFC
:10044C001B685B69019308BDBC01060808B5024B2B
:10045C001B68DB69019308BDBC01060808B5024B9B
:10046C001B681B6A019308BDBC01060808B5024B4A
:10047C001B681B6B019308BDBC01060808B5024B39
:10048C001B68DB69019308BDB401060808B5024B73
:10049C001B681B6A019308BDB401060808B5024B22
:1004AC001B689B69019308BDC401060808B5024B83
:1004BC001B685B6A019308BDC401060808B5024BB2
:1004CC001B689B6A019308BDC401060808B5024B62
:1004DC001B68DB6A019308BDC401060808B5024B12
:1004EC001B681B6B019308BDC401060808B5024BC1
:1004FC001B685B6B019308BDC401060808B5024B71
:10050C001B689B6B019308BDC401060808B5024B20
:10051C001B681B6C019308BDC401060808B5024B8F
:10052C001B681B68019308BDD801060808B5024B6F
:10053C001B685B68019308BDD801060808B5024B1F
:10054C001B681B69019308BDD801060808B5024B4E
:10055C001B685B69019308BDD801060808B5024BFE
:10056C001B689B69019308BDD801060808B5024BAE
:10057C001B68DB69019308BDD801060808B5024B5E
:10058C001B681B6A019308BDD801060808B5024B0D
:10059C001B685B6A019308BDD801060808B5024BBD
:1005AC001B689B6C019308BDC001060808B5024B83
:1005BC001B685B68019308BDA401060808B5024BD3
:1005CC001B685B69019308BDA401060808B5024BC2
:1005DC001B68DB6A019308BDA401060808B5034B30
:1005EC001B68D3F89030019308BD0000A4010608E5
:1005FC0008B5034B1B68D3F89C30019308BD000071
:10060C00A401060808B5024B1B68DB6B019308BDFF
:10061C00CC01060808B5024B1B681B68019308BD8A
:10062C00C801060808B5024B1B685B68019308BD3E
:10063C00C801060808B5024B1B689B68019308BDEE
:10064C00C801060808B5024B1B68DB68019308BD9E
:10065C00C801060808B5024B1B681B69019308BD4D
:10066C00C801060808B5024B1B685B69019308BDFD
:10067C00C801060808B5024B1B689B69019308BDAD
:10068C00C801060808B5024B1B68DB69019308BD5D
:10069C00C801060808B5024B1B681B6A019308BD0C
:1006AC00C801060808B5024B1B681B6B019308BDFB
:1006BC00C801060808B5024B1B685B6B019308BDAB
:1006CC00C801060808B5024B1B689B6B019308BD5B
:1006DC00C801060808B5024B1B68DB6B019308BD0B
:1006EC00C801060808B5024B1B681B68019308BDBE
:1006FC00A001060808B5024B1B685B68019308BD96
:10070C00A001060808B5024B1B689B68019308BD45
:10071C00A00106080021FFF751BF10B583680446FD
:10072C0013B1032201469847204610BD7047F8B517
:10073C00064615460C468F18BC4206D0336814F892
:10074C00011B9B6830469847F6E72846F8BD002207
:10075C00007CFFF729BE0021007CFFF72DBE002195
:10076C00007CFFF731BE0021007CFFF735BE002175
:10077C00007CFFF739BE10B50446142100F01FFFB2
:10078C00204610BD10B5044608464FF47A73A3609A
:10079C00044B0021207461602360FFF735FE204676
:1007AC0010BD00BF3C190A080021007CFFF724BED5
:1007BC00F8B50F4600F10806051D002416F8011DBA
:1007CC000A22384600F04FF9AE42044407D0002C00
:1007DC00F4D02E21384600F0F3F80444EEE720461E
:1007EC00F8BD000010B50446044B112240F8043B40
:1007FC00002101F048F8204610BD00BF64190A081A
:10080C000346074A10B543F8042B01F1100251F8C6
:10081C00044B914243F8044BF9D10A781A7010BD7D
:10082C0064190A08024A416002600422027570478A
:10083C0064190A0810B59DF8084044EA032343EAFA
:10084C00024242EA016104234160037510BD0000BD
:10085C0037B5044D05609DF818500095FFF7EAFF79
:10086C0003B030BD64190A0837B50D788B784A7817
:10087C00C97800912946FFF7DDFF03B030BD0000B9
:10088C00014A024B1A607047E6190A08F40100206D
:10089C0000231A464068FFF7C5BE002202214068BB
:1008AC00FFF7D0BE002211464068FFF7C3BE0022FE
:1008BC0011464068FFF7CEBE00231A461946406821
:1008CC00FFF7D0BE00231A4619464068FFF7D2BE88
:1008DC00002281F001014068FFF7D4BE002240687D
:1008EC00FFF7E0BE002211464068FFF7E3BE00228E
:1008FC0011464068FFF7CEBE70B516468EB0044662
:10090C0008A8FFF76FFF1122002103A800F0BBFF1E
:10091C00304600F0E9FF00250A4B009581B25B6878
:10092C0003AA3046FFF73AFE20B129462046FFF7CE
:10093C0079FF03E003A92046FFF762FF20460EB0C3
:10094C0070BD00BF78060020034B044A04280CBF7E
:10095C0010461846704700BFF801002078060020AA
:10096C00024B034A1A6000225A607047F8010020BB
:10097C005C1A0A08F8B506460D468F180024BD42CD
:10098C000CD0336815F8011B9B683046984700283B
:10099C0001DB0444F3E7002C08BF04462046F8BDF5
:1009AC0070B505460C46084649B100F09DFF2B6812
:1009BC00024621462846BDE87040DB68184770BDEA
:1009CC0003689B6818470B460A680146126818466C
:1009DC00104738B50D210546FFF7F2FF0A210446F2
:1009EC002846FFF7EDFF204438BD38B50546FFF724
:1009FC00D7FF04462846FFF7ECFF204438BD38B536
:100A0C000546FFF7E0FF04462846FFF7E2FF2044C7
:100A1C0038BD012A98BF0A2230B50B468BB0002195
:100A2C008DF824100DF12304B3FBF2F505FB123302
:100A3C00DBB2092B94BF30333733DBB2214604F8D9
:100A4C0001392B46002DEFD1FFF7AAFF0BB030BDBB
:100A5C0010B422B90368C9B29B6810BC1847D2B253
:100A6C0010BCFFF7D6BFFFF7F3BF10B50446FFF776
:100A7C0054FE204610BD0000034800238360034A47
:100A8C00034900F097BD00BF000200207801002050
:100A9C00770A0A08704710B50446102100F08FFD44
:100AAC00204610BD70B504460E46074B002503606A
:100ABC0040F80C5FFFF730FC30462671FFF7DEFC88
:100ACC00A560204670BD00BF901A0A080079FFF798
:100ADC00DDBC10B504460068FFF70CFE204610BDC7
:100AEC0010B50446006808B1FFF704FE002323602C
:100AFC00A360636010BD38B504460D460068013133
:100B0C00FFF700FE10B184E82100012038BD10B5BC
:100B1C000368044613B143688B4207D22046FFF7A3
:100B2C00EAFF20B1A3680BB922681370012010BD35
:100B3C0070B50E46114604461546FFF7E8FF18B986
:100B4C002046FFF7CDFF09E02A463146A560206814
:100B5C0000F08EFE2268A3680021D154204670BD9F
:100B6C0038B50023044603604360836003730D466D
:100B7C0039B1084600F0B8FE294602462046FFF778
:100B8C00D7FF204638BD00004FF6FF72034B002004
:100B9C00187058809A80FFF709BD00BF1002002022
:100BAC00024B1A68024B1A60704700BF10010020FC
:100BBC001802002010B40468246BA44610BC6047D3
:100BCC0003689B6C1847808E7047028FC08E101A7A
:100BDC00704713B502AB026803F8011DD4681946BF
:100BEC000122A04702B010BD10B5036804461B6972
:100BFC00984728B1E38EE26B591CE186D05C10BD9E
:100C0C004FF0FF3010BD10B5036804461B699847C0
:100C1C0018B1E38EE26BD05C10BD4FF0FF3010BD0D
:100C2C0070470346084610B4D98EDC6B1A8F0368E4
:100C3C00521ADB68214410BC1847A0F11000FFF7D2
:100C4C00F0BFF7B5054610460F461646FFF77CFE7B
:100C5C000368DB689847B8B102213B46112208466D
:100C6C000096FFF7E3FB6861FFF7D8FB044630B151
:100C7C000023EB862B872F836E64012004E02B6806
:100C8C0028465B6A9847204603B0F0BD38B5044649
:100C9C004569FFF7EBFB854202D06069FFF7DEFB8D
:100CAC00FFF7E4FB00236061E386238738BD30B592
:100CBC0087B0BDF828400225ADF808508DF80B40E0
:100CCC00250ADC798DF80A508DF80C409C798DF84A
:100CDC000D405C791B798DF80E408DF80F30102388
:100CEC00019302AB009340690023FFF7AFFB07B001
:100CFC0030BD38B5C36B0546C08E13B12C6C241AAD
:100D0C0000E01C46944228BF14461844224600F0CA
:100D1C00AFFDEB8E20462344EB8638BD70B50368DF
:100D2C0004461B690E461546984788B12368204631
:100D3C001B6998478542A8BF0546E38EE16B2A469E
:100D4C001944304600F094FDE38E2B44E38601E019
:100D5C004FF0FF35284670BDF0B5044689B0406CA5
:100D6C000D461646FFF7F0FD0368DB68984710B395
:100D7C006769FFF77BFB87421DD0E5B108AB1022FA
:100D8C0043F8142D01930DEB020300932946002325
:100D9C0032466069FFF752FB051E0EDB9DF81220F0
:100DAC009DF8133005A943EA0223A38604F11C0025
:100DBC00FFF75AFD01E04FF0FF35284609B0F0BDB2
:100DCC002DE9F041064694B0406C0D469046FFF775
:100DDC00BBFD0368DB689847F8B1284600F084FD3A
:100DEC00002481B20094736C03AA2846FFF7D6FB4B
:100DFC0090B903A908A8FFF703FD33680FAC9F6BEC
:100E0C00074B09AD0E930FCD0FC42B6842462370D0
:100E1C000EA93046B84700E0204614B0BDE8F0817A
:100E2C0064190A0870B504460646054B01F1200505
:100E3C0044F8043B0FCD0FC42B683046237070BDB3
:100E4C0064190A08F0B594468E460646026889B0C5
:100E5C00976A094A03AC1D1D02920FCD0FC42B6873
:100E6C0062462370BDF8383071460093304602ABB1
:100E7C00B84709B0F0BD00BF64190A08F0B50446C4
:100E8C00036889B09F6A0D4B03AD00F12006B0F8E2
:100E9C0036E002930FCE0FC5336872462B70A38ECB
:100EAC00E16B0093204602ABB84705462368204609
:100EBC00DB699847284609B0F0BD00BF64190A08E1
:100ECC0038B54FF47A7383600B4B002503F108029D
:100EDC006C330260036145600446FFF7C7FA60613A
:100EEC0004F11C00FFF77EFC4FF40073E5862587A8
:100EFC00E5632364204638BDC41A0A0810B590F87F
:100F0C004830044623B1C06B10B1012100F057FBEF
:100F1C000023E36384F848302364E386238710BD01
:100F2C0070B5044616460D46FFF7E8FF0023E6634E
:100F3C0023643EB935B12846FFF7A9F80123E063D5
:100F4C0084F84830E36B03B12564206C003018BF83
:100F5C00012070BDF8B51746C26B05460C461AB990
:100F6C00016C09B1FFF7DCFF05F1200604340FCC4E
:100F7C000FC6236833700023AF86EB862B87286C53
:100F8C00F8BD70B5C26B04461AB9016C09B1FFF714
:100F9C00C7FFE16B0023E386238741B1226C32B19A
:100FAC002068056B2046A8470028C8BF2087236807
:100FBC002046BDE870401B69184770474174704764
:100FCC0008B5007CFFF7A2FA20EAE07008BD08B56E
:100FDC00007CFFF773FA20EAE07008BD08B5007CCE
:100FEC00FFF77CFA30EA200028BF4FF0FF3008BD35
:100FFC0008B5007CFFF76AFA30EA200028BF4FF0F2
:10100C00FF3008BD007CFFF771BA10B504461421FF
:10101C0000F0D5FA204610BD70B5457C04460E464E
:10102C0025B9007CFFF772FA002805DD3146207CDB
:10103C00BDE87040FFF73ABA284670BD10B50446BB
:10104C0008461146002262604FF47A72A260054A8B
:10105C0020742260012262741A46FFF71FFA2046A0
:10106C0010BD00BF3C1B0A08007CFFF747BA00000C
:10107C0038B50C4D296811F0010411D12846FFF741
:10108C000AF868B1084A2146084B0948FFF7D6FF11
:10109C002846FFF705F8074A0749054800F08AFA81
:1010AC00034838BDB4020020B802002030020020F2
:1010BC001C02002078010020C70F0A0841747047F9
:1010CC00704708B50021007CFFF748FA30EA200091
:1010DC0028BF4FF0FF3008BD08B50121007CFFF799
:1010EC003DFA30EA200028BF4FF0FF3008BD08B5AC
:1010FC00007CFFF72BFA20EAE07008BD08B5007CF5
:10110C00FFF71CFA20EAE07008BD007CFFF736BA46
:10111C0010B50446142100F052FA204610BD38B523
:10112C000446007C0D46FFF711FA002801DC607CB8
:10113C0028B12946207CFFF719FA20EAE07038BD67
:10114C0010B50446002363604FF47A73A360054B1B
:10115C00084623600123217463741146FFF7DEF9FE
:10116C00204610BD6C1B0A080022007CFFF7DEB97C
:10117C00007CFFF70BBAFFF7FBBF000010B504466D
:10118C001422002100F07FFB054B20466360054BC9
:10119C00E36040F2011323818123238210BD00BF41
:1011AC00C10300204003002030B50E4D87B001A8CC
:1011BC00FFF7E4FF296811F0010410D12846FEF76F
:1011CC006AFF60B101AA21460748FFF7B9FF28461C
:1011DC00FEF766FF054A0649034800F0EBF90248A2
:1011EC0007B030BD3C030020C4040020780100206F
:1011FC00CD100A0810B504461422002100F043FB60
:10120C00054B20466360054BE36040F201132381DC
:10121C008123238210BD00BF74050020DC04002054
:10122C0010B50E4C86B001A8FFF7E4FF2368DB076E
:10123C0010D42046FEF72FFF60B101AA0121084807
:10124C00FFF77EFF2046FEF72BFF064A06490448AF
:10125C0000F0B0F9024806B010BD00BFD804002061
:10126C006005002078010020CD100A0800221146EC
:10127C004068FFF7EFB9F0B5164689B011220F465A
:10128C000446002103A800F0FEFA304600F02CFBC7
:10129C000025009581B27B6803AA3046FFF77EF9E2
:1012AC0020B129462046FFF7BDFA03E003A92046EA
:1012BC00FFF7A6FA204609B0F0BD0022114640689F
:1012CC00FFF7E8B9002211464068FFF7F3B9002296
:1012DC004068FFF7E7B9002281F001014068FFF791
:1012EC00D1B900231A4619464068FFF7C3B9002349
:1012FC001A4619464068FFF7B5B9002211464068F6
:10130C00FFF798B9002202214068FFF79BB9002330
:10131C001A464068FFF786B9024B04225A60024A0B
:10132C001A607047780600209C1B0A0808B5144BFD
:10133C0033B1FFF739FF03681B699847002816DCA7
:10134C00104B33B1FFF794FE03681B6998470028D4
:10135C0010DC0D4B0BB1AFF300800C4B7BB1FFF7E6
:10136C005FFF03681B699847002806DC08BDAFF3D4
:10137C000080E5E7AFF30080EBE7AFF3008008BD3A
:10138C000000000000000000000000000000000051
:10139C0008B5FFF7CBFFFEF7DFFF014B186008BD68
:1013AC00880600200248034A0349121A00F060BA6A
:1013BC000040024004400240701C0A0807B500239C
:1013CC0000931A466FF07701FFF712F903B05DF83E
:1013DC0004FB000007B543880A2B08D0502B09D119
:1013EC00094B1B683BB103B05DF804EB1847FFF7E2
:1013FC00E5FF06E0002300931A466FF07701FFF734
:10140C00F7F803B05DF804FB8006002038B5104CEB
:10141C00104D2368AB42104B0CBF012200221A70F6
:10142C0002D0FFF7BFFF2560FEF77EFF044600F0F9
:10143C0033FA0A4B13B12046AFF300800021074862
:10144C00FFF7E0F8BDE8384000210548FFF7C6B8C3
:10145C00004002401E1C279A840600200000000059
:10146C00E1130A0810B504460F48FFF72FFB28B10B
:10147C00A4F10D03022B01D8002010BD00F040F8A0
:10148C00FFF792F908B1012CF6D9FFF7F1FDFFF740
:10149C00EBFD18B1A4F11203012BEDD9172C8CBF65
:1014AC000020012010BD00BFBC060020172838B555
:1014BC0004460D460AD8FF2908D0FFF7D3FF28B100
:1014CC0029462046BDE83840FEF756BF38BD38B532
:1014DC0004460D46FEF758FFFF2810D0062804D806
:1014EC004D2323FA00F0C30709D42046FFF7BAFFB7
:1014FC0028B129462046BDE83840FEF74DBF38BD1F
:10150C0038B50B4D296811F001040FD12846FEF7B0
:10151C00C2FD58B121460748FFF734F92846FEF7BB
:10152C00BFFD054A0549034800F044F8014838BDA1
:10153C008C060020900600207801002039070A084C
:10154C0013B5084C00231A46194600932046FFF7A2
:10155C007FF92046044A054902B0BDE8104000F06E
:10156C0029B800BFA406002078010020B3000A08A7
:10157C0070B50C4C0C4E0D4D00212046FFF792FA25
:10158C0020460B4C3246294600F014F80121204627
:10159C00FFF788FA324629462046BDE8704000F035
:1015AC0009B800BFBC06002078010020A10A0A0877
:1015BC00CC0600200B460146184600F04BB9FEF74E
:1015CC0068BD0000244B1A68D0075CBF01221A606A
:1015DC00224B1A68D1075CBF01221A60204B1A6893
:1015EC00D2075CBF01221A601E4B1A68D0075CBF81
:1015FC0001221A601C4B1A68D1075CBF01221A60C9
:10160C001A4B1A68D2075CBF01221A60184B1A6871
:10161C00D0075CBF01221A60164B1A68D1075CBF59
:10162C0001221A60144B1A68D2075CBF01221A609F
:10163C00124B1A68D0075CBF01221A60104B1A6853
:10164C00D1075CBF01221A600E4B1A68D2075CBF2F
:10165C0001221A60704700BF080700200407002011
:10166C0000070020FC060020F8060020F4060020ED
:10167C00F0060020EC060020E8060020E40600201E
:10168C00E0060020DC060020184B1A68D1075CBF6E
:10169C0001221A60164B1A68D2075CBF01221A602D
:1016AC00144B1A68D0075CBF01221A60124B1A68DF
:1016BC00D1075CBF01221A60104B1A68D2075CBFBD
:1016CC0001221A600E4B1A68D0075CBF01221A6007
:1016DC000C4B1A68D1075CBF01221A600A4B1A68BE
:1016EC00D2075CBF01221A60704700BF2807002098
:1016FC0024070020200700201C07002018070020CA
:10170C0014070020100700200C070020184B1A6843
:10171C00D1075CBF01221A60164B1A68D2075CBF56
:10172C0001221A60144B1A68D0075CBF01221A60A0
:10173C00124B1A68D1075CBF01221A60104B1A6851
:10174C00D2075CBF01221A600E4B1A68D0075CBF2F
:10175C0001221A600C4B1A68D1075CBF01221A6077
:10176C000A4B1A68D2075CBF01221A60704700BF8F
:10177C004807002044070020400700203C070020B9
:10178C003807002034070020300700202C070020E9
:10179C00244B1A68D0075CBF01221A60224B1A68CE
:1017AC00D1075CBF01221A60204B1A68D2075CBFBC
:1017BC0001221A601E4B1A68D0075CBF01221A6006
:1017CC001C4B1A68D1075CBF01221A601A4B1A68AD
:1017DC00D2075CBF01221A60184B1A68D0075CBF95
:1017EC0001221A60164B1A68D1075CBF01221A60DD
:1017FC00144B1A68D2075CBF01221A60124B1A688C
:10180C00D0075CBF01221A60104B1A68D1075CBF6D
:10181C0001221A600E4B1A68D2075CBF01221A60B3
:10182C00704700BF78070020740700207007002065
:10183C006C07002068070020640700206007002068
:10184C005C07002058070020540700205007002098
:10185C004C07002010B5054C13462CB10A46014626
:10186C000220AFF3008010BD204610BD0000000028
:10187C0010B5431E0A44914204D011F8014B03F8F1
:10188C00014FF8E710BD03460244934202D003F81F
:10189C00011BFAE77047000038B5124B05461C686F
:1018AC00A36BD3B91820FEF71DFF43F20E33A063D0
:1018BC0003804AF6CD33438041F2342383804EF2C9
:1018CC006D63C3804DF6EC630381052343810B23C9
:1018DC00838101220023C0E90423A36B00221D6134
:1018EC005A6138BD74010020034613F8012B002AFD
:1018FC00FBD1181A013870471D000A085D000A0850
:10190C0089000A088D000A080000000053657475F0
:10191C0070004851526F757465725F5472616E73CA
:10192C006D69747465720000000000000000000016
:10193C0039070A0883070A085B070A083B070A08E5
:10194C0063070A086B070A0873070A087B070A086B
:10195C000000000000000000BD070A08B3000A08E0
:10196C00D5000A08626175640053657269616C0088
:10197C0055534253657269616C310074797065001E
:10198C00706172616D00636D6400696400686E64FF
:10199C00007374726D0066696C74006C766C006117
:1019AC00646448616E646C65720072656D6F766517
:1019BC0048616E646C657200656E756D48616E642D
:1019CC006C657273004A534F4E53747265616D4C63
:1019DC006F6748616E646C657200617070002530D1
:1019EC0031307520005D20002564002C2000282952
:1019FC003A2000205B00636F6465203D2000256960
:101A0C000064657461696C73203D20000D0A0066EA
:101A1C00006C6E00666E00636F64650064657461D3
:101A2C00696C006E6F6E6500747261636500696E3F
:101A3C00666F007761726E006572726F7200706112
:101A4C006E696300616C6C00000000000000000017
:101A5C009D080A08A7080A08B1080A08BB080A0862
:101A6C00C5080A08D1080A08DD080A08E9080A08A6
:101A7C00F1080A08FB080A0805090A08000000001A
:101A8C0000000000A10A0A08A30A0A085A00252B24
:101A9C003033643A253032750025592D256D2D25AE
:101AAC00645425483A254D3A2553257A00617363D1
:101ABC0074696D650000000000000000000000006B
:101ACC00B5000A08E3000A08DF0B0A08FF0C0A0835
:101ADC00D70B0A08F50B0A08130C0A082D0C0A0878
:101AEC004F0C0A08990C0A08BB0C0A08510E0A087C
:101AFC00650D0A08C10B0A08610F0A08CD0D0A080A
:101B0C00890E0A088F0F0A08290D0A08CD0B0A083E
:101B1C00310E0A08D30B0A082F0C0A08F0FFFFFF3E
:101B2C0000000000470C0A08000000000000000044
:101B3C00C70F0A0817100A0825100A0881090A0895
:101B4C00DB0F0A08FD0F0A08E90F0A0811100A0832
:101B5C00C90F0A08CD0F0A080000000000000000A1
:101B6C00CD100A081D110A082B110A0881090A0850
:101B7C0009110A08CF100A08E5100A0817110A08FB
:101B8C00FB100A08C9100A08000000000000000041
:101B9C001B130A0811130A0807130A0879120A08FA
:101BAC00FB120A08EF120A08E3120A08DB120A08F1
:101BBC00D1120A08C7120A0883120A080000000092
:101BCC000000000000000000000000000000000009
:101BDC0000000000000000000000000000000000F9
:101BEC0000000000000000000000000000000000E9
:101BFC0000000000000000000000000000000000D9
:101C0C0000000000000000000000000000000000C8
:101C1C000000000000000000000000004300000075
:101C2C00D9010A0821030A088D080A086D090A0857
:101C3C00850A0A08950B0A08AD0B0A0825130A0831
:101C4C004D150A087D150A08D1150A0895160A08BB
:101C5C0019170A089D170A08000000000000000070
:041C6C000000000074
:041C70000000000070
:101C74002823000062110000260200002602000052
:101C840058020000F401000058020000260200007F
:101C9400260200007206000058020000260200001E
:101CA400260200002602000058020000F401000091
:101CB40058020000260200005802000040060000FE
:101CC400580200007206000058020000720600006C
:101CD40058020000F40100005802000072060000DF
:101CE400580200004006000058020000720600007E
:101CF400580200007206000058020000F4010000BF
:101D0400580200007206000058020000720600002B
:101D1400260200002602000058020000720600009D
:101D2400260200002602000058020000F401000010
:101D3400580200002602000026020000720600007D
:101D440058020000260200002602000026020000BD
:101D5400580200007206000026020000260200005D
:101D640058020000720600002602000072060000FD
:101D74008A0200004006000058020000B822000059
:101D8400B91A0A0800000000C81B0A08E81B0A0860
:101D9400081C0A0800000000000000000000000009
:101DA40000000000281C0A080000000000000000D9
:101DB400000000000000000000000000000000001F
:101DC400000000000000000000000000000000000F
:101DD40000000000000000000000000000000000FF
:081DE4000000000014010020C2
:101DEC00FFFFFFFF00000102030405060708090AB4
:101DFC000B0C0D0E0F101112131415161718191AAF
:081E0C001B1C1D1E1F202800F5
:041E140078563412B6
:04000005080A001CC9
:00000001FF
