:02000004080AE8
:1000000000000A08483A0A08000006000600050138
:08001000040279050000000064
:04001800B4350A08E9
:10001C0009480A4908B5884205D0094A824202D0EB
:10002C00121A03F043FA0748074A0021121A03F088
:10003C0048FA064808BD00BF00000020B4390A0881
:10004C006C0000206C0000207C0600207C06002048
:10005C0070B502F0FFFC074B074C1E46E41AA408CF
:10006C000025A54204D056F8253098470135F8E70D
:10007C0070BD00BF78390A08B0390A0800F036B8EC
:10008C0008B500F056FABDE8084002F0A5BC01F036
:10009C001FBE01F025BE0078B0FA80F04009704711
:1000AC00012303707047704710B50446054B03607D
:1000BC006433036102F012F9204602F047FA20463D
:1000CC0010BD00BF18380A0810B50446182102F0FC
:1000DC009AFD204610BD10B50446FFF7E5FF2046FB
:1000EC004C2102F090FD204610BD000070B596B07A
:1000FC0002F07EFB02F063FB0028F9D02B4C0023AE
:10010C001A461946606801F083FD002211466068AA
:10011C00264D01F095FD0028F7D002F069FB24492B
:10012C0001F05DFF234B00221988234802F0B1F83F
:10013C0000231946214A686801F0BAFD02F058FB09
:10014C00064600244022002106A803F0BAF94023F9
:10015C0006AA21460094686801F0B2FD06A902A81F
:10016C0002F026F80299304601F039FF02A801F09E
:10017C00D8FF02F03DFB224606462146686801F096
:10018C003FFD811C06A801F031FE06A9304601F0A6
:10019C0030FF32210A4801F094FB094800F048FA7C
:1001AC00074800F07BFA16B070BD00BF7805002040
:1001BC00C8350A08000000208C000020CE350A0843
:1001CC0070000020C043C0B254280AD800EB400293
:1001DC00A0EB800001380023D2B21946C0B201F066
:1001EC0067BBA9280CD85538C1B2A1EB8102013AE2
:1001FC0001EB41010023D2B2C9B2184601F058BB41
:10020C005630C0B2A0EB8001013900EB4000002356
:10021C001A46C9B2C0B201F04BBB00002DE9F04741
:10022C00002481468846254644454FDA002600279F
:10023C00294801F044FB874226DA274801F03FFBAE
:10024C003B0293FBF0F03044C0B2FFF7BBFFC0F3AE
:10025C00072002F0DDFE8246284602F0D9FE1F4937
:10026C0002F0DEFF0146504602F026FF03F0EAF8EA
:10027C000022FF21C0B201F016FBB9B202461648AB
:10028C0001F0C6FA0137D3E744B9284602F0C0FEA4
:10029C00134903F0AFF808B101350BE008F1FF3357
:1002AC009C4207D1304602F0B3FE0E4903F0C0F871
:1002BC0000B1013D084800F0F1F90136484601F063
:1002CC001FFDB6F5807FB2D10134ADE74FF4FA7063
:1002DC00BDE8F04701F014BD700000200000C842DA
:1002EC000000C64200001B432DE9F04F83B080464E
:1002FC0000AF3E4801F0E3FA80000A3020F007001E
:10030C00ADEB000DEA4600244FF0FF35374801F005
:10031C00D6FA844203DA4AF824500134F6E702F0A4
:10032C0067FA0025324901F05AFE2C46A9462F489F
:10033C0001F0C5FA1FFA85FB83454ED2B9F1000FC7
:10034C001BD003F0EFF80446284801F0B8FA94FBF0
:10035C00F0F3002603FB1044334624487B6001F085
:10036C00AEFA86427B6801DB9946E7E75AF826200D
:10037C000136944208BF4B46EFE702F039FA0A22E5
:10038C00594601F08EFE02F033FA1A4901F00EFEC6
:10039C0002F02EFA0A22214601F085FEFF261FFAF2
:1003AC0084F9F2B2FF21104601F07DFA494602466B
:1003BC000E4801F02DFA0A204AF82B4001F0A0FC5F
:1003CC000A4800F06BF916F1FF36EAD2404601F00C
:1003DC0097FC01354FF00109A9E74FF4FA6001F0E1
:1003EC008FFC0C37BD46BDE8F08F00BF70000020BD
:1003FC00DF350A08E9350A082DE9F04F83B081464C
:10040C0000AF404801F05BFA80000A3020F0070092
:10041C00ADEB000DEA4600244FF0FF35394801F0F2
:10042C004EFA844203DA4AF824500134F6E702F01B
:10043C00DFF90026344901F0D2FD35463446314807
:10044C0001F03DFA1FFA86FB834552D214B303F038
:10045C0069F805462B4801F032FA95FBF0F34FF0A2
:10046C00000803FB105502F0C3F9284901F09EFD6A
:10047C00434624487B6001F022FA80457B6801DB0F
:10048C001C46E3E75AF8282008F10108954208BFFA
:10049C002346EEE702F0ACF90A22594601F001FEC0
:1004AC0002F0A6F91A4901F081FD02F0A1F90A2225
:1004BC00294601F0F8FD1FFA85F8E2B2FF2110463B
:1004CC0001F0F1F9414602460E4801F0A1F90D4840
:1004DC004AF82B50013400F0E1F80A2001F010FC2E
:1004EC00B4F5807FE9D1484601F00AFC01360124BD
:1004FC00A5E74FF4FA6001F003FC0C37BD46BDE8EC
:10050C00F08F00BF70000020EF350A08FB350A0899
:10051C00E9350A0810B5044600238022FF21FFF7B5
:10052C006BFF2046BDE8104000238022FF21FFF71F
:10053C00DBBE08B50A2108460122FFF76FFEB82082
:10054C00FFF7E8FFBDE808400A2101220846FFF743
:10055C0065BE000038B501F005FA0021012001F05C
:10056C002BFB154B00221A705A804FF6FF72134D5D
:10057C009A80022001F010FB114C284601F028FC57
:10058C002846104D2246104902F038FB284601F04F
:10059C00BFFF22460D4928460D4D02F02FFB0223CA
:1005AC001A460A21284600F068F822462846BDE87B
:1005BC003840084902F022BB84000020D8000020FB
:1005CC006C0000208C000020B3000A08B5000A085B
:1005DC0070000020E9050A0801F0B4B910B5044612
:1005EC00C06808B101F07CFB23781BB10021E079D5
:1005FC0002F080FA204610BD38B50446C0680D469E
:10060C0008B101F06DFBA379062B0CBF042003206D
:10061C00684380B2A08001F05BFBE06028B1A28847
:10062C00002102F04EFF658038BDA080608038BD8F
:10063C0010B504460121C07902F05CFA0021E07982
:10064C0002F069FA0123237010BD38B50378054612
:10065C000C461BB10021C07902F04CFA2B78EC71DE
:10066C0053B1A4B22046012102F044FA2046BDE861
:10067C003840002102F04FBA38BD70B5044616461A
:10068C000025837105700572C5600561FFF7B4FF25
:10069C0020463146FFF7D9FF204670BDC368002BBA
:1006AC0000F08E852DE9F0410446837986B0023B3B
:1006BC00DBB2042B96BF294A322552F82350FFF7A0
:1006CC008BFF2369C01AA842F9D372B6A179A3880B
:1006DC000229ADF80A30D4F80CE000F07282072938
:1006EC0000F06F82062900F03284052900F0AB83FC
:1006FC00082900F0A883002940F06385184A4FF4BC
:10070C000006BDF80A309BB2002B00F095830496CE
:10071C00BDF80A300EF10305033B9BB2ADF80A306D
:10072C009EF80030DBB28DF807309EF80130DBB25A
:10073C008DF806309EF80230DBB28DF808309DF84B
:10074C0007709DF806309DF808001B0243EA07432A
:10075C00034303938DF805101BE100BF6C360A08A8
:10076C00F0000020004600BF00BF00BF00BF00BF6C
:10077C0000BF00BF00BF00BF00BF00BF00BF00BF75
:10078C0000BF00BF00BF00BF00BF00BF00BF00BF65
:10079C0000BF00BF00BF00BF00BF00BF00BF00BF55
:1007AC0000BF00BF00BF00BF00BF00BF00BF00BF45
:1007BC0000BF00BF00BF00BF00BF00BF00BF00BF35
:1007CC0000BF00BF00BF00BF00BF00BF00BF00BF25
:1007DC0000BF00BF00BF00BF00BF00BF00BF00BF15
:1007EC0000BF00BF00BF00BF00BF00BF00BF00BF05
:1007FC0000BF00BF00BF00BF00BF00BF00BF00BFF5
:10080C0000BF00BF00BF00BF00BF00BF00BF00BFE4
:10081C0000BF00BF00BF00BF00BF00BF00BF00BFD4
:10082C0000BF00BF00BF00BF00BF00BF00BF00BFC4
:10083C0000BF00BF00BF00BF00BF00BF00BF00BFB4
:10084C0000BF00BF00BF00BF00BF00BF00BF00BFA4
:10085C0000BF00BF00BF00BF00BF00BF00BF00BF94
:10086C0000BF00BF00BF00BF00BF00BFE37910682E
:10087C00C3EBC30300EB8307BF8850F823305F83BF
:10088C00004600BF00BF00BF00BF00BF00BF00BFDD
:10089C0000BF00BF00BF00BF00BF00BF00BF00BF54
:1008AC0000BF00BF00BF00BF00BF00BF00BF00BF44
:1008BC0000BF00BF00BF00BF00BF00BF00BF00BF34
:1008CC0000BF00BF00BF00BF00BF00BF00BF00BF24
:1008DC0000BF00BF00BF00BF00BF00BF00BF00BF14
:1008EC0000BF00BF00BF00BF00BF00BF00BF00BF04
:1008FC0000BF00BF00BF00BF00BF00BF00BF00BFF4
:10090C0000BF00BF00BF00BF00BF00BF00BF00BFE3
:10091C0000BF00BF00BF00BF00BF00BF00BF00BFD3
:10092C0000BF00BF00BF00BF00BF00BF00BF00BFC3
:10093C0000BF00BF00BF00BF00BF00BF00BF00BFB3
:10094C0000BF00BF00BF00BF00BF00BF00BF00BFA3
:10095C0000BF00BF00BF00BF00BF00BF00BF00BF93
:10096C0000BF00BF00BF00BF00BF00BF00BF00BF83
:10097C0000BF00BF00BF00BF00BF049B5B08049317
:10098C009DF805300133DBB2172B8DF8053000F2E2
:10099C00DB82E3791068C3EBC30300EB8307BF88EA
:1009AC0050F823301F830398049B18427FF4DAAE6F
:1009BC00004600BF00BF00BF00BF00BF00BF00BFAC
:1009CC0000BF00BF00BF00BF00BF00BF00BF00BF23
:1009DC0000BF00BF00BF00BF00BF00BF00BF00BF13
:1009EC0000BF00BF00BF00BF00BF00BF00BF00BF03
:1009FC0000BF00BF00BF00BF00BF00BF00BF00BFF3
:100A0C0000BFE3791068C3EBC30300EB8307BF8817
:100A1C0050F823305F83004600BF00BF00BF00BF0B
:100A2C0000BF00BF00BF00BF00BF00BF00BF00BFC2
:100A3C0000BF00BF00BF00BF00BF00BF00BF00BFB2
:100A4C0000BF00BF00BF00BF00BF00BF00BF00BFA2
:100A5C0000BF00BF00BF00BF00BF00BF00BF00BF92
:100A6C0000BF00BF00BF00BF00BF00BF00BF00BF82
:100A7C0000BF00BF00BF00BF00BF00BF00BF00BF72
:100A8C0000BF00BF00BF00BF00BF00BF00BF00BF62
:100A9C0000BF00BF00BF00BF00BF00BF00BF00BF52
:100AAC0000BF00BF00BF00BF00BF00BF00BF00BF42
:100ABC0000BF00BF00BF00BF00BF00BF00BF00BF32
:100ACC0000BF00BF00BF00BF00BF00BF00BF00BF22
:100ADC0000BF00BF00BF00BF00BF00BF00BF00BF12
:100AEC0000BF00BF00BF00BF00BF00BF00BF00BF02
:100AFC0000BF00BF00BF00BF00BF00BF00BF00BFF2
:100B0C0000BF00BF00BF00BF00BF00BF00BF00BFE1
:100B1C0000BF00BF00BF00BF00BF00BF00BF00BFD1
:100B2C0000BF00BF00BF00BF00BF00BF00BF00BFC1
:100B3C0000BF00BF00BF00BF00BF00BF00BF00BFB1
:100B4C0000BF00BF00BF00BF00BF00BF00BF00BFA1
:100B5C0000BF00BF00BF00BF00BF00BF00BF00BF91
:100B6C0000BF00BF00BF00BF00BF00BF00BF00BF81
:100B7C0000BF00BF00BF00BF00BF00BF00BF00BF71
:100B8C0000BF00BF00BF00BF00BF00BF00BF00BF61
:100B9C0000BF00BF00BF00BF00BF00BF00BF00BF51
:100BAC0000BF00BF00BF00BF00BF00BF00BF00BF41
:100BBC0000BF00BF00BF00BF00BF00BF00BF00BF31
:100BCC00DBE6BDF80A30174A9BB24FF4000500264D
:100BDC00002B00F031810495BDF80A300EF10301B1
:100BEC00033B9BB2ADF80A309EF80030DBB28DF8B7
:100BFC0006309EF80130DBB28DF807309EF80230DB
:100C0C00DBB28DF808309DF806309DF807009DF892
:100C1C000870000240EA03433B4303938DF80560E0
:100C2C0080E000BFF0000020004600BF00BF00BF06
:100C3C0000BF00BF00BF00BF00BF00BF00BF00BFB0
:100C4C0000BF00BF00BF00BF00BF00BF00BF00BFA0
:100C5C0000BF00BF00BF00BF00BF00BF00BF00BF90
:100C6C0000BF00BF00BF00BF00BF00BF00BF00BF80
:100C7C0000BF00BF00BF00BF00BF00BF00BF00BF70
:100C8C0000BF00BF00BF00BF00BF00BF00BF00BF60
:100C9C0000BF00BF00BF00BF00BF00BF00BF00BF50
:100CAC0000BF00BF00BF00BF00BF00BF00BF00BF40
:100CBC0000BF00BF00BF00BF00BF00BF00BF00BF30
:100CCC0000BFE3791068C3EBC30300EB8307BF8855
:100CDC0050F823305F83004600BF00BF00BF00BF49
:100CEC0000BF00BF00BF00BF00BF00BF00BF00BF00
:100CFC0000BF00BF00BF00BF00BF00BF00BF00BFF0
:100D0C0000BF00BF00BF00BF00BF00BF049B5B085B
:100D1C0004939DF805300133DBB2172B8DF80530A9
:100D2C0000F28380E3791068C3EBC30300EB830705
:100D3C00BF8850F823301F830398049B18427FF41C
:100D4C0073AF004600BF00BF00BF00BF00BF00BFB5
:100D5C0000BF00BF00BF00BF00BF00BF00BF00BF8F
:100D6C0000BF00BF00BF00BF00BFE3791068C3EB3A
:100D7C00C30300EB8307BF8850F823305F83004622
:100D8C0000BF00BF00BF00BF00BF00BF00BF00BF5F
:100D9C0000BF00BF00BF00BF00BF00BF00BF00BF4F
:100DAC0000BF00BF00BF00BF00BF00BF00BF00BF3F
:100DBC0000BF00BF00BF00BF00BF00BF00BF00BF2F
:100DCC0000BF00BF00BF00BF00BF00BF00BF00BF1F
:100DDC0000BF00BF00BF00BF00BF00BF00BF00BF0F
:100DEC0000BF00BF00BF00BF00BF00BF00BF00BFFF
:100DFC0000BF00BF00BF00BF00BF00BF00BF00BFEF
:100E0C0000BF00BF00BF00BF00BF00BF00BF00BFDE
:100E1C0000BF00BF00BF00BF00BF00BF00BF00BFCE
:100E2C0000BF00BF00BF00BF70E7BDF80A308E46A0
:100E3C009BB2002B7FF4CFAE62B6FFF7CDFB2061E7
:100E4C0006B0BDE8F0815E4B5E4A184611684FF45F
:100E5C0000080027BDF80A2092B2002AECD0CDF889
:100E6C001080BDF80A200EF10305033A92B2ADF8DA
:100E7C000A209EF80020D2B28DF806209EF80120A0
:100E8C00D2B28DF807209EF80220D2B28DF808203D
:100E9C009DF806209DF807E09DF808C04FEA0E2E3D
:100EAC004EEA024242EA0C0203928DF80570E27996
:100EBC005E68C2EBC20201EB820EBEF804E051F890
:100ECC0022200596A2F818E0039E049A164223D01D
:100EDC005A68059E921B4F2AFAD9E279C2EBC202DC
:100EEC0001EB820EBEF804E051F82220A2F81AE0C1
:100EFC00426805925A68059E921B072AFAD9049AF1
:100F0C00520804929DF805200132D2B2172A8DF8AE
:100F1C000520CCD9AE469DE75A68059E921B182A2F
:100F2C00FAD9E279C2EBC20201EB820EBEF804E000
:100F3C0051F82220A2F81AE0426805925A68059EE0
:100F4C00921B452AFAD9DAE7AE46FFF7DABB1D4AFF
:100F5C004FF000450026BDF80A309BB2002B3FF441
:100F6C006BAF0495BDF80A300EF10401043B9BB243
:100F7C00ADF80A309EF80030DBB28DF807309EF8E1
:100F8C000130DBB28DF806309EF80230DBB28DF802
:100F9C0008309EF80330DBB28DF809309DF807302D
:100FAC009DF806709DF808E03F049DF8090047EA9B
:100FBC000363034343EA0E2303938DF805607EE03D
:100FCC00001000E0F0000020004600BF00BF00BF92
:100FDC0000BF00BF00BF00BF00BF00BF00BF00BF0D
:100FEC0000BF00BF00BF00BF00BF00BF00BF00BFFD
:100FFC0000BF00BF00BF00BF00BF00BF00BF00BFED
:10100C0000BF00BF00BF00BF00BF00BF00BF00BFDC
:10101C0000BF00BF00BF00BF00BF00BF00BF00BFCC
:10102C0000BF00BF00BF00BF00BF00BF00BF00BFBC
:10103C0000BF00BF00BFE3791068C3EBC30300EB34
:10104C008307BF8850F823305F83004600BF00BF82
:10105C0000BF00BF00BF00BF00BF00BF00BF00BF8C
:10106C0000BF00BF00BF00BF00BF00BF00BF00BF7C
:10107C0000BF00BF00BF00BF00BF00BF00BF00BF6C
:10108C0000BF00BF00BF00BF00BF00BF00BF00BF5C
:10109C0000BF00BF00BF00BF00BF00BF00BF00BF4C
:1010AC0000BF00BF00BF00BF049B5B0804939DF80A
:1010BC0005300133DBB21F2B8DF805307ED8E37978
:1010CC001068C3EBC30300EB8307BF8850F82330D1
:1010DC001F830398049B18427FF476AF004600BF31
:1010EC0000BF00BF00BF00BF00BF00BF00BF00BFFC
:1010FC0000BF00BF00BF00BF00BF00BF00BF00BFEC
:10110C0000BF00BFE3791068C3EBC30300EB830798
:10111C00BF8850F823305F83004600BF00BF00BF7C
:10112C0000BF00BF00BF00BF00BF00BF00BF00BFBB
:10113C0000BF00BF00BF00BF00BF00BF00BF00BFAB
:10114C0000BF00BF00BF00BF00BF00BF00BF00BF9B
:10115C0000BF00BF00BF00BF00BF00BF00BF00BF8B
:10116C0000BF00BF00BF00BF00BF00BF00BF00BF7B
:10117C0000BF00BF00BF00BF00BF00BF00BF00BF6B
:10118C0000BF00BF00BF00BF00BF00BF00BF00BF5B
:10119C0000BF00BF00BF00BF00BF00BF00BF00BF4B
:1011AC0000BF00BF00BF00BF00BF00BF00BF00BF3B
:1011BC0000BF00BF00BF00BF00BF75E78E46CAE688
:1011CC007047032900F02E811E4A4FF400050026BB
:1011DC00BDF80A309BB2002B3FF42EAE0495BDF83F
:1011EC000A30E079033B9BB2ADF80A309EF8003030
:1011FC000EF10301DBB28DF807309EF80130C0EB25
:10120C00C000DBB28DF808309EF80230D2F800E056
:10121C00DBB28DF806309DF807709DF808300EEBA8
:10122C00800C1B0243EA07439DF80670BCF804C00F
:10123C005EF820003B4303938DF80560A0F81AC0BC
:10124C007DE000BFF0000020049B5B080493004687
:10125C0000BF00BF00BF00BF00BF00BF00BF00BF8A
:10126C0000BF00BF00BF00BF00BF00BF00BF00BF7A
:10127C0000BF00BF00BF00BF00BF00BF00BF00BF6A
:10128C0000BF00BF00BF00BF00BF00BF00BF00BF5A
:10129C0000BF00BF00BF00BF00BF00BF00BF00BF4A
:1012AC0000BF00BF00BF00BF00BF00BF00BF00BF3A
:1012BC0000BF00BF00BF00BF00BF00BF00BF00BF2A
:1012CC0000BF00BF00BF00BF00BF00BF00BF00BF1A
:1012DC0000BF00BFE07917689DF80530C0EBC00077
:1012EC0007EB800EBEF804E057F820000133DBB2A8
:1012FC008DF80530A0F818E0004600BF00BF00BF15
:10130C0000BF00BF00BF00BF00BF00BF00BF00BFD9
:10131C0000BF00BF00BF00BF00BF00BF00BF00BFC9
:10132C0000BF9DF80530182B7AD0E3791068C3EB19
:10133C00C30300EB8307BF8850F823305F83039807
:10134C00049B184280D1004600BF00BF00BF00BF05
:10135C0000BF00BF00BF00BF00BF00BF00BF00BF89
:10136C0000BF00BF00BF00BFE3791068C3EBC3032D
:10137C0000EB8307BF8850F823301F839DF805309E
:10138C000133DBB28DF80530049B5B0804930046F7
:10139C0000BF00BF00BF00BF00BF00BF00BF00BF49
:1013AC0000BF00BF00BF00BF00BF00BF00BF00BF39
:1013BC0000BF00BF00BF00BF00BF00BF00BF00BF29
:1013CC0000BF00BF00BF00BF00BF00BF00BF00BF19
:1013DC0000BF00BF00BF00BF00BF00BF00BF00BF09
:1013EC0000BF00BF00BF00BF00BF00BF00BF00BFF9
:1013FC0000BF00BF00BF00BF00BF00BF00BF00BFE9
:10140C0000BF00BF00BF00BF00BF00BF00BF00BFD8
:10141C0000BF00BF00BF00BF9DF80530182B84D162
:10142C008E46D5E6174A4FF400050026BDF80A3063
:10143C009BB2002B3FF400AD0495BDF80A300EF1C1
:10144C000301033B9BB2ADF80A309EF80030DBB2CF
:10145C008DF807309EF80130DBB28DF806309EF81F
:10146C000230DBB28DF808309DF807709DF806301D
:10147C009DF808001B0243EA0743034303938DF8CE
:10148C000560E0E0F0000020004600BF00BF00BF98
:10149C0000BF00BF00BF00BF00BF00BF00BF00BF48
:1014AC0000BF00BF00BF00BF00BF00BF00BF00BF38
:1014BC0000BF00BF00BF00BF00BF00BF00BF00BF28
:1014CC0000BF00BF00BF00BF00BF00BF00BF00BF18
:1014DC0000BF00BF00BF00BF00BF00BF00BF00BF08
:1014EC0000BF00BF00BF00BF00BF00BF00BF00BFF8
:1014FC0000BF00BF00BF00BF00BF00BF00BF00BFE8
:10150C0000BF00BF00BF00BF00BF00BF00BF00BFD7
:10151C0000BF00BF00BF00BF00BF00BF00BF00BFC7
:10152C0000BF00BF00BF00BF00BF00BF00BF00BFB7
:10153C0000BF00BF00BF00BF00BF00BF00BF00BFA7
:10154C0000BF00BF00BF00BF00BF00BF00BF00BF97
:10155C0000BF00BF00BF00BF00BF00BF00BF00BF87
:10156C0000BF00BF00BF00BF00BF00BF00BF00BF77
:10157C0000BF00BF00BF00BF00BF00BF00BF00BF67
:10158C0000BF00BF00BF00BF00BF00BF00BF00BF57
:10159C0000BF00BF00BF00BF00BF00BF00BF00BF47
:1015AC0000BF00BF00BF00BF00BFE3791068C3EBF2
:1015BC00C30300EB8307BF8850F823305F830046DA
:1015CC0000BF00BF00BF00BF00BF00BF00BF00BF17
:1015DC0000BF00BF00BF00BF00BF00BF00BF00BF07
:1015EC0000BF00BF00BF00BF00BF00BF00BF00BFF7
:1015FC0000BF00BF00BF00BF00BF00BF00BF00BFE7
:10160C0000BF00BF00BF00BF00BF00BF00BF00BFD6
:10161C0000BF00BF00BF00BF00BF00BF00BF00BFC6
:10162C0000BF00BF00BF00BF00BF00BF00BF049BD6
:10163C005B0804939DF805300133DBB2172B8DF852
:10164C00053000F2E380E3791068C3EBC30300EBD1
:10165C008307BF8850F823301F830398049B1842DC
:10166C007FF412AF004600BF00BF00BF00BF00BF39
:10167C0000BF00BF00BF00BF00BF00BF00BF00BF66
:10168C0000BF00BF00BF00BF00BF00BF00BF00BF56
:10169C0000BF00BF00BF00BF00BF00BF00BF00BF46
:1016AC0000BF00BF00BF00BF00BF00BF00BF00BF36
:1016BC0000BF00BF00BF00BF00BF00BF00BF00BF26
:1016CC0000BF00BF00BF00BF00BF00BF00BF00BF16
:1016DC0000BF00BF00BF00BF00BF00BF00BF00BF06
:1016EC0000BF00BF00BFE3791068C3EBC30300EB7E
:1016FC008307BF8850F823305F83004600BF00BFCC
:10170C0000BF00BF00BF00BF00BF00BF00BF00BFD5
:10171C0000BF00BF00BF00BF00BF00BF00BF00BFC5
:10172C0000BF00BF00BF00BF00BF00BF00BF00BFB5
:10173C0000BF00BF00BF00BF00BF00BF00BF00BFA5
:10174C0000BF00BF00BF00BF00BF00BF00BF00BF95
:10175C0000BF00BF00BF00BF00BF00BF00BF00BF85
:10176C0000BF00BF00BF00BF00BF00BF00BF00BF75
:10177C0000BF00BF00BF00BF00BF00BF00BF00BF65
:10178C0000BF00BF00BF00BF00BF00BF00BF00BF55
:10179C0000BF00BF00BF00BF00BF00BF00BF00BF45
:1017AC0000BF00BF00BF00BF00BF00BF00BF00BF35
:1017BC0000BF00BF00BF00BF00BF00BF00BF00BF25
:1017CC0000BF00BF00BF00BF00BF00BF00BF00BF15
:1017DC0000BF00BF00BF00BF00BF00BF00BF00BF05
:1017EC0000BF00BF00BF00BF00BF00BF00BF00BFF5
:1017FC0000BF00BF00BF00BF00BF00BF00BF00BFE5
:10180C0000BF00BF00BF00BF00BF10E78E460DE653
:10181C004388F0B58B4245D9057AC2F30743C2F32E
:10182C000724D6B245B16B436C436E43C3F3072315
:10183C00C4F30724C6F3072690F806C0C768BCF1AA
:10184C00060F0CBF042503256943BCF1080F07EBF9
:10185C00010524D84FF0010E0EFA0CFE1EF4D27FB7
:10186C000CD11EF0400F0DD11EF0100F17D0FF2B16
:10187C0008BFFE237B546E70AC70F0BD7C546B7053
:10188C00AE70F0BD7B546C70AE70037A120E0BB957
:10189C00D2B202E05A43C2F30722EA70F0BD7B5485
:1018AC006C70AE70F0BD42EA012242EA0040704713
:1018BC0042EA012242EA004040EA03607047408855
:1018CC0070474A1C037AD2B29A4270B51ED0013BC3
:1018DC0013F0FF03C4680CD0FF290FBF4FF6FF7144
:1018EC00110201F1FF3191FBF3F30CBF91FBF3F308
:1018FC009BB22546291B868889B28E4205D9297848
:10190C005943091205F8011BF4E7027270BD00007F
:10191C0008B500F027F800F025F8014B186008BD59
:10192C00F000002008B5024B1B681B6B019308BD2F
:10193C00D001060808B5024B1B685B68019308BD13
:10194C009C01060808B5024B1B681B69019308BD76
:10195C009C01060808B5024B1B685B69019308BD26
:10196C009C01060808B5024B1B681B68019308BD57
:10197C00B001060808B5024B1B689B68019308BDB3
:10198C00B001060808B5024B1B68DB68019308BD63
:10199C00B001060808B5024B1B681B69019308BD12
:1019AC00B001060808B5024B1B681B6E019308BDFD
:1019BC00AC01060808B5024B1B685B6E019308BDB1
:1019CC00AC01060808B5024B1B689B6E019308BD61
:1019DC00AC01060808B5024B1B68DB6E019308BD11
:1019EC00AC01060808B5024B1B681B6F019308BDC0
:1019FC00AC01060808B5024B1B685B6F019308BD70
:101A0C00AC01060808B5034B1B68D3F88030019372
:101A1C0008BD0000AC01060808B5024B1B685B68EA
:101A2C00019308BDBC01060808B5024B1B689B68F6
:101A3C00019308BDBC01060808B5024B1B685B6925
:101A4C00019308BDBC01060808B5024B1B68DB6995
:101A5C00019308BDBC01060808B5024B1B681B6A44
:101A6C00019308BDBC01060808B5024B1B681B6B33
:101A7C00019308BDBC01060808B5024B1B68DB6965
:101A8C00019308BDB401060808B5024B1B681B6A1C
:101A9C00019308BDB401060808B5024B1B689B698D
:101AAC00019308BDC401060808B5024B1B685B6AAC
:101ABC00019308BDC401060808B5024B1B689B6A5C
:101ACC00019308BDC401060808B5024B1B68DB6A0C
:101ADC00019308BDC401060808B5024B1B681B6BBB
:101AEC00019308BDC401060808B5024B1B685B6B6B
:101AFC00019308BDC401060808B5024B1B689B6B1B
:101B0C00019308BDC401060808B5024B1B681B6C89
:101B1C00019308BDC401060808B5024B1B681B687D
:101B2C00019308BDD801060808B5024B1B681B6958
:101B3C00019308BDD801060808B5024B1B685B6908
:101B4C00019308BDD801060808B5024B1B689B69B8
:101B5C00019308BDD801060808B5024B1B68DB6968
:101B6C00019308BDD801060808B5024B1B681B6A17
:101B7C00019308BDD801060808B5024B1B685B6AC7
:101B8C00019308BDD801060808B5024B1B689B6C75
:101B9C00019308BDC001060808B5024B1B685B68C1
:101BAC00019308BDA401060808B5024B1B685B69CC
:101BBC00019308BDA401060808B5024B1B68DB6A3B
:101BCC00019308BDA401060808B5034B1B68D3F8A4
:101BDC009030019308BD0000A401060808B5034B22
:101BEC001B68D3F89C30019308BD0000A4010608C3
:101BFC0008B5024B1B68DB6B019308BDCC010608D2
:101C0C0008B5024B1B681B68019308BDC801060888
:101C1C0008B5024B1B685B68019308BDC801060838
:101C2C0008B5024B1B689B68019308BDC8010608E8
:101C3C0008B5024B1B68DB68019308BDC801060898
:101C4C0008B5024B1B681B69019308BDC801060847
:101C5C0008B5024B1B685B69019308BDC8010608F7
:101C6C0008B5024B1B689B69019308BDC8010608A7
:101C7C0008B5024B1B68DB69019308BDC801060857
:101C8C0008B5024B1B681B6A019308BDC801060806
:101C9C0008B5024B1B681B6B019308BDC8010608F5
:101CAC0008B5024B1B685B6B019308BDC8010608A5
:101CBC0008B5024B1B689B6B019308BDC801060855
:101CCC0008B5024B1B68DB6B019308BDC801060805
:101CDC0008B5024B1B681B68019308BDA0010608E0
:101CEC0008B5024B1B685B68019308BDA001060890
:101CFC0008B5024B1B689B68019308BDA001060840
:101D0C000021FFF751BF10B58368044613B10322BD
:101D1C0001469847204610BD7047F8B50646154653
:101D2C000C468F18BC4206D0336814F8011B9B6814
:101D3C0030469847F6E72846F8BD0022007CFFF7AE
:101D4C0031BE0021007CFFF735BE0021007CFFF77F
:101D5C0039BE0021007CFFF73DBE0021007CFFF75F
:101D6C0041BE10B50446142100F04DFF204610BDB5
:101D7C0010B5044608464FF47A73A360044B002157
:101D8C00207461602360FFF73DFE204610BD00BF4C
:101D9C0088360A080021007CFFF72CBEF8B50F46E8
:101DAC0000F10806051D002416F8011D0A2238460C
:101DBC0000F053F9AE42044407D0002CF4D02E218D
:101DCC00384600F0F7F80444EEE72046F8BD000072
:101DDC0010B50446044B112240F8043B002101F0DD
:101DEC0070FB204610BD00BFB0360A080346074AF8
:101DFC0010B543F8042B01F1100251F8044B914239
:101E0C0043F8044BF9D10A781A7010BDB0360A08A1
:101E1C00024A41600260042202757047B0360A081B
:101E2C0010B59DF8084044EA032343EA024242EA13
:101E3C00016104234160037510BD000037B5044DEA
:101E4C0005609DF818500095FFF7EAFF03B030BD10
:101E5C00B0360A0837B50D788B784A78C978009176
:101E6C002946FFF7DDFF03B030BD0000014A024BED
:101E7C001A60704732370A08F400002000231A4613
:101E8C004068FFF7C5BE002202214068FFF7D0BEB4
:101E9C00002211464068FFF7C3BE0022114640687D
:101EAC00FFF7CEBE00231A4619464068FFF7D0BE96
:101EBC0000231A4619464068FFF7D2BE002281F073
:101ECC0001014068FFF7D4BE00224068FFF7E0BE76
:101EDC00002211464068FFF7E3BE0022114640681D
:101EEC00FFF7CEBE70B516468EB0044608A8FFF7B5
:101EFC006FFF1122002103A801F0E3FA304601F034
:101F0C004BFB00250A4B009581B25B6803AA304657
:101F1C00FFF73AFE20B129462046FFF779FF03E090
:101F2C0003A92046FFF762FF20460EB070BD00BF2C
:101F3C0078050020034B044A04280CBF10461846B1
:101F4C00704700BFF800002078050020024B034AC0
:101F5C001A6000225A607047F8000020A8370A085F
:101F6C00F8B506460D468F180024BD420CD03368D8
:101F7C0015F8011B9B6830469847002801DB044488
:101F8C00F3E7002C08BF04462046F8BD70B50546A3
:101F9C000C46084649B101F0FFFA2B68024621466F
:101FAC002846BDE87040DB68184770BD08B5FFF7E0
:101FBC00EDFF08BD03689B6818470B460A6801468D
:101FCC0012681846104738B50D210546FFF7F2FF89
:101FDC000A2104462846FFF7EDFF204438BD38B5EA
:101FEC000546FFF7D3FF04462846FFF7ECFF2044D5
:101FFC0038BD38B50546FFF7E0FF04462846FFF725
:10200C00E2FF204438BD012A98BF0A2230B50B46A6
:10201C008BB000218DF824100DF12304B3FBF2F5E5
:10202C0005FB1233DBB2092B94BF30333733DBB2F1
:10203C00214604F801392B46002DEFD1FFF7A6FFFE
:10204C000BB030BD10B422B90368C9B29B6810BC88
:10205C001847D2B210BCFFF7D6BFFFF7F3BF2DE97C
:10206C00F04107460E4615462AB9BDE8F041036813
:10207C00C9B29B6818470A2A02D1002901DA04E088
:10208C00D2B2BDE8F041FFF7BEBF2D21FFF792FFA2
:10209C002A46044671423846FFF7B5FF2044BDE896
:1020AC00F081FFF7DCBF38B50546FFF7D8FF0446D3
:1020BC002846FFF788FF204438BD10B50446FFF7CB
:1020CC0022FE204610BD0000034800238360034A13
:1020DC00034900F093BD00BF000100206C000020FC
:1020EC00C7200A08704710B50446102100F08BFD7C
:1020FC00204610BD70B504460E46074B0025036004
:10210C0040F80C5FFFF70EFC30462671FFF7B4FC6D
:10211C00A560204670BD00BFDC370A080079FFF7C8
:10212C00B3BC10B504460068FFF7DAFD204610BDBD
:10213C0010B50446006808B1FFF7D2FD00232360F8
:10214C00A360636010BD38B504460D4600680131CC
:10215C00FFF7CEFD10B184E82100012038BD10B589
:10216C000368044613B143688B4207D22046FFF73D
:10217C00EAFF20B1A3680BB922681370012010BDCF
:10218C0070B50E46114604461546FFF7E8FF18B920
:10219C002046FFF7CDFF09E02A463146A5602068AE
:1021AC0001F084F92268A3680021D154204670BD47
:1021BC0038B50023044603604360836003730D4607
:1021CC0039B1084601F0E8F9294602462046FFF7E6
:1021DC00D7FF204638BD00004FF6FF72034B00209E
:1021EC00187058809A80FFF7D7BC00BF10010020F0
:1021FC00024B1A68024B1A60704700BF04000020A3
:10220C001801002010B40468246BA44610BC60476D
:10221C0003689B6C1847808E7047028FC08E101A13
:10222C00704713B502AB026803F8011DD468194658
:10223C000122A04702B010BD10B5036804461B690B
:10224C00984728B1E38EE26B591CE186D05C10BD37
:10225C004FF0FF3010BD10B5036804461B6998475A
:10226C0018B1E38EE26BD05C10BD4FF0FF3010BDA7
:10227C0070470346084610B4D98EDC6B1A8F03687E
:10228C00521ADB68214410BC1847A0F11000FFF76C
:10229C00F0BFF7B5054610460F461646FFF74AFE47
:1022AC000368DB689847B8B102213B461122084607
:1022BC000096FFF7B9FB6861FFF7AEFB044630B13F
:1022CC000023EB862B872F836E64012004E02B68A0
:1022DC0028465B6A9847204603B0F0BD38B50446E3
:1022EC004569FFF7C1FB854202D06069FFF7B4FB7B
:1022FC00FFF7BAFB00236061E386238738BD30B556
:10230C0087B0BDF828400225ADF808508DF80B4079
:10231C00250ADC798DF80A508DF80C409C798DF8E3
:10232C000D405C791B798DF80E408DF80F30102321
:10233C00019302AB009340690023FFF785FB07B0C4
:10234C0030BD38B5C36B0546C08E13B12C6C241A46
:10235C0000E01C46944228BF14461844224601F063
:10236C00A5F8EB8E20462344EB8638BD70B5036888
:10237C0004461B690E461546984788B123682046CB
:10238C001B6998478542A8BF0546E38EE16B2A4638
:10239C001944304601F08AF8E38E2B44E38601E0C1
:1023AC004FF0FF35284670BDF0B5044689B0406C3F
:1023BC000D461646FFF7BEFD0368DB68984710B361
:1023CC006769FFF751FB87421DD0E5B108AB1022BE
:1023DC0043F8142D01930DEB0203009329460023BF
:1023EC0032466069FFF728FB051E0EDB9DF81220B4
:1023FC009DF8133005A943EA0223A38604F11C00BF
:10240C00FFF728FD01E04FF0FF35284609B0F0BD7D
:10241C002DE9F041064694B0406C0D469046FFF70E
:10242C0089FD0368DB689847F8B1284601F0B4F8D9
:10243C00002481B20094736C03AA2846FFF7A4FB16
:10244C0090B903A908A8FFF7D1FC33680FAC9F6BB8
:10245C00074B09AD0E930FCD0FC42B68424623706A
:10246C000EA93046B84700E0204614B0BDE8F08114
:10247C00B0360A0870B504460646054B01F1200536
:10248C0044F8043B0FCD0FC42B683046237070BD4D
:10249C00B0360A08F0B594468E460646026889B0F6
:1024AC00976A094A03AC1D1D02920FCD0FC42B680D
:1024BC0062462370BDF8383071460093304602AB4B
:1024CC00B84709B0F0BD00BFB0360A08F0B50446F5
:1024DC00036889B09F6A0D4B03AD00F12006B0F87C
:1024EC0036E002930FCE0FC5336872462B70A38E65
:1024FC00E16B0093204602ABB847054623682046A3
:10250C00DB699847284609B0F0BD00BFB0360A0811
:10251C0038B54FF47A7383600B4B002503F1080236
:10252C006C330260036145600446FFF79DFA6061FD
:10253C0004F11C00FFF74CFC4FF40073E586258773
:10254C00E5632364204638BD10380A0810B590F8AE
:10255C004830044623B1C06B10B1012100F053FB8D
:10256C000023E36384F848302364E386238710BD9B
:10257C0070B5044616460D46FFF7E8FF0023E663E8
:10258C0023643EB935B12846FDF781FD0123E06394
:10259C0084F84830E36B03B12564206C003018BF1D
:1025AC00012070BDF8B51746C26B05460C461AB92A
:1025BC00016C09B1FFF7DCFF05F1200604340FCCE8
:1025CC000FC6236833700023AF86EB862B87286CED
:1025DC00F8BD70B5C26B04461AB9016C09B1FFF7AE
:1025EC00C7FFE16B0023E386238741B1226C32B134
:1025FC002068056B2046A8470028C8BF20872368A1
:10260C002046BDE870401B691847704741747047FD
:10261C0008B5007CFFF778FA20EAE07008BD08B531
:10262C00007CFFF749FA20EAE07008BD08B5007C91
:10263C00FFF752FA30EA200028BF4FF0FF3008BDF8
:10264C0008B5007CFFF740FA30EA200028BF4FF0B5
:10265C00FF3008BD007CFFF747BA10B504461421C3
:10266C0000F0D1FA204610BD70B5457C04460E46EC
:10267C0025B9007CFFF748FA002805DD3146207C9F
:10268C00BDE87040FFF710BA284670BD10B504467F
:10269C0008461146002262604FF47A72A260054A25
:1026AC0020742260012262741A46FFF7F5F9204665
:1026BC0010BD00BF88380A08007CFFF71DBA000067
:1026CC0038B50C4D296811F0010411D12846FDF7DD
:1026DC00E2FC68B1084A2146084B0948FFF7D6FFCF
:1026EC002846FDF7DDFC074A0749054800F086FA45
:1026FC00034838BDB4010020B8010020300100208F
:10270C001C0100206C00002017260A084174704739
:10271C00704708B50021007CFFF716FA30EA20005C
:10272C0028BF4FF0FF3008BD08B50121007CFFF732
:10273C000BFA30EA200028BF4FF0FF3008BD08B577
:10274C00007CFFF7F9F920EAE07008BD08B5007CC1
:10275C00FFF7EAF920EAE07008BD007CFFF704BA45
:10276C0010B50446142100F04EFA204610BD38B5C1
:10277C000446007C0D46FFF7DFF9002801DC607C85
:10278C0028B12946207CFFF7E7F920EAE07038BD34
:10279C0010B50446002363604FF47A73A360054BB5
:1027AC00084623600123217463741146FFF7B4F9C2
:1027BC00204610BDB8380A08007CFFF7DDB9FFF7DA
:1027CC00FBBF000010B504461422002100F079FE76
:1027DC00054B20466360054BE36040F201132381F7
:1027EC008123238210BD00BFC102002040020020C3
:1027FC0030B50E4D87B001A8FFF7E4FF296811F042
:10280C00010410D12846FDF746FC60B101AA21460F
:10281C000748FFF7BDFF2846FDF742FC054A06496D
:10282C00034800F0EBF9024807B030BD3C02002031
:10283C00C40300206C0000201D270A0810B50446B4
:10284C001422002100F03DFE054B20466360054B31
:10285C00E36040F2011323818123238210BD00BF6A
:10286C0074040020DC03002010B50E4C86B001A8C7
:10287C00FFF7E4FF2368DB0710D42046FDF70BFCC1
:10288C0060B101AA01210848FFF782FF2046FDF73D
:10289C0007FC064A0649044800F0B0F9024806B0A5
:1028AC0010BD00BFD8030020600400206C00002085
:1028BC001D270A08002211464068FFF7C1B9F0B580
:1028CC00164689B011220F460446002103A800F0D9
:1028DC00F8FD304600F060FE0025009581B27B6863
:1028EC0003AA3046FFF750F920B129462046FFF7DE
:1028FC008FFA03E003A92046FFF778FA204609B0C7
:10290C00F0BD002211464068FFF7BAB9002211460B
:10291C004068FFF7C5B900224068FFF7B9B900223B
:10292C0081F001014068FFF7A3B900231A4619464C
:10293C004068FFF795B900231A4619464068FFF71F
:10294C0087B9002211464068FFF76AB900220221BC
:10295C004068FFF76DB900231A464068FFF758B975
:10296C00024B04225A60024A1A6070477805002014
:10297C00E8380A0808B5144B33B1FFF739FF036880
:10298C001B699847002816DC104B33B1FFF798FEF3
:10299C0003681B699847002810DC0D4B0BB1AFF393
:1029AC0000800C4B7BB1FFF75FFF03681B699847F6
:1029BC00002806DC08BDAFF30080E5E7AFF300802C
:1029CC00EBE7AFF3008008BD000000000000000042
:1029DC00000000000000000008B5FFF7CBFFFEF779
:1029EC00B9FF014B186008BD880500200248034A56
:1029FC000349121A00F05ABD004002400440024044
:102A0C00B0390A0807B5002300931A466FF0770116
:102A1C00FFF7E4F803B05DF804FB000007B543884A
:102A2C000A2B08D0502B09D1094B1B683BB103B0C2
:102A3C005DF804EB1847FFF7E5FF06E00023009371
:102A4C001A466FF07701FFF7C9F803B05DF804FB85
:102A5C008005002038B5104C104D2368AB42104B4C
:102A6C000CBF012200221A7002D0FFF7BFFF2560B5
:102A7C00FEF760FF044600F02DFD0A4B13B1204613
:102A8C00AFF3008000210748FFF7B2F8BDE83840EB
:102A9C0000210548FFF798B8004002401E1C279AF9
:102AAC008405002000000000292A0A0810B50446FD
:102ABC000F48FFF733FB28B1A4F10D03022B01D80B
:102ACC00002010BD00F040F8FFF764F908B1012CAC
:102ADC00F6D9FFF7F5FDFFF7EFFD18B1A4F11203DE
:102AEC00012BEDD9172C8CBF0020012010BD00BF8D
:102AFC00BC050020172838B504460D460AD8FF2916
:102B0C0008D0FFF7D3FF28B129462046BDE838404E
:102B1C00FEF730BF38BD38B504460D46FEF732FF20
:102B2C00FF2810D0062804D84D2323FA00F0C30741
:102B3C0009D42046FFF7BAFF28B129462046BDE844
:102B4C003840FEF727BF38BD38B50B4D296811F05A
:102B5C0001040FD12846FDF79EFA58B121460748CB
:102B6C00FFF706F92846FDF79BFA054A0549034885
:102B7C0000F044F8014838BD8C0500209005002079
:102B8C006C000020251D0A0813B5084C00231A46BA
:102B9C00194600932046FFF751F92046044A05498F
:102BAC0002B0BDE8104000F029B800BFA405002019
:102BBC006C000020B3000A0870B50C4C0C4E0D4D87
:102BCC0000212046FFF796FA20460B4C3246294648
:102BDC0000F014F801212046FFF78CFA3246294602
:102BEC002046BDE8704000F009B800BFBC050020CD
:102BFC006C000020F1200A08CC0500200B46014691
:102C0C00184600F045BCFDF744BA0000244B1A6886
:102C1C00D0075CBF01221A60224B1A68D1075CBF37
:102C2C0001221A60204B1A68D2075CBF01221A607D
:102C3C001E4B1A68D0075CBF01221A601C4B1A6825
:102C4C00D1075CBF01221A601A4B1A68D2075CBF0D
:102C5C0001221A60184B1A68D0075CBF01221A6057
:102C6C00164B1A68D1075CBF01221A60144B1A6804
:102C7C00D2075CBF01221A60124B1A68D0075CBFE6
:102C8C0001221A60104B1A68D1075CBF01221A602E
:102C9C000E4B1A68D2075CBF01221A60704700BF46
:102CAC00080600200406002000060020FC05002079
:102CBC00F8050020F4050020F0050020EC050020AC
:102CCC00E8050020E4050020E0050020DC050020DC
:102CDC00184B1A68D1075CBF01221A60164B1A6890
:102CEC00D2075CBF01221A60144B1A68D0075CBF74
:102CFC0001221A60124B1A68D1075CBF01221A60BC
:102D0C00104B1A68D2075CBF01221A600E4B1A686E
:102D1C00D0075CBF01221A600C4B1A68D1075CBF4C
:102D2C0001221A600A4B1A68D2075CBF01221A6092
:102D3C00704700BF28060020240600202006002033
:102D4C001C06002018060020140600201006002087
:102D5C000C060020184B1A68D1075CBF01221A60C0
:102D6C00164B1A68D2075CBF01221A60144B1A6802
:102D7C00D0075CBF01221A60124B1A68D1075CBFE6
:102D8C0001221A60104B1A68D2075CBF01221A602C
:102D9C000E4B1A68D0075CBF01221A600C4B1A68E4
:102DAC00D1075CBF01221A600A4B1A68D2075CBFBC
:102DBC0001221A60704700BF48060020440600201C
:102DCC00400600203C060020380600203406002077
:102DDC00300600202C060020244B1A68D0075CBF5C
:102DEC0001221A60224B1A68D1075CBF01221A60BB
:102DFC00204B1A68D2075CBF01221A601E4B1A685E
:102E0C00D0075CBF01221A601C4B1A68D1075CBF4B
:102E1C0001221A601A4B1A68D2075CBF01221A6091
:102E2C00184B1A68D0075CBF01221A60164B1A683F
:102E3C00D1075CBF01221A60144B1A68D2075CBF21
:102E4C0001221A60124B1A68D0075CBF01221A606B
:102E5C00104B1A68D1075CBF01221A600E4B1A681E
:102E6C00D2075CBF01221A60704700BF78060020B1
:102E7C0074060020700600206C06002068060020F6
:102E8C0064060020600600205C0600205806002026
:102E9C0054060020500600204C06002080F0004014
:102EAC0002E000BF81F0004142001FBF5FEA410316
:102EBC0092EA030F7FEA226C7FEA236C6AD04FEA16
:102ECC001262D2EB1363C1BFD2184140484041405B
:102EDC00B8BF5B42192B88BF704710F0004F40F40D
:102EEC00000020F07F4018BF404211F0004F41F429
:102EFC00000121F07F4118BF494292EA030F3FD0F5
:102F0C00A2F1010241FA03FC10EB0C00C3F1200307
:102F1C0001FA03F100F0004302D5494260EB400096
:102F2C00B0F5000F13D3B0F1807F06D340084FEA01
:102F3C00310102F10102FE2A51D2B1F1004F40EBF6
:102F4C00C25008BF20F0010040EA0300704749005E
:102F5C0040EB000010F4000FA2F10102EDD1B0FA29
:102F6C0080FCACF1080CB2EB0C0200FA0CF0AABF1E
:102F7C0000EBC25052421843BCBFD04018437047BC
:102F8C0092F0000F81F4000106BF80F400000132C2
:102F9C00013BB5E74FEA41037FEA226C18BF7FEA99
:102FAC00236C21D092EA030F04D092F0000F08BFDB
:102FBC000846704790EA010F1CBF0020704712F0C2
:102FCC007F4F04D1400028BF40F00040704712F101
:102FDC0000723CBF00F50000704700F0004343F066
:102FEC00FE4040F4000070477FEA226216BF08469C
:102FFC007FEA23630146420206BF5FEA412390EA5F
:10300C00010F40F4800070474FF0000304E000BF54
:10301C0010F0004348BF40425FEA000C08BF704705
:10302C0043F0964301464FF000001CE050EA0102C9
:10303C0008BF70474FF000030AE000BF50EA0102DE
:10304C0008BF704711F0004302D5404261EB4101CB
:10305C005FEA010C02BF84460146002043F0B643F0
:10306C0008BFA3F18053A3F50003BCFA8CF2083A15
:10307C00A3EBC25310DB01FA02FC634400FA02FC1E
:10308C00C2F12002BCF1004F20FA02F243EB020025
:10309C0008BF20F00100704702F1200201FA02FC87
:1030AC00C2F1200250EA4C0021FA02F243EB02007A
:1030BC0008BF20EADC7070474FF0FF0C1CEAD052BE
:1030CC001EBF1CEAD15392EA0C0F93EA0C0F6FD07F
:1030DC001A4480EA010C400218BF5FEA41211ED05D
:1030EC004FF0006343EA501043EA5111A0FB013149
:1030FC000CF00040B1F5000F3EBF490041EAD3711E
:10310C005B0040EA010062F17F02FD2A1DD8B3F199
:10311C00004F40EBC25008BF20F00100704790F008
:10312C00000F0CF0004C08BF49024CEA502040EA5A
:10313C0051207F3AC2BFD2F1FF0340EAC250704720
:10314C0040F400004FF00003013A5DDC12F1190F5E
:10315C00DCBF00F000407047C2F10002410021FAD0
:10316C0002F1C2F1200200FA02FC5FEA310040F1E8
:10317C00000053EA4C0308BF20EADC70704792F061
:10318C00000F00F0004C02BF400010F4000F013A99
:10319C00F9D040EA0C0093F0000F01F0004C02BF94
:1031AC00490011F4000F013BF9D041EA0C018FE703
:1031BC000CEAD15392EA0C0F18BF93EA0C0F0AD009
:1031CC0030F0004C18BF31F0004CD8D180EA01002F
:1031DC0000F00040704790F0000F17BF90F0004FC8
:1031EC00084691F0000F91F0004F14D092EA0C0FAA
:1031FC0001D142020FD193EA0C0F03D14B0218BF3D
:10320C00084608D180EA010000F0004040F0FE4082
:10321C0040F40000704740F0FE4040F4400070471E
:10322C004FF0FF0C1CEAD0521EBF1CEAD15392EA9D
:10323C000C0F93EA0C0F69D0A2EB030280EA010C8D
:10324C0049024FEA402037D04FF0805343EA111126
:10325C0043EA10130CF000408B4238BF5B0042F184
:10326C007D024FF4000C8B4224BF5B1A40EA0C0029
:10327C00B3EB510F24BFA3EB510340EA5C00B3EB5B
:10328C00910F24BFA3EB910340EA9C00B3EBD10F49
:10329C0024BFA3EBD10340EADC001B0118BF5FEA9B
:1032AC001C1CE0D1FD2A3FF650AF8B4240EBC250C4
:1032BC0008BF20F0010070470CF0004C4CEA502085
:1032CC007F32C2BFD2F1FF0340EAC250704740F4D4
:1032DC0000004FF00003013A37E792F0000F00F0C6
:1032EC00004C02BF400010F4000F013AF9D040EA44
:1032FC000C0093F0000F01F0004C02BF490011F4D8
:10330C00000F013BF9D041EA0C0195E70CEAD153CF
:10331C0092EA0C0F08D142027FF47DAF93EA0C0FB6
:10332C007FF470AF084676E793EA0C0F04D14B029A
:10333C003FF44CAF08466EE730F0004C18BF31F04C
:10334C00004CCAD130F000427FF45CAF31F0004346
:10335C007FF43CAF5FE700BF4FF0FF3C06E000BFDF
:10336C004FF0010C02E000BF4FF0010C4DF804CD02
:10337C004FEA40024FEA41037FEA226C18BF7FEA12
:10338C00236C11D001B052EA530C18BF90EA010F14
:10339C0058BFB2EB030088BFC81738BF6FEAE170A3
:1033AC0018BF40F0010070477FEA226C02D15FEA3F
:1033BC00402C05D17FEA236CE4D15FEA412CE1D0AB
:1033CC005DF8040B704700BF844608466146FFE772
:1033DC000FB5FFF7C9FF002848BF10F1000F0FBD54
:1033EC004DF808EDFFF7F4FF0CBF012000205DF84D
:1033FC0008FB00BF4DF808EDFFF7EAFF34BF0120D2
:10340C0000205DF808FB00BF4DF808EDFFF7E0FF6A
:10341C0094BF012000205DF808FB00BF4DF808EDBB
:10342C00FFF7D2FF94BF012000205DF808FB00BF1E
:10343C004DF808EDFFF7C8FF34BF012000205DF800
:10344C0008FB00BF4FEA4002B2F1FE4F0FD34FF022
:10345C009E03B3EB12620DD94FEA002343F00043F5
:10346C0010F0004F23FA02F018BF404270474FF0A3
:10347C000000704712F1610F01D1420205D110F02A
:10348C00004008BF6FF0004070474FF000007047DD
:10349C0010B5054C13462CB10A4601460220AFF379
:1034AC00008010BD204610BD0000000010B5431E6A
:1034BC000A44914204D011F8014B03F8014FF8E78C
:1034CC0010BD03460244934202D003F8011BFAE7F5
:1034DC007047000038B5124B05461C68A36BD3B976
:1034EC001820FEF7F5FB43F20E33A06303804AF677
:1034FC00CD33438041F2342383804EF26D63C3801D
:10350C004DF6EC630381052343810B238381012258
:10351C000023C0E90423A36B00221D615A6138BD4E
:10352C0068000020194B10B51C68A36BD3B9182088
:10353C00FEF7CEFB43F20E33A06303804AF6CD3385
:10354C00438041F2342383804EF26D63C3804DF689
:10355C00EC630381052343810B2383810122002328
:10356C00C0E90423A16B0A4C0B6948695C43094A06
:10357C0002FB0040A3FB02230132034443F100038E
:10358C00C1E9042323F0004010BD00BF68000020F7
:10359C002DF451582D7F954C034613F8012B002A1E
:1035AC00FBD1181A013870471D000A085D000A0883
:1035BC0089000A088D000A08000000005365747524
:1035CC0070004851526F757465725F5055424C498A
:1035DC005348006C69676E7468696E6700203A3AEC
:1035EC002020007475726E696E67206F66660063CA
:1035FC006865636B6E756D00494E2050554C534594
:10360C0020574849544500534C4F57204F52414E78
:10361C004745205741564500494E2052414E444F94
:10362C004D20504958454C5300494E2077686974D9
:10363C0065206F766572207261696E626F770049E2
:10364C004E2066756C6C20776869746500494E2055
:10365C007261696E626F77206379636C650000003C
:10366C002C01000018000000F40100002C010000E7
:10367C00500000000000000000000000251D0A089A
:10368C006F1D0A08471D0A08271D0A084F1D0A0846
:10369C00571D0A085F1D0A08671D0A080000000074
:1036AC0000000000A91D0A08B3000A08D5000A088A
:1036BC00626175640053657269616C0055534253C5
:1036CC00657269616C31007479706500706172614A
:1036DC006D00636D6400696400686E6400737472DD
:1036EC006D0066696C74006C766C00616464486192
:1036FC006E646C65720072656D6F766548616E64A0
:10370C006C657200656E756D48616E646C65727384
:10371C00004A534F4E53747265616D4C6F6748612C
:10372C006E646C65720061707000253031307520EC
:10373C00005D20002564002C200028293A20002060
:10374C005B00636F6465203D20002569006465742F
:10375C0061696C73203D20000D0A006C6E00666E72
:10376C0000636F64650064657461696C006E6F6EF4
:10377C006500747261636500696E666F00776172D3
:10378C006E006572726F720070616E696300616CBD
:10379C006C0000000000000000000000891E0A08F8
:1037AC00931E0A089D1E0A08A71E0A08B11E0A08C5
:1037BC00BD1E0A08C91E0A08D51E0A08DD1E0A0805
:1037CC00E71E0A08F11E0A080000000000000000B5
:1037DC00F1200A08F3200A085A00252B3033643AEA
:1037EC00253032750025592D256D2D25645425481D
:1037FC003A254D3A2553257A0061736374696D65DA
:10380C00000000000000000000000000B5000A08E5
:10381C00E3000A082F220A084F230A0827220A0865
:10382C0045220A0863220A087D220A089F220A08F8
:10383C00E9220A080B230A08A1240A08B5230A085E
:10384C0011220A08B1250A081D240A08D9240A08DD
:10385C00DF250A0879230A081D220A0881240A0890
:10386C0023220A087F220A08F0FFFFFF0000000055
:10387C0097220A08000000000000000017260A0822
:10388C0067260A0875260A086D1F0A082B260A08DF
:10389C004D260A0839260A0861260A0819260A083C
:1038AC001D260A0800000000000000001D270A0861
:1038BC006D270A087B270A086D1F0A0859270A0872
:1038CC001F270A0835270A0867270A084B270A0802
:1038DC0019270A08000000000000000063290A08EC
:1038EC0059290A084F290A08C1280A0843290A0835
:1038FC0037290A082B290A0823290A0819290A0832
:10390C000F290A08CB280A0800000000000000005C
:10391C00000000000000000000000000000000009B
:10392C00000000000000000000000000000000008B
:10393C00000000000000000000000000000000007B
:10394C00000000000000000000000000000000006B
:10395C00000000000000000000000000000000005B
:10396C0000000000000000004300000061050A0890
:10397C001D190A08791E0A08591F0A08D5200A08B9
:10398C00E5210A08FD210A086D290A08952B0A0869
:10399C00C52B0A08192C0A08DD2C0A08612D0A0807
:0439AC00E52D0A08F3
:0439B0000000000013
:1039B400B822000005380A080000000014390A087B
:1039C40034390A0854390A080000000000000000D5
:1039D400000000000000000074390A080000000024
:1039E40000000000000000000000000000000000D3
:1039F40000000000000000000000000000000000C3
:103A040000000000000000000000000000000000B2
:0C3A14000000000000000000080000207E
:103A2000FFFFFFFF00000102030405060708090A63
:103A30000B0C0D0E0F101112131415161718191A5E
:083A40001B1C1D1E1F202800A5
:043A48007856341266
:04000005080A001CC9
:00000001FF
