:02000004080AE8
:1000000000000A0818300A08000006000600050172
:08001000040279050000000064
:04001800A42B0A0803
:10001C0009480A4908B5884205D0094A824202D0EB
:10002C00121A02F075FD0748074A0021121A02F055
:10003C007AFD064808BD00BF00000020842F0A0886
:10004C006C0000206C0000207C0600207C06002048
:10005C0070B502F02BFB074B074C1E46E41AA408A4
:10006C000025A54204D056F8253098470135F8E70D
:10007C0070BD00BF482F0A08802F0A0800F036B860
:10008C0008B500F0C1F8BDE8084002F0D1BA01F0A3
:10009C007DBC01F083BC0078B0FA80F04009704759
:1000AC00012303707047704710B50446054B03607D
:1000BC006433036101F03EFF204602F073F82046E2
:1000CC0010BD00BFE82D0A0810B50446182102F037
:1000DC00C6FB204610BD10B50446FFF7E5FF2046D1
:1000EC004C2102F0BCFB204610BD000070B596B050
:1000FC0002F0AAF902F08FF90028F9D02B4C00235A
:10010C001A461946606801F0E1FB0022114660684E
:10011C00264D01F0F3FB0028F7D002F095F92449A5
:10012C0001F0B7FD234B00221988234801F0DDFEB6
:10013C0000231946214A686801F018FC02F084F982
:10014C00064600244022002106A802F0ECFC4023C5
:10015C0006AA21460094686801F010FC06A902A8C2
:10016C0001F052FE0299304601F093FD02A801F015
:10017C0004FE02F069F9224606462146686801F041
:10018C009DFB811C06A801F08FFC06A9304601F0EE
:10019C008AFD32210A4801F0F3F9094800F0AEF863
:1001AC00074800F0E1F816B070BD00BF78050020DC
:1001BC00B82B0A08000000208C000020BE2B0A0877
:1001CC0070000020F8B50E46074602F03DF90C49C8
:1001DC0001F05FFD00240B4801F0D0F9A5B2854277
:1001EC0004F101040BD23A462946064801F076F98F
:1001FC00044800F0B9F8304601F0E0FBEBE7F8BD3D
:10020C00CF2B0A087000002008B500221146FF20F1
:10021C0001F0AFF9BDE808403221FFF7D3BF000071
:10022C0038B501F0FDF90021012001F023FB154B3D
:10023C0000221A705A804FF6FF72134D9A800220DA
:10024C0001F008FB114C284601F020FC2846104D0B
:10025C002246104902F0FEFA284601F085FF284696
:10026C000D4D22460D4902F0F5FA06230222142107
:10027C00284600F068F822462846BDE83840084970
:10028C0002F0E8BA84000020D80000206C000020A6
:10029C008C000020B3000A0870000020B5000A088A
:1002AC00B5020A0801F0ACB910B50446C06808B133
:1002BC0001F074FB23781BB10021E07902F046FABF
:1002CC00204610BD38B50446C0680D4608B101F093
:1002DC0065FBA379062B0CBF04200320684380B276
:1002EC00A08001F053FBE06028B1A288002102F04D
:1002FC001AFC658038BDA080608038BD10B50446FE
:10030C000121C07902F022FA0021E07902F02FFAE3
:10031C000123237010BD38B5037805460C461BB17C
:10032C000021C07902F012FA2B78EC7153B1A4B20F
:10033C002046012102F00AFA2046BDE8384000218F
:10034C0002F015BA38BD70B5044616460025837107
:10035C0005700572C5600561FFF7B4FF2046314694
:10036C00FFF7D9FF204670BDC368002B00F08E85C7
:10037C002DE9F0410446837986B0023BDBB2042BB5
:10038C0096BF294A322552F82350FFF78BFF236979
:10039C00C01AA842F9D372B6A179A3880229ADF884
:1003AC000A30D4F80CE000F07282072900F06F825A
:1003BC00062900F03284052900F0AB83082900F0EF
:1003CC00A883002940F06385184A4FF40006BDF855
:1003DC000A309BB2002B00F095830496BDF80A30CE
:1003EC000EF10305033B9BB2ADF80A309EF80030CA
:1003FC00DBB28DF807309EF80130DBB28DF8063099
:10040C009EF80230DBB28DF808309DF807709DF82D
:10041C0006309DF808001B0243EA0743034303938D
:10042C008DF805101BE100BF3C2C0A08F0000020E1
:10043C00004600BF00BF00BF00BF00BF00BF00BF31
:10044C0000BF00BF00BF00BF00BF00BF00BF00BFA8
:10045C0000BF00BF00BF00BF00BF00BF00BF00BF98
:10046C0000BF00BF00BF00BF00BF00BF00BF00BF88
:10047C0000BF00BF00BF00BF00BF00BF00BF00BF78
:10048C0000BF00BF00BF00BF00BF00BF00BF00BF68
:10049C0000BF00BF00BF00BF00BF00BF00BF00BF58
:1004AC0000BF00BF00BF00BF00BF00BF00BF00BF48
:1004BC0000BF00BF00BF00BF00BF00BF00BF00BF38
:1004CC0000BF00BF00BF00BF00BF00BF00BF00BF28
:1004DC0000BF00BF00BF00BF00BF00BF00BF00BF18
:1004EC0000BF00BF00BF00BF00BF00BF00BF00BF08
:1004FC0000BF00BF00BF00BF00BF00BF00BF00BFF8
:10050C0000BF00BF00BF00BF00BF00BF00BF00BFE7
:10051C0000BF00BF00BF00BF00BF00BF00BF00BFD7
:10052C0000BF00BF00BF00BF00BF00BF00BF00BFC7
:10053C0000BF00BF00BF00BFE3791068C3EBC3036B
:10054C0000EB8307BF8850F823305F83004600BF61
:10055C0000BF00BF00BF00BF00BF00BF00BF00BF97
:10056C0000BF00BF00BF00BF00BF00BF00BF00BF87
:10057C0000BF00BF00BF00BF00BF00BF00BF00BF77
:10058C0000BF00BF00BF00BF00BF00BF00BF00BF67
:10059C0000BF00BF00BF00BF00BF00BF00BF00BF57
:1005AC0000BF00BF00BF00BF00BF00BF00BF00BF47
:1005BC0000BF00BF00BF00BF00BF00BF00BF00BF37
:1005CC0000BF00BF00BF00BF00BF00BF00BF00BF27
:1005DC0000BF00BF00BF00BF00BF00BF00BF00BF17
:1005EC0000BF00BF00BF00BF00BF00BF00BF00BF07
:1005FC0000BF00BF00BF00BF00BF00BF00BF00BFF7
:10060C0000BF00BF00BF00BF00BF00BF00BF00BFE6
:10061C0000BF00BF00BF00BF00BF00BF00BF00BFD6
:10062C0000BF00BF00BF00BF00BF00BF00BF00BFC6
:10063C0000BF00BF00BF00BF00BF00BF00BF00BFB6
:10064C0000BF00BF00BF049B5B0804939DF80530FE
:10065C000133DBB2172B8DF8053000F2DB82E37926
:10066C001068C3EBC30300EB8307BF8850F823303B
:10067C001F830398049B18427FF4DAAE004600BF38
:10068C0000BF00BF00BF00BF00BF00BF00BF00BF66
:10069C0000BF00BF00BF00BF00BF00BF00BF00BF56
:1006AC0000BF00BF00BF00BF00BF00BF00BF00BF46
:1006BC0000BF00BF00BF00BF00BF00BF00BF00BF36
:1006CC0000BF00BF00BF00BF00BF00BF00BFE37989
:1006DC001068C3EBC30300EB8307BF8850F82330CB
:1006EC005F83004600BF00BF00BF00BF00BF00BF5C
:1006FC0000BF00BF00BF00BF00BF00BF00BF00BFF6
:10070C0000BF00BF00BF00BF00BF00BF00BF00BFE5
:10071C0000BF00BF00BF00BF00BF00BF00BF00BFD5
:10072C0000BF00BF00BF00BF00BF00BF00BF00BFC5
:10073C0000BF00BF00BF00BF00BF00BF00BF00BFB5
:10074C0000BF00BF00BF00BF00BF00BF00BF00BFA5
:10075C0000BF00BF00BF00BF00BF00BF00BF00BF95
:10076C0000BF00BF00BF00BF00BF00BF00BF00BF85
:10077C0000BF00BF00BF00BF00BF00BF00BF00BF75
:10078C0000BF00BF00BF00BF00BF00BF00BF00BF65
:10079C0000BF00BF00BF00BF00BF00BF00BF00BF55
:1007AC0000BF00BF00BF00BF00BF00BF00BF00BF45
:1007BC0000BF00BF00BF00BF00BF00BF00BF00BF35
:1007CC0000BF00BF00BF00BF00BF00BF00BF00BF25
:1007DC0000BF00BF00BF00BF00BF00BF00BF00BF15
:1007EC0000BF00BF00BF00BF00BF00BF00BF00BF05
:1007FC0000BF00BF00BF00BF00BF00BF00BF00BFF5
:10080C0000BF00BF00BF00BF00BF00BF00BF00BFE4
:10081C0000BF00BF00BF00BF00BF00BF00BF00BFD4
:10082C0000BF00BF00BF00BF00BF00BF00BF00BFC4
:10083C0000BF00BF00BF00BF00BF00BF00BF00BFB4
:10084C0000BF00BF00BF00BF00BF00BF00BF00BFA4
:10085C0000BF00BF00BF00BF00BF00BF00BF00BF94
:10086C0000BF00BF00BF00BF00BF00BF00BF00BF84
:10087C0000BF00BF00BF00BF00BF00BF00BF00BF74
:10088C0000BF00BF00BF00BF00BF00BFDBE6BDF86C
:10089C000A30174A9BB24FF400050026002B00F0DB
:1008AC0031810495BDF80A300EF10301033B9BB274
:1008BC00ADF80A309EF80030DBB28DF806309EF8A9
:1008CC000130DBB28DF807309EF80230DBB28DF8C8
:1008DC0008309DF806309DF807009DF8087000025E
:1008EC0040EA03433B4303938DF8056080E000BF6F
:1008FC00F0000020004600BF00BF00BF00BF00BFDB
:10090C0000BF00BF00BF00BF00BF00BF00BF00BFE3
:10091C0000BF00BF00BF00BF00BF00BF00BF00BFD3
:10092C0000BF00BF00BF00BF00BF00BF00BF00BFC3
:10093C0000BF00BF00BF00BF00BF00BF00BF00BFB3
:10094C0000BF00BF00BF00BF00BF00BF00BF00BFA3
:10095C0000BF00BF00BF00BF00BF00BF00BF00BF93
:10096C0000BF00BF00BF00BF00BF00BF00BF00BF83
:10097C0000BF00BF00BF00BF00BF00BF00BF00BF73
:10098C0000BF00BF00BF00BF00BF00BF00BFE379C6
:10099C001068C3EBC30300EB8307BF8850F8233008
:1009AC005F83004600BF00BF00BF00BF00BF00BF99
:1009BC0000BF00BF00BF00BF00BF00BF00BF00BF33
:1009CC0000BF00BF00BF00BF00BF00BF00BF00BF23
:1009DC0000BF00BF00BF00BF049B5B0804939DF8E1
:1009EC0005300133DBB2172B8DF8053000F2838014
:1009FC00E3791068C3EBC30300EB8307BF8850F89F
:100A0C0023301F830398049B18427FF473AF004676
:100A1C0000BF00BF00BF00BF00BF00BF00BF00BFD2
:100A2C0000BF00BF00BF00BF00BF00BF00BF00BFC2
:100A3C0000BF00BF00BFE3791068C3EBC30300EB3A
:100A4C008307BF8850F823305F83004600BF00BF88
:100A5C0000BF00BF00BF00BF00BF00BF00BF00BF92
:100A6C0000BF00BF00BF00BF00BF00BF00BF00BF82
:100A7C0000BF00BF00BF00BF00BF00BF00BF00BF72
:100A8C0000BF00BF00BF00BF00BF00BF00BF00BF62
:100A9C0000BF00BF00BF00BF00BF00BF00BF00BF52
:100AAC0000BF00BF00BF00BF00BF00BF00BF00BF42
:100ABC0000BF00BF00BF00BF00BF00BF00BF00BF32
:100ACC0000BF00BF00BF00BF00BF00BF00BF00BF22
:100ADC0000BF00BF00BF00BF00BF00BF00BF00BF12
:100AEC0000BF00BF00BF00BF00BF00BF00BF00BF02
:100AFC0000BF00BF70E7BDF80A308E469BB2002BDA
:100B0C007FF4CFAE62B6FFF7CDFB206106B0BDE837
:100B1C00F0815E4B5E4A184611684FF400080027BE
:100B2C00BDF80A2092B2002AECD0CDF81080BDF8A6
:100B3C000A200EF10305033A92B2ADF80A209EF892
:100B4C000020D2B28DF806209EF80120D2B28DF88A
:100B5C0007209EF80220D2B28DF808209DF80620BE
:100B6C009DF807E09DF808C04FEA0E2E4EEA0242AF
:100B7C0042EA0C0203928DF80570E2795E68C2EBD2
:100B8C00C20201EB820EBEF804E051F82220059659
:100B9C00A2F818E0039E049A164223D05A68059EC8
:100BAC00921B4F2AFAD9E279C2EBC20201EB820EF8
:100BBC00BEF804E051F82220A2F81AE0426805922F
:100BCC005A68059E921B072AFAD9049A5208049275
:100BDC009DF805200132D2B2172A8DF80520CCD908
:100BEC00AE469DE75A68059E921B182AFAD9E279FF
:100BFC00C2EBC20201EB820EBEF804E051F82220D7
:100C0C00A2F81AE0426805925A68059E921B452A82
:100C1C00FAD9DAE7AE46FFF7DABB1D4A4FF00045CA
:100C2C000026BDF80A309BB2002B3FF46BAF049545
:100C3C00BDF80A300EF10401043B9BB2ADF80A304A
:100C4C009EF80030DBB28DF807309EF80130DBB235
:100C5C008DF806309EF80230DBB28DF808309EF825
:100C6C000330DBB28DF809309DF807309DF8067023
:100C7C009DF808E03F049DF8090047EA036303432D
:100C8C0043EA0E2303938DF805607EE0001000E02C
:100C9C00F0000020004600BF00BF00BF00BF00BF37
:100CAC0000BF00BF00BF00BF00BF00BF00BF00BF40
:100CBC0000BF00BF00BF00BF00BF00BF00BF00BF30
:100CCC0000BF00BF00BF00BF00BF00BF00BF00BF20
:100CDC0000BF00BF00BF00BF00BF00BF00BF00BF10
:100CEC0000BF00BF00BF00BF00BF00BF00BF00BF00
:100CFC0000BF00BF00BF00BF00BF00BF00BF00BFF0
:100D0C0000BFE3791068C3EBC30300EB8307BF8814
:100D1C0050F823305F83004600BF00BF00BF00BF08
:100D2C0000BF00BF00BF00BF00BF00BF00BF00BFBF
:100D3C0000BF00BF00BF00BF00BF00BF00BF00BFAF
:100D4C0000BF00BF00BF00BF00BF00BF00BF00BF9F
:100D5C0000BF00BF00BF00BF00BF00BF00BF00BF8F
:100D6C0000BF00BF00BF00BF00BF00BF00BF00BF7F
:100D7C0000BF00BF049B5B0804939DF80530013352
:100D8C00DBB21F2B8DF805307ED8E3791068C3EBEE
:100D9C00C30300EB8307BF8850F823301F830398ED
:100DAC00049B18427FF476AF004600BF00BF00BF23
:100DBC0000BF00BF00BF00BF00BF00BF00BF00BF2F
:100DCC0000BF00BF00BF00BF00BF00BF00BF00BF1F
:100DDC00E3791068C3EBC30300EB8307BF8850F8BB
:100DEC0023305F83004600BF00BF00BF00BF00BFC1
:100DFC0000BF00BF00BF00BF00BF00BF00BF00BFEF
:100E0C0000BF00BF00BF00BF00BF00BF00BF00BFDE
:100E1C0000BF00BF00BF00BF00BF00BF00BF00BFCE
:100E2C0000BF00BF00BF00BF00BF00BF00BF00BFBE
:100E3C0000BF00BF00BF00BF00BF00BF00BF00BFAE
:100E4C0000BF00BF00BF00BF00BF00BF00BF00BF9E
:100E5C0000BF00BF00BF00BF00BF00BF00BF00BF8E
:100E6C0000BF00BF00BF00BF00BF00BF00BF00BF7E
:100E7C0000BF00BF00BF00BF00BF00BF00BF00BF6E
:100E8C0000BF00BF00BF75E78E46CAE67047032956
:100E9C0000F02E811E4A4FF400050026BDF80A30E2
:100EAC009BB2002B3FF42EAE0495BDF80A30E079CE
:100EBC00033B9BB2ADF80A309EF800300EF10301F3
:100ECC00DBB28DF807309EF80130C0EBC000DBB20E
:100EDC008DF808309EF80230D2F800E0DBB28DF8C5
:100EEC0006309DF807709DF808300EEB800C1B0245
:100EFC0043EA07439DF80670BCF804C05EF8200076
:100F0C003B4303938DF80560A0F81AC07DE000BF49
:100F1C00F0000020049B5B080493004600BF00BF58
:100F2C0000BF00BF00BF00BF00BF00BF00BF00BFBD
:100F3C0000BF00BF00BF00BF00BF00BF00BF00BFAD
:100F4C0000BF00BF00BF00BF00BF00BF00BF00BF9D
:100F5C0000BF00BF00BF00BF00BF00BF00BF00BF8D
:100F6C0000BF00BF00BF00BF00BF00BF00BF00BF7D
:100F7C0000BF00BF00BF00BF00BF00BF00BF00BF6D
:100F8C0000BF00BF00BF00BF00BF00BF00BF00BF5D
:100F9C0000BF00BF00BF00BF00BF00BF00BF00BF4D
:100FAC00E07917689DF80530C0EBC00007EB800EA8
:100FBC00BEF804E057F820000133DBB28DF80530A1
:100FCC00A0F818E0004600BF00BF00BF00BF00BF84
:100FDC0000BF00BF00BF00BF00BF00BF00BF00BF0D
:100FEC0000BF00BF00BF00BF00BF00BF00BF9DF827
:100FFC000530182B7AD0E3791068C3EBC30300EBF0
:10100C008307BF8850F823305F830398049B1842F2
:10101C0080D1004600BF00BF00BF00BF00BF00BFB3
:10102C0000BF00BF00BF00BF00BF00BF00BF00BFBC
:10103C0000BF00BFE3791068C3EBC30300EB830769
:10104C00BF8850F823301F839DF805300133DBB285
:10105C008DF80530049B5B080493004600BF00BF6D
:10106C0000BF00BF00BF00BF00BF00BF00BF00BF7C
:10107C0000BF00BF00BF00BF00BF00BF00BF00BF6C
:10108C0000BF00BF00BF00BF00BF00BF00BF00BF5C
:10109C0000BF00BF00BF00BF00BF00BF00BF00BF4C
:1010AC0000BF00BF00BF00BF00BF00BF00BF00BF3C
:1010BC0000BF00BF00BF00BF00BF00BF00BF00BF2C
:1010CC0000BF00BF00BF00BF00BF00BF00BF00BF1C
:1010DC0000BF00BF00BF00BF00BF00BF00BF00BF0C
:1010EC0000BF00BF9DF80530182B84D18E46D5E685
:1010FC00174A4FF400050026BDF80A309BB2002BAE
:10110C003FF400AD0495BDF80A300EF10301033B2A
:10111C009BB2ADF80A309EF80030DBB28DF8073088
:10112C009EF80130DBB28DF806309EF80230DBB24F
:10113C008DF808309DF807709DF806309DF8080072
:10114C001B0243EA0743034303938DF80560E0E079
:10115C00F0000020004600BF00BF00BF00BF00BF72
:10116C0000BF00BF00BF00BF00BF00BF00BF00BF7B
:10117C0000BF00BF00BF00BF00BF00BF00BF00BF6B
:10118C0000BF00BF00BF00BF00BF00BF00BF00BF5B
:10119C0000BF00BF00BF00BF00BF00BF00BF00BF4B
:1011AC0000BF00BF00BF00BF00BF00BF00BF00BF3B
:1011BC0000BF00BF00BF00BF00BF00BF00BF00BF2B
:1011CC0000BF00BF00BF00BF00BF00BF00BF00BF1B
:1011DC0000BF00BF00BF00BF00BF00BF00BF00BF0B
:1011EC0000BF00BF00BF00BF00BF00BF00BF00BFFB
:1011FC0000BF00BF00BF00BF00BF00BF00BF00BFEB
:10120C0000BF00BF00BF00BF00BF00BF00BF00BFDA
:10121C0000BF00BF00BF00BF00BF00BF00BF00BFCA
:10122C0000BF00BF00BF00BF00BF00BF00BF00BFBA
:10123C0000BF00BF00BF00BF00BF00BF00BF00BFAA
:10124C0000BF00BF00BF00BF00BF00BF00BF00BF9A
:10125C0000BF00BF00BF00BF00BF00BF00BF00BF8A
:10126C0000BF00BF00BF00BF00BF00BF00BF00BF7A
:10127C0000BF00BF00BFE3791068C3EBC30300EBF2
:10128C008307BF8850F823305F83004600BF00BF40
:10129C0000BF00BF00BF00BF00BF00BF00BF00BF4A
:1012AC0000BF00BF00BF00BF00BF00BF00BF00BF3A
:1012BC0000BF00BF00BF00BF00BF00BF00BF00BF2A
:1012CC0000BF00BF00BF00BF00BF00BF00BF00BF1A
:1012DC0000BF00BF00BF00BF00BF00BF00BF00BF0A
:1012EC0000BF00BF00BF00BF00BF00BF00BF00BFFA
:1012FC0000BF00BF00BF00BF00BF049B5B0804938E
:10130C009DF805300133DBB2172B8DF8053000F258
:10131C00E380E3791068C3EBC30300EB8307BF885A
:10132C0050F823301F830398049B18427FF412AFAC
:10133C00004600BF00BF00BF00BF00BF00BF00BF22
:10134C0000BF00BF00BF00BF00BF00BF00BF00BF99
:10135C0000BF00BF00BF00BF00BF00BF00BF00BF89
:10136C0000BF00BF00BF00BF00BF00BF00BF00BF79
:10137C0000BF00BF00BF00BF00BF00BF00BF00BF69
:10138C0000BF00BF00BF00BF00BF00BF00BF00BF59
:10139C0000BF00BF00BF00BF00BF00BF00BF00BF49
:1013AC0000BF00BF00BF00BF00BF00BF00BF00BF39
:1013BC0000BFE3791068C3EBC30300EB8307BF885E
:1013CC0050F823305F83004600BF00BF00BF00BF52
:1013DC0000BF00BF00BF00BF00BF00BF00BF00BF09
:1013EC0000BF00BF00BF00BF00BF00BF00BF00BFF9
:1013FC0000BF00BF00BF00BF00BF00BF00BF00BFE9
:10140C0000BF00BF00BF00BF00BF00BF00BF00BFD8
:10141C0000BF00BF00BF00BF00BF00BF00BF00BFC8
:10142C0000BF00BF00BF00BF00BF00BF00BF00BFB8
:10143C0000BF00BF00BF00BF00BF00BF00BF00BFA8
:10144C0000BF00BF00BF00BF00BF00BF00BF00BF98
:10145C0000BF00BF00BF00BF00BF00BF00BF00BF88
:10146C0000BF00BF00BF00BF00BF00BF00BF00BF78
:10147C0000BF00BF00BF00BF00BF00BF00BF00BF68
:10148C0000BF00BF00BF00BF00BF00BF00BF00BF58
:10149C0000BF00BF00BF00BF00BF00BF00BF00BF48
:1014AC0000BF00BF00BF00BF00BF00BF00BF00BF38
:1014BC0000BF00BF00BF00BF00BF00BF00BF00BF28
:1014CC0000BF00BF00BF00BF00BF00BF00BF00BF18
:1014DC0000BF00BF00BF10E78E460DE64388F0B595
:1014EC008B4245D9057AC2F30743C2F30724D6B21F
:1014FC0045B16B436C436E43C3F30723C4F307241A
:10150C00C6F3072690F806C0C768BCF1060F0CBFDF
:10151C00042503256943BCF1080F07EB010524D80A
:10152C004FF0010E0EFA0CFE1EF4D27F0CD11EF001
:10153C00400F0DD11EF0100F17D0FF2B08BFFE234C
:10154C007B546E70AC70F0BD7C546B70AE70F0BDA3
:10155C007B546C70AE70037A120E0BB9D2B202E0EF
:10156C005A43C2F30722EA70F0BD7B546C70AE7024
:10157C00F0BD42EA012242EA0040704740887047C1
:10158C004A1C037AD2B29A4270B51ED0013B13F0BA
:10159C00FF03C4680CD0FF290FBF4FF6FF71110277
:1015AC0001F1FF3191FBF3F30CBF91FBF3F39BB211
:1015BC002546291B868889B28E4205D9297859433C
:1015CC00091205F8011BF4E7027270BD08B500F0B2
:1015DC0027F800F025F8014B186008BDF00000203A
:1015EC0008B5024B1B681B6B019308BDD0010608A4
:1015FC0008B5024B1B685B68019308BD9C0106088B
:10160C0008B5024B1B681B69019308BD9C010608B9
:10161C0008B5024B1B685B69019308BD9C01060869
:10162C0008B5024B1B681B68019308BDB001060886
:10163C0008B5024B1B689B68019308BDB0010608F6
:10164C0008B5024B1B68DB68019308BDB0010608A6
:10165C0008B5024B1B681B69019308BDB001060855
:10166C0008B5024B1B681B6E019308BDAC01060844
:10167C0008B5024B1B685B6E019308BDAC010608F4
:10168C0008B5024B1B689B6E019308BDAC010608A4
:10169C0008B5024B1B68DB6E019308BDAC01060854
:1016AC0008B5024B1B681B6F019308BDAC01060803
:1016BC0008B5024B1B685B6F019308BDAC010608B3
:1016CC0008B5034B1B68D3F88030019308BD0000AC
:1016DC00AC01060808B5024B1B685B68019308BD9A
:1016EC00BC01060808B5024B1B689B68019308BD3A
:1016FC00BC01060808B5024B1B685B69019308BD69
:10170C00BC01060808B5024B1B68DB69019308BDD8
:10171C00BC01060808B5024B1B681B6A019308BD87
:10172C00BC01060808B5024B1B681B6B019308BD76
:10173C00BC01060808B5024B1B68DB69019308BDA8
:10174C00B401060808B5024B1B681B6A019308BD5F
:10175C00B401060808B5024B1B689B69019308BDD0
:10176C00C401060808B5024B1B685B6A019308BDEF
:10177C00C401060808B5024B1B689B6A019308BD9F
:10178C00C401060808B5024B1B68DB6A019308BD4F
:10179C00C401060808B5024B1B681B6B019308BDFE
:1017AC00C401060808B5024B1B685B6B019308BDAE
:1017BC00C401060808B5024B1B689B6B019308BD5E
:1017CC00C401060808B5024B1B681B6C019308BDCD
:1017DC00C401060808B5024B1B681B68019308BDC1
:1017EC00D801060808B5024B1B681B69019308BD9C
:1017FC00D801060808B5024B1B685B69019308BD4C
:10180C00D801060808B5024B1B689B69019308BDFB
:10181C00D801060808B5024B1B68DB69019308BDAB
:10182C00D801060808B5024B1B681B6A019308BD5A
:10183C00D801060808B5024B1B685B6A019308BD0A
:10184C00D801060808B5024B1B689B6C019308BDB8
:10185C00C001060808B5024B1B685B68019308BD04
:10186C00A401060808B5024B1B685B69019308BD0F
:10187C00A401060808B5024B1B68DB6A019308BD7E
:10188C00A401060808B5034B1B68D3F890300193EC
:10189C0008BD0000A401060808B5034B1B68D3F86B
:1018AC009C30019308BD0000A401060808B5024B4A
:1018BC001B68DB6B019308BDCC01060808B5024B15
:1018CC001B681B68019308BDC801060808B5024BCC
:1018DC001B685B68019308BDC801060808B5024B7C
:1018EC001B689B68019308BDC801060808B5024B2C
:1018FC001B68DB68019308BDC801060808B5024BDC
:10190C001B681B69019308BDC801060808B5024B8A
:10191C001B685B69019308BDC801060808B5024B3A
:10192C001B689B69019308BDC801060808B5024BEA
:10193C001B68DB69019308BDC801060808B5024B9A
:10194C001B681B6A019308BDC801060808B5024B49
:10195C001B681B6B019308BDC801060808B5024B38
:10196C001B685B6B019308BDC801060808B5024BE8
:10197C001B689B6B019308BDC801060808B5024B98
:10198C001B68DB6B019308BDC801060808B5024B48
:10199C001B681B68019308BDA001060808B5024B23
:1019AC001B685B68019308BDA001060808B5024BD3
:1019BC001B689B68019308BDA00106080021FFF776
:1019CC0051BF10B58368044613B1032201469847F2
:1019DC00204610BD7047F8B5064615460C468F18C4
:1019EC00BC4206D0336814F8011B9B6830469847FC
:1019FC00F6E72846F8BD0022007CFFF731BE002137
:101A0C00007CFFF735BE0021007CFFF739BE0021BA
:101A1C00007CFFF73DBE0021007CFFF741BE10B5F6
:101A2C000446142100F01BFF204610BD10B50446DF
:101A3C0008464FF47A73A360044B00212074616054
:101A4C002360FFF73DFE204610BD00BF582C0A084E
:101A5C000021007CFFF72CBEF8B50F4600F10806FC
:101A6C00051D002416F8011D0A22384600F04FF916
:101A7C00AE42044407D0002CF4D02E21384600F09E
:101A8C00F3F80444EEE72046F8BD000010B5044618
:101A9C00044B112240F8043B002101F044F820468D
:101AAC0010BD00BF802C0A080346074A10B543F846
:101ABC00042B01F1100251F8044B914243F8044BF2
:101ACC00F9D10A781A7010BD802C0A08024A4160BC
:101ADC000260042202757047802C0A0810B59DF82C
:101AEC00084044EA032343EA024242EA0161042328
:101AFC004160037510BD000037B5044D05609DF8BD
:101B0C0018500095FFF7EAFF03B030BD802C0A088F
:101B1C0037B50D788B784A78C97800912946FFF74C
:101B2C00DDFF03B030BD0000014A024B1A60704764
:101B3C00022D0A08F400002000231A464068FFF723
:101B4C00C5BE002202214068FFF7D0BE002211461C
:101B5C004068FFF7C3BE002211464068FFF7CEBEB7
:101B6C0000231A4619464068FFF7D0BE00231A46D8
:101B7C0019464068FFF7D2BE002281F0010140688F
:101B8C00FFF7D4BE00224068FFF7E0BE00221146EA
:101B9C004068FFF7E3BE002211464068FFF7CEBE57
:101BAC0070B516468EB0044608A8FFF76FFF1122D9
:101BBC00002103A800F0B7FF304600F0E5FF002538
:101BCC000A4B009581B25B6803AA3046FFF73AFED8
:101BDC0020B129462046FFF779FF03E003A92046F0
:101BEC00FFF762FF20460EB070BD00BF78050020E5
:101BFC00034B044A04280CBF10461846704700BF1C
:101C0C00F800002078050020024B034A1A600022DD
:101C1C005A607047F8000020782D0A08F8B506467F
:101C2C000D468F180024BD420CD0336815F8011BEB
:101C3C009B6830469847002801DB0444F3E7002CEE
:101C4C0008BF04462046F8BD70B505460C4608464C
:101C5C0049B100F099FF2B68024621462846BDE8A1
:101C6C007040DB68184770BD03689B6818470B46CB
:101C7C000A68014612681846104738B50D2105460A
:101C8C00FFF7F2FF0A2104462846FFF7EDFF204438
:101C9C0038BD38B50546FFF7D7FF04462846FFF791
:101CAC00ECFF204438BD38B50546FFF7E0FF04468D
:101CBC002846FFF7E2FF204438BD012A98BF0A22CC
:101CCC0030B50B468BB000218DF824100DF1230498
:101CDC00B3FBF2F505FB1233DBB2092B94BF3033A7
:101CEC003733DBB2214604F801392B46002DEFD1F6
:101CFC00FFF7AAFF0BB030BD10B422B90368C9B20C
:101D0C009B6810BC1847D2B210BCFFF7D6BFFFF7C8
:101D1C00F3BF10B50446FFF754FE204610BD00007B
:101D2C00034800238360034A034900F093BD00BFBE
:101D3C00000100206C0000201F1D0A08704710B520
:101D4C000446102100F08BFD204610BD70B50446F2
:101D5C000E46074B0025036040F80C5FFFF740FC74
:101D6C0030462671FFF7E6FCA560204670BD00BF2B
:101D7C00AC2D0A080079FFF7E5BC10B504460068E5
:101D8C00FFF70CFE204610BD10B50446006808B1E4
:101D9C00FFF704FE00232360A360636010BD38B519
:101DAC0004460D4600680131FFF700FE10B184E8CF
:101DBC002100012038BD10B50368044613B14368F7
:101DCC008B4207D22046FFF7EAFF20B1A3680BB97C
:101DDC0022681370012010BD70B50E4611460446E2
:101DEC001546FFF7E8FF18B92046FFF7CDFF09E0CD
:101DFC002A463146A560206800F08AFE2268A36856
:101E0C000021D154204670BD38B500230446036030
:101E1C004360836003730D4639B1084600F0B4FE8D
:101E2C00294602462046FFF7D7FF204638BD000062
:101E3C004FF6FF72034B0020187058809A80FFF702
:101E4C0009BD00BF10010020024B1A68024B1A603A
:101E5C00704700BF040000201801002010B4046873
:101E6C00246BA44610BC604703689B6C1847808E9B
:101E7C007047028FC08E101A704713B502AB026800
:101E8C0003F8011DD46819460122A04702B010BD09
:101E9C0010B5036804461B69984728B1E38EE26BC2
:101EAC00591CE186D05C10BD4FF0FF3010BD10B551
:101EBC00036804461B69984718B1E38EE26BD05C4B
:101ECC0010BD4FF0FF3010BD70470346084610B4EC
:101EDC00D98EDC6B1A8F0368521ADB68214410BC54
:101EEC001847A0F11000FFF7F0BFF7B505461046F4
:101EFC000F461646FFF77CFE0368DB689847B8B1BF
:101F0C0002213B46112208460096FFF7EBFB686165
:101F1C00FFF7E0FB044630B10023EB862B872F83C1
:101F2C006E64012004E02B6828465B6A98472046C3
:101F3C0003B0F0BD38B504464569FFF7F3FB8542A5
:101F4C0002D06069FFF7E6FBFFF7ECFB0023606152
:101F5C00E386238738BD30B587B0BDF8284002250D
:101F6C00ADF808508DF80B40250ADC798DF80A5035
:101F7C008DF80C409C798DF80D405C791B798DF8AF
:101F8C000E408DF80F301023019302AB0093406983
:101F9C000023FFF7B7FB07B030BD38B5C36B054660
:101FAC00C08E13B12C6C241A00E01C46944228BF3E
:101FBC0014461844224600F0ABFDEB8E2046234419
:101FCC00EB8638BD70B5036804461B690E46154692
:101FDC00984788B1236820461B6998478542A8BF5B
:101FEC000546E38EE16B2A461944304600F090FD1D
:101FFC00E38E2B44E38601E04FF0FF35284670BD9D
:10200C00F0B5044689B0406C0D461646FFF7F0FD5E
:10201C000368DB68984710B36769FFF783FB874257
:10202C001DD0E5B108AB102243F8142D01930DEB34
:10203C00020300932946002332466069FFF75AFBDE
:10204C00051E0EDB9DF812209DF8133005A943EAFE
:10205C000223A38604F11C00FFF75AFD01E04FF0A8
:10206C00FF35284609B0F0BD2DE9F041064694B085
:10207C00406C0D469046FFF7BBFD0368DB68984744
:10208C00F8B1284600F080FD002481B20094736CF6
:10209C0003AA2846FFF7D6FB90B903A908A8FFF7B7
:1020AC0003FD33680FAC9F6B074B09AD0E930FCD3F
:1020BC000FC42B68424623700EA93046B84700E087
:1020CC00204614B0BDE8F081802C0A0870B5044697
:1020DC000646054B01F1200544F8043B0FCD0FC417
:1020EC002B683046237070BD802C0A08F0B59446DE
:1020FC008E460646026889B0976A094A03AC1D1DD4
:10210C0002920FCD0FC42B6862462370BDF8383095
:10211C0071460093304602ABB84709B0F0BD00BF22
:10212C00802C0A08F0B50446036889B09F6A0D4BF1
:10213C0003AD00F12006B0F836E002930FCE0FC5C8
:10214C00336872462B70A38EE16B0093204602AB72
:10215C00B847054623682046DB699847284609B0EE
:10216C00F0BD00BF802C0A0838B54FF47A73836039
:10217C000B4B002503F108026C33026003614560D0
:10218C000446FFF7CFFA606104F11C00FFF77EFCF8
:10219C004FF40073E5862587E5632364204638BD3C
:1021AC00E02D0A0810B590F84830044623B1C06BF6
:1021BC0010B1012100F053FB0023E36384F8483095
:1021CC002364E386238710BD70B5044616460D467E
:1021DC00FFF7E8FF0023E66323643EB935B12846D8
:1021EC00FDF755FF0123E06384F84830E36B03B13E
:1021FC002564206C003018BF012070BDF8B517465F
:10220C00C26B05460C461AB9016C09B1FFF7DCFF2D
:10221C0005F1200604340FCC0FC62368337000235D
:10222C00AF86EB862B87286CF8BD70B5C26B044665
:10223C001AB9016C09B1FFF7C7FFE16B0023E38604
:10224C00238741B1226C32B12068056B2046A84728
:10225C000028C8BF208723682046BDE870401B6952
:10226C00184770474174704708B5007CFFF7AAFA0D
:10227C0020EAE07008BD08B5007CFFF77BFA20EA85
:10228C00E07008BD08B5007CFFF784FA30EA200046
:10229C0028BF4FF0FF3008BD08B5007CFFF772FA7D
:1022AC0030EA200028BF4FF0FF3008BD007CFFF75C
:1022BC0079BA10B50446142100F0D1FA204610BDAD
:1022CC0070B5457C04460E4625B9007CFFF77AFABA
:1022DC00002805DD3146207CBDE87040FFF742BA8E
:1022EC00284670BD10B504460846114600226260AF
:1022FC004FF47A72A260054A207422600122627443
:10230C001A46FFF727FA204610BD00BF582E0A08C0
:10231C00007CFFF74FBA000038B50C4D296811F05E
:10232C00010411D12846FDF7B6FE68B1084A2146D2
:10233C00084B0948FFF7D6FF2846FDF7B1FE074AC0
:10234C000749054800F086FA034838BDB40100205F
:10235C00B8010020300100201C0100206C0000207E
:10236C006F220A0841747047704708B50021007C41
:10237C00FFF748FA30EA200028BF4FF0FF3008BDC5
:10238C0008B50121007CFFF73DFA30EA200028BF98
:10239C004FF0FF3008BD08B5007CFFF72BFA20EAA0
:1023AC00E07008BD08B5007CFFF71CFA20EAE0706D
:1023BC0008BD007CFFF736BA10B50446142100F0B6
:1023CC004EFA204610BD38B50446007C0D46FFF78A
:1023DC0011FA002801DC607C28B12946207CFFF72B
:1023EC0019FA20EAE07038BD10B50446002363608A
:1023FC004FF47A73A360054B0846236001232174C4
:10240C0063741146FFF7E6F9204610BD882E0A08C2
:10241C00007CFFF70FBAFFF7FBBF000010B50446B6
:10242C001422002100F07FFB054B20466360054B16
:10243C00E36040F2011323818123238210BD00BF8E
:10244C00C10200204002002030B50E4D87B001A81B
:10245C00FFF7E4FF296811F0010410D12846FDF7BD
:10246C001AFE60B101AA21460748FFF7BDFF2846B6
:10247C00FDF716FE054A0649034800F0EBF9024841
:10248C0007B030BD3C020020C40300206C000020CB
:10249C0075230A0810B504461422002100F043FBF2
:1024AC00054B20466360054BE36040F2011323812A
:1024BC008123238210BD00BF74040020DC030020A4
:1024CC0010B50E4C86B001A8FFF7E4FF2368DB07BC
:1024DC0010D42046FDF7DFFD60B101AA01210848A8
:1024EC00FFF782FF2046FDF7DBFD064A064904484C
:1024FC0000F0B0F9024806B010BD00BFD8030020B0
:10250C00600400206C00002075230A08002211468C
:10251C004068FFF7F3B9F0B5164689B011220F46A3
:10252C000446002103A800F0FEFA304600F02CFB14
:10253C000025009581B27B6803AA3046FFF782F92B
:10254C0020B129462046FFF7C1FA03E003A9204633
:10255C00FFF7AAFA204609B0F0BD002211464068E8
:10256C00FFF7ECB9002211464068FFF7F7B90022DB
:10257C004068FFF7EBB9002281F001014068FFF7DA
:10258C00D5B900231A4619464068FFF7C7B900238E
:10259C001A4619464068FFF7B9B90022114640683F
:1025AC00FFF79CB9002202214068FFF79FB9002376
:1025BC001A464068FFF78AB9024B04225A60024A55
:1025CC001A60704778050020B82E0A0808B5144B1D
:1025DC0033B1FFF739FF03681B699847002816DCF5
:1025EC00104B33B1FFF798FE03681B69984700281E
:1025FC0010DC0D4B0BB1AFF300800C4B7BB1FFF734
:10260C005FFF03681B699847002806DC08BDAFF321
:10261C000080E5E7AFF30080EBE7AFF3008008BD87
:10262C00000000000000000000000000000000009E
:10263C0008B5FFF7CBFFFEF7EBFF014B186008BDA9
:10264C00880500200248034A0349121A00F060BAB8
:10265C000040024004400240802F0A0807B50023C6
:10266C0000931A466FF07701FFF716F903B05DF887
:10267C0004FB000007B543880A2B08D0502B09D166
:10268C00094B1B683BB103B05DF804EB1847FFF72F
:10269C00E5FF06E0002300931A466FF07701FFF781
:1026AC00FBF803B05DF804FB8005002038B5104C36
:1026BC00104D2368AB42104B0CBF012200221A7044
:1026CC0002D0FFF7BFFF2560FEF792FF044600F033
:1026DC0033FA0A4B13B12046AFF3008000210748B0
:1026EC00FFF7E4F8BDE8384000210548FFF7CAB809
:1026FC00004002401E1C279A8405002000000000A8
:10270C0081260A0810B504460F48FFF733FB28B1A1
:10271C00A4F10D03022B01D8002010BD00F040F8ED
:10272C00FFF796F908B1012CF6D9FFF7F5FDFFF785
:10273C00EFFD18B1A4F11203012BEDD9172C8CBFAE
:10274C000020012010BD00BFBC050020172838B5A3
:10275C0004460D460AD8FF2908D0FFF7D3FF28B14D
:10276C0029462046BDE83840FEF762BF38BD38B573
:10277C0004460D46FEF764FFFF2810D0062804D847
:10278C004D2323FA00F0C30709D42046FFF7BAFF04
:10279C0028B129462046BDE83840FEF759BF38BD60
:1027AC0038B50B4D296811F001040FD12846FDF7FF
:1027BC0072FC58B121460748FFF738F92846FDF757
:1027CC006FFC054A0549034800F044F8014838BD40
:1027DC008C050020900500206C000020E1190A08EF
:1027EC0013B5084C00231A46194600932046FFF7F0
:1027FC0083F92046044A054902B0BDE8104000F0B8
:10280C0029B800BFA40500206C000020B3000A0802
:10281C0070B50C4C0C4E0D4D00212046FFF796FA6E
:10282C0020460B4C3246294600F014F80121204674
:10283C00FFF78CFA324629462046BDE8704000F07E
:10284C0009B800BFBC0500206C000020491D0A0817
:10285C00CC0500200B460146184600F04BB9FDF79D
:10286C0018BC0000244B1A68D0075CBF01221A6008
:10287C00224B1A68D1075CBF01221A60204B1A68E0
:10288C00D2075CBF01221A601E4B1A68D0075CBFCE
:10289C0001221A601C4B1A68D1075CBF01221A6016
:1028AC001A4B1A68D2075CBF01221A60184B1A68BF
:1028BC00D0075CBF01221A60164B1A68D1075CBFA7
:1028CC0001221A60144B1A68D2075CBF01221A60ED
:1028DC00124B1A68D0075CBF01221A60104B1A68A1
:1028EC00D1075CBF01221A600E4B1A68D2075CBF7D
:1028FC0001221A60704700BF080600200406002061
:10290C0000060020FC050020F8050020F40500203E
:10291C00F0050020EC050020E8050020E40500206F
:10292C00E0050020DC050020184B1A68D1075CBFBD
:10293C0001221A60164B1A68D2075CBF01221A607A
:10294C00144B1A68D0075CBF01221A60124B1A682C
:10295C00D1075CBF01221A60104B1A68D2075CBF0A
:10296C0001221A600E4B1A68D0075CBF01221A6054
:10297C000C4B1A68D1075CBF01221A600A4B1A680B
:10298C00D2075CBF01221A60704700BF28060020E6
:10299C0024060020200600201C060020180600201B
:1029AC0014060020100600200C060020184B1A6894
:1029BC00D1075CBF01221A60164B1A68D2075CBFA4
:1029CC0001221A60144B1A68D0075CBF01221A60EE
:1029DC00124B1A68D1075CBF01221A60104B1A689F
:1029EC00D2075CBF01221A600E4B1A68D0075CBF7D
:1029FC0001221A600C4B1A68D1075CBF01221A60C5
:102A0C000A4B1A68D2075CBF01221A60704700BFDC
:102A1C004806002044060020400600203C0600200A
:102A2C003806002034060020300600202C0600203A
:102A3C00244B1A68D0075CBF01221A60224B1A681B
:102A4C00D1075CBF01221A60204B1A68D2075CBF09
:102A5C0001221A601E4B1A68D0075CBF01221A6053
:102A6C001C4B1A68D1075CBF01221A601A4B1A68FA
:102A7C00D2075CBF01221A60184B1A68D0075CBFE2
:102A8C0001221A60164B1A68D1075CBF01221A602A
:102A9C00144B1A68D2075CBF01221A60124B1A68D9
:102AAC00D0075CBF01221A60104B1A68D1075CBFBB
:102ABC0001221A600E4B1A68D2075CBF01221A6001
:102ACC00704700BF780600207406002070060020B6
:102ADC006C060020680600206406002060060020BA
:102AEC005C060020580600205406002050060020EA
:102AFC004C06002010B5054C13462CB10A46014675
:102B0C000220AFF3008010BD204610BD0000000075
:102B1C0010B5431E0A44914204D011F8014B03F83E
:102B2C00014FF8E710BD03460244934202D003F86C
:102B3C00011BFAE77047000038B5124B05461C68BC
:102B4C00A36BD3B91820FEF721FF43F20E33A06319
:102B5C0003804AF6CD33438041F2342383804EF216
:102B6C006D63C3804DF6EC630381052343810B2316
:102B7C00838101220023C0E90423A36B00221D6181
:102B8C005A6138BD68000020034613F8012B002A57
:102B9C00FBD1181A013870471D000A085D000A089D
:102BAC0089000A088D000A0800000000536574753E
:102BBC0070004851526F757465725F5055424C49A4
:102BCC00534800494E20434F4C4F522057495045D3
:102BDC0000494E2050554C53452057484954450008
:102BEC00494E205241494E424F57204641444500E0
:102BFC00494E207768697465206F76657220726122
:102C0C00696E626F7700494E2066756C6C20776830
:102C1C0069746500494E207261696E626F7720633A
:102C2C0079636C6500494E207261696E626F770042
:102C3C002C01000018000000F40100002C01000021
:102C4C00500000000000000000000000E1190A081C
:102C5C002B1A0A08031A0A08E3190A080B1A0A089D
:102C6C00131A0A081B1A0A08231A0A080000000083
:102C7C0000000000651A0A08B3000A08D5000A080B
:102C8C00626175640053657269616C0055534253FF
:102C9C00657269616C310074797065007061726184
:102CAC006D00636D6400696400686E640073747217
:102CBC006D0066696C74006C766C006164644861CC
:102CCC006E646C65720072656D6F766548616E64DA
:102CDC006C657200656E756D48616E646C657273BF
:102CEC00004A534F4E53747265616D4C6F67486167
:102CFC006E646C6572006170700025303130752027
:102D0C00005D20002564002C200028293A2000209A
:102D1C005B00636F6465203D200025690064657469
:102D2C0061696C73203D20000D0A0066006C6E001A
:102D3C00666E00636F64650064657461696C006E37
:102D4C006F6E6500747261636500696E666F007703
:102D5C0061726E006572726F720070616E696300F1
:102D6C00616C6C000000000000000000451B0A08AC
:102D7C004F1B0A08591B0A08631B0A086D1B0A081B
:102D8C00791B0A08851B0A08911B0A08991B0A085B
:102D9C00A31B0A08AD1B0A0800000000000000007D
:102DAC00491D0A084B1D0A085A00252B3033643A7A
:102DBC00253032750025592D256D2D256454254857
:102DCC003A254D3A2553257A0061736374696D6514
:102DDC00000000000000000000000000B5000A0820
:102DEC00E3000A08871E0A08A71F0A087F1E0A08A4
:102DFC009D1E0A08BB1E0A08D51E0A08F71E0A08E3
:102E0C00411F0A08631F0A08F9200A080D200A0846
:102E1C00691E0A0809220A0875200A0831210A08C5
:102E2C0037220A08D11F0A08751E0A08D9200A0879
:102E3C007B1E0A08D71E0A08F0FFFFFF00000000E7
:102E4C00EF1E0A0800000000000000006F220A08B4
:102E5C00BF220A08CD220A08291C0A0883220A0864
:102E6C00A5220A0891220A08B9220A0871220A0826
:102E7C0075220A08000000000000000075230A08F3
:102E8C00C5230A08D3230A08291C0A08B1230A08F7
:102E9C0077230A088D230A08BF230A08A3230A08EC
:102EAC0071230A080000000000000000BB250A087E
:102EBC00B1250A08A7250A0819250A089B250A081E
:102ECC008F250A0883250A087B250A0871250A081C
:102EDC0067250A0823250A080000000000000000EE
:102EEC0000000000000000000000000000000000D6
:102EFC0000000000000000000000000000000000C6
:102F0C0000000000000000000000000000000000B5
:102F1C0000000000000000000000000000000000A5
:102F2C000000000000000000000000000000000095
:102F3C000000000000000000430000002D020A0801
:102F4C00D9150A08351B0A08151C0A082D1D0A0874
:102F5C003D1E0A08551E0A08C5250A08ED270A0851
:102F6C001D280A0871280A0835290A08B9290A08EF
:042F7C003D2A0A08D8
:042F8000000000004D
:102F8400B8220000D52D0A0800000000E42E0A082B
:102F9400042F0A08242F0A08000000000000000083
:102FA4000000000000000000442F0A080000000098
:102FB400000000000000000000000000000000000D
:102FC40000000000000000000000000000000000FD
:102FD40000000000000000000000000000000000ED
:0C2FE400000000000000000008000020B9
:102FF000FFFFFFFF00000102030405060708090A9E
:103000000B0C0D0E0F101112131415161718191A98
:083010001B1C1D1E1F202800DF
:0430180078563412A0
:04000005080A001CC9
:00000001FF
