:02000004080AE8
:1000000000000A0878220A08000006000600050120
:0800100004027A050000000063
:04001800701C0A0846
:10001C0009480A4908B5884205D0094A824202D0EB
:10002C00121A01F0DBFD0748074A0021121A01F0F1
:10003C00E0FD064808BD00BF00000020E4210A08CE
:10004C006C0000206C0000204C0700204C070020A6
:10005C0070B501F091FB074B074C1E46E41AA4083F
:10006C000025A54204D056F8253098470135F8E70D
:10007C0070BD00BF8C210A08D4210A0800F036B8E4
:10008C0008B500F0AFF8BDE8084001F037BB00F050
:10009C00E1BC00F0E7BC0078B0FA80F04009704792
:1000AC00012303707047704710B50446054B03607D
:1000BC006433036100F0A0FF204601F0D5F8204620
:1000CC0010BD00BF2C200A0810B50446182101F001
:1000DC002CFC204610BD10B50446FFF7E5FF20466A
:1000EC004C2101F022FC204610BD000070B501210E
:1000FC0096B0072001F090FB0021072001F09DFB3A
:10010C00314A0023012199540133142BFBD101F006
:10011C0001FA01F0E6F90028F9D02C4C00231A461C
:10012C001946606800F036FC002211466068274DC5
:10013C0000F048FC0028F7D001F0ECF9244900F05D
:10014C000AFE244B00221988234800F030FF0023BC
:10015C001946224A686800F06DFC01F0DBF906468E
:10016C0000244022002106A801F043FD402306AAEA
:10017C0021460094686800F065FC06A902A800F00E
:10018C00A5FE0299304600F0E6FD02A800F057FEED
:10019C0001F0C0F9224606462146686800F0F2FBE1
:1001AC00811C06A800F0E2FC06A9304600F0DDFD3B
:1001BC0001F0B0F94FF4165101F08CF914210848F4
:1001CC0000F05AF916B070BD4A0100204806002014
:1001DC008C1D0A080000002060010020921D0A08F6
:1001EC00180100204FF49671014800F015BA00BFB9
:1001FC001801002037B500F077FA0021012000F03B
:10020C009DFB1F4B00221A705A804FF6FF721D4D3A
:10021C009A80022000F08AFB1B4C284600F098FCC8
:10022C0028461A4D22461A4901F07AFB284600F05E
:10023C00FDFF224617492846174D01F071FB02239A
:10024C001A461421284600F0DAF8224613492846AB
:10025C0001F066FB124800F087F84FF4FA71114870
:10026C0000F02AF80D220E238DE80C004FF4967145
:10027C000C230B220C4800F0DDF803B030BD00BF9E
:10028C00440100207C0000206C0000206001002054
:10029C00B3000A08B5000A08AC01002087030A085D
:1002AC0094000020700000201801002010B50446B6
:1002BC0000F012FA206010BD38B504460D46FFF769
:1002CC00F5FF00236560A360204638BD00F00CBA32
:1002DC0030B50224017083700621F523C475042403
:1002EC004270C380012200230172017680F8204005
:1002FC0003210724027142748274C27402758275E0
:10030C0042768276C276C27780F82140437283723D
:10031C00C372037343738373C3730374017743779B
:10032C00837780F82230044680F8231080F8272049
:10033C00024680F8241080F8253080F826300025FD
:10034C000139E563A564656502F10202A2F85E302D
:10035C00A2F86430A2F86A3004F10404F0D14FF032
:10036C00000380F8803030BD10B51E236B220121B4
:10037C00FFF7AEFF10BD00F0B7B910B50446C0686A
:10038C0008B100F06FFB23781BB10021E07901F07C
:10039C0043FA204610BD38B50446C0680D4608B176
:1003AC0000F060FBA379062B0CBF042003206843EC
:1003BC0080B2A08000F04EFBE06028B1A288002142
:1003CC0001F017FC658038BDA080608038BD38B561
:1003DC00037805460C461BB10021C07901F01CFACC
:1003EC002B78EC7153B1A4B22046012101F014FA20
:1003FC002046BDE83840002101F01FBA38BD70B569
:10040C00044616460025837105700572C5600561AA
:10041C00FFF7C1FF20463146FFF7D9FF204670BDDC
:10042C0008B500F061F900F05FF9014B186008BDE8
:10043C00C001002038B504468361049B0025C361CC
:10044C00059B42610362056105608562816090B223
:10045C00012101F0E1F9208B012101F0DDF9A08BE4
:10046C00012101F0D9F9208C012101F0D5F90423E7
:10047C006562E360204638BD8268034B93FBF2F360
:10048C0093FBF1F1416070470087930338B5C36863
:10049C000446022B0D4617D1032915D8DFE801F0CD
:1004AC0002040A0C002100E00121A08A01F0C5F928
:1004BC00012106E0012100E00021A08A01F0BDF934
:1004CC000021208B01F0B9F9E368042B2FD1032D07
:1004DC002DD8DFE805F00208161C0121A08A01F0D6
:1004EC00ACF9002104E00021A08A01F0A6F9012159
:1004FC00208B01F0A2F90121A08B01F09EF90021C3
:10050C0012E00021A08A01F098F9012104E00121F8
:10051C00A08A01F092F90021208B01F08EF90021C4
:10052C00A08B01F08AF90121208C01F086F9E36897
:10053C00052B70D1092D6ED8DFE805F0050B1523BE
:10054C00252B354355570021A08A01F076F901215E
:10055C0050E00021A08A01F070F90121208B01F0FC
:10056C006CF900214AE00021A08A01F066F9012112
:10057C00208B01F062F90021A08B01F05EF90121C2
:10058C0040E0002100E00121A08A01F056F9012190
:10059C0004E00121A08A01F050F90021208B01F028
:1005AC004CF9002108E00121A08A01F046F9002154
:1005BC00208B01F042F90121A08B01F03EF90121C1
:1005CC000CE00121A08A01F038F90021208B01F008
:1005DC0034F90121A08B01F030F90021208C01F0BD
:1005EC002CF9002112E0012100E00021A08A01F089
:1005FC0024F90021208B01F020F90121A08B01F0BE
:10060C001CF90021208C01F018F90121A08CBDE807
:10061C00384001F012B938BDF8B5002981EAE1750E
:10062C000446A5EBE17501DD012301E001D00023B7
:10063C00236000270A26002D2FD000F045F8A36A6E
:10064C006268C31A9342F6D32368A062012B236914
:10065C0006D1A26801339342236107D1276105E0DB
:10066C000BB9A36823612369013B2361E368013D56
:10067C00052B236904D193FBF6F106FB113108E03D
:10068C00064919400029BEBF01F1FF3161F0030199
:10069C0001312046FFF7FAFECDE7F8BD03000080DC
:1006AC0000F022B800F020B808B5024B1B681B6B99
:1006BC00019308BDD001060808B5024B1B685B68A6
:1006CC00019308BD9C01060808B5024B1B681B6909
:1006DC00019308BD9C01060808B5024B1B685B69B9
:1006EC00019308BD9C01060808B5024B1B681B68EA
:1006FC00019308BDB001060808B5024B1B689B6846
:10070C00019308BDB001060808B5024B1B68DB68F5
:10071C00019308BDB001060808B5024B1B681B69A4
:10072C00019308BDB001060808B5024B1B681B6E8F
:10073C00019308BDAC01060808B5024B1B685B6E43
:10074C00019308BDAC01060808B5024B1B689B6EF3
:10075C00019308BDAC01060808B5024B1B68DB6EA3
:10076C00019308BDAC01060808B5024B1B681B6F52
:10077C00019308BDAC01060808B5024B1B685B6F02
:10078C00019308BDAC01060808B5034B1B68D3F8F0
:10079C008030019308BD0000AC01060808B5024B7F
:1007AC001B685B68019308BDBC01060808B5024BC9
:1007BC001B689B68019308BDBC01060808B5024B79
:1007CC001B685B69019308BDBC01060808B5024BA8
:1007DC001B68DB69019308BDBC01060808B5024B18
:1007EC001B681B6A019308BDBC01060808B5024BC7
:1007FC001B681B6B019308BDBC01060808B5024BB6
:10080C001B68DB69019308BDB401060808B5024BEF
:10081C001B681B6A019308BDB401060808B5024B9E
:10082C001B689B69019308BDC401060808B5024BFF
:10083C001B685B6A019308BDC401060808B5024B2E
:10084C001B689B6A019308BDC401060808B5024BDE
:10085C001B68DB6A019308BDC401060808B5024B8E
:10086C001B681B6B019308BDC401060808B5024B3D
:10087C001B685B6B019308BDC401060808B5024BED
:10088C001B689B6B019308BDC401060808B5024B9D
:10089C001B681B6C019308BDC401060808B5024B0C
:1008AC001B681B68019308BDD801060808B5024BEC
:1008BC001B685B68019308BDD801060808B5024B9C
:1008CC001B681B69019308BDD801060808B5024BCB
:1008DC001B685B69019308BDD801060808B5024B7B
:1008EC001B689B69019308BDD801060808B5024B2B
:1008FC001B68DB69019308BDD801060808B5024BDB
:10090C001B681B6A019308BDD801060808B5024B89
:10091C001B685B6A019308BDD801060808B5024B39
:10092C001B689B6C019308BDC001060808B5024BFF
:10093C001B685B68019308BDA401060808B5024B4F
:10094C001B68DB6A019308BDA401060808B5034BBC
:10095C001B68D3F89030019308BD0000A401060871
:10096C0008B5034B1B68D3F89C30019308BD0000FD
:10097C00A401060808B5024B1B68DB6B019308BD8C
:10098C00CC01060808B5024B1B681B68019308BD17
:10099C00C801060808B5024B1B685B68019308BDCB
:1009AC00C801060808B5024B1B689B68019308BD7B
:1009BC00C801060808B5024B1B68DB68019308BD2B
:1009CC00C801060808B5024B1B681B69019308BDDA
:1009DC00C801060808B5024B1B685B69019308BD8A
:1009EC00C801060808B5024B1B689B69019308BD3A
:1009FC00C801060808B5024B1B68DB69019308BDEA
:100A0C00C801060808B5024B1B681B6A019308BD98
:100A1C00C801060808B5024B1B681B6B019308BD87
:100A2C00C801060808B5024B1B685B6B019308BD37
:100A3C00C801060808B5024B1B689B6B019308BDE7
:100A4C00C801060808B5024B1B68DB6B019308BD97
:100A5C00C801060808B5024B1B681B68019308BD4A
:100A6C00A001060808B5024B1B685B68019308BD22
:100A7C00A001060808B5024B1B689B68019308BDD2
:100A8C00A001060810B58368044613B10322014681
:100A9C009847204610BD7047F8B5064615460C46DB
:100AAC008F18BC4206D0336814F8011B9B68304683
:100ABC009847F6E72846F8BD0022007CFFF734BEC5
:100ACC000021007CFFF738BE0021007CFFF73CBE04
:100ADC000021007CFFF740BE0021007CFFF744BEE4
:100AEC0010B50446142100F020FF204610BD000074
:100AFC0010B5044608464FF47A73A360044B0021EA
:100B0C00207461602360FFF73FFE204610BD00BFDC
:100B1C009C1E0A080021007CFFF72EBEF8B50F467C
:100B2C0000F10806051D002416F8011D0A2238469E
:100B3C0000F04FF9AE42044407D0002CF4D02E2123
:100B4C00384600F0F3F80444EEE72046F8BD000008
:100B5C0010B50446044B112240F8043B002101F06F
:100B6C0048F8204610BD00BFC41E0A080346074AB9
:100B7C0010B543F8042B01F1100251F8044B9142CB
:100B8C0043F8044BF9D10A781A7010BDC41E0A0838
:100B9C00024A41600260042202757047C41E0A08B2
:100BAC0010B59DF8084044EA032343EA024242EAA6
:100BBC00016104234160037510BD000037B5044D7D
:100BCC0005609DF818500095FFF7EAFF03B030BDA3
:100BDC00C41E0A0837B50D788B784A78C97800910D
:100BEC002946FFF7DDFF03B030BD0000014A024B80
:100BFC001A607047461F0A08C401002000231A46D9
:100C0C004068FFF7C7BE002202214068FFF7D2BE42
:100C1C00002211464068FFF7C5BE0022114640680D
:100C2C00FFF7D0BE00231A4619464068FFF7D2BE24
:100C3C0000231A4619464068FFF7D4BE002281F003
:100C4C0001014068FFF7D6BE00224068FFF7E2BE04
:100C5C00002211464068FFF7E5BE002211464068AD
:100C6C00FFF7D0BE70B516468EB0044608A8FFF745
:100C7C006FFF1122002103A800F0BBFF304600F0EB
:100C8C00E9FF00250A4B009581B25B6803AA304648
:100C9C00FFF744FE20B129462046FFF779FF03E019
:100CAC0003A92046FFF762FF20460EB070BD00BFBF
:100CBC0048060020034B044A04280CBF1046184673
:100CCC00704700BFC801002048060020024B034AB1
:100CDC001A6000225A607047C8010020BC1F0A0825
:100CEC00F8B506460D468F180024BD420CD033686B
:100CFC0015F8011B9B6830469847002801DB04441B
:100D0C00F3E7002C08BF04462046F8BD70B5054635
:100D1C000C46084649B100F09DFF2B68024621465F
:100D2C002846BDE87040DB68184770BD03689B68B7
:100D3C0018470B460A68014612681846104738B522
:100D4C000D210546FFF7F2FF0A2104462846FFF75E
:100D5C00EDFF204438BD38B50546FFF7D7FF0446F4
:100D6C002846FFF7ECFF204438BD38B50546FFF7A1
:100D7C00E0FF04462846FFF7E2FF204438BD012A75
:100D8C0098BF0A2230B50B468BB000218DF8241089
:100D9C000DF12304B3FBF2F505FB1233DBB2092B87
:100DAC0094BF30333733DBB2214604F801392B467C
:100DBC00002DEFD1FFF7AAFF0BB030BD10B422B954
:100DCC000368C9B29B6810BC1847D2B210BCFFF7BD
:100DDC00D6BFFFF7F3BF10B50446FFF753FE20460E
:100DEC0010BD0000034800238360034A034900F050
:100DFC0097BD00BFD00100206C000020E30D0A0855
:100E0C00704710B50446102100F08FFD204610BD30
:100E1C0070B504460E46074B0025036040F80C5F86
:100E2C00FFF742FC30462671FFF7E8FCA560204630
:100E3C0070BD00BFF01F0A080079FFF7E7BC10B5C2
:100E4C0004460068FFF70EFE204610BD10B50446A0
:100E5C00006808B1FFF706FE00232360A3606360FF
:100E6C0010BD38B504460D4600680131FFF702FE8F
:100E7C0010B184E82100012038BD10B50368044688
:100E8C0013B143688B4207D22046FFF7EAFF20B12B
:100E9C00A3680BB922681370012010BD70B50E4603
:100EAC00114604461546FFF7E8FF18B92046FFF730
:100EBC00CDFF09E02A463146A560206800F08EFE81
:100ECC002268A3680021D154204670BD38B5002398
:100EDC00044603604360836003730D4639B10846D2
:100EEC0000F0B8FE294602462046FFF7D7FF204601
:100EFC0038BD00004FF6FF72034B0020187058806D
:100F0C009A80FFF713BD00BFE0010020024B1A6866
:100F1C00024B1A60704700BF04000020E80100205B
:100F2C0010B40468246BA44610BC604703689B6C27
:100F3C001847808E7047028FC08E101A704713B5F9
:100F4C0002AB026803F8011DD46819460122A047C0
:100F5C0002B010BD10B5036804461B69984728B150
:100F6C00E38EE26B591CE186D05C10BD4FF0FF3074
:100F7C0010BD10B5036804461B69984718B1E38E81
:100F8C00E26BD05C10BD4FF0FF3010BD70470346D4
:100F9C00084610B4D98EDC6B1A8F0368521ADB68C2
:100FAC00214410BC1847A0F11000FFF7F0BFF7B5B3
:100FBC00054610460F461646FFF77CFE0368DB68B5
:100FCC009847B8B102213B46112208460096FFF71C
:100FDC00EDFB6861FFF7E2FB044630B10023EB86C2
:100FEC002B872F836E64012004E02B6828465B6AF4
:100FFC009847204603B0F0BD38B504464569FFF765
:10100C00F5FB854202D06069FFF7E8FBFFF7EEFBCA
:10101C0000236061E386238738BD30B587B0BDF807
:10102C0028400225ADF808508DF80B40250ADC79D4
:10103C008DF80A508DF80C409C798DF80D405C7938
:10104C001B798DF80E408DF80F301023019302ABF5
:10105C00009340690023FFF7B9FB07B030BD38B5EA
:10106C00C36B0546C08E13B12C6C241A00E01C46D1
:10107C00944228BF14461844224600F0AFFDEB8E74
:10108C0020462344EB8638BD70B5036804461B69C3
:10109C000E461546984788B1236820461B69984729
:1010AC008542A8BF0546E38EE16B2A4619443046BB
:1010BC0000F094FDE38E2B44E38601E04FF0FF3506
:1010CC00284670BDF0B5044689B0406C0D461646F6
:1010DC00FFF7F0FD0368DB68984710B36769FFF70B
:1010EC0085FB87421DD0E5B108AB102243F8142DC7
:1010FC0001930DEB020300932946002332466069ED
:10110C00FFF75CFB051E0EDB9DF812209DF81330DB
:10111C0005A943EA0223A38604F11C00FFF75AFD3C
:10112C0001E04FF0FF35284609B0F0BD2DE9F04144
:10113C00064694B0406C0D469046FFF7BBFD036825
:10114C00DB689847F8B1284600F084FD002481B292
:10115C000094736C03AA2846FFF7E0FB90B903A92F
:10116C0008A8FFF703FD33680FAC9F6B074B09AD65
:10117C000E930FCD0FC42B68424623700EA9304638
:10118C00B84700E0204614B0BDE8F081C41E0A0840
:10119C0070B504460646054B01F1200544F8043BA6
:1011AC000FCD0FC42B683046237070BDC41E0A08C7
:1011BC00F0B594468E460646026889B0976A094A8D
:1011CC0003AC1D1D02920FCD0FC42B686246237019
:1011DC00BDF8383071460093304602ABB84709B0C1
:1011EC00F0BD00BFC41E0A08F0B50446036889B000
:1011FC009F6A0D4B03AD00F12006B0F836E0029368
:10120C000FCE0FC5336872462B70A38EE16B009323
:10121C00204602ABB847054623682046DB69984751
:10122C00284609B0F0BD00BFC41E0A0838B54FF4FB
:10123C007A7383600B4B002503F108026C33026058
:10124C00036145600446FFF7D1FA606104F11C00AC
:10125C00FFF77EFC4FF40073E5862587E563236476
:10126C00204638BD24200A0810B590F848300446B2
:10127C0023B1C06B10B1012100F057FB0023E363D5
:10128C0084F848302364E386238710BD70B5044688
:10129C0016460D46FFF7E8FF0023E66323643EB9CC
:1012AC0035B12846FEF7F3FE0123E06384F848309D
:1012BC00E36B03B12564206C003018BF012070BDB6
:1012CC00F8B51746C26B05460C461AB9016C09B144
:1012DC00FFF7DCFF05F1200604340FCC0FC62368A2
:1012EC0033700023AF86EB862B87286CF8BD70B566
:1012FC00C26B04461AB9016C09B1FFF7C7FFE16B69
:10130C000023E386238741B1226C32B12068056B40
:10131C002046A8470028C8BF208723682046BDE880
:10132C0070401B69184770474174704708B5007CC2
:10133C00FFF7ACFA20EAE07008BD08B5007CFFF7B7
:10134C007DFA20EAE07008BD08B5007CFFF786FA4C
:10135C0030EA200028BF4FF0FF3008BD08B5007CF4
:10136C00FFF774FA30EA200028BF4FF0FF3008BDB9
:10137C00007CFFF77BBA10B50446142100F0D5FAB7
:10138C00204610BD70B5457C04460E4625B9007C40
:10139C00FFF77CFA002805DD3146207CBDE8704063
:1013AC00FFF744BA284670BD10B5044608461146EE
:1013BC00002262604FF47A72A260054A20742260A7
:1013CC00012262741A46FFF729FA204610BD00BFAD
:1013DC009C200A08007CFFF751BA000038B50C4D70
:1013EC00296811F0010411D12846FEF754FE68B1AA
:1013FC00084A2146084B0948FFF7D6FF2846FEF756
:10140C004FFE074A0749054800F08AFA034838BDE1
:10141C00840200208802002000020020EC01002041
:10142C006C00002033130A0841747047704708B5EC
:10143C000021007CFFF752FA30EA200028BF4FF061
:10144C00FF3008BD08B50121007CFFF747FA30EAF0
:10145C00200028BF4FF0FF3008BD08B5007CFFF717
:10146C0035FA20EAE07008BD08B5007CFFF726FAD3
:10147C0020EAE07008BD007CFFF740BA10B50446C6
:10148C00142100F052FA204610BD38B50446007CF9
:10149C000D46FFF71BFA002801DC607C28B12946B9
:1014AC00207CFFF723FA20EAE07038BD10B5044623
:1014BC00002363604FF47A73A360054B08462360E6
:1014CC000123217463741146FFF7E8F9204610BD1F
:1014DC00CC200A080022007CFFF7E8B9007CFFF75B
:1014EC0015BAFFF7FBBF000010B50446142200210B
:1014FC0000F07FFB054B20466360054BE36040F238
:10150C00011323818123238210BD00BF910300208E
:10151C001003002030B50E4D87B001A8FFF7E4FF93
:10152C00296811F0010410D12846FEF7B4FD60B112
:10153C0001AA21460748FFF7B9FF2846FEF7B0FD80
:10154C00054A0649034800F0EBF9024807B030BDE4
:10155C000C030020940400206C00002039140A08AD
:10156C0010B504461422002100F043FB054B204625
:10157C006360054BE36040F20113238181232382D6
:10158C0010BD00BF44050020AC04002010B50E4C6B
:10159C0086B001A8FFF7E4FF2368DB0710D42046D0
:1015AC00FEF779FD60B101AA01210848FFF77EFF23
:1015BC002046FEF775FD064A0649044800F0B0F9CE
:1015CC00024806B010BD00BFA80400203005002062
:1015DC006C00002039140A08002211464068FFF7FD
:1015EC00F1B9F0B5164689B011220F460446002118
:1015FC0003A800F0FEFA304600F02CFB0025009505
:10160C0081B27B6803AA3046FFF788F920B12946DE
:10161C002046FFF7BDFA03E003A92046FFF7A6FA20
:10162C00204609B0F0BD002211464068FFF7EAB928
:10163C00002211464068FFF7F5B900224068FFF719
:10164C00E9B9002281F001014068FFF7D3B900230A
:10165C001A4619464068FFF7C5B900231A461946C1
:10166C004068FFF7B7B9002211464068FFF79AB9F6
:10167C00002202214068FFF79DB900231A464068FA
:10168C00FFF788B9024B04225A60024A1A6070476D
:10169C0048060020FC200A0808B5144B33B1FFF7AC
:1016AC0039FF03681B699847002816DC104B33B1CF
:1016BC00FFF794FE03681B699847002810DC0D4B5C
:1016CC000BB1AFF300800C4B7BB1FFF75FFF0368EE
:1016DC001B699847002806DC08BDAFF30080E5E7DE
:1016EC00AFF30080EBE7AFF3008008BD0000000013
:1016FC0000000000000000000000000008B5FFF72B
:10170C00CBFFFEF7E9FF014B186008BD580600201F
:10171C000248034A0349121A00F060BA0040024022
:10172C0004400240E0210A0807B5002300931A4642
:10173C006FF07701FFF714F903B05DF804FB0000BC
:10174C0007B543880A2B08D0502B09D1094B1B68CD
:10175C003BB103B05DF804EB1847FFF7E5FF06E07B
:10176C00002300931A466FF07701FFF7F9F803B0E6
:10177C005DF804FB5006002038B5104C104D236862
:10178C00AB42104B0CBF012200221A7002D0FFF7A3
:10179C00BFFF2560FEF790FF044600F033FA0A4BBA
:1017AC0013B12046AFF3008000210748FFF7E2F8A1
:1017BC00BDE8384000210548FFF7C8B8004002409A
:1017CC001E1C279A54060020000000004D170A0822
:1017DC0010B504460F48FFF72FFB28B1A4F10D03F9
:1017EC00022B01D8002010BD00F040F8FFF792F951
:1017FC0008B1012CF6D9FFF7F1FDFFF7EBFD18B19D
:10180C00A4F11203012BEDD9172C8CBF0020012061
:10181C0010BD00BF8C060020172838B504460D46B5
:10182C000AD8FF2908D0FFF7D3FF28B12946204654
:10183C00BDE83840FEF760BF38BD38B504460D46EC
:10184C00FEF762FFFF2810D0062804D84D2323FA98
:10185C0000F0C30709D42046FFF7BAFF28B1294688
:10186C002046BDE83840FEF757BF38BD38B50B4DA4
:10187C00296811F001040FD12846FEF70CFC58B171
:10188C0021460748FFF734F92846FEF709FC054ABC
:10189C000549034800F044F8014838BD5C060020B7
:1018AC00600600206C000020A30A0A0813B5084C3F
:1018BC0000231A46194600932046FFF77FF920466D
:1018CC00044A054902B0BDE8104000F029B800BF39
:1018DC00740600206C000020B3000A0870B50C4C94
:1018EC000C4E0D4D00212046FFF792FA20460B4C72
:1018FC003246294600F014F801212046FFF788FAF9
:10190C00324629462046BDE8704000F009B800BFB9
:10191C008C0600206C0000200D0E0A089C0600208E
:10192C000B460146184600F04BB9FEF7B2BB00005F
:10193C00244B1A68D0075CBF01221A60224B1A682C
:10194C00D1075CBF01221A60204B1A68D2075CBF1A
:10195C0001221A601E4B1A68D0075CBF01221A6064
:10196C001C4B1A68D1075CBF01221A601A4B1A680B
:10197C00D2075CBF01221A60184B1A68D0075CBFF3
:10198C0001221A60164B1A68D1075CBF01221A603B
:10199C00144B1A68D2075CBF01221A60124B1A68EA
:1019AC00D0075CBF01221A60104B1A68D1075CBFCC
:1019BC0001221A600E4B1A68D2075CBF01221A6012
:1019CC00704700BFD8060020D4060020D0060020A7
:1019DC00CC060020C8060020C4060020C00600204B
:1019EC00BC060020B8060020B4060020B00600207B
:1019FC00AC060020184B1A68D1075CBF01221A6094
:101A0C00164B1A68D2075CBF01221A60144B1A6875
:101A1C00D0075CBF01221A60124B1A68D1075CBF59
:101A2C0001221A60104B1A68D2075CBF01221A609F
:101A3C000E4B1A68D0075CBF01221A600C4B1A6857
:101A4C00D1075CBF01221A600A4B1A68D2075CBF2F
:101A5C0001221A60704700BFF8060020F40600202F
:101A6C00F0060020EC060020E8060020E40600202A
:101A7C00E0060020DC060020184B1A68D1075CBF7A
:101A8C0001221A60164B1A68D2075CBF01221A6039
:101A9C00144B1A68D0075CBF01221A60124B1A68EB
:101AAC00D1075CBF01221A60104B1A68D2075CBFC9
:101ABC0001221A600E4B1A68D0075CBF01221A6013
:101ACC000C4B1A68D1075CBF01221A600A4B1A68CA
:101ADC00D2075CBF01221A60704700BF18070020B4
:101AEC0014070020100700200C0700200807002016
:101AFC000407002000070020FC060020244B1A6875
:101B0C00D0075CBF01221A60224B1A68D1075CBF58
:101B1C0001221A60204B1A68D2075CBF01221A609E
:101B2C001E4B1A68D0075CBF01221A601C4B1A6846
:101B3C00D1075CBF01221A601A4B1A68D2075CBF2E
:101B4C0001221A60184B1A68D0075CBF01221A6078
:101B5C00164B1A68D1075CBF01221A60144B1A6825
:101B6C00D2075CBF01221A60124B1A68D0075CBF07
:101B7C0001221A60104B1A68D1075CBF01221A604F
:101B8C000E4B1A68D2075CBF01221A60704700BF67
:101B9C004807002044070020400700203C07002095
:101BAC003807002034070020300700202C070020C5
:101BBC002807002024070020200700201C070020F5
:101BCC0010B5054C13462CB10A4601460220AFF362
:101BDC00008010BD204610BD0000000010B5431E53
:101BEC000A44914204D011F8014B03F8014FF8E775
:101BFC0010BD03460244934202D003F8011BFAE7DE
:101C0C007047000038B5124B05461C68A36BD3B95E
:101C1C001820FEF71FFF43F20E33A06303804AF631
:101C2C00CD33438041F2342383804EF26D63C38005
:101C3C004DF6EC630381052343810B238381012241
:101C4C000023C0E90423A36B00221D615A6138BD37
:101C5C0068000020034613F8012B002AFBD1181A48
:101C6C00013870471D000A085D000A0889000A083F
:101C7C008D000A080000000063616C696272617477
:101C8C00696E672073656E736F722E206163632EAD
:101C9C0000646F6E65004661696C656420746F202A
:101CAC00636F6D6D756E69636174652077697468B7
:101CBC00204C534D394453312E00446F75626C6582
:101CCC002D636865636B20776972696E672E0044BB
:101CDC00656661756C742073657474696E677320C6
:101CEC00696E207468697320736B65746368207700
:101CFC00696C6C20776F726B20666F7220616E203E
:101D0C006F7574206F662074686520626F78204C44
:101D1C00534D3944533120427265616B6F75742C8D
:101D2C0020627574206D6179206E65656420746F16
:101D3C00206265206D6F6469666965642069662040
:101D4C0074686520626F617264206A756D7065726B
:101D5C0073206172652E0063616C696272617469D3
:101D6C006F6E20737461727465640043616C696298
:101D7C00726174696F6E2066696E69736865640060
:101D8C005365747570004851526F757465725F506D
:101D9C0055424C49534800546F74616C206D6F76FA
:101DAC00656D656E743A20005370656564206C69CE
:101DBC006D6974203A2000494E20434845434B201E
:101DCC004D41544348203A3A20005354494C4C005E
:101DDC004D4F564500666C757858203A2000666C5D
:101DEC00757859203A2000666C75785A203A200094
:101DFC0054524F55424C4520434F554E54203A3A7D
:101E0C0020006368756E6B203A3A200056414C3ABC
:101E1C003A2000203A3A2020004C495354454E4970
:101E2C004E472D2D2D2D2D2D2D2D2D2D2D2D2D2D9B
:101E3C002D00726563656976696E67206D657373D5
:101E4C00616765002D2D2D696E207768696C652D95
:101E5C002D2D0050415253494E47007374696C6CE0
:101E6C00002F6D6F7665006C69676E7468696E67BC
:101E7C00007475726E696E67206F666600636865C4
:101E8C00636B6E756D000000000000000000000028
:101E9C00A30A0A08ED0A0A08C50A0A08A50A0A08CC
:101EAC00CD0A0A08D50A0A08DD0A0A08E50A0A0852
:101EBC000000000000000000290B0A08B3000A080B
:101ECC00D5000A08626175640053657269616C0023
:101EDC0055534253657269616C31007479706500B9
:101EEC00706172616D00636D6400696400686E649A
:101EFC00007374726D0066696C74006C766C0061B2
:101F0C00646448616E646C65720072656D6F7665B1
:101F1C0048616E646C657200656E756D48616E64C7
:101F2C006C657273004A534F4E53747265616D4CFD
:101F3C006F6748616E646C6572006170700025306B
:101F4C0031307520005D20002564002C20002829EC
:101F5C003A2000205B00636F6465203D20002569FA
:101F6C000064657461696C73203D20000D0A006C7F
:101F7C006E00666E00636F64650064657461696C05
:101F8C00006E6F6E6500747261636500696E666FDA
:101F9C00007761726E006572726F720070616E69AB
:101FAC006300616C6C000000000000000000000089
:101FBC00090C0A08130C0A081D0C0A08270C0A083D
:101FCC00310C0A083D0C0A08490C0A08550C0A0881
:101FDC005D0C0A08670C0A08710C0A080000000066
:101FEC00000000000D0E0A080F0E0A085A00252BDF
:101FFC003033643A253032750025592D256D2D2549
:10200C00645425483A254D3A2553257A006173636B
:10201C0074696D6500000000000000000000000005
:10202C00B5000A08E3000A084B0F0A086B100A08EF
:10203C00430F0A08610F0A087F0F0A08990F0A0854
:10204C00BB0F0A0805100A0827100A08BD110A0858
:10205C00D1100A082D0F0A08CD120A0839110A08E6
:10206C00F5110A08FB120A0895100A08390F0A081C
:10207C009D110A083F0F0A089B0F0A08F0FFFFFF8B
:10208C0000000000B30F0A08000000000000000070
:10209C0033130A0883130A0891130A08ED0C0A0873
:1020AC0047130A0869130A0855130A087D130A080E
:1020BC0035130A0839130A0800000000000000005C
:1020CC0039140A0889140A0897140A08ED0C0A082E
:1020DC0075140A083B140A0851140A0883140A08D8
:1020EC0067140A0835140A080000000000000000FC
:1020FC0087160A087D160A0873160A08E5150A08D9
:10210C0067160A085B160A084F160A0847160A08CB
:10211C003D160A0833160A08EF150A0800000000DD
:10212C0000000000000000000000000000000000A3
:10213C000000000000000000000000000000000093
:10214C000000000000000000000000000000000083
:10215C000000000000000000000000000000000073
:10216C000000000000000000000000000000000063
:10217C000000000000000000000000004300000010
:10218C0001020A08D9020A0883030A082D040A0866
:10219C00AD060A08B1060A08F90B0A08D90C0A0898
:1021AC00F10D0A08010F0A08190F0A0891160A08FE
:1021BC00B9180A08E9180A083D190A08011A0A0888
:1021CC00851A0A08091B0A0800000000000000001C
:0421DC0000000000FF
:0421E00000000000FB
:1021E400B822000019200A080000000028210A086B
:1021F40048210A0868210A080000000000000000C5
:10220400000000000000000088210A08000000000F
:1022140000000000000000000000000000000000BA
:1022240000000000000000000000000000000000AA
:10223400000000000000000000000000000000009A
:0C22440000000000000000000800002066
:10225000FFFFFFFF00000102030405060708090A4B
:102260000B0C0D0E0F101112131415161718191A46
:082270001B1C1D1E1F2028008D
:04227800785634124E
:04000005080A001CC9
:00000001FF
