:02000004080AE8
:1000000000000A08B0420A080000060006000501C8
:0800100004027A050000000063
:04001800A03C0A08F6
:10001C0009480A4908B5884205D0094A824202D0EB
:10002C00121A03F0E9FD0748074A0021121A03F0DF
:10003C00EEFD064808BD00BF0000002004420A087F
:10004C008400002084000020C0070020C00700208E
:10005C0070B502F0F5FB074B074C1E46E41AA408DA
:10006C000025A54204D056F8253098470135F8E70D
:10007C0070BD00BFB0410A08F8410A0800F0ECB8A6
:10008C0008B500F089FABDE8084002F09BBB01F00E
:10009C00A5BB01F0ABBB0078B0FA80F0400970470B
:1000AC00012303707047704710B50446054B03607D
:1000BC006433036102F004F8204602F039F920465B
:1000CC0010BD00BF50400A0810B50446182102F0BC
:1000DC0090FC204610BD10B50446FFF7E5FF204606
:1000EC004C2102F086FC204610BD00002DE9F84F93
:1000FC0002F074FA294901F0F9FC294EDFF8B0B08E
:10010C00DFF8B0A06425264800F083FD10B1244828
:10011C0000F04AFEB6F92E10214800F026FB0146ED
:10012C00DBF8000003F066FAB6F93010CBF80000EB
:10013C001B4800F01AFB0146DAF8000003F05AFAEB
:10014C00184CCAF80000B6F93210154800F00DFB37
:10015C00216803F04FFA013DDFF85490DFF854802A
:10016C0007462060CFD1D9F800000F4903F0FEFB01
:10017C000D49C9F80000D8F8000003F0F7FB0A4954
:10018C00C8F80000384603F0F1FB206002F026FAB4
:10019C00BDE8F84F054901F0C2BC00BFB43C0A08E9
:1001AC00B0000020740100200000C842CD3C0A08B9
:1001BC006C0100207001002038B51E4C1E23A3706A
:1001CC006B231D4A63701D4B01251A601C4B4FF0AD
:1001DC007E52204625701A6000F043FD98B92946DE
:1001EC00072002F08EFB02F0F9F9164901F097FC9A
:1001FC0002F0F4F9144901F092FC02F0EFF9134902
:10020C0001F08DFCFEE702F0E9F9114901F087FCE1
:10021C002946204600F02AFE2946204600F0F2FE30
:10022C00FFF764FF02F0DAF9BDE83840094901F044
:10023C0076BC00BFB00000200000A040940000205D
:10024C0064010020D23C0A08F63C0A080B3D0A085F
:10025C00933D0A08A73D0A0870B5012196B0072006
:10026C0002F03EFB0021072002F04BFB344A002336
:10027C00012199540133502BFBD102F0AFF902F05C
:10028C0094F90028F9D02F4C00231A4619466068BF
:10029C0001F044FA0022114660682A4D01F056FA2A
:1002AC000028F7D002F09AF9274901F038FC274BC7
:1002BC0000221988264801F0DEFE00231946254A43
:1002CC00686801F07BFA02F089F9064600244022A6
:1002DC00002106A803F09BFC402306AA21460094AB
:1002EC00686801F073FA06A902A801F031FE0299C0
:1002FC00304601F014FC02A801F0E3FD02F06EF9A7
:10030C00224606462146686801F000FA811C06A8C0
:10031C0001F00CFB06A9304601F015FC02F05EF969
:10032C004FF4165102F03AF9FFF746FF0A490B4811
:10033C0000F0C4F914210A4800F048FF16B070BD53
:10034C007E010020BC060020BC3D0A0800000020F5
:10035C00D4010020C23D0A0815040A0888000020B8
:10036C00340100202DE9F341214F224E224D3168FA
:10037C00386803F03FF9296803F03CF9044602F0B1
:10038C002DF91E4901F0B2FB02F028F980462046F7
:10039C0002F0DEFD02230246009340460B46DFF8D6
:1003AC00648001F0E1FC02F019F9154901F09EFBA3
:1003BC0002F014F9D8F800100A2201F01CFCD8F84D
:1003CC00000003F0CBF980460146204603F0B8FB51
:1003DC0050B94146204603F0C7FB30B100233B60C7
:1003EC0033602B60002000E0012002B0BDE8F081FA
:1003FC0060010020D001002068010020D33D0A08D4
:10040C00E43D0A080400002030B597B001A800F0C4
:10041C00F1FE00211C4801F0CEFF041E2CDD02F081
:10042C00DDF81A4901F07BFB14F1FF3412D302F012
:10043C00D5F8174901F073FB134801F0EFFDC5B275
:10044C0002F0CCF8294601F074FB294601A800F013
:10045C000CFFE9E701A800F017FF48B10D4A0E495F
:10046C0001A800F08DFF0D4A0D4901A800F088FF8E
:10047C0002F0B4F801F047FBFFF774FF01A800F09D
:10048C00D7FE17B030BD00BFD4010020F33D0A08E1
:10049C00053E0A08E9040A08143E0A08EF040A0893
:1004AC001A3E0A0810B50B4C10B1FFF75BFF70B980
:1004BC000023237002F092F8074901F017FB02F0B9
:1004CC008DF821780A22BDE8104001F094BB01237D
:1004DC002370EFE7080000201F3E0A080120FFF7F9
:1004EC00E1BF0020FFF7DEBF38B5244800F091FBD8
:1004FC00224C10B1204600F057FCB4F92E101F48C6
:10050C0000F033F91E4B1F4D196803F071F803F01E
:10051C003FFB0028B8BF404203F020F9296803F0E4
:10052C0069F8B4F930102860144800F01EF9164B25
:10053C00164D196803F05CF803F02AFB0028B8BFCD
:10054C00404203F00BF9296803F054F8B4F9321067
:10055C0028600A4800F009F90D4B0E4C196803F09D
:10056C0047F803F015FB0028B8BF404203F0F6F83B
:10057C00216803F03FF8206038BD00BFB0000020B8
:10058C006C0100206001002070010020D0010020CF
:10059C00740100206801002008B5FFF7A5FFBDE835
:1005AC000840014800F07EB88800002037B500F004
:1005BC000FFF0021012001F085F81F4B00221A705B
:1005CC005A804FF6FF721D4D9A80022001F072F88E
:1005DC001B4C284601F09CF928461A4D22461A4914
:1005EC0002F002FA284601F085FE224617492846F9
:1005FC00174D02F0F9F902231A465021284600F053
:10060C00A7FD22461349284602F0EEF9124800F0E5
:10061C00A5F84FF47A71114800F02AF80D220E2338
:10062C008DE80C004FF496710C230B220C4800F053
:10063C00ABFD03B030BD00BF780100209800002056
:10064C0084000020D4010020B3000A08B5000A0879
:10065C0020020020D9100A08B000002088000020D9
:10066C003401002010B5044600F0AAFE206010BD35
:10067C0038B504460D46FFF7F5FF00236560A3600F
:10068C00204638BD10B5044600F09AFE2368C01A07
:10069C006368984204D32046FFF7E4FF012010BDA5
:1006AC00002010BD10B58368044633B1FFF7EAFF94
:1006BC0018B1A368BDE81040184710BD81607047A1
:1006CC0000F086BE30B50224017083700621F5233C
:1006DC00C47504244270C380012200230172017688
:1006EC0080F8204003210724027142748274C27482
:1006FC000275827542768276C276C27780F8214086
:10070C0043728372C372037343738373C37303742F
:10071C0001774377837780F82230044680F82310E2
:10072C0080F82720024680F8241080F8253080F8C5
:10073C00263000250139E563A564656502F10202E6
:10074C00A2F85E30A2F86430A2F86A3004F1040416
:10075C00F0D14FF0000380F8803030BD10B51E236F
:10076C006B220121FFF7AEFF10BD10B50446084601
:10077C0002F0F4FFA16F03F045F810BD10B504466C
:10078C00C08802F0E7FF4FF0605103F03BF8606760
:10079C0010BD10B50446C07D02F0DCFF4FF0605177
:1007AC0003F030F8A06710BD90F82030043B0C2B00
:1007BC0014D8DFE803F0071313130A1313130D13E4
:1007CC0013131000064B1B6807E0054B5B6804E035
:1007DC00034B9B6801E0024BDB68C367704700BFAB
:1007EC000C000020C388F52B07D0B3F5FA7F04D09A
:1007FC00B3F5FA6F1CBFF523C380C27D102A03D852
:10080C00084BD340DA0701D40223C37590F820209B
:10081C00102A03D8044BD340DB0702D4042380F8FE
:10082C0020307047140101001011010010B504466E
:10083C00012190F8730002F053F894F87300012131
:10084C0002F05FF894F87200012102F049F894F874
:10085C0072000A4C012102F054F8204601F0C2FA51
:10086C002046082101F010FB2046012101F0BFFABF
:10087C002046BDE81040002101F0BCBA0007002062
:10088C00F8B50C4617461E46094D2046002102F0CD
:10089C0038F807F03F01284601F00AFB314628469C
:1008AC0001F006FB2046BDE8F840012102F029B812
:1008BC0000070020F8B51E4690F8723002F03F0297
:1008CC008B429DF8187042F0800503D1012F88BF30
:1008DC0045F040058CB22046002102F012F8294662
:1008EC00094801F0E5FA3546AB1B9F4206DD0021B5
:1008FC00054801F0DDFA05F8010BF5E7204601216A
:10090C0001F0FFFF0120F8BD000700201FB50123F7
:10091C0000930DF10F03FFF7CDFF9DF80F0005B00D
:10092C005DF804FB08B502F005F8BDE8084000F0DE
:10093C00B5BF70B50E4615461C4601F0FBFF31469F
:10094C0000F0BEFF01F0F6FF036829469B6898474C
:10095C0001F0F0FF036821469A68904701F0EAFF26
:10096C00BDE8704000F0B4BF1346027810B4012A01
:10097C0005D10A4610BC90F87310FFF7DABF2AB9FC
:10098C000A4610BC90F87310FFF77ABF10BC704782
:10099C0010B50379044613B1037A5B01DBB2E2882C
:1009AC00B2F5FA7F05D0B2F5FA6F04D143F0180313
:1009BC0001E043F00803627A102102F003021A43AB
:1009CC002046FFF7D1FF002211212046FFF7CCFF74
:1009DC00A37A002BE37A14BF802200222BB1237B55
:1009EC0003F00F0343F040031A4312212046FFF794
:1009FC00BBFFE37C002BA37C0CBF0022202213B195
:100A0C0042F01002D2B2637C0BB142F00802237D9B
:100A1C000BB142F002021E212046FFF7A5FF637BBB
:100A2C00002BA37B0CBF0022202213B142F010023A
:100A3C00D2B2E37B0BB142F008022046BDE8104075
:100A4C001321FFF791BF10B5C37E0446002B837EA4
:100A5C000CBF0022202213B142F01002D2B2637EEE
:100A6C000BB142F008021F212046FFF77DFFA27D4B
:100A7C0012B1227E5201D2B2E37D082B06D0102B8C
:100A8C0007D0042B07D142F0100204E042F0180208
:100A9C0001E042F0080294F91C302021002BA2BF87
:100AAC0003F003031A4342F004022046FFF75CFFF5
:100ABC00627F2AB1A27F520102F0600242F08002F2
:100ACC002046BDE810402121FFF74EBF13460278A7
:100ADC0010B4012A05D10A4610BC90F87210FFF729
:100AEC0028BF2AB90A4610BC90F87210FFF7C8BE8E
:100AFC0010BC7047022970B506460C46154610D836
:100B0C0049000531D2B2C9B2FFF7E0FFE11C490040
:100B1C00C5F307223046BDE8704001F0FE01FFF737
:100B2C00D5BF70BD10B590F822300446002B90F85C
:100B3C00233008BF00224FEA431303F0600190F802
:100B4C00213018BF80229B0003F01C030B431A4377
:100B5C002021FFF7BBFF94F820302046083BDBB286
:100B6C00082B96BF124A0022D25C2121FFF7AEFF60
:100B7C0094F825302046002B94F826300CBF002228
:100B8C00202203F003031A432221FFF79FFF94F85E
:100B9C0024202046920002F00C022321FFF796FF3E
:100BAC002046BDE8104000222421FFF78FBF00BF74
:100BBC00953E0A0838B50C46154601F0BBFE214699
:100BCC0000F07EFE01F0B6FE036829469B6898474C
:100BDC0001F0B0FE002100F077FE01F0ABFE012227
:100BEC00214600F06AFE01F0A5FE03685B69984798
:100BFC00C0B238BD0A460178012903D190F87310B0
:100C0C00FFF7D8BF19B990F87310FFF77FBE00201B
:100C1C00704708B52721FFF7EDFF00F0010008BD74
:100C2C0038B50D4623210446FFF7E4FF1DB140F013
:100C3C000202D2B201E000F0FD022046BDE83840CD
:100C4C002321FFF791BE0A460178012903D190F8C0
:100C5C007210FFF7AFBF19B990F87210FFF756BEBC
:100C6C00704738B50446437880F87330837880F841
:100C7C007230FFF7B7FDFFF781FD2046FFF794FDBB
:100C8C002046FFF786FD2378012B03D12046FFF782
:100C9C0049FE03E013B92046FFF7C8FD0F2120469B
:100CAC00FFF7D1FF0F2105462046FFF7A3FF46F6BD
:100CBC003D0345EA002005B29D420AD12046FFF7CC
:100CCC0067FE2046FFF7BFFE2046FFF72BFF2846A6
:100CDC0038BD002038BD10B50C462721FFF7B3FFF7
:100CEC000121A14008402041C0B210BD2DE9F041C6
:100CFC0090460C461D469DF8186000F061FB0746B7
:100D0C0001F018FE214600F0DBFD01F013FE036834
:100D1C0048F080019B68984701F00CFE002100F020
:100D2C00D3FD01F007FE2146324600F0C6FD00243B
:100D3C0007F57A77B4421ADA01F0FCFD03681B69F7
:100D4C00984740B101F0F6FD036804F101085B69B6
:100D5C0098472855444600F033FBB842EAD92C4456
:100D6C00FF23621B964205DD04F8013BF9E70120E5
:100D7C00BDE8F0810020BDE8F08137B50D46017863
:100D8C00012907D190F87310009313462A46FFF7F8
:100D9C00ADFF07E031B990F87310009313462A4663
:100DAC00FFF788FD03B030BD37B506236A4628210E
:100DBC000446FFF7E2FF30B39DF800309DF80110B8
:100DCC009DF8032043EA01219DF802309DF805505F
:100DDC0043EA02229DF8043009B243EA052394F851
:100DEC00805012B21BB2E185228663865DB1B4F8E5
:100DFC006650491BE185B4F86810521A2286B4F883
:100E0C006A209B1A638603B030BD37B506236A4649
:100E1C0018210446FFF7B1FF30B39DF800309DF860
:100E2C0001109DF8032043EA01219DF802309DF842
:100E3C00055043EA02229DF8043009B243EA052327
:100E4C0094F8805012B21BB221856285A3855DB1E6
:100E5C00B4F86050491B2185B4F86210521A6285AF
:100E6C00B4F864209B1AA38503B030BD2DE9F04F74
:100E7C0004468BB000230191012104930593069342
:100E8C00079308930993FFF7CBFE3F222E212046B0
:100E9C00FFF76AFD2F212046FFF7ACFE00F03F065E
:100EAC001E2EF7D90027B74232DA2046FFF7ADFFE6
:100EBC00079AB4F92830204613440793089AB4F9DA
:100ECC002A30013713440893099AB4F92C3013448F
:100EDC000993FFF769FF049AB4F92E30A06F1344FD
:100EEC000493059AB4F93030B4F932501344059395
:100EFC0002F02EF802460B460020264902F0A6F915
:100F0C0002F02AFB00B22D1A069805440695CAE792
:100F1C00D4F874B0D4F878A004F15E0204F1380867
:100F2C0004F1640704F14409002507A951F82500D0
:100F3C0090FBF6F000B222F8020F0292039202F03C
:100F4C000DFC594602F05EFC04AB48F8040F53F854
:100F5C002500013590FBF6F000B227F8020F02F0E5
:100F6C00FDFB514602F04EFC032D49F8040F029A8A
:100F7C00DBD100212046FFF753FE00222E21204614
:100F8C00FFF7F2FC019B13B1012384F880300BB006
:100F9C00BDE8F08F0000F03F37B50D460178012910
:100FAC0007D190F87210009313462A46FFF79EFE65
:100FBC0007E031B990F87210009313462A46FFF7F8
:100FCC0079FC03B030BD13B506236A4628210446CC
:100FDC00FFF7E2FFA0B19DF801209DF8003043EA35
:100FEC000223A3869DF803209DF8023043EA0223D6
:100FFC00E3869DF805209DF8043043EA02232387FD
:10100C0002B010BD2DE9F04F05468A4687B000238B
:10101C00ADF80030ADF80230ADF80430ADF8083062
:10102C00ADF80A30ADF80C30802402AF032128460D
:10103C00FFF751FE0028F9D02846FFF7C4FFAB8E0E
:10104C00ADF81030EB8EADF812302B8FADF81430AC
:10105C00002304AA32F9132037F9131091423DF9F9
:10106C001310B8BF27F813209142C8BF2DF81320D6
:10107C000133032BEDD1013CD8D105F16A0905F1FF
:10108C0050084FF0020B3DF9143037F914601E4430
:10109C0096FBFBF636B229F8026F304602F05EFB87
:1010AC000146E86F02F0AEFB48F8040FBAF1000FEE
:1010BC0004D03246E1B22846FFF71CFD0134032C64
:1010CC00E1D107B0BDE8F08F00F082B910B504464D
:1010DC00C06808B100F08AFB23781BB10021E079CD
:1010EC0001F0FEFB204610BD38B50446C0680D4625
:1010FC0008B100F07BFBA379062B0CBF0420032066
:10110C00684380B2A08000F069FBE06028B1A2883F
:10111C00002102F07CFD658038BDA080608038BD68
:10112C0038B5037805460C461BB10021C07901F097
:10113C00D7FB2B78EC7153B1A4B22046012101F0FE
:10114C00CFFB2046BDE83840002101F0DABB38BDAA
:10115C0070B5044616460025837105700572C5608E
:10116C000561FFF7C1FF20463146FFF7D9FF204646
:10117C0070BD000008B500F02BF900F029F9014B07
:10118C00186008BD3402002038B504468361049B06
:10119C000025C361059B42610362056105608562A0
:1011AC00816090B2012101F09BFB208B012101F0A9
:1011BC0097FBA08B012101F093FB208C012101F006
:1011CC008FFB04236562E360204638BD8268034BC5
:1011DC0093FBF2F393FBF1F14160704700879303AB
:1011EC0000F0F6B80023036083624360C3640365B8
:1011FC007047000038B504460C4D0830294600F005
:10120C00A7FE294604F1180000F0A2FE294604F1BD
:10121C002C0000F09DFE294604F13C0000F098FEE5
:10122C002046FFF7DFFF204638BD00BF8A3F0A0883
:10123C0010B50446006800F0D9FAA06A00F0D6FA9E
:10124C00E06C00F0D3FA04F13C0000F03AFE04F13B
:10125C002C0000F036FE04F1180000F032FE04F110
:10126C00080000F02EFE204610BD38B50D46416832
:10127C0004460131006800F0C1FA206018B16368BF
:10128C005A1C6260C55438BD4FF0FF322DE9F04F47
:10129C00064614469146904683B000F1180B00AFF9
:1012AC00D6F804A0551CAA4561DD31684B5D2C2B8A
:1012BC0010D1E846D31D23F00703ADEB030D6846B0
:1012CC0002F09AFC694606F1080000F054FEC5468F
:1012DC00A8464AE0B8F1000F47DDBBB9B9F1000FE1
:1012EC0014DAE946C8EB0503063323F00703ADEB2C
:1012FC00030D08F101031944684602F07DFC6946B0
:10130C00584600F038FECD46A9462EE0B9F1000F44
:10131C002BDD002C28DAC8EB09000423441E90FBBB
:10132C00F3F0002806DB01F001FE0022134B01F064
:10133C00B1FC05E001F0FAFD0022104B01F0A8FC15
:10134C0002F00AF9C4EB800403344C44C4EB0A02E7
:10135C0010467A6000F042FA3168B06221447A6833
:10136C0002F04AFC544600E003D12A4698E70020DC
:10137C0000E001200C37BD46BDE8F08F0000E03FD7
:10138C0070B504460830154600F006FE20B1204624
:10139C002B46BDE87040184770BD00F019B800002E
:1013AC0008B5024B1B681B6B019308BDD0010608E6
:1013BC0008B5024B1B685B68019308BD9C010608CD
:1013CC0008B5024B1B685B69019308BD9C010608BC
:1013DC0008B5024B1B681B68019308BDB0010608D9
:1013EC0008B5024B1B689B68019308BDB001060849
:1013FC0008B5024B1B68DB68019308BDB0010608F9
:10140C0008B5024B1B681B69019308BDB0010608A7
:10141C0008B5024B1B68DB6C019308BDAC010608D8
:10142C0008B5024B1B685B6D019308BDAC01060847
:10143C0008B5024B1B689B6D019308BDAC010608F7
:10144C0008B5024B1B68DB6D019308BDAC010608A7
:10145C0008B5024B1B681B6E019308BDAC01060856
:10146C0008B5024B1B685B6E019308BDAC01060806
:10147C0008B5024B1B689B6E019308BDAC010608B6
:10148C0008B5024B1B68DB6E019308BDAC01060866
:10149C0008B5024B1B681B6F019308BDAC01060815
:1014AC0008B5024B1B685B6F019308BDAC010608C5
:1014BC0008B5034B1B68D3F88030019308BD0000BE
:1014CC00AC01060808B5024B1B685B68019308BDAC
:1014DC00BC01060808B5024B1B689B68019308BD4C
:1014EC00BC01060808B5024B1B685B69019308BD7B
:1014FC00BC01060808B5024B1B68DB69019308BDEB
:10150C00BC01060808B5024B1B681B6A019308BD99
:10151C00BC01060808B5024B1B681B6B019308BD88
:10152C00BC01060808B5024B1B681B68019308BD7B
:10153C00B401060808B5024B1B689B68019308BDF3
:10154C00B401060808B5024B1B68DB68019308BDA3
:10155C00B401060808B5024B1B681B69019308BD52
:10156C00B401060808B5024B1B685B69019308BD02
:10157C00B401060808B5024B1B68DB69019308BD72
:10158C00B401060808B5024B1B681B6A019308BD21
:10159C00B401060808B5024B1B685B6A019308BDD1
:1015AC00B401060808B5024B1B689B69019308BD82
:1015BC00C401060808B5024B1B685B6A019308BDA1
:1015CC00C401060808B5024B1B689B6A019308BD51
:1015DC00C401060808B5024B1B68DB6A019308BD01
:1015EC00C401060808B5024B1B681B6B019308BDB0
:1015FC00C401060808B5024B1B685B6B019308BD60
:10160C00C401060808B5024B1B689B6B019308BD0F
:10161C00C401060808B5024B1B681B6C019308BD7E
:10162C00C401060808B5024B1B681B68019308BD72
:10163C00D801060808B5024B1B685B68019308BD0E
:10164C00D801060808B5024B1B681B69019308BD3D
:10165C00D801060808B5024B1B685B69019308BDED
:10166C00D801060808B5024B1B689B69019308BD9D
:10167C00D801060808B5024B1B68DB69019308BD4D
:10168C00D801060808B5024B1B681B6A019308BDFC
:10169C00D801060808B5024B1B685B6A019308BDAC
:1016AC00D801060808B5024B1B689B6C019308BD5A
:1016BC00C001060808B5024B1B685B68019308BDA6
:1016CC00A401060808B5024B1B68DB6A019308BD30
:1016DC00A401060808B5034B1B68D3F8903001939E
:1016EC0008BD0000A401060808B5034B1B68D3F81D
:1016FC009C30019308BD0000A401060808B5024BFC
:10170C001B68DB6B019308BDCC01060808B5024BC6
:10171C001B681B68019308BDC801060808B5024B7D
:10172C001B685B68019308BDC801060808B5024B2D
:10173C001B689B68019308BDC801060808B5024BDD
:10174C001B68DB68019308BDC801060808B5024B8D
:10175C001B681B69019308BDC801060808B5024B3C
:10176C001B685B69019308BDC801060808B5024BEC
:10177C001B689B69019308BDC801060808B5024B9C
:10178C001B68DB69019308BDC801060808B5024B4C
:10179C001B681B6A019308BDC801060808B5024BFB
:1017AC001B681B6B019308BDC801060808B5024BEA
:1017BC001B685B6B019308BDC801060808B5024B9A
:1017CC001B689B6B019308BDC801060808B5024B4A
:1017DC001B68DB6B019308BDC801060808B5024BFA
:1017EC001B681B68019308BDA001060808B5024BD5
:1017FC001B685B68019308BDA001060808B5024B85
:10180C001B689B68019308BDA001060810B583688E
:10181C00044613B1032201469847204610BD704779
:10182C00F8B5064615460C468F18BC4206D03368F0
:10183C0014F8011B9B6830469847F6E72846F8BD1C
:10184C000022007CFFF704BE0021007CFFF708BEDD
:10185C000021007CFFF70CBE0021007CFFF710BEBE
:10186C000021007CFFF714BE10B50446142101F0D2
:10187C00C0F8204610BD000010B5044608464FF4D1
:10188C007A73A360044B0021207461602360FFF71E
:10189C000FFE204610BD00BFAC3E0A0800231A46BE
:1018AC001946007CFFF7B4BD13B50024007C0094EE
:1018BC00FFF7B6FDC0B202B010BD0123FFF7F4BFB5
:1018CC000022007CFFF7B4BD0022007CFFF7B8BDFE
:1018DC000121FFF7F9BF0021007CFFF7E1BDF8B54E
:1018EC000F4600F10806051D002416F8011D0A22FA
:1018FC00384600F05CF9AE42044407D0002CF4D01A
:10190C002E21384600F0F6F80444EEE72046F8BDE8
:10191C0010B50446044B112240F8043B002102F0A0
:10192C0076F9204610BD00BFD43E0A080346074A8C
:10193C0010B543F8042B01F1100251F8044B9142FD
:10194C0043F8044BF9D10A781A7010BDD43E0A083A
:10195C00024A41600260042202757047D43E0A08B4
:10196C0010B59DF8084044EA032343EA024242EAD8
:10197C00016104234160037510BD000037B5044DAF
:10198C0005609DF818500095FFF7EAFF03B030BDD5
:10199C00D43E0A0837B50D788B784A78C97800910F
:1019AC002946FFF7DDFF03B030BD0000014A024BB2
:1019BC001A607047563F0A083802002000231A4666
:1019CC004068FFF7ABBE002202214068FFF7B6BEAD
:1019DC00002211464068FFF7A9BE0022114640685C
:1019EC00FFF7B4BE00231A4619464068FFF7B6BE8F
:1019FC0000231A4619464068FFF7B8BE002281F052
:101A0C0001014068FFF7BABE00224068FFF7C6BE6E
:101A1C00002211464068FFF7C9BE002211464068FB
:101A2C00FFF7B4BE70B516468EB0044608A8FFF793
:101A3C006FFF1122002103A802F0E9F8304602F0F2
:101A4C0021F900250A4B009581B25B6803AA304648
:101A5C00FFF728FE20B129462046FFF779FF03E067
:101A6C0003A92046FFF762FF20460EB070BD00BFF1
:101A7C00BC060020034B044A04280CBF1046184631
:101A8C00704700BF3C020020BC060020024B034AFA
:101A9C001A6000225A6070473C020020CC3F0A08B2
:101AAC00F8B506460D468F180024BD420CD033689D
:101ABC0015F8011B9B6830469847002801DB04444D
:101ACC00F3E7002C08BF04462046F8BD70B5054668
:101ADC000C46084649B102F0D5F82B68024621465F
:101AEC002846BDE87040DB68184770BD08B5FFF7A5
:101AFC00EDFF08BD03689B6818470B460A68014652
:101B0C0012681846104738B50D210546FFF7F2FF4D
:101B1C000A2104462846FFF7EDFF204438BD38B5AE
:101B2C000546FFF7D3FF04462846FFF7ECFF204499
:101B3C0038BD38B50546FFF7DDFF04462846FFF7EC
:101B4C00E2FF204438BD38B50546FFF7D6FF044602
:101B5C002846FFF7D8FF204438BD012A98BF0A2237
:101B6C0030B50B468BB000218DF824100DF12304F9
:101B7C00B3FBF2F505FB1233DBB2092B94BF303308
:101B8C003733DBB2214604F801392B46002DEFD157
:101B9C00FFF79CFF0BB030BD10B422B90368C9B27B
:101BAC009B6810BC1847D2B210BCFFF7D6BFFFF72A
:101BBC00F3BF2DE9F04107460E4615462AB9BDE89C
:101BCC00F0410368C9B29B6818470A2A02D1002960
:101BDC0001DA04E0D2B2BDE8F041FFF7BEBF2D211F
:101BEC00FFF788FF2A46044671423846FFF7B5FFD7
:101BFC002044BDE8F08138B50546FFF7DAFF04460E
:101C0C002846FFF780FF204438BD00002DE9F8433B
:101C1C0019468046104617461E469DF8205001F086
:101C2C0085FC08B1474912E026F000444FF0FF3222
:101C3C00454B3846214601F079FC68B94FF0FF322C
:101C4C00414B3846214601F053FC28B93F494046E8
:101C5C00FFF73CFFBDE8F8834FF060423C4B384641
:101C6C00314601F059FC08B13A49F0E74FF06042B7
:101C7C00394B3846314601F031FC0028F4D10022B2
:101C8C0000233846314601F029FC38B12D2140465D
:101C9C00FFF730FF06F10046044600E004462F49EA
:101CAC004FF0000900205FFA89F39D4206D900220B
:101CBC002B4B01F0CBFA09F10109F4E73A46334614
:101CCC0000F0E8FF0F46064601F06EFC0A220146C2
:101CDC0081464046FFF741FF04447DB3484601F07E
:101CEC0015F902460B463046394600F0D1FF064640
:101CFC000F4640461B49FFF7E9FE0444184B0022EF
:101D0C003046394601F078F90F46064601F024FCBE
:101D1C000A22014681464046FFF74BFF04444846E1
:101D2C0001F004F902460B463046394600F0B0FF8C
:101D3C00013D15F0FF0506460F46DFD12046BDE8F4
:101D4C00F88300BFF83F0A08FFFFEF7F00400A0846
:101D5C00FFFFEF41FC3F0A08FFFFEFC10000E03F2F
:101D6C0000002440F43C0A0837B59DF818100546CD
:101D7C000091FFF74BFF04462846FFF7C4FE2044B2
:101D8C0003B030BD10B50446FFF740FD204610BD32
:101D9C00034800238360034A034900F025BE00BFBB
:101DAC004402002084000020911D0A08704710B5E1
:101DBC000446102100F01DFE204610BD70B50446EF
:101DCC000E46074B0025036040F80C5FFFF7E8FA5E
:101DDC0030462671FFF7CEFBA560204670BD00BFD4
:101DEC000C400A084FF6FF710079FFF79BBB007996
:101DFC00FFF7A0BB0079FFF7A5BB0000054A002345
:101E0C00995C814202D00133082BF9D1581CC0B225
:101E1C00704700BF14400A08400830B51860002411
:101E2C001868E5B2884206D90134082C02D0400863
:101E3C001860F5E70725024B5B5D137030BD00BFE2
:101E4C0014400A0870B5044602FB01F588B0067907
:101E5C001422002103A801F0DAFE0B2303A930465B
:101E6C000022ADF80C30FFF795FB02AB0DF1070229
:101E7C0029460498FFF7D0FF20799DF80710FFF74B
:101E8C0069FB029808B070BD38B50446A5680846D1
:101E9C004DB1FFF7B3FF012225FA00F12046BDE852
:101EAC003840FFF7CFBF2079BDE83840FFF752BB71
:101EBC0008B50079FFF756FBC0B208BD0079FFF7F3
:101ECC0061BB10B504460068FFF790FC204610BDBE
:101EDC0010B50446006808B1FFF788FC00232360A6
:101EEC00A360636010BD38B504460D46006801312F
:101EFC00FFF784FC10B184E82100012038BD10B537
:101F0C000368044613B143688B4207D22046FFF79F
:101F1C00EAFF20B1A3680BB922681370012010BD31
:101F2C0070B50E46114604461546FFF7E8FF18B982
:101F3C002046FFF7CDFF09E02A463146A560206810
:101F4C0001F05AFE2268A3680021D154204670BDCE
:101F5C0038B50023044603604360836003730D4669
:101F6C0039B1084601F08EFE294602462046FFF79D
:101F7C00D7FF204638BD38B505460C4641B108465A
:101F8C0001F080FE214602462846FFF7C9FF01E01A
:101F9C00FFF79EFF284638BD08B582680B4612B97C
:101FAC0019B9012008BD11B90368187802E000685E
:101FBC0001F05EFEB0FA80F0400908BD4FF6FF72EA
:101FCC00034B0020187058809A80FFF773BB00BF3A
:101FDC0054020020024B1A68024B1A60704700BF73
:101FEC001C0000205C02002010B40468246BA44682
:101FFC0010BC604703689B6C1847808E7047028F3B
:10200C00C08E101A704713B502AB026803F8011D9D
:10201C00D46819460122A04702B010BD10B5036860
:10202C0004461B69984728B1E38EE26B591CE18684
:10203C00D05C10BD4FF0FF3010BD10B503680446E6
:10204C001B69984718B1E38EE26BD05C10BD4FF062
:10205C00FF3010BD70470346084610B4D98EDC6BB8
:10206C001A8F0368521ADB68214410BC1847A0F180
:10207C001000FFF7F0BFF7B5054610460F461646A1
:10208C00FFF7F8FC0368DB689847B8B102213B46C0
:10209C00112208460096FFF71DFA6861FFF712FA45
:1020AC00044630B10023EB862B872F836E6401200E
:1020BC0004E02B6828465B6A9847204603B0F0BDC5
:1020CC0038B504464569FFF725FA854202D06069A8
:1020DC00FFF718FAFFF71EFA00236061E3862387E7
:1020EC0038BD30B587B0BDF828400225ADF8085092
:1020FC008DF80B40250ADC798DF80A508DF80C40D0
:10210C009C798DF80D405C791B798DF80E408DF81B
:10211C000F301023019302AB009340690023FFF7AB
:10212C00E9F907B030BD38B5C36B0546C08E13B1A5
:10213C002C6C241A00E01C46944228BF1446184408
:10214C00224601F059FDEB8E20462344EB8638BD28
:10215C0070B5036804461B690E461546984788B14E
:10216C00236820461B6998478542A8BF0546E38E25
:10217C00E16B2A461944304601F03EFDE38E2B44B8
:10218C00E38601E04FF0FF35284670BDF0B50446FC
:10219C0089B0406C0D461646FFF76CFC0368DB6893
:1021AC00984710B36769FFF7B5F987421DD0E5B1C1
:1021BC0008AB102243F8142D01930DEB020300938E
:1021CC002946002332466069FFF78CF9051E0EDBA9
:1021DC009DF812209DF8133005A943EA0223A3862B
:1021EC0004F11C00FFF7D6FB01E04FF0FF35284649
:1021FC0009B0F0BD2DE9F041064694B0406C0D4697
:10220C009046FFF737FC0368DB689847F8B128461F
:10221C0001F038FD002481B20094736C03AA2846A7
:10222C00FFF740FA90B903A908A8FFF77FFB3368C2
:10223C000FAC9F6B074B09AD0E930FCD0FC42B68E2
:10224C00424623700EA93046B84700E0204614B031
:10225C00BDE8F081D43E0A0870B504460646054B2D
:10226C0001F1200544F8043B0FCD0FC42B68304618
:10227C00237070BDD43E0A08F0B594468E460646CF
:10228C00026889B0976A094A03AC1D1D02920FCDF2
:10229C000FC42B6862462370BDF83830714600932A
:1022AC00304602ABB84709B0F0BD00BFD43E0A08B7
:1022BC00F0B50446036889B09F6A0D4B03AD00F17D
:1022CC002006B0F836E002930FCE0FC53368724685
:1022DC002B70A38EE16B0093204602ABB8470546EA
:1022EC0023682046DB699847284609B0F0BD00BF3B
:1022FC00D43E0A0838B54FF47A7383600B4B002533
:10230C0003F108026C330260036145600446FFF779
:10231C0001F9606104F11C00FFF7FAFA4FF4007345
:10232C00E5862587E5632364204638BD48400A08C6
:10233C0010B590F84830044623B1C06B10B10121A0
:10234C0000F057FB0023E36384F848302364E386F2
:10235C00238710BD70B5044616460D46FFF7E8FFFF
:10236C000023E66323643EB935B12846FDF78FFEA2
:10237C000123E06384F84830E36B03B12564206CDF
:10238C00003018BF012070BDF8B51746C26B05466A
:10239C000C461AB9016C09B1FFF7DCFF05F12006F8
:1023AC0004340FCC0FC6236833700023AF86EB8642
:1023BC002B87286CF8BD70B5C26B04461AB9016C3A
:1023CC0009B1FFF7C7FFE16B0023E386238741B117
:1023DC00226C32B12068056B2046A8470028C8BF84
:1023EC00208723682046BDE870401B69184770475A
:1023FC004174704708B5007CFFF70CF920EAE070D7
:10240C0008BD08B5007CFFF7DDF820EAE07008BDD8
:10241C0008B5007CFFF7E6F830EA200028BF4FF043
:10242C00FF3008BD08B5007CFFF7D4F830EA200077
:10243C0028BF4FF0FF3008BD007CFFF7DBB810B5AC
:10244C000446142100F0D5FA204610BD70B5457C29
:10245C0004460E4625B9007CFFF7DCF8002805DDA4
:10246C003146207CBDE87040FFF7A4B8284670BD0B
:10247C0010B5044608461146002262604FF47A7289
:10248C00A260054A20742260012262741A46FFF78A
:10249C0089F8204610BD00BFC0400A08007CFFF739
:1024AC00B1B8000038B50C4D296811F0010411D1F8
:1024BC002846FDF7F0FD68B1084A2146084B09484B
:1024CC00FFF7D6FF2846FDF7EBFD074A07490548FD
:1024DC0000F08AFA034838BDF8020020FC02002004
:1024EC00740200206002002084000020FB230A08F4
:1024FC0041747047704708B50021007CFFF7B2F8B3
:10250C0030EA200028BF4FF0FF3008BD08B501218C
:10251C00007CFFF7A7F830EA200028BF4FF0FF300F
:10252C0008BD08B5007CFFF795F820EAE07008BDFF
:10253C0008B5007CFFF786F820EAE07008BD007C47
:10254C00FFF7A0B810B50446142100F052FA20464B
:10255C0010BD38B50446007C0D46FFF77BF800280B
:10256C0001DC607C28B12946207CFFF783F820EA47
:10257C00E07038BD10B50446002363604FF47A73E5
:10258C00A360054B08462360012321746374114634
:10259C00FFF748F8204610BDF0400A080022007CE6
:1025AC00FFF748B8007CFFF775B8FFF7FBBF0000DA
:1025BC0010B504461422002101F029FB054B2046DE
:1025CC006360054BE36040F2011323818123238276
:1025DC0010BD00BF050400208403002030B50E4D53
:1025EC0087B001A8FFF7E4FF296811F0010410D1AE
:1025FC002846FDF750FD60B101AA21460748FFF7B8
:10260C00B9FF2846FDF74CFD054A0649034800F082
:10261C00EBF9024807B030BD80030020080500200C
:10262C008400002001250A0810B50446142200215C
:10263C0001F0EDFA054B20466360054BE36040F278
:10264C00011323818123238210BD00BFB805002014
:10265C002005002010B50E4C86B001A8FFF7E4FF52
:10266C002368DB0710D42046FDF715FD60B101AAE5
:10267C0001210848FFF77EFF2046FDF711FD064AB1
:10268C000649044800F0B0F9024806B010BD00BF7E
:10269C001C050020A40500208400002001250A0848
:1026AC00002211464068FFF751B8F0B5164689B0C4
:1026BC0011220F460446002103A801F0A8FA304667
:1026CC0001F0E0FA0025009581B27B6803AA304640
:1026DC00FEF7E8FF20B129462046FFF739F903E061
:1026EC0003A92046FFF722F9204609B0F0BD0022CD
:1026FC0011464068FFF74AB8002211464068FFF7C0
:10270C0055B800224068FFF749B8002281F001015A
:10271C004068FFF733B800231A4619464068FFF7A4
:10272C0025B800231A4619464068FFF717B800224F
:10273C0011464068FEF7FABF002202214068FEF7FE
:10274C00FDBF00231A464068FEF7E8BF024B042287
:10275C005A60024A1A607047BC06002020410A08E1
:10276C0008B5144B33B1FFF739FF03681B69984761
:10277C00002816DC104B33B1FFF794FE03681B697D
:10278C009847002810DC0D4B0BB1AFF300800C4BBD
:10279C007BB1FFF75FFF03681B699847002806DCD5
:1027AC0008BDAFF30080E5E7AFF30080EBE7AFF3D4
:1027BC00008008BD000000000000000000000000C8
:1027CC000000000008B5FFF7CBFFFEF7F9FD014B49
:1027DC00186008BDCC0600200248034A0349121AAF
:1027EC0001F00ABA004002400440024000420A08CC
:1027FC0007B5002300931A466FF07701FEF774FFBC
:10280C0003B05DF804FB000007B543880A2B08D021
:10281C00502B09D1094B1B683BB103B05DF804EB9D
:10282C001847FFF7E5FF06E0002300931A466FF008
:10283C007701FEF759FF03B05DF804FBC4060020D6
:10284C0038B5104C104D2368AB42104B0CBF012215
:10285C0000221A7002D0FFF7BFFF2560FEF7A8FD1B
:10286C00044601F0DDF90A4B13B12046AFF30080AA
:10287C0000210748FEF742FFBDE83840002105481B
:10288C00FEF728BF004002401E1C279AC8060020F5
:10289C000000000015280A0810B504460F48FFF781
:1028AC000DFB28B1A4F10D03022B01D8002010BDA3
:1028BC0000F040F8FFF70FF808B1012CF6D9FFF73C
:1028CC00F1FDFFF7EBFD18B1A4F11203012BEDD9CB
:1028DC00172C8CBF0020012010BD00BF000700206A
:1028EC00172838B504460D460AD8FF2908D0FFF73B
:1028FC00D3FF28B129462046BDE83840FEF770BD0D
:10290C0038BD38B504460D46FEF772FDFF2810D0D1
:10291C00062804D84D2323FA00F0C30709D4204617
:10292C00FFF7BAFF28B129462046BDE83840FEF72C
:10293C0067BD38BD38B50B4D296811F001040FD1B6
:10294C002846FDF7A8FB58B121460748FEF794FF2F
:10295C002846FDF7A5FB054A0549034800F044F855
:10296C00014838BDD0060020D40600208400002089
:10297C002B180A0813B5084C00231A461946009365
:10298C002046FEF7FBFF2046044A054902B0BDE88D
:10299C00104000F029B800BFE80600208400002099
:1029AC00B3000A0870B50C4C0C4E0D4D002120469E
:1029BC00FFF704FA20460B4C3246294600F014F877
:1029CC0001212046FFF7FAF9324629462046BDE898
:1029DC00704000F009B800BF000700208400002000
:1029EC00B91D0A08100700200B460146184601F0D5
:1029FC00F5B8FDF74EBB0000244B1A68D0075CBF3E
:102A0C0001221A60224B1A68D1075CBF01221A609E
:102A1C00204B1A68D2075CBF01221A601E4B1A6841
:102A2C00D0075CBF01221A601C4B1A68D1075CBF2F
:102A3C0001221A601A4B1A68D2075CBF01221A6075
:102A4C00184B1A68D0075CBF01221A60164B1A6823
:102A5C00D1075CBF01221A60144B1A68D2075CBF05
:102A6C0001221A60124B1A68D0075CBF01221A604F
:102A7C00104B1A68D1075CBF01221A600E4B1A6802
:102A8C00D2075CBF01221A60704700BF4C070020C0
:102A9C004807002044070020400700203C07002086
:102AAC003807002034070020300700202C070020B6
:102ABC00280700202407002020070020184B1A6844
:102ACC00D1075CBF01221A60164B1A68D2075CBF93
:102ADC0001221A60144B1A68D0075CBF01221A60DD
:102AEC00124B1A68D1075CBF01221A60104B1A688E
:102AFC00D2075CBF01221A600E4B1A68D0075CBF6C
:102B0C0001221A600C4B1A68D1075CBF01221A60B3
:102B1C000A4B1A68D2075CBF01221A60704700BFCB
:102B2C006C07002068070020640700206007002065
:102B3C005C07002058070020540700205007002095
:102B4C00184B1A68D1075CBF01221A60164B1A6821
:102B5C00D2075CBF01221A60144B1A68D0075CBF05
:102B6C0001221A60124B1A68D1075CBF01221A604D
:102B7C00104B1A68D2075CBF01221A600E4B1A6800
:102B8C00D0075CBF01221A600C4B1A68D1075CBFDE
:102B9C0001221A600A4B1A68D2075CBF01221A6024
:102BAC00704700BF8C070020880700208407002096
:102BBC00800700207C070020780700207407002085
:102BCC0070070020244B1A68D0075CBF01221A60E2
:102BDC00224B1A68D1075CBF01221A60204B1A687D
:102BEC00D2075CBF01221A601E4B1A68D0075CBF6B
:102BFC0001221A601C4B1A68D1075CBF01221A60B3
:102C0C001A4B1A68D2075CBF01221A60184B1A685B
:102C1C00D0075CBF01221A60164B1A68D1075CBF43
:102C2C0001221A60144B1A68D2075CBF01221A6089
:102C3C00124B1A68D0075CBF01221A60104B1A683D
:102C4C00D1075CBF01221A600E4B1A68D2075CBF19
:102C5C0001221A60704700BFBC070020B807002093
:102C6C00B4070020B0070020AC070020A807002004
:102C7C00A4070020A00700209C0700209807002034
:102C8C00940700209007002081F0004102E000BF73
:102C9C0083F0004330B54FEA41044FEA430594EA10
:102CAC00050F08BF90EA020F1FBF54EA000C55EA4B
:102CBC00020C7FEA645C7FEA655C00F0E2804FEA1C
:102CCC005454D4EB5555B8BF6D420CDD2C4480EAFE
:102CDC00020281EA030382EA000083EA010180EA2E
:102CEC00020281EA0303362D88BF30BD11F0004F7C
:102CFC004FEA01314FF4801C4CEA113102D04042B2
:102D0C0061EB410113F0004F4FEA03334CEA1333EC
:102D1C0002D0524263EB430394EA050F00F0A78004
:102D2C00A4F10104D5F1200E0DDB02FA0EFC22FAFF
:102D3C0005F2801841F1000103FA0EF2801843FAF3
:102D4C0005F359410EE0A5F120050EF1200E012AE4
:102D5C0003FA0EFC28BF4CF0020C43FA05F3C01822
:102D6C0051EBE37101F0004507D54FF0000EDCF19B
:102D7C00000C7EEB00006EEB0101B1F5801F1BD344
:102D8C00B1F5001F0CD349085FEA30004FEA3C0C48
:102D9C0004F101044FEA445212F5800F80F09A803E
:102DAC00BCF1004F08BF5FEA500C50F1000041EB42
:102DBC00045141EA050130BD5FEA4C0C404141EB46
:102DCC00010111F4801FA4F10104E9D191F0000F6D
:102DDC0004BF01460020B1FA81F308BF2033A3F1F0
:102DEC000B03B3F120020CDA0C3208DD02F1140CE7
:102DFC00C2F10C0201FA0CF021FA02F10CE002F122
:102E0C001402D8BFC2F1200C01FA02F120FA0CFC1A
:102E1C00DCBF41EA0C019040E41AA2BF01EB045163
:102E2C00294330BD6FEA04041F3C1CDA0C340EDC61
:102E3C0004F11404C4F1200220FA04F001FA02F3A4
:102E4C0040EA030021FA04F345EA030130BDC4F162
:102E5C000C04C4F1200220FA02F001FA04F340EA57
:102E6C000300294630BD21FA04F0294630BD94F008
:102E7C00000F83F4801306BF81F480110134013DEF
:102E8C004EE77FEA645C18BF7FEA655C29D094EA60
:102E9C00050F08BF90EA020F05D054EA000C04BFDE
:102EAC001946104630BD91EA030F1EBF00210020C9
:102EBC0030BD5FEA545C05D14000494128BF41F068
:102ECC00004130BD14F580043CBF01F5801130BDCC
:102EDC0001F0004545F0FE4141F470014FF0000057
:102EEC0030BD7FEA645C1ABF194610467FEA655C08
:102EFC001CBF0B46024650EA013406BF52EA0335AA
:102F0C0091EA030F41F4002130BD00BF90F0000F97
:102F1C0004BF0021704730B54FF4806404F13204D3
:102F2C004FF000054FF0000150E700BF90F0000F8C
:102F3C0004BF0021704730B54FF4806404F13204B3
:102F4C0010F0004548BF40424FF000013EE700BF83
:102F5C0042004FEAE2014FEA31014FEA02701FBF13
:102F6C0012F07F4393F07F4F81F06051704792F0E5
:102F7C00000F14BF93F07F4F704730B54FF460745F
:102F8C0001F0004521F0004120E700BF50EA0102AA
:102F9C0008BF704730B54FF000050AE050EA010257
:102FAC0008BF704730B511F0004502D5404261EBC7
:102FBC0041014FF4806404F132045FEA915C3FF408
:102FCC00DCAE4FF003025FEADC0C18BF03325FEAA1
:102FDC00DC0C18BF033202EBDC02C2F1200300FA56
:102FEC0003FC20FA02F001FA03FE40EA0E0021FA7B
:102FFC0002F11444C1E600BF70B54FF0FF0C4CF465
:10300C00E06C1CEA11541DBF1CEA135594EA0C0F1A
:10301C0095EA0C0F00F0DEF82C4481EA030621EA55
:10302C004C5123EA4C5350EA013518BF52EA033590
:10303C0041F4801143F4801338D0A0FB02CE4FF042
:10304C000005E1FB02E506F00042E0FB03E54FF072
:10305C000006E1FB03569CF0000F18BF4EF0010E6A
:10306C00A4F1FF04B6F5007F64F5407404D25FEA66
:10307C004E0E6D4146EB060642EAC62141EA555119
:10308C004FEAC52040EA5E504FEACE2EB4F1FD0C5B
:10309C0088BFBCF5E06F1ED8BEF1004F08BF5FEAD9
:1030AC00500E50F1000041EB045170BD06F000468B
:1030BC0046EA010140EA020081EA0301B4EB5C0438
:1030CC00C2BFD4EB0C0541EA045170BD41F4801130
:1030DC004FF0000E013C00F3AB8014F1360FDEBF55
:1030EC00002001F0004170BDC4F10004203C35DA31
:1030FC000C341BDC04F11404C4F1200500FA05F3B4
:10310C0020FA04F001FA05F240EA020001F0004254
:10311C0021F0004110EBD37021FA04F642EB0601CA
:10312C005EEA430E08BF20EAD37070BDC4F10C04F4
:10313C00C4F1200500FA04F320FA05F001FA04F2B8
:10314C0040EA020001F0004110EBD37041F10001A4
:10315C005EEA430E08BF20EAD37070BDC4F12005AF
:10316C0000FA05F24EEA020E20FA04F301FA05F217
:10317C0043EA020321FA04F001F0004121FA04F2BF
:10318C0020EA020000EBD3705EEA430E08BF20EA8F
:10319C00D37070BD94F0000F0FD101F000464000C9
:1031AC0041EB010111F4801F08BF013CF7D041EA4B
:1031BC00060195F0000F18BF704703F0004652004F
:1031CC0043EB030313F4801F08BF013DF7D043EA20
:1031DC000603704794EA0C0F0CEA135518BF95EAD6
:1031EC000C0F0CD050EA410618BF52EA4306D1D15D
:1031FC0081EA030101F000414FF0000070BD50EA7C
:10320C00410606BF1046194652EA430619D094EA05
:10321C000C0F02D150EA013613D195EA0C0F05D1EF
:10322C0052EA03361CBF104619460AD181EA030143
:10323C0001F0004141F0FE4141F470014FF00000FB
:10324C0070BD41F0FE4141F4780170BD70B54FF096
:10325C00FF0C4CF4E06C1CEA11541DBF1CEA135516
:10326C0094EA0C0F95EA0C0F00F0A7F8A4EB0504F8
:10327C0081EA030E52EA03354FEA013100F08880EF
:10328C004FEA03334FF0805545EA131343EA1263B8
:10329C004FEA022245EA111545EA10654FEA00266D
:1032AC000EF000419D4208BF964244F1FD0404F526
:1032BC00407402D25B084FEA3202B61A65EB030582
:1032CC005B084FEA32024FF480104FF4002CB6EB3F
:1032DC00020E75EB030E22BFB61A754640EA0C00BF
:1032EC005B084FEA3202B6EB020E75EB030E22BFFF
:1032FC00B61A754640EA5C005B084FEA3202B6EB40
:10330C00020E75EB030E22BFB61A754640EA9C00FE
:10331C005B084FEA3202B6EB020E75EB030E22BFCE
:10332C00B61A754640EADC0055EA060E18D04FEA8C
:10333C00051545EA16754FEA06164FEAC30343EA2C
:10334C0052734FEAC2025FEA1C1CC0D111F4801FF9
:10335C000BD141EA00014FF000004FF0004CB6E7F2
:10336C0011F4801F04BF01430020B4F1FD0C88BF91
:10337C00BCF5E06F3FF6AFAEB5EB030C04BFB6EB9C
:10338C00020C5FEA500C50F1000041EB045170BD8F
:10339C000EF0004E4EEA113114EB5C04C2BFD4EBBC
:1033AC000C0541EA045170BD41F480114FF0000E40
:1033BC00013C90E645EA060E8DE60CEA135594EABC
:1033CC000C0F08BF95EA0C0F3FF43BAF94EA0C0FBF
:1033DC000AD150EA01347FF434AF95EA0C0F7FF434
:1033EC0025AF104619462CE795EA0C0F06D152EA88
:1033FC0003353FF4FDAE1046194622E750EA41066C
:10340C0018BF52EA43067FF4C5AE50EA41047FF47C
:10341C000DAF52EA43057FF4EBAE12E74FF0FF3CE1
:10342C0006E000BF4FF0010C02E000BF4FF0010CB2
:10343C004DF804CD4FEA410C7FEA6C5C4FEA430C2B
:10344C0018BF7FEA6C5C1BD001B050EA410C0CBF7A
:10345C0052EA430C91EA030F02BF90EA020F0020DC
:10346C00704710F1000F91EA030F58BF994208BF43
:10347C0090422CBFD8176FEAE37040F00100704700
:10348C004FEA410C7FEA6C5C02D150EA013C07D157
:10349C004FEA430C7FEA6C5CD6D152EA033CD3D0A2
:1034AC005DF8040B704700BF8446104662468C469C
:1034BC001946634600E000BF01B5FFF7B7FF0028CF
:1034CC0048BF10F1000F01BD4DF808EDFFF7F4FFF8
:1034DC000CBF012000205DF808FB00BF4DF808ED83
:1034EC00FFF7EAFF34BF012000205DF808FB00BFA6
:1034FC004DF808EDFFF7E0FF94BF012000205DF8C8
:10350C0008FB00BF4DF808EDFFF7CEFF94BF01207C
:10351C0000205DF808FB00BF4DF808EDFFF7C4FF75
:10352C0034BF012000205DF808FB00BF4FEA410CBE
:10353C007FEA6C5C02D150EA013C0AD14FEA430CA1
:10354C007FEA6C5C02D152EA033C02D14FF00000DE
:10355C0070474FF0010070474FEA410212F500121C
:10356C0015D211D56FF47873B3EB625212D94FEABE
:10357C00C12343F0004343EA505311F0004F23FAA8
:10358C0002F018BF404270474FF00000704750EAFD
:10359C00013005D111F0004008BF6FF000407047BA
:1035AC004FF00000704700BF4A0011D212F5001214
:1035BC0011D20DD56FF47873B3EB62520ED44FEA7F
:1035CC00C12343F0004343EA505323FA02F07047FF
:1035DC004FF00000704750EA013002D14FF0FF303D
:1035EC0070474FF00000704780F0004002E000BFD1
:1035FC0081F0004142001FBF5FEA410392EA030FD2
:10360C007FEA226C7FEA236C6AD04FEA1262D2EB1B
:10361C001363C1BFD218414048404140B8BF5B4220
:10362C00192B88BF704710F0004F40F4000020F0B9
:10363C007F4018BF404211F0004F41F4000121F0CF
:10364C007F4118BF494292EA030F3FD0A2F1010219
:10365C0041FA03FC10EB0C00C3F1200301FA03F157
:10366C0000F0004302D5494260EB4000B0F5000F7A
:10367C0013D3B0F1807F06D340084FEA310102F139
:10368C000102FE2A51D2B1F1004F40EBC25008BFEB
:10369C0020F0010040EA03007047490040EB0000B5
:1036AC0010F4000FA2F10102EDD1B0FA80FCACF1E4
:1036BC00080CB2EB0C0200FA0CF0AABF00EBC250E3
:1036CC0052421843BCBFD0401843704792F0000FD1
:1036DC0081F4000106BF80F400000132013BB5E724
:1036EC004FEA41037FEA226C18BF7FEA236C21D09A
:1036FC0092EA030F04D092F0000F08BF08467047FF
:10370C0090EA010F1CBF0020704712F07F4F04D1CC
:10371C00400028BF40F00040704712F100723CBFDF
:10372C0000F50000704700F0004343F0FE4040F409
:10373C00000070477FEA226216BF08467FEA2363C7
:10374C000146420206BF5FEA412390EA010F40F4B2
:10375C00800070474FF0000304E000BF10F00043FE
:10376C0048BF40425FEA000C08BF704743F09643E5
:10377C0001464FF000001CE050EA010208BF704700
:10378C004FF000030AE000BF50EA010208BF704787
:10379C0011F0004302D5404261EB41015FEA010C9C
:1037AC0002BF84460146002043F0B64308BFA3F194
:1037BC008053A3F50003BCFA8CF2083AA3EBC25376
:1037CC0010DB01FA02FC634400FA02FCC2F1200295
:1037DC00BCF1004F20FA02F243EB020008BF20F0CC
:1037EC000100704702F1200201FA02FCC2F1200232
:1037FC0050EA4C0021FA02F243EB020008BF20EA27
:10380C00DC7070474FF0FF0C1CEAD0521EBF1CEA54
:10381C00D15392EA0C0F93EA0C0F6FD01A4480EA42
:10382C00010C400218BF5FEA41211ED04FF000632B
:10383C0043EA501043EA5111A0FB01310CF0004057
:10384C00B1F5000F3EBF490041EAD3715B0040EA7D
:10385C00010062F17F02FD2A1DD8B3F1004F40EB4D
:10386C00C25008BF20F00100704790F0000F0CF020
:10387C00004C08BF49024CEA502040EA51207F3AE4
:10388C00C2BFD2F1FF0340EAC250704740F40000BF
:10389C004FF00003013A5DDC12F1190FDCBF00F0B0
:1038AC0000407047C2F10002410021FA02F1C2F15E
:1038BC00200200FA02FC5FEA310040F1000053EAFA
:1038CC004C0308BF20EADC70704792F0000F00F048
:1038DC00004C02BF400010F4000F013AF9D040EA4E
:1038EC000C0093F0000F01F0004C02BF490011F4E2
:1038FC00000F013BF9D041EA0C018FE70CEAD153E0
:10390C0092EA0C0F18BF93EA0C0F0AD030F0004C5F
:10391C0018BF31F0004CD8D180EA010000F0004013
:10392C00704790F0000F17BF90F0004F084691F0D1
:10393C00000F91F0004F14D092EA0C0F01D142020B
:10394C000FD193EA0C0F03D14B0218BF084608D1D4
:10395C0080EA010000F0004040F0FE4040F400001E
:10396C00704740F0FE4040F4400070474FF0FF0CB1
:10397C001CEAD0521EBF1CEAD15392EA0C0F93EAF8
:10398C000C0F69D0A2EB030280EA010C49024FEA4A
:10399C00402037D04FF0805343EA111143EA101303
:1039AC000CF000408B4238BF5B0042F17D024FF4BB
:1039BC00000C8B4224BF5B1A40EA0C00B3EB510F96
:1039CC0024BFA3EB510340EA5C00B3EB910F24BF7F
:1039DC00A3EB910340EA9C00B3EBD10F24BFA3EB04
:1039EC00D10340EADC001B0118BF5FEA1C1CE0D1CC
:1039FC00FD2A3FF650AF8B4240EBC25008BF20F07F
:103A0C00010070470CF0004C4CEA50207F32C2BFD2
:103A1C00D2F1FF0340EAC250704740F400004FF06F
:103A2C000003013A37E792F0000F00F0004C02BFA0
:103A3C00400010F4000F013AF9D040EA0C0093F06A
:103A4C00000F01F0004C02BF490011F4000F013BC4
:103A5C00F9D041EA0C0195E70CEAD15392EA0C0F2C
:103A6C0008D142027FF47DAF93EA0C0F7FF470AF64
:103A7C00084676E793EA0C0F04D14B023FF44CAFA7
:103A8C0008466EE730F0004C18BF31F0004CCAD13C
:103A9C0030F000427FF45CAF31F000437FF43CAF78
:103AAC005FE700BF4FF0FF3C06E000BF4FF0010C9A
:103ABC0002E000BF4FF0010C4DF804CD4FEA40027C
:103ACC004FEA41037FEA226C18BF7FEA236C11D0C6
:103ADC0001B052EA530C18BF90EA010F58BFB2EB79
:103AEC00030088BFC81738BF6FEAE17018BF40F0F9
:103AFC00010070477FEA226C02D15FEA402C05D1AD
:103B0C007FEA236CE4D15FEA412CE1D05DF8040B31
:103B1C00704700BF844608466146FFE70FB5FFF7C4
:103B2C00C9FF002848BF10F1000F0FBD4DF808ED7C
:103B3C00FFF7F4FF0CBF012000205DF808FB00BF6D
:103B4C004DF808EDFFF7EAFF34BF012000205DF8C7
:103B5C0008FB00BF4DF808EDFFF7E0FF94BF012014
:103B6C0000205DF808FB00BF4DF808EDFFF7D2FF11
:103B7C0094BF012000205DF808FB00BF4DF808ED54
:103B8C00FFF7C8FF34BF012000205DF808FB00BF21
:103B9C004FEA4002B2F1FE4F0FD34FF09E03B3EB4E
:103BAC0012620DD94FEA002343F0004310F0004F8E
:103BBC0023FA02F018BF404270474FF000007047E4
:103BCC0012F1610F01D1420205D110F0004008BF83
:103BDC006FF0004070474FF00000704710B5054C77
:103BEC0013462CB10A4601460220AFF3008010BDEB
:103BFC00204610BD0000000010B5431E0A4491423F
:103C0C0004D011F8014B03F8014FF8E710BD03463F
:103C1C000244934202D003F8011BFAE770470000FC
:103C2C0038B5124B05461C68A36BD3B91820FDF7A9
:103C3C00D5FD43F20E33A06303804AF6CD334380A7
:103C4C0041F2342383804EF26D63C3804DF6EC63F6
:103C5C000381052343810B23838101220023C0E9C7
:103C6C000423A36B00221D615A6138BD8000002023
:103C7C0010F8012B11F8013B012A28BF9A42F7D00A
:103C8C00D01A7047034613F8012B002AFBD1181ADF
:103C9C00013870471D000A085D000A0889000A08EF
:103CAC008D000A080000000063616C696272617427
:103CBC00696E672073656E736F722E206163632E5D
:103CCC0000646F6E65004661696C656420746F20DA
:103CDC00636F6D6D756E6963617465207769746867
:103CEC00204C534D394453312E00446F75626C6532
:103CFC002D636865636B20776972696E672E00446B
:103D0C00656661756C742073657474696E67732075
:103D1C00696E207468697320736B657463682077AF
:103D2C00696C6C20776F726B20666F7220616E20ED
:103D3C006F7574206F662074686520626F78204CF4
:103D4C00534D3944533120427265616B6F75742C3D
:103D5C0020627574206D6179206E65656420746FC6
:103D6C00206265206D6F64696669656420696620F0
:103D7C0074686520626F617264206A756D7065721B
:103D8C0073206172652E0063616C69627261746983
:103D9C006F6E20737461727465640043616C696248
:103DAC00726174696F6E2066696E69736865640010
:103DBC005365747570004851526F757465725F501D
:103DCC0055424C49534800546F74616C206D6F76AA
:103DDC00656D656E743A20005370656564206C697E
:103DEC006D6974203A2000726563656976696E6747
:103DFC00206D657373616765002D2D2D696E2077BD
:103E0C0068696C652D2D2D007374696C6C006D6F79
:103E1C00766500494E20434845434B204D41544361
:103E2C0048203A3A2000666C757858203A20006693
:103E3C006C757859203A2000666C75785A203A20B7
:103E4C000054524F55424C4520434F554E54203A46
:103E5C003A20006368756E6B203A3A200056414C4C
:103E6C003A3A2000203A3A2020006C69676E746858
:103E7C00696E67007475726E696E67206F66660096
:103E8C00636865636B6E756D002000000040000078
:103E9C0000600A2D2D2D2D000000000000000000F8
:103EAC002B180A0875180A084D180A082D180A0844
:103EBC0055180A085D180A0865180A086D180A08CA
:103ECC000000000000000000EB180A08B3000A080C
:103EDC00D5000A08626175640053657269616C00F3
:103EEC0055534253657269616C3100747970650089
:103EFC00706172616D00636D6400696400686E646A
:103F0C00007374726D0066696C74006C766C006181
:103F1C00646448616E646C65720072656D6F766581
:103F2C0048616E646C657200656E756D48616E6497
:103F3C006C657273004A534F4E53747265616D4CCD
:103F4C006F6748616E646C6572006170700025303B
:103F5C0031307520005D20002564002C20002829BC
:103F6C003A2000205B00636F6465203D20002569CA
:103F7C000064657461696C73203D20000D0A006C4F
:103F8C006E00666E00636F64650064657461696CD5
:103F9C00006E6F6E6500747261636500696E666FAA
:103FAC00007761726E006572726F720070616E697B
:103FBC006300616C6C000000000000000000000059
:103FCC00C9190A08D3190A08DD190A08E7190A08D9
:103FDC00F1190A08FD190A08091A0A08151A0A081B
:103FEC001D1A0A08271A0A08311A0A086E616E008F
:103FFC006F766600696E660000000000000000002D
:10400C00B91D0A08BB1D0A080008101820283038F2
:10401C005A00252B3033643A253032750025592D42
:10402C00256D2D25645425483A254D3A2553257A7E
:10403C000061736374696D6500000000000000008E
:10404C0000000000B5000A08E3000A0813200A0863
:10405C0033210A080B200A0829200A0847200A08DD
:10406C0061200A0883200A08CD200A08EF200A08DC
:10407C0085220A0899210A08F51F0A0895230A08BF
:10408C0001220A08BD220A08C3230A085D210A0876
:10409C0001200A0865220A0807200A0863200A087A
:1040AC00F0FFFFFF000000007B200A08000000006A
:1040BC0000000000FB230A084B240A0859240A08B4
:1040CC00AD1A0A080F240A0831240A081D240A080C
:1040DC0045240A08FD230A0801240A0800000000F0
:1040EC000000000001250A0851250A085F250A086E
:1040FC00AD1A0A083D250A0803250A0819250A08DD
:10410C004B250A082F250A08FD240A080000000088
:10411C00000000004F270A0845270A083B270A0819
:10412C00AD260A082F270A0823270A0817270A088A
:10413C000F270A0805270A08FB260A08B7260A08CB
:10414C000000000000000000000000000000000063
:10415C000000000000000000000000000000000053
:10416C000000000000000000000000000000000043
:10417C000000000000000000000000000000000033
:10418C000000000000000000000000000000000023
:10419C000000000000000000000000000000000013
:1041AC0043000000B9050A08CD060A08D5100A0814
:1041BC0081110A08ED110A08A7130A08B9190A088F
:1041CC00991A0A089D1D0A08C91F0A08E11F0A0846
:1041DC0059270A0881290A08B1290A08052A0A0858
:1041EC00C92A0A084D2B0A08D12B0A080000000026
:0441FC0000000000BF
:0442000000000000BA
:10420400B82200001400000001000000F7CC1239AD
:10421400240B98399F71E139240B183A3D400A0860
:10422400000000004C410A086C410A088C410A084D
:10423400000000000000000000000000000000007A
:10424400AC410A080000000000000000000000006B
:10425400000000000000000000000000000000005A
:10426400000000000000000000000000000000004A
:10427400000000000000000000000000000000003A
:0442840020000020F6
:10428800FFFFFFFF00000102030405060708090AF3
:104298000B0C0D0E0F101112131415161718191AEE
:0842A8001B1C1D1E1F20280035
:0442B00078563412F6
:04000005080A001CC9
:00000001FF
