:02000004080AE8
:1000000000000A08745C0A080000060006000501EA
:0800100004027A050000000063
:0400180034560A0848
:10001C0009480A4908B5884205D0094A824202D0EB
:10002C00121A05F079FA0748074A0021121A05F04E
:10003C007EFA064808BD00BF00000020C45B0A0819
:10004C008800002088000020400800204008002084
:10005C0070B504F085F8074B074C1E46E41AA4084B
:10006C000025A54204D056F8253098470135F8E70D
:10007C0070BD00BF745B0A08BC5B0A0800F0E8B8EE
:10008C0008B500F0DDFCBDE8084004F02BB803F027
:10009C0031B803F037B80078B0FA80F040097047F7
:1000AC00012303707047704710B50446054B03607D
:1000BC006433036103F094FC204603F0C9FD204631
:1000CC0010BD00BF145A0A0810B50446182104F0DC
:1000DC0020F9204610BD10B50446FFF7E5FF204679
:1000EC004C2104F016F9204610BD00002DE9F84F04
:1000FC0003F004FF274903F087F9274EDFF8A8B077
:10010C00DFF8A8A06425244801F080F8B6F92E1079
:10011C00214800F05CFD0146DBF8000004F0FAFE1B
:10012C00B6F93010CBF800001B4800F050FD01462A
:10013C00DAF8000004F0EEFE184CCAF80000B6F92C
:10014C003210154800F043FD216804F0E3FE013D38
:10015C00DFF85490DFF8548007462060D3D1D9F8EB
:10016C0000000F4905F092F80D49C9F80000D8F8C5
:10017C00000005F08BF80A49C8F80000384605F075
:10018C0085F8206003F0BAFEBDE8F84F054903F08E
:10019C0054B900BF48560A08B80000207C01002062
:1001AC000000C84261560A08740100207801002042
:1001BC0038B51E4C1E23A3706B231D4A63701D4B58
:1001CC0001251A601C4B4FF07E52204625701A6098
:1001DC0000F079FF98B92946072004F022F803F0C3
:1001EC008DFE164903F029F903F088FE144903F03B
:1001FC0024F903F083FE134903F01FF9FEE703F023
:10020C007DFE114903F019F92946204601F060F8EA
:10021C002946204601F028F9FFF768FF03F06EFE2F
:10022C00BDE83840094903F008B900BFB800002008
:10023C000000A040980000206C01002066560A08BF
:10024C008A560A089F560A0827570A083B570A0875
:10025C0070B5012196B0072003F0D2FF00210720D2
:10026C0003F0DFFF3C4A0023012199540133C82BD2
:10027C00FBD103F043FE03F028FE0028F9D0374CE5
:10028C0000231A461946606802F0D4FE002211467B
:10029C006068324D02F0E6FE0028F7D003F02EFE27
:1002AC002F4903F0CAF82F4B002219882E4803F06F
:1002BC0072FB002319462D4A686802F00BFF03F00D
:1002CC001DFE064600244022002106A805F02FF949
:1002DC00402306AA21460094686802F003FF06A991
:1002EC0002A803F0C5FA0299304603F0A6F802A85A
:1002FC0003F077FA03F002FE2246214606466868B0
:10030C0002F090FE811C06A802F09EFF06A9304662
:10031C0003F0A7F803F0F2FD4FF4165103F0CEFDF5
:10032C00134B1A781C460AB9FFF742FF23781BB906
:10033C001049114800F0F4FB3221104802F066FA23
:10034C000E4801F021F90D4801F054F914210C4824
:10035C0002F0AEFA16B070BD860100203C070020FA
:10036C0050570A08040000205402002056570A086F
:10037C00000000202D080A088C000020A00200209C
:10038C003C01002038B5244800F075FE224C10B119
:10039C00204600F03BFFB4F92E101F4800F017FC6C
:1003AC001E4B1F4D196804F0B3FD05F081F80028B1
:1003BC00B8BF404204F062FE296804F0ABFDB4F90A
:1003CC0030102860144800F002FC164B164D1968CA
:1003DC0004F09EFD05F06CF80028B8BF404204F014
:1003EC004DFE296804F096FDB4F9321028600A48D5
:1003FC0000F0EDFB0D4B0E4C196804F089FD05F077
:10040C0057F80028B8BF404204F038FE216804F0C9
:10041C0081FD206038BD00BFB800002074010020B1
:10042C006801002078010020500200207C0100208F
:10043C007001002037B503F061FD1B4902F0E4FFA9
:10044C0003F05CFD194B0546186804F011FA022400
:10045C0002460B460094284603F016F903F04EFDB5
:10046C00134902F0D1FF03F049FD124B0546186801
:10047C0004F0FEF9009402460B46284603F004F9FA
:10048C0003F03CFD0C4902F0BFFF03F037FD0B4BB2
:10049C000546186804F0ECF9009402460B46284611
:1004AC0003F0F2F803B030BD67570A08680100206A
:1004BC0070570A085002002079570A087001002072
:1004CC002DE9F341234E244D244C2968306804F067
:1004DC0021FD216804F01EFD074603F00FFD2049A5
:1004EC0002F092FF03F00AFD8046384604F0C0F992
:1004FC0002230246009340460B46DFF86C8003F063
:10050C00C3F803F0FBFC174902F07EFF03F0F6FC86
:10051C00D8F800100A2202F0FEFFD8F8000004F010
:10052C00ADFD80460146384604F09AFF28B1002301
:10053C0033602B602360012009E04146384604F00B
:10054C00A3FF20B1002333602B602360002002B096
:10055C00BDE8F081680100205002002070010020ED
:10056C0082570A0893570A080800002010B5094C56
:10057C0010B1FFF7A5FF48B90023237003F0BEFCB0
:10058C0021780A22BDE8104002F0C5BF0123237078
:10059C00F4E700BF0C00002008B503F0AFFC0449E1
:1005AC0002F04BFFBDE808400120FFF7DFBF00BFA2
:1005BC00A2570A0808B503F0A1FC044902F03DFF5C
:1005CC00BDE808400020FFF7D1BF00BFA8570A08BC
:1005DC002DE9F04F85B0894E00AF33685BB9884880
:1005EC0002F012F93221C0F38F04864802F060F950
:1005FC004FF4967123E0012B08D1814802F004F9E5
:10060C000324B0FBF4F0322184B214E0022B0BD1A2
:10061C007B4802F0F9F82821C0F34F04794802F026
:10062C0047F94FF496710AE0032B12D1744802F08B
:10063C00EBF804461E21734802F03AF972497148EE
:10064C004FF0050902F004FA4FF0320AC7F80C908B
:10065C0006E04FF000094C464FF00A0AC7F80CA010
:10066C00A30003F10A0222F00702ADEB020DE846EB
:10067C006A466B444FF0FF31934202D042F8041BA0
:10068C00FAE703F03BFC614902F0BEFE03F036FCD6
:10069C000A22316802F03FFF0023BB604FF0FF35A8
:1006AC00B7F808B05C455FDDFFF76CFE03F026FC85
:1006BC00574902F0A9FE03F021FC0A22214602F060
:1006CC002AFF04F065FF05464D4802F09DF895FBA6
:1006DC00F0F303FB105503F011FC4E4902F094FEAD
:1006EC0003F00CFC0A22294602F015FF00221346E7
:1006FC0058F8221001328D4208BF01239442F7DCD6
:10070C00002BDED1DAB2FF2110467B6002F077F8C5
:10071C00A9B202463A4802F027F8484648F82B504E
:10072C0002F000FD3C4B002235485A5500F062FFA8
:10073C007B680133FF2BE5D1504602F0F3FC03F04C
:10074C00DDFB0A22594602F0E4FE03F0D7FB3349E5
:10075C0002F05AFE03F0D2FB0A22294602F0DBFE1D
:10076C00BB680133BB609BE73368032B06D141F2B6
:10077C00883002F0D7FC214B00221A60FFF7A0FE54
:10078C00A0B332211F4802F093F84FF496711D4824
:10079C0002F05EF94FF0000A1FFA8AFB5C4522DD7D
:1007AC004FF0FF095FFA89F238F82B30FF21104621
:1007BC00BB6002F024F8BB6802461946104801F0F1
:1007CC00D3FF0A2002F0AEFC0D4800F013FF19F124
:1007DC00FF39E7D2104A0123094853550AF1010A9F
:1007EC0000F008FFD8E7F86802F09CFC3368143777
:1007FC0001333360BD46BDE8F08F00BFB40000206C
:10080C00A00200203C010020D4FEFFFFAD570A08D7
:10081C00BF570A08C9570A0886010020D0570A0892
:10082C0030B597B001A802F061F903F067FB2349DA
:10083C0002F003FE0021224803F04DFA041E32DDC3
:10084C0003F05CFB1F4902F0F8FD14F1FF3412D3E6
:10085C0003F054FB1C4902F0F0FD194803F06EF84C
:10086C00C5B203F04BFB294602F0F1FD294601A865
:10087C0002F077F9E9E701A802F082F970B103F010
:10088C003DFB124902F0D9FD114A124901A802F0B0
:10089C00F3F9114A114901A802F0EEF903F02EFB0D
:1008AC0002F0BFFD04E0FFF70BFE08B9FFF790FE66
:1008BC0001A802F039F917B030BD00BFD6570A08AD
:1008CC0054020020EF570A0801580A0810580A0869
:1008DC00A5050A0818580A08C1050A081E580A086E
:1008EC00F8B507460E4600240A4801F08DFFA5B264
:1008FC00854204F101040BD23A462946054801F021
:10090C0033FF044800F076FE304602F00BFCEBE7B8
:10091C00F8BD00BFA0020020012810B504464BD042
:10092C00022877D000287BD132213E4801F0C0FF4D
:10093C000121072003F075FC03F0E0FA3A4902F0BC
:10094C007CFD3A49374802F083F83221354801F0F2
:10095C00AFFF2146072003F064FC03F0CFFA3449C3
:10096C0002F06BFD4FF496712E4802F071F8502195
:10097C002C4801F09DFF0121072003F052FC03F0ED
:10098C00BDFA294902F059FD2849264802F060F8C1
:10099C005021244801F08CFF2146072003F041FC34
:1009AC0003F0ACFA224902F048FDBDE810404FF4C8
:1009BC0096711C4802F04CB8FF221146104601F00B
:1009CC001EFF03F09BFA1B4902F037FD0022114673
:1009DC00FF2001F014FF3221FFF782FF03F08EFAA3
:1009EC00154902F02AFD00221046FF2101F007FFF5
:1009FC003221FFF775FF03F081FA104902F01DFD5B
:100A0C0000210846FF2201F0FAFEBDE81040322119
:100A1C00FFF766BFFFF7B6FCBDE81040FFF70ABD55
:100A2C0010BD00BF3C01002024580A08D4FEFFFF73
:100A3C002B580A0833580A0837580A083D580A0830
:100A4C000020FFF769BF000037B502F045F900211F
:100A5C00012002F0C3FA1F4B00221A705A804FF685
:100A6C00FF721D4D9A80022002F0A8FA1B4C2846FA
:100A7C0002F0DCFB28461A4D22461A4903F044FCCE
:100A8C00284603F0C7F8224617492846174D03F0AD
:100A9C003BFC02231A46C821284600F09AFD224648
:100AAC001349284603F030FC124800F089F84FF443
:100ABC00FA71114800F02AF80D220E238DE80C0073
:100ACC004FF496710C230B220C4801F0CFFE03B0AF
:100ADC0030BD00BF800100209C0000208800002059
:100AEC0054020020B3000A08B5000A08A002002036
:100AFC0041150A08B80000208C0000203C010020A1
:100B0C0010B5044602F0E0F8206010BD38B504467C
:100B1C000D46FFF7F5FF00236560A360204638BD46
:100B2C008160704702F0D8B830B502240170837030
:100B3C000621F523C47504244270C38001220023CE
:100B4C000172017680F8204003210724027142745F
:100B5C008274C2740275827542768276C276C277CE
:100B6C0080F8214043728372C3720373437383739F
:100B7C00C373037401774377837780F8223004467C
:100B8C0080F8231080F82720024680F8241080F883
:100B9C00253080F8263000250139E563A5646565AC
:100BAC0002F10202A2F85E30A2F86430A2F86A30B8
:100BBC0004F10404F0D14FF0000380F8803030BD14
:100BCC0010B51E236B220121FFF7AEFF10BD10B52F
:100BDC000446084604F052FAA16F04F0A3FA10BDC3
:100BEC0010B50446C08804F045FA4FF0605104F08B
:100BFC0099FA606710BD10B50446C07D04F03AFA4E
:100C0C004FF0605104F08EFAA06710BD90F82030C0
:100C1C00043B0C2B14D8DFE803F0071313130A134F
:100C2C0013130D1313131000064B1B6807E0054B31
:100C3C005B6804E0034B9B6801E0024BDB68C36715
:100C4C00704700BF10000020C388F52B07D0B3F508
:100C5C00FA7F04D0B3F5FA6F1CBFF523C380C27DB5
:100C6C00102A03D8084BD340DA0701D40223C375EA
:100C7C0090F82020102A03D8044BD340DB0702D471
:100C8C00042380F82030704714010100101101007A
:100C9C0010B50446012190F8730003F0B1FA94F8F2
:100CAC007300012103F0BDFA94F87200012103F0E6
:100CBC00A7FA94F872000A4C012103F0B2FA20460C
:100CCC0002F020FD2046082102F06EFD2046012195
:100CDC0002F01DFD2046BDE81040002102F01ABDB7
:100CEC0080070020F8B50C4617461E46094D2046D5
:100CFC00002103F096FA07F03F01284602F068FD48
:100D0C003146284602F064FD2046BDE8F84001213A
:100D1C0003F087BA80070020F8B51E4690F87230B1
:100D2C0002F03F028B429DF8187042F0800503D10F
:100D3C00012F88BF45F040058CB22046002103F0FE
:100D4C0070FA2946094802F043FD3546AB1B9F4219
:100D5C0006DD0021054802F03BFD05F8010BF5E727
:100D6C002046012103F05DFA0120F8BD8007002028
:100D7C001FB5012300930DF10F03FFF7CDFF9DF875
:100D8C000F0005B05DF804FB08B503F063FABDE88D
:100D9C00084002F011BA70B50E4615461C4603F019
:100DAC0059FA314602F01AFA03F054FA036829464C
:100DBC009B68984703F04EFA036821469A6890475F
:100DCC0003F048FABDE8704002F010BA13460278FE
:100DDC0010B4012A05D10A4610BC90F87310FFF725
:100DEC00DABF2AB90A4610BC90F87310FFF77ABF25
:100DFC0010BC704710B50379044613B1037A5B013C
:100E0C00DBB2E288B2F5FA7F05D0B2F5FA6F04D105
:100E1C0043F0180301E043F00803627A102102F05A
:100E2C0003021A432046FFF7D1FF0022112120466E
:100E3C00FFF7CCFFA37A002BE37A14BF80220022A9
:100E4C002BB1237B03F00F0343F040031A43122111
:100E5C002046FFF7BBFFE37C002BA37C0CBF0022DA
:100E6C00202213B142F01002D2B2637C0BB142F0DB
:100E7C000802237D0BB142F002021E212046FFF72F
:100E8C00A5FF637B002BA37B0CBF0022202213B198
:100E9C0042F01002D2B2E37B0BB142F008022046C2
:100EAC00BDE810401321FFF791BF10B5C37E044677
:100EBC00002B837E0CBF0022202213B142F01002C3
:100ECC00D2B2637E0BB142F008021F212046FFF71D
:100EDC007DFFA27D12B1227E5201D2B2E37D082B9E
:100EEC0006D0102B07D0042B07D142F0100204E0DF
:100EFC0042F0180201E042F0080294F91C30202163
:100F0C00002BA2BF03F003031A4342F00402204655
:100F1C00FFF75CFF627F2AB1A27F520102F06002F0
:100F2C0042F080022046BDE810402121FFF74EBF61
:100F3C001346027810B4012A05D10A4610BC90F869
:100F4C007210FFF728BF2AB90A4610BC90F872102D
:100F5C00FFF7C8BE10BC7047022970B506460C4698
:100F6C00154610D849000531D2B2C9B2FFF7E0FFDF
:100F7C00E11C4900C5F307223046BDE8704001F082
:100F8C00FE01FFF7D5BF70BD10B590F822300446B6
:100F9C00002B90F8233008BF00224FEA431303F0D4
:100FAC00600190F8213018BF80229B0003F01C03D5
:100FBC000B431A432021FFF7BBFF94F82030204647
:100FCC00083BDBB2082B96BF124A0022D25C2121CF
:100FDC00FFF7AEFF94F825302046002B94F826300E
:100FEC000CBF0022202203F003031A432221FFF737
:100FFC009FFF94F824202046920002F00C0223213B
:10100C00FFF796FF2046BDE8104000222421FFF791
:10101C008FBF00BF42580A0838B50C46154603F07E
:10102C0019F9214602F0DAF803F014F9036829469D
:10103C009B68984703F00EF9002102F0D3F803F0F7
:10104C0009F90122214602F0C6F803F003F90368FE
:10105C005B699847C0B238BD0A460178012903D1B3
:10106C0090F87310FFF7D8BF19B990F87310FFF709
:10107C007FBE0020704708B52721FFF7EDFF00F079
:10108C00010008BD38B50D4623210446FFF7E4FFE7
:10109C001DB140F00202D2B201E000F0FD02204688
:1010AC00BDE838402321FFF791BE0A46017801299B
:1010BC0003D190F87210FFF7AFBF19B990F8721006
:1010CC00FFF756BE704738B50446437880F8733046
:1010DC00837880F87230FFF7B7FDFFF781FD20466B
:1010EC00FFF794FD2046FFF786FD2378012B03D1F3
:1010FC002046FFF749FE03E013B92046FFF7C8FD71
:10110C000F212046FFF7D1FF0F2105462046FFF7A0
:10111C00A3FF46F63D0345EA002005B29D420AD1E5
:10112C002046FFF767FE2046FFF7BFFE2046FFF77D
:10113C002BFF284638BD002038BD10B50C462721A2
:10114C00FFF7B3FF0121A14008402041C0B210BD00
:10115C002DE9F04190460C461D469DF8186001F0B3
:10116C00B3FD074603F076F8214602F037F803F09A
:10117C0071F8036848F080019B68984703F06AF89F
:10118C00002102F02FF803F065F82146324602F0F8
:10119C0022F8002407F57A77B4421ADA03F05AF8E9
:1011AC0003681B69984740B103F054F8036804F1D5
:1011BC0001085B6998472855444601F085FDB84203
:1011CC00EAD92C44FF23621B964205DD04F8013B4F
:1011DC00F9E70120BDE8F0810020BDE8F08137B5CA
:1011EC000D460178012907D190F87310009313462E
:1011FC002A46FFF7ADFF07E031B990F87310009362
:10120C0013462A46FFF788FD03B030BD37B50623D9
:10121C006A4628210446FFF7E2FF30B39DF8003000
:10122C009DF801109DF8032043EA01219DF802303E
:10123C009DF8055043EA02229DF8043009B243EAB6
:10124C00052394F8805012B21BB2E1852286638686
:10125C005DB1B4F86650491BE185B4F86810521AB8
:10126C002286B4F86A209B1A638603B030BD37B56A
:10127C0006236A4618210446FFF7B1FF30B39DF8E8
:10128C0000309DF801109DF8032043EA01219DF8E0
:10129C0002309DF8055043EA02229DF8043009B251
:1012AC0043EA052394F8805012B21BB22185628563
:1012BC00A3855DB1B4F86050491B2185B4F8621068
:1012CC00521A6285B4F864209B1AA38503B030BD12
:1012DC002DE9F04F04468BB00023019101210493BA
:1012EC0005930693079308930993FFF7CBFE3F22D0
:1012FC002E212046FFF76AFD2F212046FFF7ACFE7A
:10130C0000F03F061E2EF7D90027B74232DA2046EE
:10131C00FFF7ADFF079AB4F9283020461344079322
:10132C00089AB4F92A30013713440893099AB4F98E
:10133C002C3013440993FFF769FF049AB4F92E304B
:10134C00A06F13440493059AB4F93030B4F93250B9
:10135C001344059303F08CFA02460B4600202649F1
:10136C0003F004FC03F088FD00B22D1A0698054426
:10137C000695CAE7D4F874B0D4F878A004F15E02EC
:10138C0004F1380804F1640704F14409002507A9A5
:10139C0051F8250090FBF6F000B222F8020F0292F1
:1013AC00039203F06BFE594603F0BCFE04AB48F805
:1013BC00040F53F82500013590FBF6F000B227F826
:1013CC00020F03F05BFE514603F0ACFE032D49F80F
:1013DC00040F029ADBD100212046FFF753FE0022B6
:1013EC002E212046FFF7F2FC019B13B1012384F858
:1013FC0080300BB0BDE8F08F0000F03F37B50D46E4
:10140C000178012907D190F87210009313462A46EF
:10141C00FFF79EFE07E031B990F872100093134667
:10142C002A46FFF779FC03B030BD13B506236A4694
:10143C0028210446FFF7E2FFA0B19DF801209DF89A
:10144C00003043EA0223A3869DF803209DF8023066
:10145C0043EA0223E3869DF805209DF8043043EA15
:10146C000223238702B010BD2DE9F04F05468A46B2
:10147C0087B00023ADF80030ADF80230ADF8043081
:10148C00ADF80830ADF80A30ADF80C30802402AF5E
:10149C0003212846FFF751FE0028F9D02846FFF714
:1014AC00C4FFAB8EADF81030EB8EADF812302B8F35
:1014BC00ADF81430002304AA32F9132037F91310B5
:1014CC0091423DF91310B8BF27F813209142C8BFC1
:1014DC002DF813200133032BEDD1013CD8D105F1AC
:1014EC006A0905F150084FF0020B3DF9143037F939
:1014FC0014601E4496FBFBF636B229F8026F304698
:10150C0003F0BCFD0146E86F03F00CFE48F8040F35
:10151C00BAF1000F04D03246E1B22846FFF71CFDA9
:10152C000134032CE1D107B0BDE8F08F01F0D4BB3E
:10153C0001F0C2BB10B50446C06808B101F0E2FD71
:10154C0023781BB10021E07902F05AFE204610BD31
:10155C0038B50446C0680D4608B101F0D3FDA37937
:10156C00062B0CBF04200320684380B2A08001F03E
:10157C00C1FDE06028B1A288002103F0D8FF65808E
:10158C0038BDA080608038BD10B504460121C079FB
:10159C0002F036FE0021E07902F043FE01232370B5
:1015AC0010BD38B5037805460C461BB10021C07937
:1015BC0002F026FE2B78EC7153B1A4B22046012127
:1015CC0002F01EFE2046BDE83840002102F029BE84
:1015DC0038BD70B50446164600258371057005723A
:1015EC00C5600561FFF7B4FF20463146FFF7D9FF10
:1015FC00204670BDC368002B00F08E852DE9F041AC
:10160C000446837986B0023BDBB2042B96BF294A91
:10161C00322552F82350FFF78BFF2369C01AA842DA
:10162C00F9D372B6A179A3880229ADF80A30D4F89F
:10163C000CE000F07282072900F06F82062900F09E
:10164C003284052900F0AB83082900F0A883002917
:10165C0040F06385184A4FF40006BDF80A309BB27F
:10166C00002B00F095830496BDF80A300EF10305AB
:10167C00033B9BB2ADF80A309EF80030DBB28DF81C
:10168C0007309EF80130DBB28DF806309EF8023040
:10169C00DBB28DF808309DF807709DF806309DF888
:1016AC0008001B0243EA0743034303938DF805101C
:1016BC001BE100BF4C580A08B4020020004600BFD2
:1016CC0000BF00BF00BF00BF00BF00BF00BF00BF16
:1016DC0000BF00BF00BF00BF00BF00BF00BF00BF06
:1016EC0000BF00BF00BF00BF00BF00BF00BF00BFF6
:1016FC0000BF00BF00BF00BF00BF00BF00BF00BFE6
:10170C0000BF00BF00BF00BF00BF00BF00BF00BFD5
:10171C0000BF00BF00BF00BF00BF00BF00BF00BFC5
:10172C0000BF00BF00BF00BF00BF00BF00BF00BFB5
:10173C0000BF00BF00BF00BF00BF00BF00BF00BFA5
:10174C0000BF00BF00BF00BF00BF00BF00BF00BF95
:10175C0000BF00BF00BF00BF00BF00BF00BF00BF85
:10176C0000BF00BF00BF00BF00BF00BF00BF00BF75
:10177C0000BF00BF00BF00BF00BF00BF00BF00BF65
:10178C0000BF00BF00BF00BF00BF00BF00BF00BF55
:10179C0000BF00BF00BF00BF00BF00BF00BF00BF45
:1017AC0000BF00BF00BF00BF00BF00BF00BF00BF35
:1017BC0000BF00BF00BF00BF00BF00BF00BF00BF25
:1017CC0000BF00BFE3791068C3EBC30300EB8307D2
:1017DC00BF8850F823305F83004600BF00BF00BFB6
:1017EC0000BF00BF00BF00BF00BF00BF00BF00BFF5
:1017FC0000BF00BF00BF00BF00BF00BF00BF00BFE5
:10180C0000BF00BF00BF00BF00BF00BF00BF00BFD4
:10181C0000BF00BF00BF00BF00BF00BF00BF00BFC4
:10182C0000BF00BF00BF00BF00BF00BF00BF00BFB4
:10183C0000BF00BF00BF00BF00BF00BF00BF00BFA4
:10184C0000BF00BF00BF00BF00BF00BF00BF00BF94
:10185C0000BF00BF00BF00BF00BF00BF00BF00BF84
:10186C0000BF00BF00BF00BF00BF00BF00BF00BF74
:10187C0000BF00BF00BF00BF00BF00BF00BF00BF64
:10188C0000BF00BF00BF00BF00BF00BF00BF00BF54
:10189C0000BF00BF00BF00BF00BF00BF00BF00BF44
:1018AC0000BF00BF00BF00BF00BF00BF00BF00BF34
:1018BC0000BF00BF00BF00BF00BF00BF00BF00BF24
:1018CC0000BF00BF00BF00BF00BF00BF00BF00BF14
:1018DC0000BF049B5B0804939DF805300133DBB219
:1018EC00172B8DF8053000F2DB82E3791068C3EB1F
:1018FC00C30300EB8307BF8850F823301F83039882
:10190C00049B18427FF4DAAE004600BF00BF00BF54
:10191C0000BF00BF00BF00BF00BF00BF00BF00BFC3
:10192C0000BF00BF00BF00BF00BF00BF00BF00BFB3
:10193C0000BF00BF00BF00BF00BF00BF00BF00BFA3
:10194C0000BF00BF00BF00BF00BF00BF00BF00BF93
:10195C0000BF00BF00BF00BF00BFE3791068C3EB3E
:10196C00C30300EB8307BF8850F823305F83004626
:10197C0000BF00BF00BF00BF00BF00BF00BF00BF63
:10198C0000BF00BF00BF00BF00BF00BF00BF00BF53
:10199C0000BF00BF00BF00BF00BF00BF00BF00BF43
:1019AC0000BF00BF00BF00BF00BF00BF00BF00BF33
:1019BC0000BF00BF00BF00BF00BF00BF00BF00BF23
:1019CC0000BF00BF00BF00BF00BF00BF00BF00BF13
:1019DC0000BF00BF00BF00BF00BF00BF00BF00BF03
:1019EC0000BF00BF00BF00BF00BF00BF00BF00BFF3
:1019FC0000BF00BF00BF00BF00BF00BF00BF00BFE3
:101A0C0000BF00BF00BF00BF00BF00BF00BF00BFD2
:101A1C0000BF00BF00BF00BF00BF00BF00BF00BFC2
:101A2C0000BF00BF00BF00BF00BF00BF00BF00BFB2
:101A3C0000BF00BF00BF00BF00BF00BF00BF00BFA2
:101A4C0000BF00BF00BF00BF00BF00BF00BF00BF92
:101A5C0000BF00BF00BF00BF00BF00BF00BF00BF82
:101A6C0000BF00BF00BF00BF00BF00BF00BF00BF72
:101A7C0000BF00BF00BF00BF00BF00BF00BF00BF62
:101A8C0000BF00BF00BF00BF00BF00BF00BF00BF52
:101A9C0000BF00BF00BF00BF00BF00BF00BF00BF42
:101AAC0000BF00BF00BF00BF00BF00BF00BF00BF32
:101ABC0000BF00BF00BF00BF00BF00BF00BF00BF22
:101ACC0000BF00BF00BF00BF00BF00BF00BF00BF12
:101ADC0000BF00BF00BF00BF00BF00BF00BF00BF02
:101AEC0000BF00BF00BF00BF00BF00BF00BF00BFF2
:101AFC0000BF00BF00BF00BF00BF00BF00BF00BFE2
:101B0C0000BF00BF00BF00BF00BF00BF00BF00BFD1
:101B1C0000BF00BF00BF00BFDBE6BDF80A30174AAC
:101B2C009BB24FF400050026002B00F03181049588
:101B3C00BDF80A300EF10301033B9BB2ADF80A303D
:101B4C009EF80030DBB28DF806309EF80130DBB227
:101B5C008DF807309EF80230DBB28DF808309DF816
:101B6C0006309DF807009DF80870000240EA034318
:101B7C003B4303938DF8056080E000BFB402002066
:101B8C00004600BF00BF00BF00BF00BF00BF00BFCA
:101B9C0000BF00BF00BF00BF00BF00BF00BF00BF41
:101BAC0000BF00BF00BF00BF00BF00BF00BF00BF31
:101BBC0000BF00BF00BF00BF00BF00BF00BF00BF21
:101BCC0000BF00BF00BF00BF00BF00BF00BF00BF11
:101BDC0000BF00BF00BF00BF00BF00BF00BF00BF01
:101BEC0000BF00BF00BF00BF00BF00BF00BF00BFF1
:101BFC0000BF00BF00BF00BF00BF00BF00BF00BFE1
:101C0C0000BF00BF00BF00BF00BF00BF00BF00BFD0
:101C1C0000BF00BF00BF00BF00BFE3791068C3EB7B
:101C2C00C30300EB8307BF8850F823305F83004663
:101C3C0000BF00BF00BF00BF00BF00BF00BF00BFA0
:101C4C0000BF00BF00BF00BF00BF00BF00BF00BF90
:101C5C0000BF00BF00BF00BF00BF00BF00BF00BF80
:101C6C0000BF00BF049B5B0804939DF80530013353
:101C7C00DBB2172B8DF8053000F28380E379106806
:101C8C00C3EBC30300EB8307BF8850F823301F83DB
:101C9C000398049B18427FF473AF004600BF00BF4B
:101CAC0000BF00BF00BF00BF00BF00BF00BF00BF30
:101CBC0000BF00BF00BF00BF00BF00BF00BF00BF20
:101CCC0000BFE3791068C3EBC30300EB8307BF8845
:101CDC0050F823305F83004600BF00BF00BF00BF39
:101CEC0000BF00BF00BF00BF00BF00BF00BF00BFF0
:101CFC0000BF00BF00BF00BF00BF00BF00BF00BFE0
:101D0C0000BF00BF00BF00BF00BF00BF00BF00BFCF
:101D1C0000BF00BF00BF00BF00BF00BF00BF00BFBF
:101D2C0000BF00BF00BF00BF00BF00BF00BF00BFAF
:101D3C0000BF00BF00BF00BF00BF00BF00BF00BF9F
:101D4C0000BF00BF00BF00BF00BF00BF00BF00BF8F
:101D5C0000BF00BF00BF00BF00BF00BF00BF00BF7F
:101D6C0000BF00BF00BF00BF00BF00BF00BF00BF6F
:101D7C0000BF00BF00BF00BF00BF00BF00BF00BF5F
:101D8C0070E7BDF80A308E469BB2002B7FF4CFAEC5
:101D9C0062B6FFF7CDFB206106B0BDE8F0815E4B6B
:101DAC005E4A184611684FF400080027BDF80A2057
:101DBC0092B2002AECD0CDF81080BDF80A200EF1BA
:101DCC000305033A92B2ADF80A209EF80020D2B275
:101DDC008DF806209EF80120D2B28DF807209EF8CF
:101DEC000220D2B28DF808209DF806209DF807E05D
:101DFC009DF808C04FEA0E2E4EEA024242EA0C024F
:101E0C0003928DF80570E2795E68C2EBC20201EBB9
:101E1C00820EBEF804E051F822200596A2F818E0D4
:101E2C00039E049A164223D05A68059E921B4F2A91
:101E3C00FAD9E279C2EBC20201EB820EBEF804E0E1
:101E4C0051F82220A2F81AE0426805925A68059EC1
:101E5C00921B072AFAD9049A520804929DF805207D
:101E6C000132D2B2172A8DF80520CCD9AE469DE7A7
:101E7C005A68059E921B182AFAD9E279C2EBC20263
:101E8C0001EB820EBEF804E051F82220A2F81AE011
:101E9C00426805925A68059E921B452AFAD9DAE7E0
:101EAC00AE46FFF7DABB1D4A4FF000450026BDF8E1
:101EBC000A309BB2002B3FF46BAF0495BDF80A308F
:101ECC000EF10401043B9BB2ADF80A309EF80030D1
:101EDC00DBB28DF807309EF80130DBB28DF806309E
:101EEC009EF80230DBB28DF808309EF80330DBB27E
:101EFC008DF809309DF807309DF806709DF808E0C4
:101F0C003F049DF8090047EA0363034343EA0E23A9
:101F1C0003938DF805607EE0001000E0B402002011
:101F2C00004600BF00BF00BF00BF00BF00BF00BF26
:101F3C0000BF00BF00BF00BF00BF00BF00BF00BF9D
:101F4C0000BF00BF00BF00BF00BF00BF00BF00BF8D
:101F5C0000BF00BF00BF00BF00BF00BF00BF00BF7D
:101F6C0000BF00BF00BF00BF00BF00BF00BF00BF6D
:101F7C0000BF00BF00BF00BF00BF00BF00BF00BF5D
:101F8C0000BF00BF00BF00BF00BF00BF00BFE379B0
:101F9C001068C3EBC30300EB8307BF8850F82330F2
:101FAC005F83004600BF00BF00BF00BF00BF00BF83
:101FBC0000BF00BF00BF00BF00BF00BF00BF00BF1D
:101FCC0000BF00BF00BF00BF00BF00BF00BF00BF0D
:101FDC0000BF00BF00BF00BF00BF00BF00BF00BFFD
:101FEC0000BF00BF00BF00BF00BF00BF00BF00BFED
:101FFC0000BF00BF00BF00BF00BF00BF00BF00BFDD
:10200C00049B5B0804939DF805300133DBB21F2B56
:10201C008DF805307ED8E3791068C3EBC30300EB71
:10202C008307BF8850F823301F830398049B184202
:10203C007FF476AF004600BF00BF00BF00BF00BFFB
:10204C0000BF00BF00BF00BF00BF00BF00BF00BF8C
:10205C0000BF00BF00BF00BF00BF00BFE379106826
:10206C00C3EBC30300EB8307BF8850F823305F83B7
:10207C00004600BF00BF00BF00BF00BF00BF00BFD5
:10208C0000BF00BF00BF00BF00BF00BF00BF00BF4C
:10209C0000BF00BF00BF00BF00BF00BF00BF00BF3C
:1020AC0000BF00BF00BF00BF00BF00BF00BF00BF2C
:1020BC0000BF00BF00BF00BF00BF00BF00BF00BF1C
:1020CC0000BF00BF00BF00BF00BF00BF00BF00BF0C
:1020DC0000BF00BF00BF00BF00BF00BF00BF00BFFC
:1020EC0000BF00BF00BF00BF00BF00BF00BF00BFEC
:1020FC0000BF00BF00BF00BF00BF00BF00BF00BFDC
:10210C0000BF00BF00BF00BF00BF00BF00BF00BFCB
:10211C0000BF75E78E46CAE67047032900F02E8192
:10212C001E4A4FF400050026BDF80A309BB2002B66
:10213C003FF42EAE0495BDF80A30E079033B9BB218
:10214C00ADF80A309EF800300EF10301DBB28DF8C9
:10215C0007309EF80130C0EBC000DBB28DF80830C0
:10216C009EF80230D2F800E0DBB28DF806309DF814
:10217C0007709DF808300EEB800C1B0243EA0743F6
:10218C009DF80670BCF804C05EF820003B43039336
:10219C008DF80560A0F81AC07DE000BFB4020020E5
:1021AC00049B5B080493004600BF00BF00BF00BF48
:1021BC0000BF00BF00BF00BF00BF00BF00BF00BF1B
:1021CC0000BF00BF00BF00BF00BF00BF00BF00BF0B
:1021DC0000BF00BF00BF00BF00BF00BF00BF00BFFB
:1021EC0000BF00BF00BF00BF00BF00BF00BF00BFEB
:1021FC0000BF00BF00BF00BF00BF00BF00BF00BFDB
:10220C0000BF00BF00BF00BF00BF00BF00BF00BFCA
:10221C0000BF00BF00BF00BF00BF00BF00BF00BFBA
:10222C0000BF00BF00BF00BF00BF00BFE079176850
:10223C009DF80530C0EBC00007EB800EBEF804E043
:10224C0057F820000133DBB28DF80530A0F818E008
:10225C00004600BF00BF00BF00BF00BF00BF00BFF3
:10226C0000BF00BF00BF00BF00BF00BF00BF00BF6A
:10227C0000BF00BF00BF00BF00BF9DF80530182B8A
:10228C007AD0E3791068C3EBC30300EB8307BF88F4
:10229C0050F823305F830398049B184280D100468A
:1022AC0000BF00BF00BF00BF00BF00BF00BF00BF2A
:1022BC0000BF00BF00BF00BF00BF00BF00BF00BF1A
:1022CC00E3791068C3EBC30300EB8307BF8850F8B6
:1022DC0023301F839DF805300133DBB28DF80530B8
:1022EC00049B5B080493004600BF00BF00BF00BF07
:1022FC0000BF00BF00BF00BF00BF00BF00BF00BFDA
:10230C0000BF00BF00BF00BF00BF00BF00BF00BFC9
:10231C0000BF00BF00BF00BF00BF00BF00BF00BFB9
:10232C0000BF00BF00BF00BF00BF00BF00BF00BFA9
:10233C0000BF00BF00BF00BF00BF00BF00BF00BF99
:10234C0000BF00BF00BF00BF00BF00BF00BF00BF89
:10235C0000BF00BF00BF00BF00BF00BF00BF00BF79
:10236C0000BF00BF00BF00BF00BF00BF00BF00BF69
:10237C009DF80530182B84D18E46D5E6174A4FF4BC
:10238C0000050026BDF80A309BB2002B3FF400ADCF
:10239C000495BDF80A300EF10301033B9BB2ADF876
:1023AC000A309EF80030DBB28DF807309EF8013011
:1023BC00DBB28DF806309EF80230DBB28DF80830B7
:1023CC009DF807709DF806309DF808001B0243EA43
:1023DC000743034303938DF80560E0E0B40200204B
:1023EC00004600BF00BF00BF00BF00BF00BF00BF62
:1023FC0000BF00BF00BF00BF00BF00BF00BF00BFD9
:10240C0000BF00BF00BF00BF00BF00BF00BF00BFC8
:10241C0000BF00BF00BF00BF00BF00BF00BF00BFB8
:10242C0000BF00BF00BF00BF00BF00BF00BF00BFA8
:10243C0000BF00BF00BF00BF00BF00BF00BF00BF98
:10244C0000BF00BF00BF00BF00BF00BF00BF00BF88
:10245C0000BF00BF00BF00BF00BF00BF00BF00BF78
:10246C0000BF00BF00BF00BF00BF00BF00BF00BF68
:10247C0000BF00BF00BF00BF00BF00BF00BF00BF58
:10248C0000BF00BF00BF00BF00BF00BF00BF00BF48
:10249C0000BF00BF00BF00BF00BF00BF00BF00BF38
:1024AC0000BF00BF00BF00BF00BF00BF00BF00BF28
:1024BC0000BF00BF00BF00BF00BF00BF00BF00BF18
:1024CC0000BF00BF00BF00BF00BF00BF00BF00BF08
:1024DC0000BF00BF00BF00BF00BF00BF00BF00BFF8
:1024EC0000BF00BF00BF00BF00BF00BF00BF00BFE8
:1024FC0000BF00BF00BF00BF00BF00BF00BF00BFD8
:10250C0000BFE3791068C3EBC30300EB8307BF88FC
:10251C0050F823305F83004600BF00BF00BF00BFF0
:10252C0000BF00BF00BF00BF00BF00BF00BF00BFA7
:10253C0000BF00BF00BF00BF00BF00BF00BF00BF97
:10254C0000BF00BF00BF00BF00BF00BF00BF00BF87
:10255C0000BF00BF00BF00BF00BF00BF00BF00BF77
:10256C0000BF00BF00BF00BF00BF00BF00BF00BF67
:10257C0000BF00BF00BF00BF00BF00BF00BF00BF57
:10258C0000BF00BF00BF049B5B0804939DF805309F
:10259C000133DBB2172B8DF8053000F2E380E379C1
:1025AC001068C3EBC30300EB8307BF8850F82330DC
:1025BC001F830398049B18427FF412AF004600BFA0
:1025CC0000BF00BF00BF00BF00BF00BF00BF00BF07
:1025DC0000BF00BF00BF00BF00BF00BF00BF00BFF7
:1025EC0000BF00BF00BF00BF00BF00BF00BF00BFE7
:1025FC0000BF00BF00BF00BF00BF00BF00BF00BFD7
:10260C0000BF00BF00BF00BF00BF00BF00BF00BFC6
:10261C0000BF00BF00BF00BF00BF00BF00BF00BFB6
:10262C0000BF00BF00BF00BF00BF00BF00BF00BFA6
:10263C0000BF00BF00BF00BF00BF00BF00BFE379F9
:10264C001068C3EBC30300EB8307BF8850F823303B
:10265C005F83004600BF00BF00BF00BF00BF00BFCC
:10266C0000BF00BF00BF00BF00BF00BF00BF00BF66
:10267C0000BF00BF00BF00BF00BF00BF00BF00BF56
:10268C0000BF00BF00BF00BF00BF00BF00BF00BF46
:10269C0000BF00BF00BF00BF00BF00BF00BF00BF36
:1026AC0000BF00BF00BF00BF00BF00BF00BF00BF26
:1026BC0000BF00BF00BF00BF00BF00BF00BF00BF16
:1026CC0000BF00BF00BF00BF00BF00BF00BF00BF06
:1026DC0000BF00BF00BF00BF00BF00BF00BF00BFF6
:1026EC0000BF00BF00BF00BF00BF00BF00BF00BFE6
:1026FC0000BF00BF00BF00BF00BF00BF00BF00BFD6
:10270C0000BF00BF00BF00BF00BF00BF00BF00BFC5
:10271C0000BF00BF00BF00BF00BF00BF00BF00BFB5
:10272C0000BF00BF00BF00BF00BF00BF00BF00BFA5
:10273C0000BF00BF00BF00BF00BF00BF00BF00BF95
:10274C0000BF00BF00BF00BF00BF00BF00BF00BF85
:10275C0000BF00BF00BF00BF00BF00BF00BF00BF75
:10276C0000BF10E78E460DE64388F0B58B4245D985
:10277C00057AC2F30743C2F30724D6B245B16B43C3
:10278C006C436E43C3F30723C4F30724C6F3072635
:10279C0090F806C0C768BCF1060F0CBF04250325D2
:1027AC006943BCF1080F07EB010524D84FF0010E6B
:1027BC000EFA0CFE1EF4D27F0CD11EF0400F0DD180
:1027CC001EF0100F17D0FF2B08BFFE237B546E702A
:1027DC00AC70F0BD7C546B70AE70F0BD7B546C7003
:1027EC00AE70037A120E0BB9D2B202E05A43C2F3A6
:1027FC000722EA70F0BD7B546C70AE70F0BD42EAFB
:10280C00012242EA00407047408870474A1C037A14
:10281C00D2B29A4270B51ED0013B13F0FF03C468CC
:10282C000CD0FF290FBF4FF6FF71110201F1FF31E0
:10283C0091FBF3F30CBF91FBF3F39BB22546291BE1
:10284C00868889B28E4205D929785943091205F830
:10285C00011BF4E7027270BD08B500F03DFA00F000
:10286C003BFA014B186008BDB402002038B5044691
:10287C008361049B0025C361059B42610362056172
:10288C0005608562816090B2012101F0B9FC208B5A
:10289C00012101F0B5FCA08B012101F0B1FC208CD1
:1028AC00012101F0ADFC04236562E360204638BDD4
:1028BC008268034B93FBF2F393FBF1F14160704799
:1028CC000087930338B5C3680446022B0D4617D115
:1028DC00032915D8DFE801F002040A0C002100E0FE
:1028EC000121A08A01F09DFC012106E0012100E0FC
:1028FC000021A08A01F095FC0021208B01F091FCB5
:10290C00E368042B2FD1032D2DD8DFE805F0020846
:10291C00161C0121A08A01F084FC002104E0002196
:10292C00A08A01F07EFC0121208B01F07AFC0121B0
:10293C00A08B01F076FC002112E00021A08A01F0AE
:10294C0070FC012104E00121A08A01F06AFC002145
:10295C00208B01F066FC0021A08B01F062FC0121B0
:10296C00208C01F05EFCE368052B70D1092D6ED82C
:10297C00DFE805F0050B1523252B354355570021B2
:10298C00A08A01F04EFC012150E00021A08A01F048
:10299C0048FC0121208B01F044FC00214AE000217D
:1029AC00A08A01F03EFC0121208B01F03AFC0021B1
:1029BC00A08B01F036FC012140E0002100E0012158
:1029CC00A08A01F02EFC012104E00121A08A01F073
:1029DC0028FC0021208B01F024FC002108E00121BF
:1029EC00A08A01F01EFC0021208B01F01AFC0121B1
:1029FC00A08B01F016FC01210CE00121A08A01F052
:102A0C0010FC0021208B01F00CFC0121A08B01F0AB
:102A1C0008FC0021208C01F004FC002112E00121B3
:102A2C0000E00021A08A01F0FCFB0021208B01F0CA
:102A3C00F8FB0121A08B01F0F4FB0021208C01F0AC
:102A4C00F0FB0121A08CBDE8384001F0EABB38BD99
:102A5C00F8B5002981EAE1750446A5EBE17501DDC5
:102A6C00012301E001D00023236000270A26002D5A
:102A7C002FD000F021F9A36A6268C31A9342F6D3EF
:102A8C002368A062012B236906D1A268013393420B
:102A9C00236107D1276105E00BB9A3682361236982
:102AAC00013B2361E368013D052B236904D193FBB2
:102ABC00F6F106FB113108E0064919400029BEBFAA
:102ACC0001F1FF3161F0030101312046FFF7FAFEFD
:102ADC00CDE7F8BD0300008000F0FEB800230360D2
:102AEC0083624360C36403657047000038B50446D5
:102AFC000C4D0830294600F0BBFE294604F11800A5
:102B0C0000F0B6FE294604F12C0000F0B1FE294677
:102B1C0004F13C0000F0ACFE2046FFF7DFFF20463E
:102B2C0038BD00BF4E590A0810B50446006800F0C5
:102B3C00E9FAA06A00F0E6FAE06C00F0E3FA04F1BE
:102B4C003C0000F04EFE04F12C0000F04AFE04F1B3
:102B5C00180000F046FE04F1080000F042FE20468A
:102B6C0010BD38B50D46416804460131006800F0CF
:102B7C00D1FA206018B163685A1C6260C55438BD24
:102B8C004FF0FF322DE9F04F064614469146904621
:102B9C0083B000F1180B00AFD6F804A0551CAA4561
:102BAC0061DD31684B5D2C2B10D1E846D31D23F031
:102BBC000703ADEB030D684602F0AEFC694606F167
:102BCC00080000F068FEC546A8464AE0B8F1000FC0
:102BDC0047DDBBB9B9F1000F14DAE946C8EB0503C0
:102BEC00063323F00703ADEB030D08F10103194481
:102BFC00684602F091FC6946584600F04CFECD4602
:102C0C00A9462EE0B9F1000F2BDD002C28DAC8EB19
:102C1C0009000423441E90FBF3F0002806DB01F0AE
:102C2C0015FE0022134B01F0C5FC05E001F00EFE71
:102C3C000022104B01F0BCFC02F01EF9C4EB800426
:102C4C0003344C44C4EB0A0210467A6000F052FA8A
:102C5C003168B06221447A6802F05EFC544600E0B0
:102C6C0003D12A4698E7002000E001200C37BD462E
:102C7C00BDE8F08F0000E03F70B504460830154603
:102C8C0000F01AFE20B120462B46BDE870401847D4
:102C9C0070BD00F021B8000008B5024B1B681B6B1F
:102CAC00019308BDD001060808B5024B1B685B6890
:102CBC00019308BD9C01060808B5024B1B681B69F3
:102CCC00019308BD9C01060808B5024B1B685B69A3
:102CDC00019308BD9C01060808B5024B1B681B68D4
:102CEC00019308BDB001060808B5024B1B689B6830
:102CFC00019308BDB001060808B5024B1B68DB68E0
:102D0C00019308BDB001060808B5024B1B681B698E
:102D1C00019308BDB001060808B5024B1B68DB6CBB
:102D2C00019308BDAC01060808B5024B1B685B6D2E
:102D3C00019308BDAC01060808B5024B1B689B6DDE
:102D4C00019308BDAC01060808B5024B1B68DB6D8E
:102D5C00019308BDAC01060808B5024B1B681B6E3D
:102D6C00019308BDAC01060808B5024B1B685B6EED
:102D7C00019308BDAC01060808B5024B1B689B6E9D
:102D8C00019308BDAC01060808B5024B1B68DB6E4D
:102D9C00019308BDAC01060808B5024B1B681B6FFC
:102DAC00019308BDAC01060808B5024B1B685B6FAC
:102DBC00019308BDAC01060808B5034B1B68D3F89A
:102DCC008030019308BD0000AC01060808B5024B29
:102DDC001B685B68019308BDBC01060808B5024B73
:102DEC001B689B68019308BDBC01060808B5024B23
:102DFC001B685B69019308BDBC01060808B5024B52
:102E0C001B68DB69019308BDBC01060808B5024BC1
:102E1C001B681B6A019308BDBC01060808B5024B70
:102E2C001B681B6B019308BDBC01060808B5024B5F
:102E3C001B681B68019308BDB401060808B5024B5A
:102E4C001B689B68019308BDB401060808B5024BCA
:102E5C001B68DB68019308BDB401060808B5024B7A
:102E6C001B681B69019308BDB401060808B5024B29
:102E7C001B685B69019308BDB401060808B5024BD9
:102E8C001B68DB69019308BDB401060808B5024B49
:102E9C001B681B6A019308BDB401060808B5024BF8
:102EAC001B685B6A019308BDB401060808B5024BA8
:102EBC001B689B69019308BDC401060808B5024B49
:102ECC001B685B6A019308BDC401060808B5024B78
:102EDC001B689B6A019308BDC401060808B5024B28
:102EEC001B68DB6A019308BDC401060808B5024BD8
:102EFC001B681B6B019308BDC401060808B5024B87
:102F0C001B685B6B019308BDC401060808B5024B36
:102F1C001B689B6B019308BDC401060808B5024BE6
:102F2C001B681B6C019308BDC401060808B5024B55
:102F3C001B681B68019308BDD801060808B5024B35
:102F4C001B685B68019308BDD801060808B5024BE5
:102F5C001B681B69019308BDD801060808B5024B14
:102F6C001B685B69019308BDD801060808B5024BC4
:102F7C001B689B69019308BDD801060808B5024B74
:102F8C001B68DB69019308BDD801060808B5024B24
:102F9C001B681B6A019308BDD801060808B5024BD3
:102FAC001B685B6A019308BDD801060808B5024B83
:102FBC001B689B6C019308BDC001060808B5024B49
:102FCC001B685B68019308BDA401060808B5024B99
:102FDC001B685B69019308BDA401060808B5024B88
:102FEC001B68DB6A019308BDA401060808B5034BF6
:102FFC001B68D3F89030019308BD0000A4010608AB
:10300C0008B5034B1B68D3F89C30019308BD000036
:10301C00A401060808B5024B1B68DB6B019308BDC5
:10302C00CC01060808B5024B1B681B68019308BD50
:10303C00C801060808B5024B1B685B68019308BD04
:10304C00C801060808B5024B1B689B68019308BDB4
:10305C00C801060808B5024B1B68DB68019308BD64
:10306C00C801060808B5024B1B681B69019308BD13
:10307C00C801060808B5024B1B685B69019308BDC3
:10308C00C801060808B5024B1B689B69019308BD73
:10309C00C801060808B5024B1B68DB69019308BD23
:1030AC00C801060808B5024B1B681B6A019308BDD2
:1030BC00C801060808B5024B1B681B6B019308BDC1
:1030CC00C801060808B5024B1B685B6B019308BD71
:1030DC00C801060808B5024B1B689B6B019308BD21
:1030EC00C801060808B5024B1B68DB6B019308BDD1
:1030FC00C801060808B5024B1B681B68019308BD84
:10310C00A001060808B5024B1B685B68019308BD5B
:10311C00A001060808B5024B1B689B68019308BD0B
:10312C00A00106080021FFF751BF10B583680446C3
:10313C0013B1032201469847204610BD7047F8B5DD
:10314C00064615460C468F18BC4206D0336814F858
:10315C00011B9B6830469847F6E72846F8BD0022CD
:10316C00007CFFF7F9BD0021007CFFF7FDBD0021BD
:10317C00007CFFF701BE0021007CFFF705BE00219B
:10318C00007CFFF709BE10B50446142101F0C1F80C
:10319C00204610BD10B5044608464FF47A73A36060
:1031AC00044B0021207461602360FFF705FE20466C
:1031BC0010BD00BF70580A0800231A461946007C3F
:1031CC00FFF7AABD13B50024007C0094FFF7ACFDFB
:1031DC00C0B202B010BD0123FFF7F4BF0022007C87
:1031EC00FFF7AABD0022007CFFF7AEBD0121FFF75F
:1031FC00F9BF0021007CFFF7D7BDF8B50F4600F1F1
:10320C000806051D002416F8011D0A22384600F098
:10321C005CF9AE42044407D0002CF4D02E21384681
:10322C0000F0F6F80444EEE72046F8BD10B504466D
:10323C00044B112240F8043B002102F078F920469F
:10324C0010BD00BF98580A080346074A10B543F84A
:10325C00042B01F1100251F8044B914243F8044B3A
:10326C00F9D10A781A7010BD98580A08024A4160C0
:10327C00026004220275704798580A0810B59DF830
:10328C00084044EA032343EA024242EA0161042370
:10329C004160037510BD000037B5044D05609DF805
:1032AC0018500095FFF7EAFF03B030BD98580A0894
:1032BC0037B50D788B784A78C97800912946FFF795
:1032CC00DDFF03B030BD0000014A024B1A607047AD
:1032DC001A590A08B802002000231A464068FFF762
:1032EC00A9BE002202214068FFF7B4BE002211469D
:1032FC004068FFF7A7BE002211464068FFF7B2BE38
:10330C0000231A4619464068FFF7B4BE00231A463C
:10331C0019464068FFF7B6BE002281F001014068F3
:10332C00FFF7B8BE00224068FFF7C4BE002211466A
:10333C004068FFF7C7BE002211464068FFF7B2BED7
:10334C0070B516468EB0044608A8FFF76FFF112221
:10335C00002103A802F0EBF8304602F05DF90025DD
:10336C000A4B009581B25B6803AA3046FFF71EFE3C
:10337C0020B129462046FFF779FF03E003A9204638
:10338C00FFF762FF20460EB070BD00BF3C07002067
:10339C00034B044A04280CBF10461846704700BF64
:1033AC00BC0200203C070020024B034A1A6000229A
:1033BC005A607047BC02002090590A08F8B50646BE
:1033CC000D468F180024BD420CD0336815F8011B34
:1033DC009B6830469847002801DB0444F3E7002C37
:1033EC0008BF04462046F8BD70B505460C46084695
:1033FC0049B102F011F92B68024621462846BDE876
:10340C007040DB68184770BD08B5FFF7EDFF08BDCD
:10341C0003689B6818470B460A68014612681846F1
:10342C00104738B50D210546FFF7F2FF0A21044677
:10343C002846FFF7EDFF204438BD38B50546FFF7A9
:10344C00D3FF04462846FFF7ECFF204438BD38B5BF
:10345C000546FFF7DDFF04462846FFF7E2FF204450
:10346C0038BD38B50546FFF7D6FF04462846FFF7AA
:10347C00D8FF204438BD012A98BF0A2230B50B462C
:10348C008BB000218DF824100DF12304B3FBF2F561
:10349C0005FB1233DBB2092B94BF30333733DBB26D
:1034AC00214604F801392B46002DEFD1FFF79CFF84
:1034BC000BB030BD10B422B90368C9B29B6810BC04
:1034CC001847D2B210BCFFF7D6BFFFF7F3BF2DE9F8
:1034DC00F04107460E4615462AB9BDE8F04103688F
:1034EC00C9B29B6818470A2A02D1002901DA04E004
:1034FC00D2B2BDE8F041FFF7BEBF2D21FFF788FF28
:10350C002A46044671423846FFF7B5FF2044BDE811
:10351C00F081FFF7DCBF38B50546FFF7D8FF04464E
:10352C002846FFF77EFF204438BD00002DE9F84304
:10353C0019468046104617461E469DF8205001F04D
:10354C0085FC08B1474912E026F000444FF0FF32E9
:10355C00454B3846214601F079FC68B94FF0FF32F3
:10356C00414B3846214601F053FC28B93F494046AF
:10357C00FFF73AFFBDE8F8834FF060423C4B38460A
:10358C00314601F059FC08B13A49F0E74FF060427E
:10359C00394B3846314601F031FC0028F4D1002279
:1035AC0000233846314601F029FC38B12D21404624
:1035BC00FFF72EFF06F10046044600E004462F49B3
:1035CC004FF0000900205FFA89F39D4206D90022D2
:1035DC002B4B01F0CBFA09F10109F4E73A463346DB
:1035EC0000F0E8FF0F46064601F06EFC0A22014689
:1035FC0081464046FFF73FFF04447DB3484601F047
:10360C0015F902460B463046394600F0D1FF064606
:10361C000F4640461B49FFF7E7FE0444184B0022B7
:10362C003046394601F078F90F46064601F024FC85
:10363C000A22014681464046FFF749FF04444846AA
:10364C0001F004F902460B463046394600F0B0FF53
:10365C00013D15F0FF0506460F46DFD12046BDE8BB
:10366C00F88300BFBC590A08FFFFEF7FC4590A0852
:10367C00FFFFEF41C0590A08FFFFEFC10000E03F18
:10368C000000244088560A0837B59DF818100546E6
:10369C000091FFF74BFF04462846FFF7C2FE20447B
:1036AC0003B030BD10B50446FFF73FFD204610BDFA
:1036BC00034800238360034A034900F025BE00BF82
:1036CC00C402002088000020B1360A08704710B5EB
:1036DC000446102100F01DFE204610BD70B50446B6
:1036EC000E46074B0025036040F80C5FFFF7D4FA39
:1036FC0030462671FFF7C2FBA560204670BD00BFA7
:10370C00D0590A084FF6FF710079FFF78FBB00798B
:10371C00FFF794BB0079FFF799BB0000054A002323
:10372C00995C814202D00133082BF9D1581CC0B2EC
:10373C00704700BFD8590A08400830B518600024FB
:10374C001868E5B2884206D90134082C02D040082A
:10375C001860F5E70725024B5B5D137030BD00BFA9
:10376C00D8590A0870B5044602FB01F588B00679F1
:10377C001422002103A801F0DAFE0B2303A9304622
:10378C000022ADF80C30FFF789FB02AB0DF10702FC
:10379C0029460498FFF7D0FF20799DF80710FFF712
:1037AC005DFB029808B070BD38B50446A5680846A4
:1037BC004DB1FFF7B3FF012225FA00F12046BDE819
:1037CC003840FFF7CFBF2079BDE83840FFF746BB44
:1037DC0008B50079FFF74AFBC0B208BD0079FFF7C6
:1037EC0055BB10B504460068FFF78CFC204610BD95
:1037FC0010B50446006808B1FFF784FC0023236071
:10380C00A360636010BD38B504460D4600680131F5
:10381C00FFF780FC10B184E82100012038BD10B501
:10382C000368044613B143688B4207D22046FFF766
:10383C00EAFF20B1A3680BB922681370012010BDF8
:10384C0070B50E46114604461546FFF7E8FF18B949
:10385C002046FFF7CDFF09E02A463146A5602068D7
:10386C0001F05AFE2268A3680021D154204670BD95
:10387C0038B50023044603604360836003730D4630
:10388C0039B1084601F0C8FE294602462046FFF72A
:10389C00D7FF204638BD38B505460C4641B1084621
:1038AC0001F0BAFE214602462846FFF7C9FF01E0A7
:1038BC00FFF79EFF284638BD08B582680B4612B943
:1038CC0019B9012008BD11B90368187802E0006825
:1038DC0001F098FEB0FA80F0400908BD4FF6FF7277
:1038EC00034B0020187058809A80FFF767BB00BF0D
:1038FC00D4020020024B1A68024B1A60704700BFBA
:10390C0020000020DC02002010B40468246BA446C4
:10391C0010BC604703689B6C1847808E7047028F01
:10392C00C08E101A704713B502AB026803F8011D64
:10393C00D46819460122A04702B010BD10B5036827
:10394C0004461B69984728B1E38EE26B591CE1864B
:10395C00D05C10BD4FF0FF3010BD10B503680446AD
:10396C001B69984718B1E38EE26BD05C10BD4FF029
:10397C00FF3010BD70470346084610B4D98EDC6B7F
:10398C001A8F0368521ADB68214410BC1847A0F147
:10399C001000FFF7F0BFF7B5054610460F46164668
:1039AC00FFF7F6FC0368DB689847B8B102213B4689
:1039BC00112208460096FFF711FA6861FFF706FA24
:1039CC00044630B10023EB862B872F836E640120D5
:1039DC0004E02B6828465B6A9847204603B0F0BD8C
:1039EC0038B504464569FFF719FA854202D060697B
:1039FC00FFF70CFAFFF712FA00236061E3862387C6
:103A0C0038BD30B587B0BDF828400225ADF8085058
:103A1C008DF80B40250ADC798DF80A508DF80C4096
:103A2C009C798DF80D405C791B798DF80E408DF8E2
:103A3C000F301023019302AB009340690023FFF772
:103A4C00DDF907B030BD38B5C36B0546C08E13B178
:103A5C002C6C241A00E01C46944228BF14461844CF
:103A6C00224601F059FDEB8E20462344EB8638BDEF
:103A7C0070B5036804461B690E461546984788B115
:103A8C00236820461B6998478542A8BF0546E38EEC
:103A9C00E16B2A461944304601F03EFDE38E2B447F
:103AAC00E38601E04FF0FF35284670BDF0B50446C3
:103ABC0089B0406C0D461646FFF76AFC0368DB685C
:103ACC00984710B36769FFF7A9F987421DD0E5B194
:103ADC0008AB102243F8142D01930DEB0203009355
:103AEC002946002332466069FFF780F9051E0EDB7C
:103AFC009DF812209DF8133005A943EA0223A386F2
:103B0C0004F11C00FFF7D4FB01E04FF0FF35284611
:103B1C0009B0F0BD2DE9F041064694B0406C0D465D
:103B2C009046FFF735FC0368DB689847F8B12846E8
:103B3C0001F072FD002481B20094736C03AA284634
:103B4C00FFF734FA90B903A908A8FFF77DFB336897
:103B5C000FAC9F6B074B09AD0E930FCD0FC42B68A9
:103B6C00424623700EA93046B84700E0204614B0F8
:103B7C00BDE8F08198580A0870B504460646054B16
:103B8C0001F1200544F8043B0FCD0FC42B683046DF
:103B9C00237070BD98580A08F0B594468E460646B8
:103BAC00026889B0976A094A03AC1D1D02920FCDB9
:103BBC000FC42B6862462370BDF8383071460093F1
:103BCC00304602ABB84709B0F0BD00BF98580A08A0
:103BDC00F0B50446036889B09F6A0D4B03AD00F144
:103BEC002006B0F836E002930FCE0FC5336872464C
:103BFC002B70A38EE16B0093204602ABB8470546B1
:103C0C0023682046DB699847284609B0F0BD00BF01
:103C1C0098580A0838B54FF47A7383600B4B00251B
:103C2C0003F108026C330260036145600446FFF740
:103C3C00F5F8606104F11C00FFF7F8FA4FF400731B
:103C4C00E5862587E5632364204638BD0C5A0A08AF
:103C5C0010B590F84830044623B1C06B10B1012167
:103C6C0000F057FB0023E36384F848302364E386B9
:103C7C00238710BD70B5044616460D46FFF7E8FFC6
:103C8C000023E66323643EB935B12846FCF7FFF9FF
:103C9C000123E06384F84830E36B03B12564206CA6
:103CAC00003018BF012070BDF8B51746C26B054631
:103CBC000C461AB9016C09B1FFF7DCFF05F12006BF
:103CCC0004340FCC0FC6236833700023AF86EB8609
:103CDC002B87286CF8BD70B5C26B04461AB9016C01
:103CEC0009B1FFF7C7FFE16B0023E386238741B1DE
:103CFC00226C32B12068056B2046A8470028C8BF4B
:103D0C00208723682046BDE870401B691847704720
:103D1C004174704708B5007CFFF700F920EAE070A9
:103D2C0008BD08B5007CFFF7D1F820EAE07008BDAB
:103D3C0008B5007CFFF7DAF830EA200028BF4FF016
:103D4C00FF3008BD08B5007CFFF7C8F830EA20004A
:103D5C0028BF4FF0FF3008BD007CFFF7CFB810B57F
:103D6C000446142100F0D5FA204610BD70B5457CF0
:103D7C0004460E4625B9007CFFF7D0F8002805DD77
:103D8C003146207CBDE87040FFF798B8284670BDDE
:103D9C0010B5044608461146002262604FF47A7250
:103DAC00A260054A20742260012262741A46FFF751
:103DBC007DF8204610BD00BF845A0A08007CFFF72E
:103DCC00A5B8000038B50C4D296811F0010411D1CB
:103DDC002846FCF760F968B1084A2146084B0948A7
:103DEC00FFF7D6FF2846FCF75BF9074A0749054859
:103DFC0000F08AFA034838BD780300207C030020C9
:103E0C00F4020020E0020020880000201B3D0A087C
:103E1C0041747047704708B50021007CFFF7A6F885
:103E2C0030EA200028BF4FF0FF3008BD08B5012153
:103E3C00007CFFF79BF830EA200028BF4FF0FF30E2
:103E4C0008BD08B5007CFFF789F820EAE07008BDD2
:103E5C0008B5007CFFF77AF820EAE07008BD007C1A
:103E6C00FFF794B810B50446142100F052FA20461E
:103E7C0010BD38B50446007C0D46FFF76FF80028DE
:103E8C0001DC607C28B12946207CFFF777F820EA1A
:103E9C00E07038BD10B50446002363604FF47A73AC
:103EAC00A360054B084623600123217463741146FB
:103EBC00FFF73CF8204610BDB45A0A080022007CDB
:103ECC00FFF73CB8007CFFF769B8FFF7FBBF0000B9
:103EDC0010B504461422002101F029FB054B2046A5
:103EEC006360054BE36040F201132381812323823D
:103EFC0010BD00BF850400200404002030B50E4D19
:103F0C0087B001A8FFF7E4FF296811F0010410D174
:103F1C002846FCF7C0F860B101AA21460748FFF714
:103F2C00B9FF2846FCF7BCF8054A0649034800F0DF
:103F3C00EBF9024807B030BD0004002088050020D2
:103F4C0088000020213E0A0810B5044614220021E6
:103F5C0001F0EDFA054B20466360054BE36040F23F
:103F6C00011323818123238210BD00BF380600205A
:103F7C00A005002010B50E4C86B001A8FFF7E4FF99
:103F8C002368DB0710D42046FCF785F860B101AA42
:103F9C0001210848FFF77EFF2046FCF781F8064A0E
:103FAC000649044800F0B0F9024806B010BD00BF45
:103FBC009C0500202406002088000020213E0A08D1
:103FCC00002211464068FFF74DB8F0B5164689B08F
:103FDC0011220F460446002103A801F0A8FA30462E
:103FEC0001F01AFB0025009581B27B6803AA3046CC
:103FFC00FEF7DCFF20B129462046FFF737F903E036
:10400C0003A92046FFF720F9204609B0F0BD002295
:10401C0011464068FFF746B8002211464068FFF78A
:10402C0051B800224068FFF745B8002281F0010129
:10403C004068FFF72FB800231A4619464068FFF76F
:10404C0021B800231A4619464068FFF713B800221E
:10405C0011464068FEF7F6BF002202214068FEF7C9
:10406C00F9BF00231A464068FEF7E4BF024B042256
:10407C005A60024A1A6070473C070020E45A0A084A
:10408C0008B5144B33B1FFF739FF03681B69984728
:10409C00002816DC104B33B1FFF794FE03681B6944
:1040AC009847002810DC0D4B0BB1AFF300800C4B84
:1040BC007BB1FFF75FFF03681B699847002806DC9C
:1040CC0008BDAFF30080E5E7AFF30080EBE7AFF39B
:1040DC00008008BD0000000000000000000000008F
:1040EC000000000008B5FFF7CBFFFEF7EDFD014B1C
:1040FC00186008BD4C0700200248034A0349121AF5
:10410C0001F00ABA0040024004400240C05B0A08B9
:10411C0007B5002300931A466FF07701FEF770FF86
:10412C0003B05DF804FB000007B543880A2B08D0E8
:10413C00502B09D1094B1B683BB103B05DF804EB64
:10414C001847FFF7E5FF06E0002300931A466FF0CF
:10415C007701FEF755FF03B05DF804FB4407002020
:10416C0038B5104C104D2368AB42104B0CBF0122DC
:10417C0000221A7002D0FFF7BFFF2560FEF794FDF6
:10418C00044601F0DDF90A4B13B12046AFF3008071
:10419C0000210748FEF73EFFBDE8384000210548E6
:1041AC00FEF724BF004002401E1C279A480700203F
:1041BC000000000035410A0810B504460F48FFF70F
:1041CC000DFB28B1A4F10D03022B01D8002010BD6A
:1041DC0000F040F8FFF70DF808B1012CF6D9FFF705
:1041EC00F1FDFFF7EBFD18B1A4F11203012BEDD992
:1041FC00172C8CBF0020012010BD00BF80070020B1
:10420C00172838B504460D460AD8FF2908D0FFF701
:10421C00D3FF28B129462046BDE83840FEF764BDDF
:10422C0038BD38B504460D46FEF766FDFF2810D0A4
:10423C00062804D84D2323FA00F0C30709D42046DE
:10424C00FFF7BAFF28B129462046BDE83840FEF7F3
:10425C005BBD38BD38B50B4D296811F001040FD189
:10426C002846FBF718FF58B121460748FEF792FF86
:10427C002846FBF715FF054A0549034800F044F8AA
:10428C00014838BD5007002054070020880000204A
:10429C0049310A0813B5084C00231A4619460093F5
:1042AC002046FEF7F9FF2046044A054902B0BDE856
:1042BC00104000F029B800BF6807002088000020DB
:1042CC00B3000A0870B50C4C0C4E0D4D0021204665
:1042DC00FFF704FA20460B4C3246294600F014F83E
:1042EC0001212046FFF7FAF9324629462046BDE85F
:1042FC00704000F009B800BF800700208800002043
:10430C00D9360A08900700200B460146184601F0E2
:10431C00F5B8FBF7BEBE0000244B1A68D0075CBF93
:10432C0001221A60224B1A68D1075CBF01221A6065
:10433C00204B1A68D2075CBF01221A601E4B1A6808
:10434C00D0075CBF01221A601C4B1A68D1075CBFF6
:10435C0001221A601A4B1A68D2075CBF01221A603C
:10436C00184B1A68D0075CBF01221A60164B1A68EA
:10437C00D1075CBF01221A60144B1A68D2075CBFCC
:10438C0001221A60124B1A68D0075CBF01221A6016
:10439C00104B1A68D1075CBF01221A600E4B1A68C9
:1043AC00D2075CBF01221A60704700BFCC07002007
:1043BC00C8070020C4070020C0070020BC0700204D
:1043CC00B8070020B4070020B0070020AC0700207D
:1043DC00A8070020A4070020A0070020184B1A688B
:1043EC00D1075CBF01221A60164B1A68D2075CBF5A
:1043FC0001221A60144B1A68D0075CBF01221A60A4
:10440C00124B1A68D1075CBF01221A60104B1A6854
:10441C00D2075CBF01221A600E4B1A68D0075CBF32
:10442C0001221A600C4B1A68D1075CBF01221A607A
:10443C000A4B1A68D2075CBF01221A60704700BF92
:10444C00EC070020E8070020E4070020E00700202C
:10445C00DC070020D8070020D4070020D00700205C
:10446C00184B1A68D1075CBF01221A60164B1A68E8
:10447C00D2075CBF01221A60144B1A68D0075CBFCC
:10448C0001221A60124B1A68D1075CBF01221A6014
:10449C00104B1A68D2075CBF01221A600E4B1A68C7
:1044AC00D0075CBF01221A600C4B1A68D1075CBFA5
:1044BC0001221A600A4B1A68D2075CBF01221A60EB
:1044CC00704700BF0C0800200808002004080020DA
:1044DC0000080020FC070020F8070020F40700204B
:1044EC00F0070020244B1A68D0075CBF01221A6029
:1044FC00224B1A68D1075CBF01221A60204B1A6844
:10450C00D2075CBF01221A601E4B1A68D0075CBF31
:10451C0001221A601C4B1A68D1075CBF01221A6079
:10452C001A4B1A68D2075CBF01221A60184B1A6822
:10453C00D0075CBF01221A60164B1A68D1075CBF0A
:10454C0001221A60144B1A68D2075CBF01221A6050
:10455C00124B1A68D0075CBF01221A60104B1A6804
:10456C00D1075CBF01221A600E4B1A68D2075CBFE0
:10457C0001221A60704700BF3C0800203808002058
:10458C0034080020300800202C08002028080020C7
:10459C0024080020200800201C08002018080020F7
:1045AC00140800201008002081F0004102E000BF38
:1045BC0083F0004330B54FEA41044FEA430594EAD7
:1045CC00050F08BF90EA020F1FBF54EA000C55EA12
:1045DC00020C7FEA645C7FEA655C00F0E2804FEAE3
:1045EC005454D4EB5555B8BF6D420CDD2C4480EAC5
:1045FC00020281EA030382EA000083EA010180EAF5
:10460C00020281EA0303362D88BF30BD11F0004F42
:10461C004FEA01314FF4801C4CEA113102D0404278
:10462C0061EB410113F0004F4FEA03334CEA1333B3
:10463C0002D0524263EB430394EA050F00F0A780CB
:10464C00A4F10104D5F1200E0DDB02FA0EFC22FAC6
:10465C0005F2801841F1000103FA0EF2801843FABA
:10466C0005F359410EE0A5F120050EF1200E012AAB
:10467C0003FA0EFC28BF4CF0020C43FA05F3C018E9
:10468C0051EBE37101F0004507D54FF0000EDCF162
:10469C00000C7EEB00006EEB0101B1F5801F1BD30B
:1046AC00B1F5001F0CD349085FEA30004FEA3C0C0F
:1046BC0004F101044FEA445212F5800F80F09A8005
:1046CC00BCF1004F08BF5FEA500C50F1000041EB09
:1046DC00045141EA050130BD5FEA4C0C404141EB0D
:1046EC00010111F4801FA4F10104E9D191F0000F34
:1046FC0004BF01460020B1FA81F308BF2033A3F1B7
:10470C000B03B3F120020CDA0C3208DD02F1140CAD
:10471C00C2F10C0201FA0CF021FA02F10CE002F1E8
:10472C001402D8BFC2F1200C01FA02F120FA0CFCE1
:10473C00DCBF41EA0C019040E41AA2BF01EB04512A
:10474C00294330BD6FEA04041F3C1CDA0C340EDC28
:10475C0004F11404C4F1200220FA04F001FA02F36B
:10476C0040EA030021FA04F345EA030130BDC4F129
:10477C000C04C4F1200220FA02F001FA04F340EA1E
:10478C000300294630BD21FA04F0294630BD94F0CF
:10479C00000F83F4801306BF81F480110134013DB6
:1047AC004EE77FEA645C18BF7FEA655C29D094EA27
:1047BC00050F08BF90EA020F05D054EA000C04BFA5
:1047CC001946104630BD91EA030F1EBF0021002090
:1047DC0030BD5FEA545C05D14000494128BF41F02F
:1047EC00004130BD14F580043CBF01F5801130BD93
:1047FC0001F0004545F0FE4141F470014FF000001E
:10480C0030BD7FEA645C1ABF194610467FEA655CCE
:10481C001CBF0B46024650EA013406BF52EA033570
:10482C0091EA030F41F4002130BD00BF90F0000F5E
:10483C0004BF0021704730B54FF4806404F132049A
:10484C004FF000054FF0000150E700BF90F0000F53
:10485C0004BF0021704730B54FF4806404F132047A
:10486C0010F0004548BF40424FF000013EE700BF4A
:10487C0042004FEAE2014FEA31014FEA02701FBFDA
:10488C0012F07F4393F07F4F81F06051704792F0AC
:10489C00000F14BF93F07F4F704730B54FF4607426
:1048AC0001F0004521F0004120E700BF50EA010271
:1048BC0008BF704730B54FF000050AE050EA01021E
:1048CC0008BF704730B511F0004502D5404261EB8E
:1048DC0041014FF4806404F132045FEA915C3FF4CF
:1048EC00DCAE4FF003025FEADC0C18BF03325FEA68
:1048FC00DC0C18BF033202EBDC02C2F1200300FA1D
:10490C0003FC20FA02F001FA03FE40EA0E0021FA41
:10491C0002F11444C1E600BF70B54FF0FF0C4CF42B
:10492C00E06C1CEA11541DBF1CEA135594EA0C0FE1
:10493C0095EA0C0F00F0DEF82C4481EA030621EA1C
:10494C004C5123EA4C5350EA013518BF52EA033557
:10495C0041F4801143F4801338D0A0FB02CE4FF009
:10496C000005E1FB02E506F00042E0FB03E54FF039
:10497C000006E1FB03569CF0000F18BF4EF0010E31
:10498C00A4F1FF04B6F5007F64F5407404D25FEA2D
:10499C004E0E6D4146EB060642EAC62141EA5551E0
:1049AC004FEAC52040EA5E504FEACE2EB4F1FD0C22
:1049BC0088BFBCF5E06F1ED8BEF1004F08BF5FEAA0
:1049CC00500E50F1000041EB045170BD06F0004652
:1049DC0046EA010140EA020081EA0301B4EB5C04FF
:1049EC00C2BFD4EB0C0541EA045170BD41F48011F7
:1049FC004FF0000E013C00F3AB8014F1360FDEBF1C
:104A0C00002001F0004170BDC4F10004203C35DAF7
:104A1C000C341BDC04F11404C4F1200500FA05F37A
:104A2C0020FA04F001FA05F240EA020001F000421B
:104A3C0021F0004110EBD37021FA04F642EB060191
:104A4C005EEA430E08BF20EAD37070BDC4F10C04BB
:104A5C00C4F1200500FA04F320FA05F001FA04F27F
:104A6C0040EA020001F0004110EBD37041F100016B
:104A7C005EEA430E08BF20EAD37070BDC4F1200576
:104A8C0000FA05F24EEA020E20FA04F301FA05F2DE
:104A9C0043EA020321FA04F001F0004121FA04F286
:104AAC0020EA020000EBD3705EEA430E08BF20EA56
:104ABC00D37070BD94F0000F0FD101F00046400090
:104ACC0041EB010111F4801F08BF013CF7D041EA12
:104ADC00060195F0000F18BF704703F00046520016
:104AEC0043EB030313F4801F08BF013DF7D043EAE7
:104AFC000603704794EA0C0F0CEA135518BF95EA9D
:104B0C000C0F0CD050EA410618BF52EA4306D1D123
:104B1C0081EA030101F000414FF0000070BD50EA42
:104B2C00410606BF1046194652EA430619D094EACC
:104B3C000C0F02D150EA013613D195EA0C0F05D1B6
:104B4C0052EA03361CBF104619460AD181EA03010A
:104B5C0001F0004141F0FE4141F470014FF00000C2
:104B6C0070BD41F0FE4141F4780170BD70B54FF05D
:104B7C00FF0C4CF4E06C1CEA11541DBF1CEA1355DD
:104B8C0094EA0C0F95EA0C0F00F0A7F8A4EB0504BF
:104B9C0081EA030E52EA03354FEA013100F08880B6
:104BAC004FEA03334FF0805545EA131343EA12637F
:104BBC004FEA022245EA111545EA10654FEA002634
:104BCC000EF000419D4208BF964244F1FD0404F5ED
:104BDC00407402D25B084FEA3202B61A65EB030549
:104BEC005B084FEA32024FF480104FF4002CB6EB06
:104BFC00020E75EB030E22BFB61A754640EA0C0086
:104C0C005B084FEA3202B6EB020E75EB030E22BFC5
:104C1C00B61A754640EA5C005B084FEA3202B6EB06
:104C2C00020E75EB030E22BFB61A754640EA9C00C5
:104C3C005B084FEA3202B6EB020E75EB030E22BF95
:104C4C00B61A754640EADC0055EA060E18D04FEA53
:104C5C00051545EA16754FEA06164FEAC30343EAF3
:104C6C0052734FEAC2025FEA1C1CC0D111F4801FC0
:104C7C000BD141EA00014FF000004FF0004CB6E7B9
:104C8C0011F4801F04BF01430020B4F1FD0C88BF58
:104C9C00BCF5E06F3FF6AFAEB5EB030C04BFB6EB63
:104CAC00020C5FEA500C50F1000041EB045170BD56
:104CBC000EF0004E4EEA113114EB5C04C2BFD4EB83
:104CCC000C0541EA045170BD41F480114FF0000E07
:104CDC00013C90E645EA060E8DE60CEA135594EA83
:104CEC000C0F08BF95EA0C0F3FF43BAF94EA0C0F86
:104CFC000AD150EA01347FF434AF95EA0C0F7FF4FB
:104D0C0025AF104619462CE795EA0C0F06D152EA4E
:104D1C0003353FF4FDAE1046194622E750EA410632
:104D2C0018BF52EA43067FF4C5AE50EA41047FF443
:104D3C000DAF52EA43057FF4EBAE12E74FF0FF3CA8
:104D4C0006E000BF4FF0010C02E000BF4FF0010C79
:104D5C004DF804CD4FEA410C7FEA6C5C4FEA430CF2
:104D6C0018BF7FEA6C5C1BD001B050EA410C0CBF41
:104D7C0052EA430C91EA030F02BF90EA020F0020A3
:104D8C00704710F1000F91EA030F58BF994208BF0A
:104D9C0090422CBFD8176FEAE37040F001007047C7
:104DAC004FEA410C7FEA6C5C02D150EA013C07D11E
:104DBC004FEA430C7FEA6C5CD6D152EA033CD3D069
:104DCC005DF8040B704700BF8446104662468C4663
:104DDC001946634600E000BF01B5FFF7B7FF002896
:104DEC0048BF10F1000F01BD4DF808EDFFF7F4FFBF
:104DFC000CBF012000205DF808FB00BF4DF808ED4A
:104E0C00FFF7EAFF34BF012000205DF808FB00BF6C
:104E1C004DF808EDFFF7E0FF94BF012000205DF88E
:104E2C0008FB00BF4DF808EDFFF7CEFF94BF012043
:104E3C0000205DF808FB00BF4DF808EDFFF7C4FF3C
:104E4C0034BF012000205DF808FB00BF4FEA410C85
:104E5C007FEA6C5C02D150EA013C0AD14FEA430C68
:104E6C007FEA6C5C02D152EA033C02D14FF00000A5
:104E7C0070474FF0010070474FEA410212F50012E3
:104E8C0015D211D56FF47873B3EB625212D94FEA85
:104E9C00C12343F0004343EA505311F0004F23FA6F
:104EAC0002F018BF404270474FF00000704750EAC4
:104EBC00013005D111F0004008BF6FF00040704781
:104ECC004FF00000704700BF4A0011D212F50012DB
:104EDC0011D20DD56FF47873B3EB62520ED44FEA46
:104EEC00C12343F0004343EA505323FA02F07047C6
:104EFC004FF00000704750EA013002D14FF0FF3004
:104F0C0070474FF00000704780F0004002E000BF97
:104F1C0081F0004142001FBF5FEA410392EA030F98
:104F2C007FEA226C7FEA236C6AD04FEA1262D2EBE2
:104F3C001363C1BFD218414048404140B8BF5B42E7
:104F4C00192B88BF704710F0004F40F4000020F080
:104F5C007F4018BF404211F0004F41F4000121F096
:104F6C007F4118BF494292EA030F3FD0A2F10102E0
:104F7C0041FA03FC10EB0C00C3F1200301FA03F11E
:104F8C0000F0004302D5494260EB4000B0F5000F41
:104F9C0013D3B0F1807F06D340084FEA310102F100
:104FAC000102FE2A51D2B1F1004F40EBC25008BFB2
:104FBC0020F0010040EA03007047490040EB00007C
:104FCC0010F4000FA2F10102EDD1B0FA80FCACF1AB
:104FDC00080CB2EB0C0200FA0CF0AABF00EBC250AA
:104FEC0052421843BCBFD0401843704792F0000F98
:104FFC0081F4000106BF80F400000132013BB5E7EB
:10500C004FEA41037FEA226C18BF7FEA236C21D060
:10501C0092EA030F04D092F0000F08BF08467047C5
:10502C0090EA010F1CBF0020704712F07F4F04D193
:10503C00400028BF40F00040704712F100723CBFA6
:10504C0000F50000704700F0004343F0FE4040F4D0
:10505C00000070477FEA226216BF08467FEA23638E
:10506C000146420206BF5FEA412390EA010F40F479
:10507C00800070474FF0000304E000BF10F00043C5
:10508C0048BF40425FEA000C08BF704743F09643AC
:10509C0001464FF000001CE050EA010208BF7047C7
:1050AC004FF000030AE000BF50EA010208BF70474E
:1050BC0011F0004302D5404261EB41015FEA010C63
:1050CC0002BF84460146002043F0B64308BFA3F15B
:1050DC008053A3F50003BCFA8CF2083AA3EBC2533D
:1050EC0010DB01FA02FC634400FA02FCC2F120025C
:1050FC00BCF1004F20FA02F243EB020008BF20F093
:10510C000100704702F1200201FA02FCC2F12002F8
:10511C0050EA4C0021FA02F243EB020008BF20EAED
:10512C00DC7070474FF0FF0C1CEAD0521EBF1CEA1B
:10513C00D15392EA0C0F93EA0C0F6FD01A4480EA09
:10514C00010C400218BF5FEA41211ED04FF00063F2
:10515C0043EA501043EA5111A0FB01310CF000401E
:10516C00B1F5000F3EBF490041EAD3715B0040EA44
:10517C00010062F17F02FD2A1DD8B3F1004F40EB14
:10518C00C25008BF20F00100704790F0000F0CF0E7
:10519C00004C08BF49024CEA502040EA51207F3AAB
:1051AC00C2BFD2F1FF0340EAC250704740F4000086
:1051BC004FF00003013A5DDC12F1190FDCBF00F077
:1051CC0000407047C2F10002410021FA02F1C2F125
:1051DC00200200FA02FC5FEA310040F1000053EAC1
:1051EC004C0308BF20EADC70704792F0000F00F00F
:1051FC00004C02BF400010F4000F013AF9D040EA15
:10520C000C0093F0000F01F0004C02BF490011F4A8
:10521C00000F013BF9D041EA0C018FE70CEAD153A6
:10522C0092EA0C0F18BF93EA0C0F0AD030F0004C26
:10523C0018BF31F0004CD8D180EA010000F00040DA
:10524C00704790F0000F17BF90F0004F084691F098
:10525C00000F91F0004F14D092EA0C0F01D14202D2
:10526C000FD193EA0C0F03D14B0218BF084608D19B
:10527C0080EA010000F0004040F0FE4040F40000E5
:10528C00704740F0FE4040F4400070474FF0FF0C78
:10529C001CEAD0521EBF1CEAD15392EA0C0F93EABF
:1052AC000C0F69D0A2EB030280EA010C49024FEA11
:1052BC00402037D04FF0805343EA111143EA1013CA
:1052CC000CF000408B4238BF5B0042F17D024FF482
:1052DC00000C8B4224BF5B1A40EA0C00B3EB510F5D
:1052EC0024BFA3EB510340EA5C00B3EB910F24BF46
:1052FC00A3EB910340EA9C00B3EBD10F24BFA3EBCB
:10530C00D10340EADC001B0118BF5FEA1C1CE0D192
:10531C00FD2A3FF650AF8B4240EBC25008BF20F045
:10532C00010070470CF0004C4CEA50207F32C2BF99
:10533C00D2F1FF0340EAC250704740F400004FF036
:10534C000003013A37E792F0000F00F0004C02BF67
:10535C00400010F4000F013AF9D040EA0C0093F031
:10536C00000F01F0004C02BF490011F4000F013B8B
:10537C00F9D041EA0C0195E70CEAD15392EA0C0FF3
:10538C0008D142027FF47DAF93EA0C0F7FF470AF2B
:10539C00084676E793EA0C0F04D14B023FF44CAF6E
:1053AC0008466EE730F0004C18BF31F0004CCAD103
:1053BC0030F000427FF45CAF31F000437FF43CAF3F
:1053CC005FE700BF4FF0FF3C06E000BF4FF0010C61
:1053DC0002E000BF4FF0010C4DF804CD4FEA400243
:1053EC004FEA41037FEA226C18BF7FEA236C11D08D
:1053FC0001B052EA530C18BF90EA010F58BFB2EB40
:10540C00030088BFC81738BF6FEAE17018BF40F0BF
:10541C00010070477FEA226C02D15FEA402C05D173
:10542C007FEA236CE4D15FEA412CE1D05DF8040BF8
:10543C00704700BF844608466146FFE70FB5FFF78B
:10544C00C9FF002848BF10F1000F0FBD4DF808ED43
:10545C00FFF7F4FF0CBF012000205DF808FB00BF34
:10546C004DF808EDFFF7EAFF34BF012000205DF88E
:10547C0008FB00BF4DF808EDFFF7E0FF94BF0120DB
:10548C0000205DF808FB00BF4DF808EDFFF7D2FFD8
:10549C0094BF012000205DF808FB00BF4DF808ED1B
:1054AC00FFF7C8FF34BF012000205DF808FB00BFE8
:1054BC004FEA4002B2F1FE4F0FD34FF09E03B3EB15
:1054CC0012620DD94FEA002343F0004310F0004F55
:1054DC0023FA02F018BF404270474FF000007047AB
:1054EC0012F1610F01D1420205D110F0004008BF4A
:1054FC006FF0004070474FF00000704710B5054C3E
:10550C0013462CB10A4601460220AFF3008010BDB1
:10551C00204610BD0000000010B5431E0A44914205
:10552C0004D011F8014B03F8014FF8E710BD034606
:10553C000244934202D003F8011BFAE770470000C3
:10554C0038B5124B05461C68A36BD3B91820FDF770
:10555C00D1FD43F20E33A06303804AF6CD33438072
:10556C0041F2342383804EF26D63C3804DF6EC63BD
:10557C000381052343810B23838101220023C0E98E
:10558C000423A36B00221D615A6138BD84000020E6
:10559C00194B10B51C68A36BD3B91820FDF7AAFDE5
:1055AC0043F20E33A06303804AF6CD33438041F2BD
:1055BC00342383804EF26D63C3804DF6EC6303811C
:1055CC00052343810B23838101220023C0E904239B
:1055DC00A16B0A4C0B6948695C43094A02FB004009
:1055EC00A3FB02230132034443F10003C1E904236A
:1055FC0023F0004010BD00BF840000202DF4515852
:10560C002D7F954C10F8012B11F8013B012A28BF76
:10561C009A42F7D0D01A7047034613F8012B002A90
:10562C00FBD1181A013870471D000A085D000A08E2
:10563C0089000A088D000A080000000063616C698B
:10564C0062726174696E672073656E736F722E205F
:10565C006163632E00646F6E65004661696C6564FE
:10566C0020746F20636F6D6D756E69636174652056
:10567C0077697468204C534D394453312E00446F74
:10568C0075626C652D636865636B20776972696EF2
:10569C00672E0044656661756C742073657474695B
:1056AC006E677320696E207468697320736B657400
:1056BC0063682077696C6C20776F726B20666F72F1
:1056CC0020616E206F7574206F662074686520628F
:1056DC006F78204C534D3944533120427265616BC5
:1056EC006F75742C20627574206D6179206E656500
:1056FC006420746F206265206D6F646966696564EF
:10570C002069662074686520626F617264206A7516
:10571C006D70657273206172652E0063616C6962D5
:10572C00726174696F6E2073746172746564004386
:10573C00616C6962726174696F6E2066696E6973FF
:10574C00686564005365747570004851526F7574C8
:10575C0065725F5055424C49534800666C757858D9
:10576C00203A2000666C757859203A2000666C75DA
:10577C00785A203A2000546F74616C206D6F7665F6
:10578C006D656E743A20005370656564206C696DAC
:10579C006974203A20005354494C4C004D4F5645E7
:1057AC000054524F55424C4520434F554E54203ACD
:1057BC003A20006368756E6B203A3A200056414CD3
:1057CC003A3A2000203A3A2020004C495354454E96
:1057DC00494E472D2D2D2D2D2D2D2D2D2D2D2D2D96
:1057EC002D2D00726563656976696E67206D657332
:1057FC0073616765002D2D2D696E207768696C6566
:10580C002D2D2D0050415253494E47007374696C35
:10581C006C002F6D6F7665004C4544204F4E004C4C
:10582C004544204F46460052656400477265656EDC
:10583C0000426C7565002000000040000000600014
:10584C002C01000018000000F40100002C010000E5
:10585C00500000000A2D2D2D2D000000000000002E
:10586C000000000049310A0893310A086B310A081C
:10587C004B310A0873310A087B310A0883310A0854
:10588C008B310A08000000000000000007320A08F3
:10589C00B3000A08D5000A0862617564005365728A
:1058AC0069616C0055534253657269616C310074C7
:1058BC0079706500706172616D00636D640069647C
:1058CC0000686E64007374726D0066696C74006CB1
:1058DC00766C0061646448616E646C65720072651C
:1058EC006D6F766548616E646C657200656E756D82
:1058FC0048616E646C657273004A534F4E537472F8
:10590C0065616D4C6F6748616E646C6572006170A7
:10591C007000253031307520005D20002564002C8E
:10592C00200028293A2000205B00636F6465203D2D
:10593C00200025690064657461696C73203D20004A
:10594C000D0A006C6E00666E00636F646500646522
:10595C007461696C006E6F6E6500747261636500D2
:10596C00696E666F007761726E006572726F72009D
:10597C0070616E696300616C6C00000000000000D7
:10598C0000000000E5320A08EF320A08F9320A0872
:10599C0003330A080D330A0819330A0825330A0899
:1059AC0031330A0839330A0843330A084D330A08DD
:1059BC006E616E006F766600696E66000000000016
:1059CC0000000000D9360A08DB360A080008101857
:1059DC00202830385A00252B3033643A2530327564
:1059EC000025592D256D2D25645425483A254D3A11
:1059FC002553257A0061736374696D65000000009E
:105A0C000000000000000000B5000A08E3000A08CE
:105A1C0033390A08533A0A082B390A0849390A0853
:105A2C0067390A0881390A08A3390A08ED390A08C6
:105A3C000F3A0A08A53B0A08B93A0A0815390A08A8
:105A4C00B53C0A08213B0A08DD3B0A08E33C0A087E
:105A5C007D3A0A0821390A08853B0A0827390A08C1
:105A6C0083390A08F0FFFFFF000000009B390A0889
:105A7C0000000000000000001B3D0A086B3D0A08F6
:105A8C00793D0A08C9330A082F3D0A08513D0A0816
:105A9C003D3D0A08653D0A081D3D0A08213D0A08DE
:105AAC000000000000000000213E0A08713E0A08B8
:105ABC007F3E0A08C9330A085D3E0A08233E0A08DD
:105ACC00393E0A086B3E0A084F3E0A081D3E0A087A
