:02000004080AE8
:1000000000000A08501E0A0800000600060005014C
:08001000040279050000000064
:04001800401A0A0878
:10001C0009480A4908B5884205D0094A824202D0EB
:10002C00121A01F0C3FC0748074A0021121A01F00A
:10003C00C8FC064808BD00BF00000020A41D0A082B
:10004C0084000020840000209406002094060020E8
:10005C0070B501F079FA074B074C1E46E41AA40858
:10006C000025A54204D056F8253098470135F8E70D
:10007C0070BD00BF641D0A08981D0A0800F07EB808
:10008C0008B500F089F9BDE8084001F01FBA00F08E
:10009C00C7BB00F0CDBB0078B0FA80F040097047C8
:1000AC00012303707047704710B50446054B03607D
:1000BC006433036100F088FE204600F0BDFF20464B
:1000CC0010BD00BF041C0A0810B50446182101F02D
:1000DC0014FB204610BD10B50446FFF7E5FF204683
:1000EC004C2101F00AFB204610BD000070B50D4CF0
:1000FC000D4D012120880D4E01F076FA0121288842
:10010C0001F072FA0121308801F06EFA002120888A
:10011C0001F07BFA064B32681A602A685A60226832
:10012C009A6070BD100000200C0000200800002018
:10013C000001002070B50D4C0D4D012120880D4E95
:10014C0001F052FA0121288801F04EFA0121308881
:10015C0001F04AFA0021208801F057FA064B326868
:10016C001A602A685A6022689A6070BD14000020D8
:10017C0000000020180000209000002070B596B000
:10018C0001F0B0F84FF4165101F08CF8FFF7AEFF08
:10019C00FFF7D0FF01F0A6F801F08BF80028F9D09A
:1001AC00264C00231A461946606800F0D9FA002242
:1001BC0011466068214D00F0EBFA0028F7D001F0F1
:1001CC0091F81F4900F0AFFC1E4B002219881E4805
:1001DC0000F0D5FD002319461C4A686800F010FB9E
:1001EC0001F080F8064600244022002106A801F008
:1001FC00E8FB402306AA21460094686800F008FB3F
:10020C0006A902A800F04AFD0299304600F08BFCCA
:10021C0002A800F0FCFC01F065F8224606462146D7
:10022C00686800F095FA811C06A800F087FB06A907
:10023C00304600F082FC16B070BD00BF9005002067
:10024C00541A0A08040000209C0000205A1A0A08BC
:10025C002DE9F04105460E460088012117469846C7
:10026C0001F0D3F9002444450FDA0121A88801F0EC
:10027C00CCF9304600F006F90021A88801F0C5F948
:10028C00304600F0FFF80134EDE73846BDE8F041A8
:10029C0000F0DEBA2DE9F04105460E46008800213B
:1002AC001746984601F0B1F9002444450FDA0121B4
:1002BC00A88801F0AAF9304600F0E4F80021A888DB
:1002CC0001F0A3F9304600F0DDF80134EDE73846D3
:1002DC00BDE8F04100F0BCBA2DE9F8430F460446E6
:1002EC000121008816469846DDF8209001F08DF922
:1002FC000121388801F089F900254D4517DA0121D3
:10030C00A08801F082F90121B88801F07EF930460D
:10031C0000F0B8F80021A08801F077F900212089BD
:10032C0001F073F9304600F0ADF80135E5E74046D1
:10033C00BDE8F84300F08CBA2DE9F8430F460446AB
:10034C000021008816469846DDF8209001F05DF9F2
:10035C000021388801F059F900254D4517DA0121A3
:10036C00A08801F052F90121B88801F04EF930460D
:10037C0000F088F80021A08801F047F900212089BD
:10038C0001F043F9304600F07DF80135E5E74046D1
:10039C00BDE8F84300F05CBA2DE9F341164F002696
:1003AC00DFF858803346324631463846FFF750FF67
:1003BC003346324631464046FFF74AFF3346324613
:1003CC0031463846FFF766FF3346324631464046E3
:1003DC00FFF760FF33463246414638460096FFF73A
:1003EC007BFF00963346324641463846FFF7A4FF62
:1003FC0002B0BDE8F08100BF900000200001002099
:10040C0038B500F04FF80021012000F07DF90F4BBA
:10041C0000221A705A804FF6FF720D4C9A800220FF
:10042C0000F062F90B4D204600F07AFA20460A4C97
:10043C002A460A4901F05CF9204600F0DFFD2A4605
:10044C002046BDE83840064901F052B9880000202A
:10045C00E8000020840000209C000020B3000A0863
:10046C00B5000A0808B5024B1B681B6B019308BD4D
:10047C00D001060808B5024B1B685B68019308BDE8
:10048C009C01060808B5024B1B68DB68019308BD8C
:10049C009C01060808B5024B1B685B69019308BDFB
:1004AC009C01060808B5024B1B681B68019308BD2C
:1004BC00B001060808B5024B1B689B68019308BD88
:1004CC00B001060808B5024B1B68DB68019308BD38
:1004DC00B001060808B5024B1B681B69019308BDE7
:1004EC00B001060808B5024B1B681B6E019308BDD2
:1004FC00AC01060808B5024B1B685B6E019308BD86
:10050C00AC01060808B5024B1B689B6E019308BD35
:10051C00AC01060808B5024B1B68DB6E019308BDE5
:10052C00AC01060808B5024B1B681B6F019308BD94
:10053C00AC01060808B5024B1B685B6F019308BD44
:10054C00AC01060808B5034B1B68D3F88030019347
:10055C0008BD0000AC01060808B5024B1B685B68BF
:10056C00019308BDBC01060808B5024B1B689B68CB
:10057C00019308BDBC01060808B5024B1B685B69FA
:10058C00019308BDBC01060808B5024B1B68DB696A
:10059C00019308BDBC01060808B5024B1B681B6A19
:1005AC00019308BDBC01060808B5024B1B681B6B08
:1005BC00019308BDBC01060808B5024B1B68DB693A
:1005CC00019308BDB401060808B5024B1B681B6AF1
:1005DC00019308BDB401060808B5024B1B689B6962
:1005EC00019308BDC401060808B5024B1B685B6A81
:1005FC00019308BDC401060808B5024B1B689B6A31
:10060C00019308BDC401060808B5024B1B68DB6AE0
:10061C00019308BDC401060808B5024B1B681B6B8F
:10062C00019308BDC401060808B5024B1B685B6B3F
:10063C00019308BDC401060808B5024B1B689B6BEF
:10064C00019308BDC401060808B5024B1B681B6C5E
:10065C00019308BDC401060808B5024B1B681B6852
:10066C00019308BDD801060808B5024B1B685B68EE
:10067C00019308BDD801060808B5024B1B681B691D
:10068C00019308BDD801060808B5024B1B685B69CD
:10069C00019308BDD801060808B5024B1B689B697D
:1006AC00019308BDD801060808B5024B1B68DB692D
:1006BC00019308BDD801060808B5024B1B681B6ADC
:1006CC00019308BDD801060808B5024B1B685B6A8C
:1006DC00019308BDD801060808B5024B1B689B6C3A
:1006EC00019308BDC001060808B5024B1B685B6886
:1006FC00019308BDA401060808B5024B1B685B6991
:10070C00019308BDA401060808B5024B1B68DB6AFF
:10071C00019308BDA401060808B5034B1B68D3F868
:10072C009030019308BD0000A401060808B5034BE6
:10073C001B68D3F89C30019308BD0000A401060887
:10074C0008B5024B1B68DB6B019308BDCC01060896
:10075C0008B5024B1B681B68019308BDC80106084D
:10076C0008B5024B1B685B68019308BDC8010608FD
:10077C0008B5024B1B689B68019308BDC8010608AD
:10078C0008B5024B1B68DB68019308BDC80106085D
:10079C0008B5024B1B681B69019308BDC80106080C
:1007AC0008B5024B1B685B69019308BDC8010608BC
:1007BC0008B5024B1B689B69019308BDC80106086C
:1007CC0008B5024B1B68DB69019308BDC80106081C
:1007DC0008B5024B1B681B6A019308BDC8010608CB
:1007EC0008B5024B1B681B6B019308BDC8010608BA
:1007FC0008B5024B1B685B6B019308BDC80106086A
:10080C0008B5024B1B689B6B019308BDC801060819
:10081C0008B5024B1B68DB6B019308BDC8010608C9
:10082C0008B5024B1B681B68019308BDA0010608A4
:10083C0008B5024B1B685B68019308BDA001060854
:10084C0008B5024B1B689B68019308BDA001060804
:10085C000021FFF751BF10B58368044613B1032282
:10086C0001469847204610BD7047F8B50646154618
:10087C000C468F18BC4206D0336814F8011B9B68D9
:10088C0030469847F6E72846F8BD0022007CFFF773
:10089C0029BE0021007CFFF72DBE0021007CFFF754
:1008AC0031BE0021007CFFF735BE0021007CFFF734
:1008BC0039BE10B50446142100F01FFF204610BDB0
:1008CC0010B5044608464FF47A73A360044B00211C
:1008DC00207461602360FFF735FE204610BD00BF19
:1008EC00741A0A080021007CFFF724BEF8B50F46E5
:1008FC0000F10806051D002416F8011D0A223846D1
:10090C0000F04FF9AE42044407D0002CF4D02E2155
:10091C00384600F0F3F80444EEE72046F8BD00003A
:10092C0010B50446044B112240F8043B002101F0A1
:10093C0048F8204610BD00BF9C1A0A080346074A17
:10094C0010B543F8042B01F1100251F8044B9142FD
:10095C0043F8044BF9D10A781A7010BD9C1A0A0896
:10096C00024A416002600422027570479C1A0A0810
:10097C0010B59DF8084044EA032343EA024242EAD8
:10098C00016104234160037510BD000037B5044DAF
:10099C0005609DF818500095FFF7EAFF03B030BDD5
:1009AC009C1A0A0837B50D788B784A78C97800916B
:1009BC002946FFF7DDFF03B030BD0000014A024BB2
:1009CC001A6070471E1B0A080C01002000231A46EF
:1009DC004068FFF7C5BE002202214068FFF7D0BE79
:1009EC00002211464068FFF7C3BE00221146406842
:1009FC00FFF7CEBE00231A4619464068FFF7D0BE5B
:100A0C0000231A4619464068FFF7D2BE002281F037
:100A1C0001014068FFF7D4BE00224068FFF7E0BE3A
:100A2C00002211464068FFF7E3BE002211464068E1
:100A3C00FFF7CEBE70B516468EB0044608A8FFF779
:100A4C006FFF1122002103A800F0BBFF304600F01D
:100A5C00E9FF00250A4B009581B25B6803AA30467A
:100A6C00FFF73AFE20B129462046FFF779FF03E055
:100A7C0003A92046FFF762FF20460EB070BD00BFF1
:100A8C0090050020034B044A04280CBF104618465E
:100A9C00704700BF1001002090050020024B034A54
:100AAC001A6000225A60704710010020941B0A083B
:100ABC00F8B506460D468F180024BD420CD033689D
:100ACC0015F8011B9B6830469847002801DB04444D
:100ADC00F3E7002C08BF04462046F8BD70B5054668
:100AEC000C46084649B100F09DFF2B680246214692
:100AFC002846BDE87040DB68184770BD03689B68EA
:100B0C0018470B460A68014612681846104738B554
:100B1C000D210546FFF7F2FF0A2104462846FFF790
:100B2C00EDFF204438BD38B50546FFF7D7FF044626
:100B3C002846FFF7ECFF204438BD38B50546FFF7D3
:100B4C00E0FF04462846FFF7E2FF204438BD012AA7
:100B5C0098BF0A2230B50B468BB000218DF82410BB
:100B6C000DF12304B3FBF2F505FB1233DBB2092BB9
:100B7C0094BF30333733DBB2214604F801392B46AE
:100B8C00002DEFD1FFF7AAFF0BB030BD10B422B986
:100B9C000368C9B29B6810BC1847D2B210BCFFF7EF
:100BAC00D6BFFFF7F3BF10B50446FFF754FE20463F
:100BBC0010BD0000034800238360034A034900F082
:100BCC0097BD00BF1801002084000020B30B0A0859
:100BDC00704710B50446102100F08FFD204610BD63
:100BEC0070B504460E46074B0025036040F80C5FB9
:100BFC00FFF738FC30462671FFF7DEFCA560204677
:100C0C0070BD00BFC81B0A080079FFF7DDBC10B52A
:100C1C0004460068FFF70CFE204610BD10B50446D4
:100C2C00006808B1FFF704FE00232360A360636033
:100C3C0010BD38B504460D4600680131FFF700FEC3
:100C4C0010B184E82100012038BD10B503680446BA
:100C5C0013B143688B4207D22046FFF7EAFF20B15D
:100C6C00A3680BB922681370012010BD70B50E4635
:100C7C00114604461546FFF7E8FF18B92046FFF762
:100C8C00CDFF09E02A463146A560206800F08EFEB3
:100C9C002268A3680021D154204670BD38B50023CA
:100CAC00044603604360836003730D4639B1084604
:100CBC0000F0B8FE294602462046FFF7D7FF204633
:100CCC0038BD00004FF6FF72034B0020187058809F
:100CDC009A80FFF709BD00BF28010020024B1A685B
:100CEC00024B1A60704700BF1C000020300100202E
:100CFC0010B40468246BA44610BC604703689B6C5A
:100D0C001847808E7047028FC08E101A704713B52B
:100D1C0002AB026803F8011DD46819460122A047F2
:100D2C0002B010BD10B5036804461B69984728B182
:100D3C00E38EE26B591CE186D05C10BD4FF0FF30A6
:100D4C0010BD10B5036804461B69984718B1E38EB3
:100D5C00E26BD05C10BD4FF0FF3010BD7047034606
:100D6C00084610B4D98EDC6B1A8F0368521ADB68F4
:100D7C00214410BC1847A0F11000FFF7F0BFF7B5E5
:100D8C00054610460F461646FFF77CFE0368DB68E7
:100D9C009847B8B102213B46112208460096FFF74E
:100DAC00E3FB6861FFF7D8FB044630B10023EB8608
:100DBC002B872F836E64012004E02B6828465B6A26
:100DCC009847204603B0F0BD38B504464569FFF797
:100DDC00EBFB854202D06069FFF7DEFBFFF7E4FB1B
:100DEC0000236061E386238738BD30B587B0BDF83A
:100DFC0028400225ADF808508DF80B40250ADC7907
:100E0C008DF80A508DF80C409C798DF80D405C796A
:100E1C001B798DF80E408DF80F301023019302AB27
:100E2C00009340690023FFF7AFFB07B030BD38B526
:100E3C00C36B0546C08E13B12C6C241A00E01C4603
:100E4C00944228BF14461844224600F0AFFDEB8EA6
:100E5C0020462344EB8638BD70B5036804461B69F5
:100E6C000E461546984788B1236820461B6998475B
:100E7C008542A8BF0546E38EE16B2A4619443046ED
:100E8C0000F094FDE38E2B44E38601E04FF0FF3538
:100E9C00284670BDF0B5044689B0406C0D46164628
:100EAC00FFF7F0FD0368DB68984710B36769FFF73D
:100EBC007BFB87421DD0E5B108AB102243F8142D03
:100ECC0001930DEB0203009329460023324660691F
:100EDC00FFF752FB051E0EDB9DF812209DF8133018
:100EEC0005A943EA0223A38604F11C00FFF75AFD6F
:100EFC0001E04FF0FF35284609B0F0BD2DE9F04177
:100F0C00064694B0406C0D469046FFF7BBFD036857
:100F1C00DB689847F8B1284600F084FD002481B2C4
:100F2C000094736C03AA2846FFF7D6FB90B903A96B
:100F3C0008A8FFF703FD33680FAC9F6B074B09AD97
:100F4C000E930FCD0FC42B68424623700EA930466A
:100F5C00B84700E0204614B0BDE8F0819C1A0A089E
:100F6C0070B504460646054B01F1200544F8043BD8
:100F7C000FCD0FC42B683046237070BD9C1A0A0825
:100F8C00F0B594468E460646026889B0976A094ABF
:100F9C0003AC1D1D02920FCD0FC42B68624623704B
:100FAC00BDF8383071460093304602ABB84709B0F3
:100FBC00F0BD00BF9C1A0A08F0B50446036889B05E
:100FCC009F6A0D4B03AD00F12006B0F836E002939A
:100FDC000FCE0FC5336872462B70A38EE16B009356
:100FEC00204602ABB847054623682046DB69984784
:100FFC00284609B0F0BD00BF9C1A0A0838B54FF45A
:10100C007A7383600B4B002503F108026C3302608A
:10101C00036145600446FFF7C7FA606104F11C00E8
:10102C00FFF77EFC4FF40073E5862587E5632364A8
:10103C00204638BDFC1B0A0810B590F84830044611
:10104C0023B1C06B10B1012100F057FB0023E36307
:10105C0084F848302364E386238710BD70B50446BA
:10106C0016460D46FFF7E8FF0023E66323643EB9FE
:10107C0035B12846FFF70BF80123E06384F84830BC
:10108C00E36B03B12564206C003018BF012070BDE8
:10109C00F8B51746C26B05460C461AB9016C09B176
:1010AC00FFF7DCFF05F1200604340FCC0FC62368D4
:1010BC0033700023AF86EB862B87286CF8BD70B598
:1010CC00C26B04461AB9016C09B1FFF7C7FFE16B9B
:1010DC000023E386238741B1226C32B12068056B73
:1010EC002046A8470028C8BF208723682046BDE8B3
:1010FC0070401B69184770474174704708B5007CF5
:10110C00FFF7A2FA20EAE07008BD08B5007CFFF7F3
:10111C0073FA20EAE07008BD08B5007CFFF77CFA92
:10112C0030EA200028BF4FF0FF3008BD08B5007C26
:10113C00FFF76AFA30EA200028BF4FF0FF3008BDF5
:10114C00007CFFF771BA10B50446142100F0D5FAF3
:10115C00204610BD70B5457C04460E4625B9007C72
:10116C00FFF772FA002805DD3146207CBDE870409F
:10117C00FFF73ABA284670BD10B50446084611462A
:10118C00002262604FF47A72A260054A20742260D9
:10119C00012262741A46FFF71FFA204610BD00BFE9
:1011AC00741C0A08007CFFF747BA000038B50C4DD8
:1011BC00296811F0010411D12846FEF76CFF68B1C3
:1011CC00084A2146084B0948FFF7D6FF2846FEF788
:1011DC0067FF074A0749054800F08AFA034838BDFB
:1011EC00CC010020D0010020480100203401002057
:1011FC008400002003110A0841747047704708B539
:10120C000021007CFFF748FA30EA200028BF4FF09D
:10121C00FF3008BD08B50121007CFFF73DFA30EA2C
:10122C00200028BF4FF0FF3008BD08B5007CFFF749
:10123C002BFA20EAE07008BD08B5007CFFF71CFA19
:10124C0020EAE07008BD007CFFF736BA10B5044602
:10125C00142100F052FA204610BD38B50446007C2B
:10126C000D46FFF711FA002801DC607C28B12946F5
:10127C00207CFFF719FA20EAE07038BD10B504465F
:10128C00002363604FF47A73A360054B0846236018
:10129C000123217463741146FFF7DEF9204610BD5B
:1012AC00A41C0A080022007CFFF7DEB9007CFFF7C3
:1012BC000BBAFFF7FBBF000010B504461422002147
:1012CC0000F07FFB054B20466360054BE36040F26A
:1012DC00011323818123238210BD00BFD90200207A
:1012EC005802002030B50E4D87B001A8FFF7E4FF7F
:1012FC00296811F0010410D12846FEF7CCFE60B12C
:10130C0001AA21460748FFF7B9FF2846FEF7C8FE99
:10131C00054A0649034800F0EBF9024807B030BD16
:10132C0054020020DC0300208400002009120A086B
:10133C0010B504461422002100F043FB054B204657
:10134C006360054BE36040F2011323818123238208
:10135C0010BD00BF8C040020F403002010B50E4C0F
:10136C0086B001A8FFF7E4FF2368DB0710D4204602
:10137C00FEF791FE60B101AA01210848FFF77EFF3C
:10138C002046FEF78DFE064A0649044800F0B0F9E7
:10139C00024806B010BD00BFF00300207804002006
:1013AC008400002009120A08002211464068FFF749
:1013BC00EFB9F0B5164689B011220F46044600214C
:1013CC0003A800F0FEFA304600F02CFB0025009537
:1013DC0081B27B6803AA3046FFF77EF920B129461B
:1013EC002046FFF7BDFA03E003A92046FFF7A6FA53
:1013FC00204609B0F0BD002211464068FFF7E8B95D
:10140C00002211464068FFF7F3B900224068FFF74D
:10141C00E7B9002281F001014068FFF7D1B9002340
:10142C001A4619464068FFF7C3B900231A461946F5
:10143C004068FFF7B5B9002211464068FFF798B92C
:10144C00002202214068FFF79BB900231A4640682E
:10145C00FFF786B9024B04225A60024A1A607047A1
:10146C0090050020D41C0A0808B5144B33B1FFF7C3
:10147C0039FF03681B699847002816DC104B33B101
:10148C00FFF794FE03681B699847002810DC0D4B8E
:10149C000BB1AFF300800C4B7BB1FFF75FFF036820
:1014AC001B699847002806DC08BDAFF30080E5E710
:1014BC00AFF30080EBE7AFF3008008BD0000000045
:1014CC0000000000000000000000000008B5FFF75D
:1014DC00CBFFFEF7DFFF014B186008BDA005002015
:1014EC000248034A0349121A00F060BA0040024055
:1014FC0004400240A01D0A0807B5002300931A46B9
:10150C006FF07701FFF712F903B05DF804FB0000F0
:10151C0007B543880A2B08D0502B09D1094B1B68FF
:10152C003BB103B05DF804EB1847FFF7E5FF06E0AD
:10153C00002300931A466FF07701FFF7F7F803B01A
:10154C005DF804FB9805002038B5104C104D23684D
:10155C00AB42104B0CBF012200221A7002D0FFF7D5
:10156C00BFFF2560FEF786FF044600F033FA0A4BF6
:10157C0013B12046AFF3008000210748FFF7E0F8D5
:10158C00BDE8384000210548FFF7C6B800400240CE
:10159C001E1C279A9C050020000000001D150A083F
:1015AC0010B504460F48FFF72FFB28B1A4F10D032B
:1015BC00022B01D8002010BD00F040F8FFF792F983
:1015CC0008B1012CF6D9FFF7F1FDFFF7EBFD18B1CF
:1015DC00A4F11203012BEDD9172C8CBF0020012094
:1015EC0010BD00BFD4050020172838B504460D46A1
:1015FC000AD8FF2908D0FFF7D3FF28B12946204687
:10160C00BDE83840FEF756BF38BD38B504460D4628
:10161C00FEF758FFFF2810D0062804D84D2323FAD4
:10162C0000F0C30709D42046FFF7BAFF28B12946BA
:10163C002046BDE83840FEF74DBF38BD38B50B4DE0
:10164C00296811F001040FD12846FEF724FD58B18A
:10165C0021460748FFF734F92846FEF721FD054AD5
:10166C000549034800F044F8014838BDA4050020A2
:10167C00A80500208400002075080A0813B5084C42
:10168C0000231A46194600932046FFF77FF920469F
:10169C00044A054902B0BDE8104000F029B800BF6B
:1016AC00BC05002084000020B3000A0870B50C4C67
:1016BC000C4E0D4D00212046FFF792FA20460B4CA4
:1016CC003246294600F014F801212046FFF788FA2B
:1016DC00324629462046BDE8704000F009B800BFEC
:1016EC00D405002084000020DD0B0A08E40500204E
:1016FC000B460146184600F04BB9FEF7CABC000079
:10170C00244B1A68D0075CBF01221A60224B1A685E
:10171C00D1075CBF01221A60204B1A68D2075CBF4C
:10172C0001221A601E4B1A68D0075CBF01221A6096
:10173C001C4B1A68D1075CBF01221A601A4B1A683D
:10174C00D2075CBF01221A60184B1A68D0075CBF25
:10175C0001221A60164B1A68D1075CBF01221A606D
:10176C00144B1A68D2075CBF01221A60124B1A681C
:10177C00D0075CBF01221A60104B1A68D1075CBFFE
:10178C0001221A600E4B1A68D2075CBF01221A6044
:10179C00704700BF200600201C0600201806002001
:1017AC0014060020100600200C060020080600205D
:1017BC000406002000060020FC050020F80500208F
:1017CC00F4050020184B1A68D1075CBF01221A607F
:1017DC00164B1A68D2075CBF01221A60144B1A68A8
:1017EC00D0075CBF01221A60124B1A68D1075CBF8C
:1017FC0001221A60104B1A68D2075CBF01221A60D2
:10180C000E4B1A68D0075CBF01221A600C4B1A6889
:10181C00D1075CBF01221A600A4B1A68D2075CBF61
:10182C0001221A60704700BF400600203C060020D1
:10183C003806002034060020300600202C0600203C
:10184C002806002024060020184B1A68D1075CBF1C
:10185C0001221A60164B1A68D2075CBF01221A606B
:10186C00144B1A68D0075CBF01221A60124B1A681D
:10187C00D1075CBF01221A60104B1A68D2075CBFFB
:10188C0001221A600E4B1A68D0075CBF01221A6045
:10189C000C4B1A68D1075CBF01221A600A4B1A68FC
:1018AC00D2075CBF01221A60704700BF600600209F
:1018BC005C0600205806002054060020500600202C
:1018CC004C0600204806002044060020244B1A68D1
:1018DC00D0075CBF01221A60224B1A68D1075CBF8B
:1018EC0001221A60204B1A68D2075CBF01221A60D1
:1018FC001E4B1A68D0075CBF01221A601C4B1A6879
:10190C00D1075CBF01221A601A4B1A68D2075CBF60
:10191C0001221A60184B1A68D0075CBF01221A60AA
:10192C00164B1A68D1075CBF01221A60144B1A6857
:10193C00D2075CBF01221A60124B1A68D0075CBF39
:10194C0001221A60104B1A68D1075CBF01221A6081
:10195C000E4B1A68D2075CBF01221A60704700BF99
:10196C00900600208C0600208806002084060020AB
:10197C00800600207C0600207806002074060020DB
:10198C00700600206C06002068060020640600200B
:10199C0010B5054C13462CB10A4601460220AFF394
:1019AC00008010BD204610BD0000000010B5431E85
:1019BC000A44914204D011F8014B03F8014FF8E7A7
:1019CC0010BD03460244934202D003F8011BFAE710
:1019DC007047000038B5124B05461C68A36BD3B991
:1019EC001820FEF71DFF43F20E33A06303804AF666
:1019FC00CD33438041F2342383804EF26D63C38038
:101A0C004DF6EC630381052343810B238381012273
:101A1C000023C0E90423A36B00221D615A6138BD69
:101A2C0080000020034613F8012B002AFBD1181A62
:101A3C00013870471D000A085D000A0889000A0871
:101A4C008D000A0800000000536574757000485141
:101A5C00526F757465725F5055424C495348000083
:101A6C00000000000000000075080A08BF080A0802
:101A7C0097080A0877080A089F080A08A7080A089E
:101A8C00AF080A08B7080A080000000000000000B0
:101A9C00F9080A08B3000A08D5000A0862617564DF
:101AAC000053657269616C005553425365726961EC
:101ABC006C31007479706500706172616D00636DDA
:101ACC006400696400686E64007374726D0066690A
:101ADC006C74006C766C0061646448616E646C6557
:101AEC00720072656D6F766548616E646C6572002C
:101AFC00656E756D48616E646C657273004A534F08
:101B0C004E53747265616D4C6F6748616E646C65A1
:101B1C00720061707000253031307520005D20003E
:101B2C002564002C200028293A2000205B00636FDC
:101B3C006465203D200025690064657461696C73DF
:101B4C00203D20000D0A0066006C6E00666E00637E
:101B5C006F64650064657461696C006E6F6E65001E
:101B6C00747261636500696E666F007761726E00F6
:101B7C006572726F720070616E696300616C6C00EB
:101B8C000000000000000000D9090A08E3090A0857
:101B9C00ED090A08F7090A08010A0A080D0A0A08D9
:101BAC00190A0A08250A0A082D0A0A08370A0A0817
:101BBC00410A0A080000000000000000DD0B0A08C2
:101BCC00DF0B0A085A00252B3033643A2530327566
:101BDC000025592D256D2D25645425483A254D3A5F
:101BEC002553257A0061736374696D6500000000EC
:101BFC000000000000000000B5000A08E3000A081D
:101C0C001B0D0A083B0E0A08130D0A08310D0A08B1
:101C1C004F0D0A08690D0A088B0D0A08D50D0A0824
:101C2C00F70D0A088D0F0A08A10E0A08FD0C0A0808
:101C3C009D100A08090F0A08C50F0A08CB100A08DC
:101C4C00650E0A08090D0A086D0F0A080F0D0A081F
:101C5C006B0D0A08F0FFFFFF00000000830D0A085F
:101C6C00000000000000000003110A0853110A08CC
:101C7C0061110A08BD0A0A0817110A0839110A0865
:101C8C0025110A084D110A0805110A0809110A083C
:101C9C00000000000000000009120A0859120A088E
:101CAC0067120A08BD0A0A0845120A080B120A082C
:101CBC0021120A0853120A0837120A0805120A08D8
:101CCC00000000000000000057140A084D140A0818
:101CDC0043140A08B5130A0837140A082B140A0807
:101CEC001F140A0817140A080D140A0803140A080A
:101CFC00BF130A08000000000000000000000000F4
:101D0C0000000000000000000000000000000000C7
:101D1C0000000000000000000000000000000000B7
:101D2C0000000000000000000000000000000000A7
:101D3C000000000000000000000000000000000097
:101D4C000000000000000000000000000000000087
:101D5C0000000000430000000D040A08C9090A082D
:101D6C00A90A0A08C10B0A08D10C0A08E90C0A08CE
:101D7C0061140A0889160A08B9160A080D170A0808
:101D8C00D1170A0855180A08D9180A0800000000CB
:041D9C000000000043
:041DA000000000003F
:101DA4000E000000B82200000A0000000B00000032
:101DB4000C0000000F0000000D000000F11B0A08D9
:101DC40000000000001D0A08201D0A08401D0A0822
:101DD40000000000000000000000000000000000FF
:101DE400601D0A0800000000000000000000000060
:101DF40000000000000000000000000000000000DF
:101E040000000000000000000000000000000000CE
:101E140000000000000000000000000000000000BE
:041E2400200000207A
:101E2800FFFFFFFF00000102030405060708090A77
:101E38000B0C0D0E0F101112131415161718191A72
:081E48001B1C1D1E1F202800B9
:041E5000785634127A
:04000005080A001CC9
:00000001FF
