:02000004080AE8
:1000000000000A08B83D0A080000060006000501C5
:0800100004027A050000000063
:040018001C390A087D
:10001C0009480A4908B5884205D0094A824202D0EB
:10002C00121A03F031FC0748074A0021121A03F098
:10003C0036FC064808BD00BF00000020143D0A082D
:10004C007C0000207C0000201007002010070020FE
:10005C0070B502F063FA074B074C1E46E41AA4086D
:10006C000025A54204D056F8253098470135F8E70D
:10007C0070BD00BFCC3C0A08083D0A0800F01AB954
:10008C0008B500F0B1F9BDE8084002F009BA01F07A
:10009C0041BA01F047BA0078B0FA80F040097047D5
:1000AC000123037070477047F0B520B9B9B901212D
:1000BC000C46084618E010F5004F07D0214B11F5FF
:1000CC00004F08BF194600280DDA03E011F5004F68
:1000DC0030D01C48404200B24FF0FF3404E011F520
:1000EC00004F00D1174901240029B8BF494209B279
:1000FC00B0F5804F09DAB1F5804F06DA40F30E0007
:10010C0041F30E0140004900F2E7404301FB0101BD
:10011C000F25C90B4FF4804600239F1907FB07F2EC
:10012C00D20B4A43904228BF3BB2013D4FEA6606D0
:10013C00F3D102E001310846CCE703FB04F000B236
:10014C00F0BD00BF0180FFFF70B5B1F5804F09DA3B
:10015C00B0F5804F06DA41F30E0140F30E00490072
:10016C004000F2E70F2200234FF480441D192DB2FA
:10017C0001FB05F646F3CF36B042A8BF2B46013A39
:10018C004FEA6404F2D1184670BD000010B5044665
:10019C00054B03606433036101F000FE204601F05F
:1001AC0035FF204610BD00BF6C3B0A0870B50446F5
:1001BC000D4629B9002842F2283008BF002070BD36
:1001CC008142BCBF01462846FFF7BEFF411101FB2F
:1001DC0001F201FB02F3104ADE13724341F2456651
:1001EC001B154B434B4306FB0020DB134FF4DF7214
:1001FC0002FB0300A5424FEAE0300ADA42F2283350
:10020C00C0F50C50283080B29842A8BF184600B2F6
:10021C0070BD20EAE070FAE793F9FFFF11F5004F8B
:10022C0008B502460B4615D010F5004F21D0002919
:10023C0005DB002820DBBDE80840FFF7B7BF002A2C
:10024C000DDB594209B21046FFF7B0FFC0F58C40E8
:10025C00503019E010F5004F0C4BF0D11A465942B2
:10026C00504209B200B2FFF7A1FFA0F58C40503804
:10027C000AE00029054AF2DB002BF0D05042194667
:10028C0000B2FFF793FF404200B208BD0180FFFFB0
:10029C0010B50446182102F01AFA204610BD10B50C
:1002AC000446FFF773FF20464C2102F010FA20465B
:1002BC0010BD000070B596B001F0FEFF01F0E3FF39
:1002CC000028F9D03C4C00231A461946606801F00E
:1002DC00C1F8002211466068374D01F0D3F80028B0
:1002EC00F7D001F0E9FF354901F0B7FA344B0022A1
:1002FC001988344801F02DFD00231946324A6868EC
:10030C0001F0F8F801F0D8FF064600244022002145
:10031C0006A803F0C4FA0094402306AA2146686894
:10032C0001F0F0F806A902A801F0A2FC02993046EF
:10033C0001F093FA02A801F054FC01F0BDFF224633
:10034C0006462146686801F07DF8811C06A81F4D01
:10035C0001F08AF906A9304601F089FA1E23AB7028
:10036C006B236B701A4B01261C801A4B2E701C8051
:10037C00194B1C8001F0A0FF4FF4E13101F07CFF20
:10038C0001F09AFF154901F068FA284600F066FC66
:10039C0001F092FF124901F060FA3146284600F054
:1003AC0063FD3146284600F02BFE01F085FF0D4918
:1003BC0001F053FA16B070BD0C06002030390A0853
:1003CC00000000208800002036390A08D4000020E4
:1003DC0058010020760100205A01002047390A08F4
:1003EC0059390A086D390A082DE9F04F824C85B04D
:1003FC00204600F0E6FD204600F0D3FC7F4BE78E54
:10040C001B887F4A1F447F4BA58E1B88B4F9306034
:10041C00B4F932B0B2F800801D44238F59463046EF
:10042C00C8EB0308FFF7FAFE774B594618803046A5
:10043C000393FFF739FEB4F92EA031460446584613
:10044C00FFF732FE6D422DB200FB05F90FFA88F86A
:10045C0004FB189900FB0BFB08FB00F804FB05855B
:10046C0004FB06B4CAF1000044F3CF34214600B2B9
:10047C00FFF7D4FE42F228329042C8BFC0F58C4040
:10048C00624EC8BF5030039B3080614A9846B6F923
:10049C00003021469342BEBFC3F539435B4AB033AB
:1004AC005046B8BF1380FFF7FFFD40420FFA80FBA8
:1004BC0051462046FFF7F8FD45F3CF350BFB05F50C
:1004CC000028B8BF4042C7F10007B8BF00B23FB226
:1004DC0000FB07514FEAE939C9F1000041F3CF3174
:1004EC0000B2FFF79BFE4B4C0225208001F0E4FE8E
:1004FC00494901F099F901F0DFFE0746B8F900000F
:10050C0002F09AFF454903F09FF802F08FFB00952B
:10051C0002460B46384601F0B6FA01F0CDFE4049D2
:10052C0001F082F901F0C8FE0746B6F9000002F0AE
:10053C0083FF3A4903F088F802F078FB00950246F5
:10054C000B46384601F09FFAB4F9000002F074FF34
:10055C00324903F079F80021044603F05FF920B129
:10056C002046304902F0B4FE044601F0A5FE2E49A7
:10057C0001F05AF901F0A0FE0646204602F056FBA7
:10058C00022502460B460095304601F07CFA01F03C
:10059C0093FE264901F061F901F08EFE244901F029
:1005AC0043F901F089FE23490646204602F090FEED
:1005BC0002F03CFB009502460B46304601F05EFA19
:1005CC0001F07AFE1C4901F02FF901F075FE194972
:1005DC000646204602F07AFE02F028FB0095024601
:1005EC000B46304601F04FFA4FF47A7005B0BDE877
:1005FC00F04F00F0A7BF00BFD4000020580100202E
:10060C005A01002076010020740100207A0100209C
:10061C00D8DCFFFF7801002083390A080000C842AB
:10062C008C390A080000B44395390A08A33A0A0821
:10063C009E390A080000A041B1390A0838B500F00B
:10064C005BFD0021012000F0D9FE134B00221A7033
:10065C005A804FF6FF72114C9A80022000F0BEFEB9
:10066C000F4D204600F0F2FF20460E4C2A460E4954
:10067C0002F028F8204601F0ABFC2A460B49204634
:10068C0002F020F80A4800F075F8BDE838404FF445
:10069C007A71084800F016B8800000205C01002038
:1006AC007C00002088000020B3000A0899010A0889
:1006BC00D40000207C01002010B5044600F014FD8D
:1006CC00206010BD38B504460D46FFF7F5FF00233A
:1006DC006560A360204638BD00F00EBD30B5022425
:1006EC00017083700621F523C47504244270C38005
:1006FC00012200230172017680F820400321072497
:10070C00027142748274C27402758275427682766A
:10071C00C276C27780F8214043728372C37203732E
:10072C0043738373C373037401774377837780F8C0
:10073C002230044680F8231080F82720024680F8E7
:10074C00241080F8253080F8263000250139E56327
:10075C00A564656502F10202A2F85E30A2F864306D
:10076C00A2F86A3004F10404F0D14FF0000380F8D1
:10077C00803030BD10B51E236B220121FFF7AEFF78
:10078C0010BD10B50446C08802F052FE4FF0605107
:10079C0002F0A6FE606710BD10B50446C07D02F0E5
:1007AC0047FE4FF0605102F09BFEA06710BD0000A9
:1007BC0090F82030043B0C2B14D8DFE803F007131F
:1007CC0013130A1313130D1313131000064B1B688A
:1007DC0007E0054B5B6804E0034B9B6801E0024BB0
:1007EC00DB68C367704700BF04000020C388F52B8B
:1007FC0007D0B3F5FA7F04D0B3F5FA6F1CBFF5231D
:10080C00C380C27D102A03D8084BD340DA0701D429
:10081C000223C37590F82020102A03D8044BD34030
:10082C00DB0702D4042380F8203070471401010048
:10083C001011010010B50446012190F8730001F06D
:10084C00BDFE94F87300012101F0C9FE94F872000A
:10085C00012101F0B3FE94F872000A4C012101F061
:10086C00BEFE204601F04EF92046082101F09CF90D
:10087C002046012101F04BF92046BDE81040002133
:10088C0001F048B950060020F8B50C4617461E4634
:10089C00094D2046002101F0A2FE07F03F01284639
:1008AC0001F096F93146284601F092F92046BDE850
:1008BC00F840012101F093BE50060020F8B51E4609
:1008CC0090F8723002F03F028B429DF8187042F0A3
:1008DC00800503D1012F88BF45F040058CB220461E
:1008EC00002101F07CFE2946094801F071F93546DA
:1008FC00AB1B9F4206DD0021054801F069F905F8A4
:10090C00010BF5E72046012101F069FE0120F8BD3D
:10091C00500600201FB5012300930DF10F03FFF7C4
:10092C00CDFF9DF80F0005B05DF804FB08B501F094
:10093C006FFEBDE8084000F04FBE70B50E46154680
:10094C001C4601F065FE314600F058FE01F060FED9
:10095C00036829469B68984701F05AFE03682146B4
:10096C009A68904701F054FEBDE8704000F04EBE0E
:10097C001346027810B4012A05D10A4610BC90F82F
:10098C007310FFF7DABF2AB90A4610BC90F873103F
:10099C00FFF77ABF10BC704710B50379044613B14A
:1009AC00037A5B01DBB2E288B2F5FA7F05D0B2F5CF
:1009BC00FA6F04D143F0180301E043F00803627AA4
:1009CC00102102F003021A432046FFF7D1FF002248
:1009DC0011212046FFF7CCFFA37A002BE37A14BF3A
:1009EC00802200222BB1237B03F00F0343F0400342
:1009FC001A4312212046FFF7BBFFE37C002BA37C9C
:100A0C000CBF0022202213B142F01002D2B2637C40
:100A1C000BB142F00802237D0BB142F002021E2101
:100A2C002046FFF7A5FF637B002BA37B0CBF0022A6
:100A3C00202213B142F01002D2B2E37B0BB142F090
:100A4C0008022046BDE810401321FFF791BF10B5F6
:100A5C00C37E0446002B837E0CBF0022202213B1E0
:100A6C0042F01002D2B2637E0BB142F008021F2199
:100A7C002046FFF77DFFA27D12B1227E5201D2B239
:100A8C00E37D082B06D0102B07D0042B07D142F0A6
:100A9C00100204E042F0180201E042F0080294F95E
:100AAC001C302021002BA2BF03F003031A4342F099
:100ABC0004022046FFF75CFF627F2AB1A27F52013D
:100ACC0002F0600242F080022046BDE81040212175
:100ADC00FFF74EBF1346027810B4012A05D10A461F
:100AEC0010BC90F87210FFF728BF2AB90A4610BC48
:100AFC0090F87210FFF7C8BE10BC7047022970B591
:100B0C0006460C46154610D849000531D2B2C9B27A
:100B1C00FFF7E0FFE11C4900C5F307223046BDE8B2
:100B2C00704001F0FE01FFF7D5BF70BD10B590F815
:100B3C0022300446002B90F8233008BF00224FEAE5
:100B4C00431303F0600190F8213018BF80229B0002
:100B5C0003F01C030B431A432021FFF7BBFF94F84F
:100B6C0020302046083BDBB2082B96BF124A0022ED
:100B7C00D25C2121FFF7AEFF94F825302046002BE4
:100B8C0094F826300CBF0022202203F003031A43F2
:100B9C002221FFF79FFF94F824202046920002F0B8
:100BAC000C022321FFF796FF2046BDE810400022DF
:100BBC002421FFF78FBF00BFB5390A0838B50C46A2
:100BCC00154601F025FD214600F018FD01F020FD31
:100BDC00036829469B68984701F01AFD002100F034
:100BEC0011FD01F015FD0122214600F004FD01F07C
:100BFC000FFD03685B699847C0B238BD0A4601789F
:100C0C00012903D190F87310FFF7D8BF19B990F8E8
:100C1C007310FFF77FBE0020704738B50D462321B7
:100C2C000446FFF7EBFF1DB140F00202D2B201E027
:100C3C0000F0FD022046BDE838402321FFF798BEA6
:100C4C000A460178012903D190F87210FFF7B6BF5C
:100C5C0019B990F87210FFF75DBE704738B50446AD
:100C6C00437880F87330837880F87230FFF7BEFDDC
:100C7C00FFF787FD2046FFF79BFD2046FFF78CFD15
:100C8C002378012B03D12046FFF750FE03E013B964
:100C9C002046FFF7CFFD0F212046FFF7D1FF0F2194
:100CAC0005462046FFF7AAFF46F63D0345EA00201D
:100CBC0005B29D420AD12046FFF76EFE2046FFF793
:100CCC00C6FE2046FFF732FF284638BD002038BD4F
:100CDC0010B50C462721FFF7B3FF0121A1400840B6
:100CEC002041C0B210BD2DE9F04190460C461D4686
:100CFC009DF8186000F0F8F9074601F089FC2146D0
:100D0C0000F07CFC01F084FC036848F080019B68D7
:100D1C00984701F07DFC002100F074FC01F078FC98
:100D2C002146324600F067FC002407F57A77B4427E
:100D3C001ADA01F06DFC03681B69984740B101F0A9
:100D4C0067FC036804F101085B6998472855444621
:100D5C0000F0CAF9B842EAD92C44FF23621B964230
:100D6C0005DD04F8013BF9E70120BDE8F081002026
:100D7C00BDE8F08137B50D460178012907D190F80F
:100D8C007310009313462A46FFF7ADFF07E031B905
:100D9C0090F87310009313462A46FFF78FFD03B0AB
:100DAC0030BD37B506236A4628210446FFF7E2FF1B
:100DBC0030B39DF800309DF801109DF8032043EAF4
:100DCC0001219DF802309DF8055043EA02229DF85E
:100DDC00043009B243EA052394F8805012B21BB2D6
:100DEC00E185228663865DB1B4F86650491BE185C6
:100DFC00B4F86810521A2286B4F86A209B1A6386DB
:100E0C0003B030BD37B506236A4618210446FFF7F8
:100E1C00B1FF30B39DF800309DF801109DF8032010
:100E2C0043EA01219DF802309DF8055043EA022265
:100E3C009DF8043009B243EA052394F8805012B2AD
:100E4C001BB221856285A3855DB1B4F86050491B46
:100E5C002185B4F86210521A6285B4F864209B1A8A
:100E6C00A38503B030BD00002DE9F04F04468BB0D4
:100E7C000023019101210493059306930793089392
:100E8C000993FFF7CAFE3F222E212046FFF770FD83
:100E9C002F212046FFF7B2FE00F03F061E2EF7D999
:100EAC000027B74232DA2046FFF7ACFF079AB4F9B5
:100EBC002830204613440793089AB4F92A30013796
:100ECC0013440893099AB4F92C3013440993FFF78F
:100EDC0068FF049AB4F92E30A06F13440493059A5A
:100EEC00B4F93030B4F932501344059301F09EFE3E
:100EFC0002460B460020264902F016F802F09AF939
:100F0C0000B22D1A069805440695CAE7D4F874B0B9
:100F1C00D4F878A004F15E0204F1380804F16407F7
:100F2C0004F14409002507A951F8250090FBF6F0BF
:100F3C0000B222F8020F0292039202F07DFA594697
:100F4C0002F0CEFA04AB48F8040F53F82500013533
:100F5C0090FBF6F000B227F8020F02F06DFA514642
:100F6C0002F0BEFA032D49F8040F029ADBD10021DE
:100F7C002046FFF752FE00222E212046FFF7F8FCF8
:100F8C00019B13B1012384F880300BB0BDE8F08FC6
:100F9C000000F03F37B50D460178012907D190F8D4
:100FAC007210009313462A46FFF79DFE07E031B9F5
:100FBC0090F87210009313462A46FFF77FFC03B09B
:100FCC0030BD13B506236A4628210446FFF7E2FF1D
:100FDC00A0B19DF801209DF8003043EA0223A386BE
:100FEC009DF803209DF8023043EA0223E3869DF826
:100FFC0005209DF8043043EA0223238702B010BD7C
:10100C002DE9F04F05468A4687B00023ADF8003035
:10101C00ADF80230ADF80430ADF80830ADF80A3058
:10102C00ADF80C30802402AF03212846FFF750FEA8
:10103C000028F9D02846FFF7C4FFAB8EADF810306E
:10104C00EB8EADF812302B8FADF81430002304AAC0
:10105C0032F9132037F9131091423DF91310B8BF30
:10106C0027F813209142C8BF2DF813200133032B0E
:10107C00EDD1013CD8D105F16A0905F150084FF0CA
:10108C00020B3DF9143037F914601E4496FBFBF645
:10109C0036B229F8026F304602F0CEF90146E86FFD
:1010AC0002F01EFA48F8040FBAF1000F04D03246D1
:1010BC00E1B22846FFF722FD0134032CE1D107B041
:1010CC00BDE8F08F00F018B808B5024B1B681B6B1D
:1010DC00019308BDD001060808B5024B1B685B687C
:1010EC00019308BD9C01060808B5024B1B685B699F
:1010FC00019308BD9C01060808B5024B1B681B68D0
:10110C00019308BDB001060808B5024B1B689B682B
:10111C00019308BDB001060808B5024B1B68DB68DB
:10112C00019308BDB001060808B5024B1B681B698A
:10113C00019308BDB001060808B5024B1B68DB6CB7
:10114C00019308BDAC01060808B5024B1B685B6D2A
:10115C00019308BDAC01060808B5024B1B689B6DDA
:10116C00019308BDAC01060808B5024B1B68DB6D8A
:10117C00019308BDAC01060808B5024B1B681B6E39
:10118C00019308BDAC01060808B5024B1B685B6EE9
:10119C00019308BDAC01060808B5024B1B689B6E99
:1011AC00019308BDAC01060808B5024B1B68DB6E49
:1011BC00019308BDAC01060808B5024B1B681B6FF8
:1011CC00019308BDAC01060808B5024B1B685B6FA8
:1011DC00019308BDAC01060808B5034B1B68D3F896
:1011EC008030019308BD0000AC01060808B5024B25
:1011FC001B685B68019308BDBC01060808B5024B6F
:10120C001B689B68019308BDBC01060808B5024B1E
:10121C001B685B69019308BDBC01060808B5024B4D
:10122C001B68DB69019308BDBC01060808B5024BBD
:10123C001B681B6A019308BDBC01060808B5024B6C
:10124C001B681B6B019308BDBC01060808B5024B5B
:10125C001B681B68019308BDB401060808B5024B56
:10126C001B689B68019308BDB401060808B5024BC6
:10127C001B68DB68019308BDB401060808B5024B76
:10128C001B681B69019308BDB401060808B5024B25
:10129C001B685B69019308BDB401060808B5024BD5
:1012AC001B68DB69019308BDB401060808B5024B45
:1012BC001B681B6A019308BDB401060808B5024BF4
:1012CC001B685B6A019308BDB401060808B5024BA4
:1012DC001B689B69019308BDC401060808B5024B45
:1012EC001B685B6A019308BDC401060808B5024B74
:1012FC001B689B6A019308BDC401060808B5024B24
:10130C001B68DB6A019308BDC401060808B5024BD3
:10131C001B681B6B019308BDC401060808B5024B82
:10132C001B685B6B019308BDC401060808B5024B32
:10133C001B689B6B019308BDC401060808B5024BE2
:10134C001B681B6C019308BDC401060808B5024B51
:10135C001B681B68019308BDD801060808B5024B31
:10136C001B685B68019308BDD801060808B5024BE1
:10137C001B681B69019308BDD801060808B5024B10
:10138C001B685B69019308BDD801060808B5024BC0
:10139C001B689B69019308BDD801060808B5024B70
:1013AC001B68DB69019308BDD801060808B5024B20
:1013BC001B681B6A019308BDD801060808B5024BCF
:1013CC001B685B6A019308BDD801060808B5024B7F
:1013DC001B689B6C019308BDC001060808B5024B45
:1013EC001B685B68019308BDA401060808B5024B95
:1013FC001B685B69019308BDA401060808B5024B84
:10140C001B68DB6A019308BDA401060808B5034BF1
:10141C001B68D3F89030019308BD0000A4010608A6
:10142C0008B5034B1B68D3F89C30019308BD000032
:10143C00A401060808B5024B1B68DB6B019308BDC1
:10144C00CC01060808B5024B1B681B68019308BD4C
:10145C00C801060808B5024B1B685B68019308BD00
:10146C00C801060808B5024B1B689B68019308BDB0
:10147C00C801060808B5024B1B68DB68019308BD60
:10148C00C801060808B5024B1B681B69019308BD0F
:10149C00C801060808B5024B1B685B69019308BDBF
:1014AC00C801060808B5024B1B689B69019308BD6F
:1014BC00C801060808B5024B1B68DB69019308BD1F
:1014CC00C801060808B5024B1B681B6A019308BDCE
:1014DC00C801060808B5024B1B681B6B019308BDBD
:1014EC00C801060808B5024B1B685B6B019308BD6D
:1014FC00C801060808B5024B1B689B6B019308BD1D
:10150C00C801060808B5024B1B68DB6B019308BDCC
:10151C00C801060808B5024B1B681B68019308BD7F
:10152C00A001060808B5024B1B685B68019308BD57
:10153C00A001060808B5024B1B689B68019308BD07
:10154C00A00106080021FFF751BF10B583680446BF
:10155C0013B1032201469847204610BD7047F8B5D9
:10156C00064615460C468F18BC4206D0336814F854
:10157C00011B9B6830469847F6E72846F8BD0022C9
:10158C00007CFFF7F9BD0021007CFFF7FDBD0021B9
:10159C00007CFFF701BE0021007CFFF705BE002197
:1015AC00007CFFF709BE10B50446142101F08FF83A
:1015BC00204610BD10B5044608464FF47A73A3605C
:1015CC00044B0021207461602360FFF705FE204668
:1015DC0010BD00BFC8390A0800231A461946007C02
:1015EC00FFF7AABD13B50024007C0094FFF7ACFDF7
:1015FC00C0B202B010BD0123FFF7F4BF0022007C83
:10160C00FFF7AABD0022007CFFF7AEBD0121FFF75A
:10161C00F9BF0021007CFFF7D7BDF8B50F4600F1EC
:10162C000806051D002416F8011D0A22384600F094
:10163C0052F9AE42044407D0002CF4D02E21384687
:10164C0000F0F6F80444EEE72046F8BD10B5044669
:10165C00044B112240F8043B002102F020F92046F3
:10166C0010BD00BFF0390A080346074A10B543F80D
:10167C00042B01F1100251F8044B914243F8044B36
:10168C00F9D10A781A7010BDF0390A08024A416083
:10169C000260042202757047F0390A0810B59DF8F3
:1016AC00084044EA032343EA024242EA016104236C
:1016BC004160037510BD000037B5044D05609DF801
:1016CC0018500095FFF7EAFF03B030BDF0390A0857
:1016DC0037B50D788B784A78C97800912946FFF791
:1016EC00DDFF03B030BD0000014A024B1A607047A9
:1016FC00723A0A088801002000231A464068FFF756
:10170C00A9BE002202214068FFF7B4BE0022114698
:10171C004068FFF7A7BE002211464068FFF7B2BE33
:10172C0000231A4619464068FFF7B4BE00231A4638
:10173C0019464068FFF7B6BE002281F001014068EF
:10174C00FFF7B8BE00224068FFF7C4BE0022114666
:10175C004068FFF7C7BE002211464068FFF7B2BED3
:10176C0070B516468EB0044608A8FFF76FFF11221D
:10177C00002103A802F093F8304602F0C1F80025CE
:10178C000A4B009581B25B6803AA3046FFF71EFE38
:10179C0020B129462046FFF779FF03E003A9204634
:1017AC00FFF762FF20460EB070BD00BF0C06002094
:1017BC00034B044A04280CBF10461846704700BF60
:1017CC008C0100200C060020024B034A1A600022F8
:1017DC005A6070478C010020E43A0A08F8B50646B6
:1017EC000D468F180024BD420CD0336815F8011B30
:1017FC009B6830469847002801DB0444F3E7002C33
:10180C0008BF04462046F8BD70B505460C46084690
:10181C0049B102F075F82B68024621462846BDE80E
:10182C007040DB68184770BD08B5FFF7EDFF08BDC9
:10183C0003689B6818470B460A68014612681846ED
:10184C00104738B50D210546FFF7F2FF0A21044673
:10185C002846FFF7EDFF204438BD38B50546FFF7A5
:10186C00D3FF04462846FFF7ECFF204438BD38B5BB
:10187C000546FFF7E0FF04462846FFF7E2FF204449
:10188C0038BD012A98BF0A2230B50B468BB0002117
:10189C008DF824100DF12304B3FBF2F505FB123384
:1018AC00DBB2092B94BF30333733DBB2214604F85B
:1018BC0001392B46002DEFD1FFF7A6FF0BB030BD41
:1018CC0010B422B90368C9B29B6810BC1847D2B2D5
:1018DC0010BCFFF7D6BFFFF7F3BF2DE9F041074669
:1018EC000E4615462AB9BDE8F0410368C9B29B689B
:1018FC0018470A2A02D1002901DA04E0D2B2BDE865
:10190C00F041FFF7BEBF2D21FFF792FF2A46044698
:10191C0071423846FFF7B5FF2044BDE8F081000066
:10192C002DE9F84319468046104617461E469DF889
:10193C00205001F069FC08B1474912E026F0004440
:10194C004FF0FF32454B3846214601F05DFC68B93B
:10195C004FF0FF32414B3846214601F037FC28B995
:10196C003F494046FFF750FFBDE8F8834FF0604217
:10197C003C4B3846314601F03DFC08B13A49F0E7A2
:10198C004FF06042394B3846314601F015FC0028C7
:10199C00F4D1002200233846314601F00DFC38B159
:1019AC002D214046FFF744FF06F10046044600E0B7
:1019BC0004462F494FF0000900205FFA89F39D423D
:1019CC0006D900222B4B01F0AFFA09F10109F4E71B
:1019DC003A46334600F0CCFF0F46064601F052FC67
:1019EC000A22014681464046FFF74BFF04447DB373
:1019FC00484601F0F9F802460B463046394600F0ED
:101A0C00B5FF06460F4640461B49FFF7FDFE044452
:101A1C00184B00223046394601F05CF90F46064659
:101A2C0001F008FC0A22014681464046FFF755FFAB
:101A3C000444484601F0E8F802460B463046394665
:101A4C0000F094FF013D15F0FF0506460F46DFD16F
:101A5C002046BDE8F88300BF103B0A08FFFFEF7F6C
:101A6C001A3B0A08FFFFEF41143B0A08FFFFEFC1C6
:101A7C000000E03F00002440183B0A089DF80010CD
:101A8C000091FFF74DBF37B59DF818100546009132
:101A9C00FFF746FF04462846FFF7D3FE204403B069
:101AAC0030BD10B50446FFF750FD204610BD0000B8
:101ABC00034800238360034A034900F003BE00BFC0
:101ACC00940100207C000020AF1A0A08704710B562
:101ADC000446102100F0FBFD204610BD70B50446F5
:101AEC000E46074B0025036040F80C5FFFF7ECFA3D
:101AFC0030462671FFF7D2FBA560204670BD00BFB3
:101B0C00283B0A084FF6FF710079FFF79FBB00795D
:101B1C00FFF7A4BB0079FFF7A9BB0000054A00231F
:101B2C00995C814202D00133082BF9D1581CC0B208
:101B3C00704700BF303B0A08400830B518600024DD
:101B4C001868E5B2884206D90134082C02D0400846
:101B5C001860F5E70725024B5B5D137030BD00BFC5
:101B6C00303B0A0870B5044602FB01F588B00679D3
:101B7C001422002103A801F092FE0B2303A9304686
:101B8C000022ADF80C30FFF799FB02AB0DF1070208
:101B9C0029460498FFF7D0FF20799DF80710FFF72E
:101BAC006DFB029808B070BD38B50446A5680846B0
:101BBC004DB1FFF7B3FF012225FA00F12046BDE835
:101BCC003840FFF7CFBF2079BDE83840FFF756BB50
:101BDC0008B50079FFF75AFBC0B208BD0079FFF7D2
:101BEC0065BB10B504460068FFF79CFC204610BD91
:101BFC0010B50446006808B1FFF794FC002323607D
:101C0C00A360636010BD38B504460D460068013111
:101C1C00FFF790FC10B184E82100012038BD10B50D
:101C2C000368044613B143688B4207D22046FFF782
:101C3C00EAFF20B1A3680BB922681370012010BD14
:101C4C0070B50E46114604461546FFF7E8FF18B965
:101C5C002046FFF7CDFF09E02A463146A5602068F3
:101C6C0001F012FE2268A3680021D154204670BDF9
:101C7C0038B50023044603604360836003730D464C
:101C8C0039B1084601F03CFE294602462046FFF7D2
:101C9C00D7FF204638BD00004FF6FF72034B0020E3
:101CAC00187058809A80FFF799BB00BFA4010020E0
:101CBC00024B1A68024B1A60704700BF14000020D8
:101CCC00AC01002010B40468246BA44610BC60471F
:101CDC0003689B6C1847808E7047028FC08E101A59
:101CEC00704713B502AB026803F8011DD46819469E
:101CFC000122A04702B010BD10B5036804461B6951
:101D0C00984728B1E38EE26B591CE186D05C10BD7C
:101D1C004FF0FF3010BD10B5036804461B6998479F
:101D2C0018B1E38EE26BD05C10BD4FF0FF3010BDEC
:101D3C0070470346084610B4D98EDC6B1A8F0368C3
:101D4C00521ADB68214410BC1847A0F11000FFF7B1
:101D5C00F0BFF7B5054610460F461646FFF728FDAF
:101D6C000368DB689847B8B102213B46112208464C
:101D7C000096FFF743FA6861FFF738FA044630B172
:101D8C000023EB862B872F836E64012004E02B68E5
:101D9C0028465B6A9847204603B0F0BD38B5044628
:101DAC004569FFF74BFA854202D06069FFF73EFAAE
:101DBC00FFF744FA00236061E386238738BD30B512
:101DCC0087B0BDF828400225ADF808508DF80B40BF
:101DDC00250ADC798DF80A508DF80C409C798DF829
:101DEC000D405C791B798DF80E408DF80F30102367
:101DFC00019302AB009340690023FFF70FFA07B081
:101E0C0030BD38B5C36B0546C08E13B12C6C241A8B
:101E1C0000E01C46944228BF14461844224601F0A8
:101E2C0033FDEB8E20462344EB8638BD70B503683A
:101E3C0004461B690E461546984788B12368204610
:101E4C001B6998478542A8BF0546E38EE16B2A467D
:101E5C001944304601F018FDE38E2B44E38601E073
:101E6C004FF0FF35284670BDF0B5044689B0406C84
:101E7C000D461646FFF79CFC0368DB68984710B3C9
:101E8C006769FFF7DBF987421DD0E5B108AB10227B
:101E9C0043F8142D01930DEB020300932946002304
:101EAC0032466069FFF7B2F9051E0EDB9DF8122071
:101EBC009DF8133005A943EA0223A38604F11C0004
:101ECC00FFF706FC01E04FF0FF35284609B0F0BDE6
:101EDC002DE9F041064694B0406C0D469046FFF754
:101EEC0067FC0368DB689847F8B1284601F008FDE9
:101EFC00002481B20094736C03AA2846FFF766FA9B
:101F0C0090B903A908A8FFF7AFFB33680FAC9F6B20
:101F1C00074B09AD0E930FCD0FC42B6842462370AF
:101F2C000EA93046B84700E0204614B0BDE8F08159
:101F3C00F0390A0870B504460646054B01F1200538
:101F4C0044F8043B0FCD0FC42B683046237070BD92
:101F5C00F0390A08F0B594468E460646026889B0F8
:101F6C00976A094A03AC1D1D02920FCD0FC42B6852
:101F7C0062462370BDF8383071460093304602AB90
:101F8C00B84709B0F0BD00BFF0390A08F0B50446F7
:101F9C00036889B09F6A0D4B03AD00F12006B0F8C1
:101FAC0036E002930FCE0FC5336872462B70A38EAA
:101FBC00E16B0093204602ABB847054623682046E8
:101FCC00DB699847284609B0F0BD00BFF0390A0814
:101FDC0038B54FF47A7383600B4B002503F108027C
:101FEC006C330260036145600446FFF727F96061BA
:101FFC0004F11C00FFF72AFB4FF40073E5862587DC
:10200C00E5632364204638BD643B0A0810B590F89C
:10201C004830044623B1C06B10B1012100F057FBCE
:10202C000023E36384F848302364E386238710BDE0
:10203C0070B5044616460D46FFF7E8FF0023E6632D
:10204C0023643EB935B12846FEF721F80123E0633D
:10205C0084F84830E36B03B12564206C003018BF62
:10206C00012070BDF8B51746C26B05460C461AB96F
:10207C00016C09B1FFF7DCFF05F1200604340FCC2D
:10208C000FC6236833700023AF86EB862B87286C32
:10209C00F8BD70B5C26B04461AB9016C09B1FFF7F3
:1020AC00C7FFE16B0023E386238741B1226C32B179
:1020BC002068056B2046A8470028C8BF20872368E6
:1020CC002046BDE870401B69184770474174704743
:1020DC0008B5007CFFF732F920EAE07008BD08B5BE
:1020EC00007CFFF703F920EAE07008BD08B5007C1E
:1020FC00FFF70CF930EA200028BF4FF0FF3008BD85
:10210C0008B5007CFFF7FAF830EA200028BF4FF042
:10211C00FF3008BD007CFFF701B910B5044614214F
:10212C0000F0D5FA204610BD70B5457C04460E462D
:10213C0025B9007CFFF702F9002805DD3146207C2B
:10214C00BDE87040FFF7CAB8284670BD10B504460C
:10215C0008461146002262604FF47A72A260054A6A
:10216C0020742260012262741A46FFF7AFF82046F1
:10217C0010BD00BFDC3B0A08007CFFF7D7B800009D
:10218C0038B50C4D296811F0010411D12846FDF722
:10219C0082FF68B1084A2146084B0948FFF7D6FF71
:1021AC002846FDF77DFF074A0749054800F08AFAE3
:1021BC00034838BD480200204C020020C401002016
:1021CC00B00100207C000020D7200A084174704721
:1021DC00704708B50021007CFFF7D8F830EA2000E2
:1021EC0028BF4FF0FF3008BD08B50121007CFFF778
:1021FC00CDF830EA200028BF4FF0FF3008BD08B5FD
:10220C00007CFFF7BBF820EAE07008BD08B5007C45
:10221C00FFF7ACF820EAE07008BD007CFFF7C6B809
:10222C0010B50446142100F052FA204610BD38B502
:10223C000446007C0D46FFF7A1F8002801DC607C09
:10224C0028B12946207CFFF7A9F820EAE07038BDB8
:10225C0010B50446002363604FF47A73A360054BFA
:10226C00084623600123217463741146FFF76EF84E
:10227C00204610BD0C3C0A080022007CFFF76EB80B
:10228C00007CFFF79BB8FFF7FBBF000010B50446BE
:10229C001422002101F003FB054B20466360054B23
:1022AC00E36040F2011323818123238210BD00BF20
:1022BC0055030020D402002030B50E4D87B001A884
:1022CC00FFF7E4FF296811F0010410D12846FDF74F
:1022DC00E2FE60B101AA21460748FFF7B9FF284684
:1022EC00FDF7DEFE054A0649034800F0EBF902480B
:1022FC0007B030BDD0020020580400207C00002024
:10230C00DD210A0810B504461422002101F0C7FA99
:10231C00054B20466360054BE36040F201132381BB
:10232C008123238210BD00BF08050020700400200B
:10233C0010B50E4C86B001A8FFF7E4FF2368DB074D
:10234C0010D42046FDF7A7FE60B101AA0121084870
:10235C00FFF77EFF2046FDF7A3FE064A0649044818
:10236C0000F0B0F9024806B010BD00BF6C040020AC
:10237C00F40400207C000020DD210A080022114614
:10238C004068FFF77FB8F0B5164689B011220F46AA
:10239C000446002103A801F082FA304601F0B0FA9D
:1023AC000025009581B27B6803AA3046FFF70EF832
:1023BC0020B129462046FFF769F903E003A920461E
:1023CC00FFF752F9204609B0F0BD002211464068D3
:1023DC00FFF778B8002211464068FFF783B8002257
:1023EC004068FFF777B8002281F001014068FFF7E1
:1023FC0061B800231A4619464068FFF753B800230A
:10240C001A4619464068FFF745B800221146406845
:10241C00FFF728B8002202214068FFF72BB80023F1
:10242C001A464068FFF716B8024B04225A60024A5B
:10243C001A6070470C0600203C3C0A0808B5144B87
:10244C0033B1FFF739FF03681B699847002816DC86
:10245C00104B33B1FFF794FE03681B6998470028B3
:10246C0010DC0D4B0BB1AFF300800C4B7BB1FFF7C5
:10247C005FFF03681B699847002806DC08BDAFF3B3
:10248C000080E5E7AFF30080EBE7AFF3008008BD19
:10249C000000000000000000000000000000000030
:1024AC0008B5FFF7CBFFFEF71FFE014B186008BD08
:1024BC001C0600200248034A0349121A01F0E4B931
:1024CC000040024004400240103D0A0807B50023BA
:1024DC0000931A466FF07701FEF7A2FF03B05DF888
:1024EC0004FB000007B543880A2B08D0502B09D1F8
:1024FC00094B1B683BB103B05DF804EB1847FFF7C1
:10250C00E5FF06E0002300931A466FF07701FEF713
:10251C0087FF03B05DF804FB1406002038B5104C9F
:10252C00104D2368AB42104B0CBF012200221A70D5
:10253C0002D0FFF7BFFF2560FEF7CEFD044601F089
:10254C00B7F90A4B13B12046AFF3008000210748BE
:10255C00FEF770FFBDE8384000210548FEF756BF76
:10256C00004002401E1C279A1806002000000000A4
:10257C00F1240A0810B504460F48FFF72FFB28B1C9
:10258C00A4F10D03022B01D8002010BD00F040F87F
:10259C00FFF73FF808B1012CF6D9FFF7F1FDFFF773
:1025AC00EBFD18B1A4F11203012BEDD9172C8CBF44
:1025BC000020012010BD00BF50060020172838B5A0
:1025CC0004460D460AD8FF2908D0FFF7D3FF28B1DF
:1025DC0029462046BDE83840FEF796BD38BD38B5D3
:1025EC0004460D46FEF798FDFF2810D0062804D8A7
:1025FC004D2323FA00F0C30709D42046FFF7BAFF96
:10260C0028B129462046BDE83840FEF78DBD38BDBF
:10261C0038B50B4D296811F001040FD12846FDF790
:10262C003AFD58B121460748FEF7C4FF2846FDF78E
:10263C0037FD054A0549034800F044F8014838BD08
:10264C0020060020240600207C00002069150A08C2
:10265C0013B5084C00231A46194600932046FFF781
:10266C002BF82046044A054902B0BDE8104000F0A2
:10267C0029B800BF380600207C000020B3000A08EF
:10268C0070B50C4C0C4E0D4D00212046FFF726FA70
:10269C0020460B4C3246294600F014F80121204606
:1026AC00FFF71CFA324629462046BDE8704000F080
:1026BC0009B800BF500600207C000020D91A0A0877
:1026CC00600600200B460146184601F0CFB8FDF716
:1026DC00E0BC0000244B1A68D0075CBF01221A60D2
:1026EC00224B1A68D1075CBF01221A60204B1A6872
:1026FC00D2075CBF01221A601E4B1A68D0075CBF60
:10270C0001221A601C4B1A68D1075CBF01221A60A7
:10271C001A4B1A68D2075CBF01221A60184B1A6850
:10272C00D0075CBF01221A60164B1A68D1075CBF38
:10273C0001221A60144B1A68D2075CBF01221A607E
:10274C00124B1A68D0075CBF01221A60104B1A6832
:10275C00D1075CBF01221A600E4B1A68D2075CBF0E
:10276C0001221A60704700BF9C06002098060020CA
:10277C0094060020900600208C060020880600207D
:10278C0084060020800600207C06002078060020AD
:10279C007406002070060020184B1A68D1075CBF25
:1027AC0001221A60164B1A68D2075CBF01221A600C
:1027BC00144B1A68D0075CBF01221A60124B1A68BE
:1027CC00D1075CBF01221A60104B1A68D2075CBF9C
:1027DC0001221A600E4B1A68D0075CBF01221A60E6
:1027EC000C4B1A68D1075CBF01221A600A4B1A689D
:1027FC00D2075CBF01221A60704700BFBC060020E4
:10280C00B8060020B4060020B0060020AC0600205C
:10281C00A8060020A4060020A0060020184B1A6869
:10282C00D1075CBF01221A60164B1A68D2075CBF35
:10283C0001221A60144B1A68D0075CBF01221A607F
:10284C00124B1A68D1075CBF01221A60104B1A6830
:10285C00D2075CBF01221A600E4B1A68D0075CBF0E
:10286C0001221A600C4B1A68D1075CBF01221A6056
:10287C000A4B1A68D2075CBF01221A60704700BF6E
:10288C00DC060020D8060020D4060020D00600204C
:10289C00CC060020C8060020C4060020C00600207C
:1028AC00244B1A68D0075CBF01221A60224B1A68AD
:1028BC00D1075CBF01221A60204B1A68D2075CBF9B
:1028CC0001221A601E4B1A68D0075CBF01221A60E5
:1028DC001C4B1A68D1075CBF01221A601A4B1A688C
:1028EC00D2075CBF01221A60184B1A68D0075CBF74
:1028FC0001221A60164B1A68D1075CBF01221A60BC
:10290C00144B1A68D2075CBF01221A60124B1A686A
:10291C00D0075CBF01221A60104B1A68D1075CBF4C
:10292C0001221A600E4B1A68D2075CBF01221A6092
:10293C00704700BF0C070020080700200407002088
:10294C0000070020FC060020F8060020F4060020FA
:10295C00F0060020EC060020E8060020E40600202B
:10296C00E006002081F0004102E000BF83F000434C
:10297C0030B54FEA41044FEA430594EA050F08BF0E
:10298C0090EA020F1FBF54EA000C55EA020C7FEAD2
:10299C00645C7FEA655C00F0E2804FEA5454D4EB4F
:1029AC005555B8BF6D420CDD2C4480EA020281EA19
:1029BC00030382EA000083EA010180EA020281EA51
:1029CC000303362D88BF30BD11F0004F4FEA0131A3
:1029DC004FF4801C4CEA113102D0404261EB4101B2
:1029EC0013F0004F4FEA03334CEA133302D0524238
:1029FC0063EB430394EA050F00F0A780A4F10104F4
:102A0C00D5F1200E0DDB02FA0EFC22FA05F280182D
:102A1C0041F1000103FA0EF2801843FA05F3594113
:102A2C000EE0A5F120050EF1200E012A03FA0EFC92
:102A3C0028BF4CF0020C43FA05F3C01851EBE371BC
:102A4C0001F0004507D54FF0000EDCF1000C7EEBD9
:102A5C0000006EEB0101B1F5801F1BD3B1F5001F17
:102A6C000CD349085FEA30004FEA3C0C04F1010436
:102A7C004FEA445212F5800F80F09A80BCF1004F5F
:102A8C0008BF5FEA500C50F1000041EB045141EAE1
:102A9C00050130BD5FEA4C0C404141EB010111F4E2
:102AAC00801FA4F10104E9D191F0000F04BF01468D
:102ABC000020B1FA81F308BF2033A3F10B03B3F16B
:102ACC0020020CDA0C3208DD02F1140CC2F10C02FB
:102ADC0001FA0CF021FA02F10CE002F11402D8BF59
:102AEC00C2F1200C01FA02F120FA0CFCDCBF41EA25
:102AFC000C019040E41AA2BF01EB0451294330BDF4
:102B0C006FEA04041F3C1CDA0C340EDC04F11404D0
:102B1C00C4F1200220FA04F001FA02F340EA0300A7
:102B2C0021FA04F345EA030130BDC4F10C04C4F1ED
:102B3C00200220FA02F001FA04F340EA03002946CD
:102B4C0030BD21FA04F0294630BD94F0000F83F417
:102B5C00801306BF81F480110134013D4EE77FEAFA
:102B6C00645C18BF7FEA655C29D094EA050F08BF46
:102B7C0090EA020F05D054EA000C04BF1946104627
:102B8C0030BD91EA030F1EBF0021002030BD5FEA6B
:102B9C00545C05D14000494128BF41F0004130BD93
:102BAC0014F580043CBF01F5801130BD01F00045E7
:102BBC0045F0FE4141F470014FF0000030BD7FEA5A
:102BCC00645C1ABF194610467FEA655C1CBF0B4655
:102BDC00024650EA013406BF52EA033591EA030F6C
:102BEC0041F4002130BD00BF90F0000F04BF002164
:102BFC00704730B54FF4806404F132044FF0000597
:102C0C004FF0000150E700BF90F0000F04BF00210F
:102C1C00704730B54FF4806404F1320410F0004575
:102C2C0048BF40424FF000013EE700BF42004FEA70
:102C3C00E2014FEA31014FEA02701FBF12F07F43ED
:102C4C0093F07F4F81F06051704792F0000F14BFEA
:102C5C0093F07F4F704730B54FF4607401F000452E
:102C6C0021F0004120E700BF50EA010208BF704785
:102C7C0030B54FF000050AE050EA010208BF70477A
:102C8C0030B511F0004502D5404261EB41014FF4E3
:102C9C00806404F132045FEA915C3FF4DCAE4FF0E7
:102CAC0003025FEADC0C18BF03325FEADC0C18BFCE
:102CBC00033202EBDC02C2F1200300FA03FC20FA1F
:102CCC0002F001FA03FE40EA0E0021FA02F114446C
:102CDC00C1E600BF70B54FF0FF0C4CF4E06C1CEA81
:102CEC0011541DBF1CEA135594EA0C0F95EA0C0FF6
:102CFC0000F0DEF82C4481EA030621EA4C5123EA69
:102D0C004C5350EA013518BF52EA033541F4801197
:102D1C0043F4801338D0A0FB02CE4FF00005E1FB4A
:102D2C0002E506F00042E0FB03E54FF00006E1FB94
:102D3C0003569CF0000F18BF4EF0010EA4F1FF04D7
:102D4C00B6F5007F64F5407404D25FEA4E0E6D4117
:102D5C0046EB060642EAC62141EA55514FEAC52028
:102D6C0040EA5E504FEACE2EB4F1FD0C88BFBCF5A4
:102D7C00E06F1ED8BEF1004F08BF5FEA500E50F155
:102D8C00000041EB045170BD06F0004646EA01011B
:102D9C0040EA020081EA0301B4EB5C04C2BFD4EB4D
:102DAC000C0541EA045170BD41F480114FF0000E46
:102DBC00013C00F3AB8014F1360FDEBF002001F0B4
:102DCC00004170BDC4F10004203C35DA0C341BDC2E
:102DDC0004F11404C4F1200500FA05F320FA04F000
:102DEC0001FA05F240EA020001F0004221F0004134
:102DFC0010EBD37021FA04F642EB06015EEA430EA7
:102E0C0008BF20EAD37070BDC4F10C04C4F12005D6
:102E1C0000FA04F320FA05F001FA04F240EA020089
:102E2C0001F0004110EBD37041F100015EEA430E5A
:102E3C0008BF20EAD37070BDC4F1200500FA05F27A
:102E4C004EEA020E20FA04F301FA05F243EA0203F9
:102E5C0021FA04F001F0004121FA04F220EA020008
:102E6C0000EBD3705EEA430E08BF20EAD37070BD4E
:102E7C0094F0000F0FD101F00046400041EB01012E
:102E8C0011F4801F08BF013CF7D041EA060195F010
:102E9C00000F18BF704703F00046520043EB0303CA
:102EAC0013F4801F08BF013DF7D043EA06037047B7
:102EBC0094EA0C0F0CEA135518BF95EA0C0F0CD0C2
:102ECC0050EA410618BF52EA4306D1D181EA030108
:102EDC0001F000414FF0000070BD50EA410606BF02
:102EEC001046194652EA430619D094EA0C0F02D147
:102EFC0050EA013613D195EA0C0F05D152EA03368C
:102F0C001CBF104619460AD181EA030101F00041A9
:102F1C0041F0FE4141F470014FF0000070BD41F0F2
:102F2C00FE4141F4780170BD70B54FF0FF0C4CF4CC
:102F3C00E06C1CEA11541DBF1CEA135594EA0C0FEB
:102F4C0095EA0C0F00F0A7F8A4EB050481EA030E38
:102F5C0052EA03354FEA013100F088804FEA03331F
:102F6C004FF0805545EA131343EA12634FEA0222ED
:102F7C0045EA111545EA10654FEA00260EF00041AE
:102F8C009D4208BF964244F1FD0404F5407402D200
:102F9C005B084FEA3202B61A65EB03055B084FEA91
:102FAC0032024FF480104FF4002CB6EB020E75EB8E
:102FBC00030E22BFB61A754640EA0C005B084FEAB6
:102FCC003202B6EB020E75EB030E22BFB61A754633
:102FDC0040EA5C005B084FEA3202B6EB020E75EB7E
:102FEC00030E22BFB61A754640EA9C005B084FEAF6
:102FFC003202B6EB020E75EB030E22BFB61A754603
:10300C0040EADC0055EA060E18D04FEA051545EAF1
:10301C0016754FEA06164FEAC30343EA52734FEA9A
:10302C00C2025FEA1C1CC0D111F4801F0BD141EA13
:10303C0000014FF000004FF0004CB6E711F4801F78
:10304C0004BF01430020B4F1FD0C88BFBCF5E06F58
:10305C003FF6AFAEB5EB030C04BFB6EB020C5FEA68
:10306C00500C50F1000041EB045170BD0EF0004EBD
:10307C004EEA113114EB5C04C2BFD4EB0C0541EAEF
:10308C00045170BD41F480114FF0000E013C90E6EC
:10309C0045EA060E8DE60CEA135594EA0C0F08BFB0
:1030AC0095EA0C0F3FF43BAF94EA0C0F0AD150EAAF
:1030BC0001347FF434AF95EA0C0F7FF425AF104642
:1030CC0019462CE795EA0C0F06D152EA03353FF46A
:1030DC00FDAE1046194622E750EA410618BF52EAE7
:1030EC0043067FF4C5AE50EA41047FF40DAF52EABB
:1030FC0043057FF4EBAE12E74FF0FF3C06E000BF58
:10310C004FF0010C02E000BF4FF0010C4DF804CD64
:10311C004FEA410C7FEA6C5C4FEA430C18BF7FEA24
:10312C006C5C1BD001B050EA410C0CBF52EA430C52
:10313C0091EA030F02BF90EA020F0020704710F1D2
:10314C00000F91EA030F58BF994208BF90422CBF61
:10315C00D8176FEAE37040F0010070474FEA410C5A
:10316C007FEA6C5C02D150EA013C07D14FEA430C78
:10317C007FEA6C5CD6D152EA033CD3D05DF8040BE9
:10318C00704700BF8446104662468C46194663461B
:10319C0000E000BF01B5FFF7B7FF002848BF10F1F2
:1031AC00000F01BD4DF808EDFFF7F4FF0CBF012037
:1031BC0000205DF808FB00BF4DF808EDFFF7EAFFB3
:1031CC0034BF012000205DF808FB00BF4DF808ED6E
:1031DC00FFF7E0FF94BF012000205DF808FB00BF63
:1031EC004DF808EDFFF7CEFF94BF012000205DF8ED
:1031FC0008FB00BF4DF808EDFFF7C4FF34BF0120FA
:10320C0000205DF808FB00BF4FEA410C7FEA6C5CC4
:10321C0002D150EA013C0AD14FEA430C7FEA6C5CC4
:10322C0002D152EA033C02D14FF0000070474FF03C
:10323C00010070474FEA410212F5001215D211D568
:10324C006FF47873B3EB625212D94FEAC12343F097
:10325C00004343EA505311F0004F23FA02F018BF19
:10326C00404270474FF00000704750EA013005D1E2
:10327C0011F0004008BF6FF0004070474FF00000A5
:10328C00704700BF4A0011D212F5001211D20DD5B1
:10329C006FF47873B3EB62520ED44FEAC12343F050
:1032AC00004343EA505323FA02F070474FF00000FA
:1032BC00704750EA013002D14FF0FF3070474FF0A9
:1032CC000000704780F0004002E000BF81F0004138
:1032DC0042001FBF5FEA410392EA030F7FEA226CB0
:1032EC007FEA236C6AD04FEA1262D2EB1363C1BF40
:1032FC00D218414048404140B8BF5B42192B88BFAF
:10330C00704710F0004F40F4000020F07F4018BFD1
:10331C00404211F0004F41F4000121F07F4118BFF1
:10332C00494292EA030F3FD0A2F1010241FA03FC99
:10333C0010EB0C00C3F1200301FA03F100F0004381
:10334C0002D5494260EB4000B0F5000F13D3B0F149
:10335C00807F06D340084FEA310102F10102FE2AB8
:10336C0051D2B1F1004F40EBC25008BF20F0010028
:10337C0040EA03007047490040EB000010F4000FD6
:10338C00A2F10102EDD1B0FA80FCACF1080CB2EB69
:10339C000C0200FA0CF0AABF00EBC25052421843C8
:1033AC00BCBFD0401843704792F0000F81F400016D
:1033BC0006BF80F400000132013BB5E74FEA410340
:1033CC007FEA226C18BF7FEA236C21D092EA030FAC
:1033DC0004D092F0000F08BF0846704790EA010F26
:1033EC001CBF0020704712F07F4F04D1400028BF53
:1033FC0040F00040704712F100723CBF00F5000035
:10340C00704700F0004343F0FE4040F4000070476A
:10341C007FEA226216BF08467FEA23630146420216
:10342C0006BF5FEA412390EA010F40F48000704729
:10343C004FF0000304E000BF10F0004348BF4042CF
:10344C005FEA000C08BF704743F0964301464FF00B
:10345C0000001CE050EA010208BF70474FF0000367
:10346C000AE000BF50EA010208BF704711F00043A8
:10347C0002D5404261EB41015FEA010C02BF844678
:10348C000146002043F0B64308BFA3F18053A3F5D7
:10349C000003BCFA8CF2083AA3EBC25310DB01FA1E
:1034AC0002FC634400FA02FCC2F12002BCF1004FA2
:1034BC0020FA02F243EB020008BF20F00100704733
:1034CC0002F1200201FA02FCC2F1200250EA4C0087
:1034DC0021FA02F243EB020008BF20EADC707047CD
:1034EC004FF0FF0C1CEAD0521EBF1CEAD15392EADB
:1034FC000C0F93EA0C0F6FD01A4480EA010C4002B7
:10350C0018BF5FEA41211ED04FF0006343EA501010
:10351C0043EA5111A0FB01310CF00040B1F5000F52
:10352C003EBF490041EAD3715B0040EA010062F101
:10353C007F02FD2A1DD8B3F1004F40EBC25008BFEB
:10354C0020F00100704790F0000F0CF0004C08BF09
:10355C0049024CEA502040EA51207F3AC2BFD2F1D6
:10356C00FF0340EAC250704740F400004FF00003E4
:10357C00013A5DDC12F1190FDCBF00F0004070471E
:10358C00C2F10002410021FA02F1C2F1200200FA5C
:10359C0002FC5FEA310040F1000053EA4C0308BF23
:1035AC0020EADC70704792F0000F00F0004C02BF74
:1035BC00400010F4000F013AF9D040EA0C0093F0EF
:1035CC00000F01F0004C02BF490011F4000F013B49
:1035DC00F9D041EA0C018FE70CEAD15392EA0C0FB7
:1035EC0018BF93EA0C0F0AD030F0004C18BF31F022
:1035FC00004CD8D180EA010000F00040704790F0F8
:10360C00000F17BF90F0004F084691F0000F91F09B
:10361C00004F14D092EA0C0F01D142020FD193EA61
:10362C000C0F03D14B0218BF084608D180EA0100E9
:10363C0000F0004040F0FE4040F40000704740F0C5
:10364C00FE4040F4400070474FF0FF0C1CEAD05293
:10365C001EBF1CEAD15392EA0C0F93EA0C0F69D0EF
:10366C00A2EB030280EA010C49024FEA402037D05A
:10367C004FF0805343EA111143EA10130CF0004051
:10368C008B4238BF5B0042F17D024FF4000C8B4241
:10369C0024BF5B1A40EA0C00B3EB510F24BFA3EB21
:1036AC00510340EA5C00B3EB910F24BFA3EB9103F1
:1036BC0040EA9C00B3EBD10F24BFA3EBD10340EA4B
:1036CC00DC001B0118BF5FEA1C1CE0D1FD2A3FF691
:1036DC0050AF8B4240EBC25008BF20F00100704746
:1036EC000CF0004C4CEA50207F32C2BFD2F1FF03E9
:1036FC0040EAC250704740F400004FF00003013A1A
:10370C0037E792F0000F00F0004C02BF400010F4BD
:10371C00000F013AF9D040EA0C0093F0000F01F0D1
:10372C00004C02BF490011F4000F013BF9D041EAF3
:10373C000C0195E70CEAD15392EA0C0F08D1420226
:10374C007FF47DAF93EA0C0F7FF470AF084676E7F9
:10375C0093EA0C0F04D14B023FF44CAF08466EE7D2
:10376C0030F0004C18BF31F0004CCAD130F00042A0
:10377C007FF45CAF31F000437FF43CAF5FE700BFF8
:10378C004FF0FF3C06E000BF4FF0010C02E000BF21
:10379C004FF0010C4DF804CD4FEA40024FEA4103C3
:1037AC007FEA226C18BF7FEA236C11D001B052EA79
:1037BC00530C18BF90EA010F58BFB2EB030088BF3F
:1037CC00C81738BF6FEAE17018BF40F001007047AE
:1037DC007FEA226C02D15FEA402C05D17FEA236C90
:1037EC00E4D15FEA412CE1D05DF8040B704700BFD7
:1037FC00844608466146FFE70FB5FFF7C9FF00286E
:10380C0048BF10F1000F0FBD4DF808EDFFF7F4FFA6
:10381C000CBF012000205DF808FB00BF4DF808ED3F
:10382C00FFF7EAFF34BF012000205DF808FB00BF62
:10383C004DF808EDFFF7E0FF94BF012000205DF884
:10384C0008FB00BF4DF808EDFFF7D2FF94BF012035
:10385C0000205DF808FB00BF4DF808EDFFF7C8FF2E
:10386C0034BF012000205DF808FB00BF10B5054CEB
:10387C0013462CB10A4601460220AFF3008010BD5E
:10388C00204610BD0000000010B5431E0A449142B2
:10389C0004D011F8014B03F8014FF8E710BD0346B3
:1038AC000244934202D003F8011BFAE77047000070
:1038BC0038B5124B05461C68A36BD3B91820FDF71D
:1038CC0029FE43F20E33A06303804AF6CD334380C6
:1038DC0041F2342383804EF26D63C3804DF6EC636A
:1038EC000381052343810B23838101220023C0E93B
:1038FC000423A36B00221D615A6138BD780000209F
:10390C00034613F8012B002AFBD1181A0138704713
:10391C001D000A085D000A0889000A088D000A08C3
:10392C00000000005365747570004851526F757437
:10393C0065725F5055424C4953480065436F6D703A
:10394C006173732054657374204170700063616CF3
:10395C006962726174696F6E2073746172746564EC
:10396C000043616C6962726174696F6E2066696E86
:10397C00696E73686564005069746368203D20004B
:10398C00526F6C6C20203D20005961772020203D27
:10399C00200041636365707465642072616E6765B5
:1039AC003A203A2000202C2000200000004000008B
:1039BC0000600000000000000000000069150A080B
:1039CC00B3150A088B150A086B150A0893150A0813
:1039DC009B150A08A3150A08AB150A08000000007D
:1039EC000000000027160A08B3000A089D020A0806
:1039FC00626175640053657269616C005553425382
:103A0C00657269616C310074797065007061726106
:103A1C006D00636D6400696400686E640073747299
:103A2C006D0066696C74006C766C0061646448614E
:103A3C006E646C65720072656D6F766548616E645C
:103A4C006C657200656E756D48616E646C65727341
:103A5C00004A534F4E53747265616D4C6F674861E9
:103A6C006E646C65720061707000253031307520A9
:103A7C00005D200025640028293A2000205B0063AB
:103A8C006F6465203D200025690064657461696C74
:103A9C0073203D20000D0A006C6E00666E00636F93
:103AAC0064650064657461696C006E6F6E650074AA
:103ABC007261636500696E666F007761726E006596
:103ACC0072726F720070616E696300616C6C0000E1
:103ADC00000000000000000005170A080F170A0874
:103AEC0019170A0823170A082D170A0839170A0884
:103AFC0045170A0851170A0859170A0863170A08C4
:103B0C006D170A086E616E006F7666002E00696E86
:103B1C00660000000000000000000000D91A0A082E
:103B2C00DB1A0A0800081018202830385A00252BF8
:103B3C003033643A253032750025592D256D2D25ED
:103B4C00645425483A254D3A2553257A0061736310
:103B5C0074696D65000000000000000000000000AA
:103B6C0099010A08AB020A08EF1C0A080F1E0A0882
:103B7C00E71C0A08051D0A08231D0A083D1D0A0832
:103B8C005F1D0A08A91D0A08CB1D0A08611F0A0837
:103B9C00751E0A08D11C0A0871200A08DD1E0A08C5
:103BAC00991F0A089F200A08391E0A08DD1C0A08FA
:103BBC00411F0A08E31C0A083F1D0A08F0FFFFFF1B
:103BCC0000000000571D0A08000000000000000063
:103BDC00D7200A0827210A0835210A08E9170A08FC
:103BEC00EB200A080D210A08F9200A0821210A08ED
:103BFC00D9200A08DD200A0800000000000000009F
:103C0C00DD210A082D220A083B220A08E9170A08B6
:103C1C0019220A08DF210A08F5210A0827220A08B6
:103C2C000B220A08D9210A0800000000000000003D
:103C3C002B240A0821240A0817240A0889230A08B5
:103C4C000B240A08FF230A08F3230A08EB230A08AB
:103C5C00E1230A08D7230A0893230A08000000006E
:103C6C000000000000000000000000000000000048
:103C7C000000000000000000000000000000000038
:103C8C000000000000000000000000000000000028
:103C9C000000000000000000000000000000000018
:103CAC000000000000000000000000000000000008
:103CBC0000000000000000000000000043000000B5
:103CCC0049060A08E5060A08D1100A08F5160A087A
:103CDC00D5170A08BD1A0A08A51C0A08BD1C0A0833
:103CEC0035240A085D260A088D260A08E1260A08EA
:103CFC00A5270A0829280A08AD280A080000000090
:043D0C0000000000B3
:043D100000000000AF
:103D1400B8220000F7CC1239240B98399F71E1398D
:103D2400240B183A593B0A0800000000683C0A08B2
:103D3400883C0A08A83C0A080000000000000000B3
:103D44000000000000000000C83C0A080000000059
:103D5400000000000000000000000000000000005F
:103D6400000000000000000000000000000000004F
:103D7400000000000000000000000000000000003F
:0C3D8400000000000000000018000020FB
:103D9000FFFFFFFF00000102030405060708090AF0
:103DA0000B0C0D0E0F101112131415161718191AEB
:083DB0001B1C1D1E1F20280032
:043DB80078563412F3
:04000005080A001CC9
:00000001FF
