:02000004080AE8
:1000000000000A08E82A0A080000060006000501A8
:0800100004027A050000000063
:04001800FC250A08B1
:10001C0009480A4908B5884205D0094A824202D0EB
:10002C00121A02F0A1FA0748074A0021121A02F02C
:10003C00A6FA064808BD00BF00000020442A0A08A2
:10004C007C0000207C00002008070020080700200E
:10005C0070B501F0F9FD074B074C1E46E41AA408D5
:10006C000025A54204D056F8253098470135F8E70D
:10007C0070BD00BFF4290A083C2A0A0800F036B803
:10008C0008B500F0B5F8BDE8084001F09FBD00F0E0
:10009C00C5BE00F0CBBE0078B0FA80F040097047C6
:1000AC00012303707047704710B50446054B03607D
:1000BC006433036101F00CFA204601F041FB204649
:1000CC0010BD00BF94280A0810B50446182101F091
:1000DC0094FE204610BD10B50446FFF7E5FF204600
:1000EC004C2101F08AFE204610BD000070B596B080
:1000FC0001F078FC01F05DFC0028F9D0334C0023B2
:10010C001A461946606800F029FE00221146606804
:10011C002E4D00F03BFE0028F7D001F063FC2C497B
:10012C0001F019F82B4B002219882B4801F0ABF980
:10013C0000231946294A686800F060FE01F052FC61
:10014C00064600244022002106A802F018FA40239B
:10015C0006AA21460094686800F058FE06A902A879
:10016C0001F020F90299304600F0F5FF02A801F0E9
:10017C00D2F801F037FC224606462146686800F0AA
:10018C00E5FD811C06A800F0F1FE06A9304600F042
:10019C00ECFF1348012303701E2383706B23437001
:1001AC0000F019FB78B901F01DFC0E4900F0D3FFEB
:1001BC0001F018FC0C4900F0CEFF01F013FC0B49C8
:1001CC0000F0C9FFFEE716B070BD00BF04060020AA
:1001DC0010260A08000000200C01002016260A0830
:1001EC008800002027260A084B260A0860260A08E1
:1001FC0010B5044C204600F0CEFB2046BDE8104064
:10020C0000F081BB8800002038B500F009FC00210B
:10021C00012000F077FD134B00221A705A804FF624
:10022C00FF72114C9A80022000F064FD0F4D2046A5
:10023C0000F08EFE20460E4C2A460E4901F0D8FDE9
:10024C00204601F05FFA2A460B49204601F0D0FD0A
:10025C000A4800F077F8BDE838404FF47A71084846
:10026C0000F018B880000020580100207C0000200D
:10027C000C010020B3000A08B5000A088800002011
:10028C007001002000F0CCBB10B5044600F0C0FBA0
:10029C00206010BD38B504460D46FFF7F5FF00236E
:1002AC006560A360204638BD00F0BABB30B50224AF
:1002BC00017083700621F523C47504244270C38039
:1002CC00012200230172017680F8204003210724CB
:1002DC00027142748274C27402758275427682769F
:1002EC00C276C27780F8214043728372C372037363
:1002FC0043738373C373037401774377837780F8F5
:10030C002230044680F8231080F82720024680F81B
:10031C00241080F8253080F8263000250139E5635B
:10032C00A564656502F10202A2F85E30A2F86430A1
:10033C00A2F86A3004F10404F0D14FF0000380F805
:10034C00803030BD10B51E236B220121FFF7AEFFAC
:10035C0010BD10B50446C08801F050FF4FF060513D
:10036C0001F0A4FF606710BD10B50446C07D01F01C
:10037C0045FF4FF0605101F099FFA06710BD0000E0
:10038C0090F82030043B0C2B14D8DFE803F0071353
:10039C0013130A1313130D1313131000064B1B68BE
:1003AC0007E0054B5B6804E0034B9B6801E0024BE4
:1003BC00DB68C367704700BF04000020C388F52BBF
:1003CC0007D0B3F5FA7F04D0B3F5FA6F1CBFF52351
:1003DC00C380C27D102A03D8084BD340DA0701D45E
:1003EC000223C37590F82020102A03D8044BD34065
:1003FC00DB0702D4042380F820307047140101007D
:10040C001011010010B50446012190F8730001F0A1
:10041C006BFC94F87300012101F077FC94F87200E6
:10042C00012101F061FC94F872000A4C012101F0E9
:10043C006CFC204600F000FF2046082100F04EFF27
:10044C002046012100F0FDFE2046BDE810400021B1
:10045C0000F0FABE48060020F8B50C4617461E46BA
:10046C00094D2046002101F050FC07F03F012846C1
:10047C0000F048FF3146284600F044FF2046BDE816
:10048C00F840012101F041BC48060020F8B51E4699
:10049C0090F8723002F03F028B429DF8187042F0D7
:1004AC00800503D1012F88BF45F040058CB2204652
:1004BC00002101F02AFC2946094800F023FF3546AB
:1004CC00AB1B9F4206DD0021054800F01BFF05F821
:1004DC00010BF5E72046012101F017FC0120F8BDC6
:1004EC00480600201FB5012300930DF10F03FFF701
:1004FC00CDFF9DF80F0005B05DF804FB08B501F0C9
:10050C001DFCBDE8084000F0E9BC70B50E46154670
:10051C001C4601F013FC314600F0F2FC01F00EFC1D
:10052C00036829469B68984701F008FC036821463C
:10053C009A68904701F002FCBDE8704000F0E8BCFE
:10054C001346027810B4012A05D10A4610BC90F863
:10055C007310FFF7DABF2AB90A4610BC90F8731073
:10056C00FFF77ABF10BC704710B50379044613B17E
:10057C00037A5B01DBB2E288B2F5FA7F05D0B2F503
:10058C00FA6F04D143F0180301E043F00803627AD8
:10059C00102102F003021A432046FFF7D1FF00227C
:1005AC0011212046FFF7CCFFA37A002BE37A14BF6E
:1005BC00802200222BB1237B03F00F0343F0400376
:1005CC001A4312212046FFF7BBFFE37C002BA37CD0
:1005DC000CBF0022202213B142F01002D2B2637C75
:1005EC000BB142F00802237D0BB142F002021E2136
:1005FC002046FFF7A5FF637B002BA37B0CBF0022DB
:10060C00202213B142F01002D2B2E37B0BB142F0C4
:10061C0008022046BDE810401321FFF791BF10B52A
:10062C00C37E0446002B837E0CBF0022202213B114
:10063C0042F01002D2B2637E0BB142F008021F21CD
:10064C002046FFF77DFFA27D12B1227E5201D2B26D
:10065C00E37D082B06D0102B07D0042B07D142F0DA
:10066C00100204E042F0180201E042F0080294F992
:10067C001C302021002BA2BF03F003031A4342F0CD
:10068C0004022046FFF75CFF627F2AB1A27F520171
:10069C0002F0600242F080022046BDE810402121A9
:1006AC00FFF74EBF1346027810B4012A05D10A4653
:1006BC0010BC90F87210FFF728BF2AB90A4610BC7C
:1006CC0090F87210FFF7C8BE10BC704710B590F8C8
:1006DC0022300446002B90F8233008BF00224FEA4A
:1006EC00431303F0600190F8213018BF80229B0067
:1006FC0003F01C030B431A432021FFF7D3FF94F89C
:10070C0020302046083BDBB2082B96BF124A002251
:10071C00D25C2121FFF7C6FF94F825302046002B30
:10072C0094F826300CBF0022202203F003031A4356
:10073C002221FFF7B7FF94F824202046920002F004
:10074C000C022321FFF7AEFF2046BDE8104000222B
:10075C002421FFF7A7BF00BFE8260A0838B50C46CE
:10076C00154601F0EBFA214600F0CAFB01F0E6FA5F
:10077C00036829469B68984701F0E0FA002100F0D5
:10078C00C3FB01F0DBFA0122214600F0B6FB01F0BD
:10079C00D5FA03685B699847C0B238BD0A46017840
:1007AC00012903D190F87310FFF7D8BF19B990F84D
:1007BC007310FFF797BE002070470A460178012995
:1007CC0003D190F87210FFF7C9BF19B990F87210E5
:1007DC00FFF788BE704738B50446437880F873300D
:1007EC00837880F87230FFF7E9FDFFF7B2FD204601
:1007FC00FFF7C6FD2046FFF7B7FD2378012B03D189
:10080C002046FFF77BFE03E013B92046FFF7FAFD05
:10081C000F212046FFF7D1FF0F2105462046FFF799
:10082C00BDFF46F63D0345EA002005B29D420AD1C4
:10083C002046FFF799FE2046FFF7F1FE2046FFF712
:10084C0045FF284638BD002038BD2DE9F0419046C3
:10085C000C461D469DF8186000F0DAF8074601F0CA
:10086C006DFA214600F04CFB01F068FA036848F081
:10087C0080019B68984701F061FA002100F044FB6D
:10088C0001F05CFA2146324600F037FB002407F5F4
:10089C007A77B4421ADA01F051FA03681B69984767
:1008AC0040B101F04BFA036804F101085B69984709
:1008BC002855444600F0ACF8B842EAD92C44FF2342
:1008CC00621B964205DD04F8013BF9E70120BDE807
:1008DC00F0810020BDE8F08137B50D460178012983
:1008EC0007D190F87310009313462A46FFF7ADFF1B
:1008FC0007E031B990F87310009313462A46FFF7BE
:10090C00C5FD03B030BD37B506236A462821044621
:10091C00FFF7E2FF30B39DF800309DF801109DF811
:10092C00032043EA01219DF802309DF8055043EA6B
:10093C0002229DF8043009B243EA052394F8805052
:10094C0012B21BB2E185228663865DB1B4F86650A3
:10095C00491BE185B4F86810521A2286B4F86A2053
:10096C009B1A638603B030BD37B50D46017801295B
:10097C0007D190F87210009313462A46FFF765FFD3
:10098C0007E031B990F87210009313462A46FFF72E
:10099C007DFD03B030BD13B506236A4628210446FD
:1009AC00FFF7E2FFA0B19DF801209DF8003043EA6B
:1009BC000223A3869DF803209DF8023043EA02230C
:1009CC00E3869DF805209DF8043043EA0223238733
:1009DC0002B010BD00F024B808B500F021F800F00A
:1009EC001FF8014B186008BD7C01002000F018B8FE
:1009FC0008B5024B1B681B6B019308BDD0010608A0
:100A0C0008B5024B1B685B68019308BD9C01060886
:100A1C0008B5024B1B685B69019308BD9C01060875
:100A2C0008B5024B1B681B68019308BDB001060892
:100A3C0008B5024B1B689B68019308BDB001060802
:100A4C0008B5024B1B68DB68019308BDB0010608B2
:100A5C0008B5024B1B681B69019308BDB001060861
:100A6C0008B5024B1B68DB6C019308BDAC01060892
:100A7C0008B5024B1B685B6D019308BDAC01060801
:100A8C0008B5024B1B689B6D019308BDAC010608B1
:100A9C0008B5024B1B68DB6D019308BDAC01060861
:100AAC0008B5024B1B681B6E019308BDAC01060810
:100ABC0008B5024B1B685B6E019308BDAC010608C0
:100ACC0008B5024B1B689B6E019308BDAC01060870
:100ADC0008B5024B1B68DB6E019308BDAC01060820
:100AEC0008B5024B1B681B6F019308BDAC010608CF
:100AFC0008B5024B1B685B6F019308BDAC0106087F
:100B0C0008B5034B1B68D3F88030019308BD000077
:100B1C00AC01060808B5024B1B685B68019308BD65
:100B2C00BC01060808B5024B1B689B68019308BD05
:100B3C00BC01060808B5024B1B685B69019308BD34
:100B4C00BC01060808B5024B1B68DB69019308BDA4
:100B5C00BC01060808B5024B1B681B6A019308BD53
:100B6C00BC01060808B5024B1B681B6B019308BD42
:100B7C00BC01060808B5024B1B681B68019308BD35
:100B8C00B401060808B5024B1B689B68019308BDAD
:100B9C00B401060808B5024B1B68DB68019308BD5D
:100BAC00B401060808B5024B1B681B69019308BD0C
:100BBC00B401060808B5024B1B685B69019308BDBC
:100BCC00B401060808B5024B1B68DB69019308BD2C
:100BDC00B401060808B5024B1B681B6A019308BDDB
:100BEC00B401060808B5024B1B685B6A019308BD8B
:100BFC00B401060808B5024B1B689B69019308BD3C
:100C0C00C401060808B5024B1B685B6A019308BD5A
:100C1C00C401060808B5024B1B689B6A019308BD0A
:100C2C00C401060808B5024B1B68DB6A019308BDBA
:100C3C00C401060808B5024B1B681B6B019308BD69
:100C4C00C401060808B5024B1B685B6B019308BD19
:100C5C00C401060808B5024B1B689B6B019308BDC9
:100C6C00C401060808B5024B1B681B6C019308BD38
:100C7C00C401060808B5024B1B681B68019308BD2C
:100C8C00D801060808B5024B1B681B69019308BD07
:100C9C00D801060808B5024B1B685B69019308BDB7
:100CAC00D801060808B5024B1B689B69019308BD67
:100CBC00D801060808B5024B1B68DB69019308BD17
:100CCC00D801060808B5024B1B681B6A019308BDC6
:100CDC00D801060808B5024B1B685B6A019308BD76
:100CEC00D801060808B5024B1B689B6C019308BD24
:100CFC00C001060808B5024B1B685B68019308BD70
:100D0C00A401060808B5024B1B68DB6A019308BDF9
:100D1C00A401060808B5034B1B68D3F89030019367
:100D2C0008BD0000A401060808B5034B1B68D3F8E6
:100D3C009C30019308BD0000A401060808B5024BC5
:100D4C001B68DB6B019308BDCC01060808B5024B90
:100D5C001B681B68019308BDC801060808B5024B47
:100D6C001B685B68019308BDC801060808B5024BF7
:100D7C001B689B68019308BDC801060808B5024BA7
:100D8C001B68DB68019308BDC801060808B5024B57
:100D9C001B681B69019308BDC801060808B5024B06
:100DAC001B685B69019308BDC801060808B5024BB6
:100DBC001B689B69019308BDC801060808B5024B66
:100DCC001B68DB69019308BDC801060808B5024B16
:100DDC001B681B6A019308BDC801060808B5024BC5
:100DEC001B681B6B019308BDC801060808B5024BB4
:100DFC001B685B6B019308BDC801060808B5024B64
:100E0C001B689B6B019308BDC801060808B5024B13
:100E1C001B68DB6B019308BDC801060808B5024BC3
:100E2C001B681B68019308BDA001060808B5024B9E
:100E3C001B685B68019308BDA001060808B5024B4E
:100E4C001B689B68019308BDA001060810B5836858
:100E5C00044613B1032201469847204610BD704743
:100E6C00F8B5064615460C468F18BC4206D03368BA
:100E7C0014F8011B9B6830469847F6E72846F8BDE6
:100E8C000022007CFFF70CBE0021007CFFF710BE97
:100E9C000021007CFFF714BE0021007CFFF718BE78
:100EAC000021007CFFF71CBE10B50446142100F095
:100EBC00A4FF204610BD000010B5044608464FF4B0
:100ECC007A73A360044B0021207461602360FFF7E8
:100EDC0017FE204610BD00BFFC260A0800231A4648
:100EEC001946007CFFF7BCBD13B50024007C0094B0
:100EFC00FFF7BEFDC0B202B010BD0123FFF7F4BF77
:100F0C000022007CFFF7BCBD0022007CFFF7C0BDB7
:100F1C000121FFF7F9BF0021007CFFF7E9BDF8B50F
:100F2C000F4600F10806051D002416F8011D0A22C3
:100F3C00384600F04EF9AE42044407D0002CF4D0F1
:100F4C002E21384600F0F2F80444EEE72046F8BDB6
:100F5C0010B50446044B112240F8043B002101F06B
:100F6C000EFB204610BD00BF24270A080346074A83
:100F7C0010B543F8042B01F1100251F8044B9142C7
:100F8C0043F8044BF9D10A781A7010BD24270A08CB
:100F9C00024A4160026004220275704724270A0845
:100FAC0010B59DF8084044EA032343EA024242EAA2
:100FBC00016104234160037510BD000037B5044D79
:100FCC0005609DF818500095FFF7EAFF03B030BD9F
:100FDC0024270A0837B50D788B784A78C9780091A0
:100FEC002946FFF7DDFF03B030BD0000014A024B7C
:100FFC001A607047A6270A088001002000231A46B1
:10100C004068FFF7ABBE002202214068FFF7B6BE76
:10101C00002211464068FFF7A9BE00221146406825
:10102C00FFF7B4BE00231A4619464068FFF7B6BE58
:10103C0000231A4619464068FFF7B8BE002281F01B
:10104C0001014068FFF7BABE00224068FFF7C6BE38
:10105C00002211464068FFF7C9BE002211464068C5
:10106C00FFF7B4BE70B516468EB0044608A8FFF75D
:10107C006FFF1122002103A801F081FA304601F024
:10108C00AFFA00250A4B009581B25B6803AA304683
:10109C00FFF728FE20B129462046FFF779FF03E031
:1010AC0003A92046FFF762FF20460EB070BD00BFBB
:1010BC0004060020034B044A04280CBF10461846B3
:1010CC00704700BF8401002004060020024B034A35
:1010DC001A6000225A607047840100201C280A08FC
:1010EC00F8B506460D468F180024BD420CD0336867
:1010FC0015F8011B9B6830469847002801DB044417
:10110C00F3E7002C08BF04462046F8BD70B5054631
:10111C000C46084649B101F063FA2B680246214699
:10112C002846BDE87040DB68184770BD03689B68B3
:10113C0018470B460A68014612681846104738B51E
:10114C000D210546FFF7F2FF0A2104462846FFF75A
:10115C00EDFF204438BD38B50546FFF7D7FF0446F0
:10116C002846FFF7ECFF204438BD38B50546FFF79D
:10117C00E0FF04462846FFF7E2FF204438BD012A71
:10118C0098BF0A2230B50B468BB000218DF8241085
:10119C000DF12304B3FBF2F505FB1233DBB2092B83
:1011AC0094BF30333733DBB2214604F801392B4678
:1011BC00002DEFD1FFF7AAFF0BB030BD10B422B950
:1011CC000368C9B29B6810BC1847D2B210BCFFF7B9
:1011DC00D6BFFFF7F3BF10B50446FFF737FE204626
:1011EC0010BD0000034800238360034A034900F04C
:1011FC00FFBD00BF8C0100207C000020E3110A0819
:10120C00704710B50446102100F0F7FD204610BDC4
:10121C0070B504460E46074B0025036040F80C5F82
:10122C00FFF7E6FB30462671FFF7CCFCA5602046A5
:10123C0070BD00BF50280A084FF6FF710079FFF708
:10124C0099BC0079FFF79EBC0079FFF7A3BC0000A6
:10125C00054A0023995C814202D00133082BF9D155
:10126C00581CC0B2704700BF58280A08400830B557
:10127C00186000241868E5B2884206D90134082C9D
:10128C0002D040081860F5E70725024B5B5D137030
:10129C0030BD00BF58280A0870B5044602FB01F5A2
:1012AC0088B006791422002103A801F068F90B23F9
:1012BC0003A930460022ADF80C30FFF793FC02ABCB
:1012CC000DF1070229460498FFF7D0FF20799DF80D
:1012DC000710FFF767FC029808B070BD38B50446DC
:1012EC00A56808464DB1FFF7B3FF012225FA00F1BE
:1012FC002046BDE83840FFF7CFBF2079BDE8384025
:10130C00FFF750BC08B50079FFF754FCC0B208BD1C
:10131C000079FFF75FBC10B504460068FFF786FD47
:10132C00204610BD10B50446006808B1FFF77EFDDD
:10133C0000232360A360636010BD38B504460D46DE
:10134C0000680131FFF77AFD10B184E8210001201B
:10135C0038BD10B50368044613B143688B4207D2FD
:10136C002046FFF7EAFF20B1A3680BB9226813707F
:10137C00012010BD70B50E46114604461546FFF708
:10138C00E8FF18B92046FFF7CDFF09E02A463146A1
:10139C00A560206801F0E8F82268A3680021D15408
:1013AC00204670BD38B5002304460360436083605B
:1013BC0003730D4639B1084601F012F9294602466D
:1013CC002046FFF7D7FF204638BD00004FF6FF72CE
:1013DC00034B0020187058809A80FFF78BBC00BF1D
:1013EC009C010020024B1A68024B1A60704700BF28
:1013FC0014000020A401002010B40468246BA4463F
:10140C0010BC604703689B6C1847808E7047028F36
:10141C00C08E101A704713B502AB026803F8011D99
:10142C00D46819460122A04702B010BD10B503685C
:10143C0004461B69984728B1E38EE26B591CE18680
:10144C00D05C10BD4FF0FF3010BD10B503680446E2
:10145C001B69984718B1E38EE26BD05C10BD4FF05E
:10146C00FF3010BD70470346084610B4D98EDC6BB4
:10147C001A8F0368521ADB68214410BC1847A0F17C
:10148C001000FFF7F0BFF7B5054610460F4616469D
:10149C00FFF710FE0368DB689847B8B102213B46A2
:1014AC00112208460096FFF73DFB6861FFF732FBFF
:1014BC00044630B10023EB862B872F836E6401200A
:1014CC0004E02B6828465B6A9847204603B0F0BDC1
:1014DC0038B504464569FFF745FB854202D0606983
:1014EC00FFF738FBFFF73EFB00236061E3862387A1
:1014FC0038BD30B587B0BDF828400225ADF808508E
:10150C008DF80B40250ADC798DF80A508DF80C40CB
:10151C009C798DF80D405C791B798DF80E408DF817
:10152C000F301023019302AB009340690023FFF7A7
:10153C0009FB07B030BD38B5C36B0546C08E13B17F
:10154C002C6C241A00E01C46944228BF1446184404
:10155C00224601F009F8EB8E20462344EB8638BD79
:10156C0070B5036804461B690E461546984788B14A
:10157C00236820461B6998478542A8BF0546E38E21
:10158C00E16B2A461944304600F0EEFFE38E2B4403
:10159C00E38601E04FF0FF35284670BDF0B50446F8
:1015AC0089B0406C0D461646FFF784FD0368DB6876
:1015BC00984710B36769FFF7D5FA87421DD0E5B19C
:1015CC0008AB102243F8142D01930DEB020300938A
:1015DC002946002332466069FFF7ACFA051E0EDB84
:1015EC009DF812209DF8133005A943EA0223A38627
:1015FC0004F11C00FFF7EEFC01E04FF0FF3528462C
:10160C0009B0F0BD2DE9F041064694B0406C0D4692
:10161C009046FFF74FFD0368DB689847F8B1284602
:10162C0000F0DEFF002481B20094736C03AA2846FC
:10163C00FFF758FB90B903A908A8FFF797FC33688C
:10164C000FAC9F6B074B09AD0E930FCD0FC42B68DE
:10165C00424623700EA93046B84700E0204614B02D
:10166C00BDE8F08124270A0870B504460646054BF0
:10167C0001F1200544F8043B0FCD0FC42B68304614
:10168C00237070BD24270A08F0B594468E46064692
:10169C00026889B0976A094A03AC1D1D02920FCDEE
:1016AC000FC42B6862462370BDF838307146009326
:1016BC00304602ABB84709B0F0BD00BF24270A087A
:1016CC00F0B50446036889B09F6A0D4B03AD00F179
:1016DC002006B0F836E002930FCE0FC53368724681
:1016EC002B70A38EE16B0093204602ABB8470546E6
:1016FC0023682046DB699847284609B0F0BD00BF37
:10170C0024270A0838B54FF47A7383600B4B0025F5
:10171C0003F108026C330260036145600446FFF775
:10172C0021FA606104F11C00FFF712FC4FF4007306
:10173C00E5862587E5632364204638BD8C280A0896
:10174C0010B590F84830044623B1C06B10B101219C
:10175C0000F053FB0023E36384F848302364E386F2
:10176C00238710BD70B5044616460D46FFF7E8FFFB
:10177C000023E66323643EB935B12846FEF787FCA7
:10178C000123E06384F84830E36B03B12564206CDB
:10179C00003018BF012070BDF8B51746C26B054666
:1017AC000C461AB9016C09B1FFF7DCFF05F12006F4
:1017BC0004340FCC0FC6236833700023AF86EB863E
:1017CC002B87286CF8BD70B5C26B04461AB9016C36
:1017DC0009B1FFF7C7FFE16B0023E386238741B113
:1017EC00226C32B12068056B2046A8470028C8BF80
:1017FC00208723682046BDE870401B691847704756
:10180C004174704708B5007CFFF72CFA20EAE070B1
:10181C0008BD08B5007CFFF7FDF920EAE07008BDB3
:10182C0008B5007CFFF706FA30EA200028BF4FF01D
:10183C00FF3008BD08B5007CFFF7F4F930EA200052
:10184C0028BF4FF0FF3008BD007CFFF7FBB910B587
:10185C000446142100F0D1FA204610BD70B5457C29
:10186C0004460E4625B9007CFFF7FCF9002805DD7F
:10187C003146207CBDE87040FFF7C4B9284670BDE6
:10188C0010B5044608461146002262604FF47A7285
:10189C00A260054A20742260012262741A46FFF786
:1018AC00A9F9204610BD00BF04290A08007CFFF7E7
:1018BC00D1B9000038B50C4D296811F0010411D1D3
:1018CC002846FEF7E8FB68B1084A2146084B094850
:1018DC00FFF7D6FF2846FEF7E3FB074A0749054802
:1018EC0000F086FA034838BD400200204402002074
:1018FC00BC010020A80100207C0000200B180A0865
:10190C0041747047704708B50021007CFFF7CAF995
:10191C0030EA200028BF4FF0FF3008BD08B5012188
:10192C00007CFFF7BFF930EA200028BF4FF0FF30F2
:10193C0008BD08B5007CFFF7ADF920EAE07008BDE2
:10194C0008B5007CFFF79EF920EAE07008BD007C2A
:10195C00FFF7B8B910B50446142100F04EFA204632
:10196C0010BD38B50446007C0D46FFF793F90028EE
:10197C0001DC607C28B12946207CFFF79BF920EA2A
:10198C00E07038BD10B50446002363604FF47A73E1
:10199C00A360054B08462360012321746374114630
:1019AC00FFF768F9204610BD34290A08007CFFF7C0
:1019BC0091B9FFF7FBBF000010B5044614220021BB
:1019CC0000F0DDFD054B20466360054BE36040F203
:1019DC00011323818123238210BD00BF4D030020FE
:1019EC00CC02002030B50E4D87B001A8FFF7E4FF04
:1019FC00296811F0010410D12846FEF74CFB60B1A8
:101A0C0001AA21460748FFF7BDFF2846FEF748FB11
:101A1C00054A0649034800F0EBF9024807B030BD0F
:101A2C00C8020020500400207C00002011190A0874
:101A3C0010B504461422002100F0A1FD054B2046F0
:101A4C006360054BE36040F2011323818123238201
:101A5C0010BD00BF000500206804002010B50E4C1E
:101A6C0086B001A8FFF7E4FF2368DB0710D42046FB
:101A7C00FEF711FB60B101AA01210848FFF782FFB4
:101A8C002046FEF70DFB064A0649044800F0B0F963
:101A9C00024806B010BD00BF64040020EC04002016
:101AAC007C00002011190A08002211464068FFF73B
:101ABC006DB9F0B5164689B011220F4604460021C7
:101ACC0003A800F05CFD304600F08AFD002500956F
:101ADC0081B27B6803AA3046FFF704F920B129468E
:101AEC002046FFF755FA03E003A92046FFF73EFA1C
:101AFC00204609B0F0BD002211464068FFF766B9D8
:101B0C00002211464068FFF771B900224068FFF7C8
:101B1C0065B9002281F001014068FFF74FB900233D
:101B2C001A4619464068FFF741B900231A46194670
:101B3C004068FFF733B9002211464068FFF716B929
:101B4C00002202214068FFF719B900231A464068A9
:101B5C00FFF704B9024B04225A60024A1A6070471C
:101B6C000406002064290A0808B5144B33B1FFF7AA
:101B7C0039FF03681B699847002816DC104B33B1FA
:101B8C00FFF798FE03681B699847002810DC0D4B83
:101B9C000BB1AFF300800C4B7BB1FFF75FFF036819
:101BAC001B699847002806DC08BDAFF30080E5E709
:101BBC00AFF30080EBE7AFF3008008BD000000003E
:101BCC0000000000000000000000000008B5FFF756
:101BDC00CBFFFEF71DFF014B186008BD140600205B
:101BEC000248034A0349121A00F0BEBC00400240EE
:101BFC0004400240402A0A0807B5002300931A4605
:101C0C006FF07701FFF790F803B05DF804FB00006C
:101C1C0007B543880A2B08D0502B09D1094B1B68F8
:101C2C003BB103B05DF804EB1847FFF7E5FF06E0A6
:101C3C00002300931A466FF07701FFF775F803B095
:101C4C005DF804FB0C06002038B5104C104D2368D1
:101C5C00AB42104B0CBF012200221A7002D0FFF7CE
:101C6C00BFFF2560FEF7CCFE044600F091FC0A4B4A
:101C7C0013B12046AFF3008000210748FFF75EF850
:101C8C00BDE8384000210548FFF744B80040024049
:101C9C001E1C279A10060020000000001D1C0A08BC
:101CAC0010B504460F48FFF733FB28B1A4F10D0320
:101CBC00022B01D8002010BD00F040F8FFF72BF9E3
:101CCC0008B1012CF6D9FFF7F5FDFFF7EFFD18B1C0
:101CDC00A4F11203012BEDD9172C8CBF002001208D
:101CEC0010BD00BF48060020172838B504460D4625
:101CFC000AD8FF2908D0FFF7D3FF28B12946204680
:101D0C00BDE83840FEF794BE38BD38B504460D46E4
:101D1C00FEF796FEFF2810D0062804D84D2323FA90
:101D2C0000F0C30709D42046FFF7BAFF28B12946B3
:101D3C002046BDE83840FEF78BBE38BD38B50B4D9C
:101D4C00296811F001040FD12846FEF7A4F958B107
:101D5C0021460748FFF7B0F82846FEF7A1F9054AD7
:101D6C000549034800F044F8014838BD1806002026
:101D7C001C0600207C0000206B0E0A0813B5084CD2
:101D8C0000231A46194600932046FFF717F9204600
:101D9C00044A054902B0BDE8104000F029B800BF64
:101DAC00300600207C000020B3000A0870B50C4CF3
:101DBC000C4E0D4D00212046FFF72AFA20460B4C05
:101DCC003246294600F014F801212046FFF720FA8C
:101DDC00324629462046BDE8704000F009B800BFE5
:101DEC00480600207C0000200D120A08580600202E
:101DFC000B460146184600F0A9BBFEF74AB9000095
:101E0C00244B1A68D0075CBF01221A60224B1A6857
:101E1C00D1075CBF01221A60204B1A68D2075CBF45
:101E2C0001221A601E4B1A68D0075CBF01221A608F
:101E3C001C4B1A68D1075CBF01221A601A4B1A6836
:101E4C00D2075CBF01221A60184B1A68D0075CBF1E
:101E5C0001221A60164B1A68D1075CBF01221A6066
:101E6C00144B1A68D2075CBF01221A60124B1A6815
:101E7C00D0075CBF01221A60104B1A68D1075CBFF7
:101E8C0001221A600E4B1A68D2075CBF01221A603D
:101E9C00704700BF94060020900600208C0600209E
:101EAC008806002084060020800600207C06002086
:101EBC007806002074060020700600206C060020B6
:101ECC0068060020184B1A68D1075CBF01221A6003
:101EDC00164B1A68D2075CBF01221A60144B1A68A1
:101EEC00D0075CBF01221A60124B1A68D1075CBF85
:101EFC0001221A60104B1A68D2075CBF01221A60CB
:101F0C000E4B1A68D0075CBF01221A600C4B1A6882
:101F1C00D1075CBF01221A600A4B1A68D2075CBF5A
:101F2C0001221A60704700BFB4060020B0060020E2
:101F3C00AC060020A8060020A4060020A006002065
:101F4C009C06002098060020184B1A68D1075CBF2D
:101F5C0001221A60164B1A68D2075CBF01221A6064
:101F6C00144B1A68D0075CBF01221A60124B1A6816
:101F7C00D1075CBF01221A60104B1A68D2075CBFF4
:101F8C0001221A600E4B1A68D0075CBF01221A603E
:101F9C000C4B1A68D1075CBF01221A600A4B1A68F5
:101FAC00D2075CBF01221A60704700BFD406002024
:101FBC00D0060020CC060020C8060020C406002055
:101FCC00C0060020BC060020B8060020244B1A686E
:101FDC00D0075CBF01221A60224B1A68D1075CBF84
:101FEC0001221A60204B1A68D2075CBF01221A60CA
:101FFC001E4B1A68D0075CBF01221A601C4B1A6872
:10200C00D1075CBF01221A601A4B1A68D2075CBF59
:10201C0001221A60184B1A68D0075CBF01221A60A3
:10202C00164B1A68D1075CBF01221A60144B1A6850
:10203C00D2075CBF01221A60124B1A68D0075CBF32
:10204C0001221A60104B1A68D1075CBF01221A607A
:10205C000E4B1A68D2075CBF01221A60704700BF92
:10206C000407002000070020FC060020F8060020D2
:10207C00F4060020F0060020EC060020E806002004
:10208C00E4060020E0060020DC060020D806002034
:10209C0080F0004002E000BF81F0004142001FBF11
:1020AC005FEA410392EA030F7FEA226C7FEA236C1A
:1020BC006AD04FEA1262D2EB1363C1BFD21841400F
:1020CC0048404140B8BF5B42192B88BF704710F0A5
:1020DC00004F40F4000020F07F4018BF404211F048
:1020EC00004F41F4000121F07F4118BF494292EAB0
:1020FC00030F3FD0A2F1010241FA03FC10EB0C00DC
:10210C00C3F1200301FA03F100F0004302D5494268
:10211C0060EB4000B0F5000F13D3B0F1807F06D315
:10212C0040084FEA310102F10102FE2A51D2B1F10D
:10213C00004F40EBC25008BF20F0010040EA030002
:10214C007047490040EB000010F4000FA2F10102AF
:10215C00EDD1B0FA80FCACF1080CB2EB0C0200FA39
:10216C000CF0AABF00EBC25052421843BCBFD04087
:10217C001843704792F0000F81F4000106BF80F401
:10218C0000000132013BB5E74FEA41037FEA226CC4
:10219C0018BF7FEA236C21D092EA030F04D092F08F
:1021AC00000F08BF0846704790EA010F1CBF0020C3
:1021BC00704712F07F4F04D1400028BF40F0004020
:1021CC00704712F100723CBF00F50000704700F040
:1021DC00004343F0FE4040F4000070477FEA226267
:1021EC0016BF08467FEA23630146420206BF5FEA38
:1021FC00412390EA010F40F4800070474FF0000338
:10220C0004E000BF10F0004348BF40425FEA000CFE
:10221C0008BF704743F0964301464FF000001CE0A6
:10222C0050EA010208BF70474FF000030AE000BFFC
:10223C0050EA010208BF704711F0004302D540423A
:10224C0061EB41015FEA010C02BF844601460020AC
:10225C0043F0B64308BFA3F18053A3F50003BCFAC7
:10226C008CF2083AA3EBC25310DB01FA02FC634474
:10227C0000FA02FCC2F12002BCF1004F20FA02F27B
:10228C0043EB020008BF20F00100704702F120026E
:10229C0001FA02FCC2F1200250EA4C0021FA02F2CF
:1022AC0043EB020008BF20EADC7070474FF0FF0CD4
:1022BC001CEAD0521EBF1CEAD15392EA0C0F93EACF
:1022CC000C0F6FD01A4480EA010C400218BF5FEA71
:1022DC0041211ED04FF0006343EA501043EA5111E4
:1022EC00A0FB01310CF00040B1F5000F3EBF4900DE
:1022FC0041EAD3715B0040EA010062F17F02FD2AE2
:10230C001DD8B3F1004F40EBC25008BF20F00100C4
:10231C00704790F0000F0CF0004C08BF49024CEADB
:10232C00502040EA51207F3AC2BFD2F1FF0340EA6D
:10233C00C250704740F400004FF00003013A5DDCDE
:10234C0012F1190FDCBF00F000407047C2F100021F
:10235C00410021FA02F1C2F1200200FA02FC5FEA0C
:10236C00310040F1000053EA4C0308BF20EADC7056
:10237C00704792F0000F00F0004C02BF400010F4C8
:10238C00000F013AF9D040EA0C0093F0000F01F075
:10239C00004C02BF490011F4000F013BF9D041EA97
:1023AC000C018FE70CEAD15392EA0C0F18BF93EA99
:1023BC000C0F0AD030F0004C18BF31F0004CD8D1C3
:1023CC0080EA010000F00040704790F0000F17BF4A
:1023DC0090F0004F084691F0000F91F0004F14D090
:1023EC0092EA0C0F01D142020FD193EA0C0F03D1E8
:1023FC004B0218BF084608D180EA010000F00040EB
:10240C0040F0FE4040F40000704740F0FE4040F4C5
:10241C00400070474FF0FF0C1CEAD0521EBF1CEA64
:10242C00D15392EA0C0F93EA0C0F69D0A2EB030282
:10243C0080EA010C49024FEA402037D04FF080531C
:10244C0043EA111143EA10130CF000408B4238BFE1
:10245C005B0042F17D024FF4000C8B4224BF5B1AEF
:10246C0040EA0C00B3EB510F24BFA3EB510340EA3D
:10247C005C00B3EB910F24BFA3EB910340EA9C00EB
:10248C00B3EBD10F24BFA3EBD10340EADC001B015B
:10249C0018BF5FEA1C1CE0D1FD2A3FF650AF8B42FF
:1024AC0040EBC25008BF20F0010070470CF0004C0C
:1024BC004CEA50207F32C2BFD2F1FF0340EAC25037
:1024CC00704740F400004FF00003013A37E792F0F8
:1024DC00000F00F0004C02BF400010F4000F013A56
:1024EC00F9D040EA0C0093F0000F01F0004C02BF51
:1024FC00490011F4000F013BF9D041EA0C0195E7BA
:10250C000CEAD15392EA0C0F08D142027FF47DAF52
:10251C0093EA0C0F7FF470AF084676E793EA0C0F42
:10252C0004D14B023FF44CAF08466EE730F0004C40
:10253C0018BF31F0004CCAD130F000427FF45CAFD0
:10254C0031F000437FF43CAF5FE700BF10B5054CA2
:10255C0013462CB10A4601460220AFF3008010BD91
:10256C00204610BD0000000010B5431E0A449142E5
:10257C0004D011F8014B03F8014FF8E710BD0346E6
:10258C000244934202D003F8011BFAE770470000A3
:10259C0038B5124B05461C68A36BD3B91820FEF74F
:1025AC003DFC43F20E33A06303804AF6CD334380E7
:1025BC0041F2342383804EF26D63C3804DF6EC639D
:1025CC000381052343810B23838101220023C0E96E
:1025DC000423A36B00221D615A6138BD78000020D2
:1025EC00034613F8012B002AFBD1181A0138704747
:1025FC001D000A085D000A0889000A088D000A08F7
:10260C00000000005365747570004851526F75746A
:10261C0065725F5055424C495348004661696C6580
:10262C006420746F20636F6D6D756E696361746582
:10263C002077697468204C534D394453312E004433
:10264C006F75626C652D636865636B207769726961
:10265C006E672E0044656661756C742073657474C6
:10266C00696E677320696E207468697320736B657B
:10267C007463682077696C6C20776F726B20666F5F
:10268C007220616E206F7574206F662074686520EF
:10269C00626F78204C534D3944533120427265613E
:1026AC006B6F75742C20627574206D6179206E656A
:1026BC00656420746F206265206D6F64696669655E
:1026CC00642069662074686520626F617264206A98
:1026DC00756D70657273206172652E0020000000AC
:1026EC00400000006000000000000000000000003E
:1026FC006B0E0A08B50E0A088D0E0A086D0E0A0834
:10270C00950E0A089D0E0A08A50E0A08AD0E0A08B9
:10271C0000000000000000002B0F0A08B3000A089C
:10272C00D5000A08626175640053657269616C00BA
:10273C0055534253657269616C3100747970650050
:10274C00706172616D00636D6400696400686E6431
:10275C00007374726D0066696C74006C766C006149
:10276C00646448616E646C65720072656D6F766549
:10277C0048616E646C657200656E756D48616E645F
:10278C006C657273004A534F4E53747265616D4C95
:10279C006F6748616E646C65720061707000253003
:1027AC0031307520005D20002564002C2000282984
:1027BC003A2000205B00636F6465203D2000256992
:1027CC000064657461696C73203D20000D0A00661D
:1027DC00006C6E00666E00636F6465006465746106
:1027EC00696C006E6F6E6500747261636500696E72
:1027FC00666F007761726E006572726F7200706145
:10280C006E696300616C6C00000000000000000049
:10281C0009100A0813100A081D100A0827100A08C4
:10282C0031100A083D100A0849100A0855100A0808
:10283C005D100A0867100A0871100A0800000000F1
:10284C00000000000D120A080F120A0800081018E8
:10285C00202830385A00252B3033643A2530327515
:10286C000025592D256D2D25645425483A254D3AC2
:10287C002553257A0061736374696D65000000004F
:10288C000000000000000000B5000A08E3000A0880
:10289C0023140A0843150A081B140A0839140A08D9
:1028AC0057140A0871140A0893140A08DD140A084C
:1028BC00FF140A0895160A08A9150A0805140A082F
:1028CC00A5170A0811160A08CD160A08D3170A0804
:1028DC006D150A0811140A0875160A0817140A0847
:1028EC0073140A08F0FFFFFF000000008B140A08A5
:1028FC0000000000000000000B180A085B180A0812
:10290C0069180A08ED100A081F180A0841180A0865
:10291C002D180A0855180A080D180A0811180A0863
:10292C00000000000000000011190A0861190A08D3
:10293C006F190A08ED100A084D190A0813190A082C
:10294C0029190A085B190A083F190A080D190A08FF
:10295C000000000000000000571B0A084D1B0A086D
:10296C00431B0A08B51A0A08371B0A082B1B0A084E
:10297C001F1B0A08171B0A080D1B0A08031B0A0851
:10298C00BF1A0A0800000000000000000000000050
:10299C00000000000000000000000000000000002B
:1029AC00000000000000000000000000000000001B
:1029BC00000000000000000000000000000000000B
:1029CC0000000000000000000000000000000000FB
:1029DC0000000000000000000000000000000000EB
:1029EC00000000004300000015020A0891020A08CA
:1029FC00B5020A08E1090A08E5090A08F9090A08F2
:102A0C00F90F0A08D9100A08F1110A08D9130A0893
:102A1C00F1130A08611B0A08891D0A08B91D0A0866
:102A2C000D1E0A08D11E0A08551F0A08D91F0A08CC
:042A3C000000000096
:042A40000000000092
:102A4400B8220000F7CC1239240B98399F71E13970
:102A5400240B183A81280A080000000090290A086B
:102A6400B0290A08D0290A0800000000000000006C
:102A74000000000000000000F0290A080000000027
:102A84000000000000000000000000000000000042
:102A94000000000000000000000000000000000032
:102AA4000000000000000000000000000000000022
:0C2AB400000000000000000018000020DE
:102AC000FFFFFFFF00000102030405060708090AD3
:102AD0000B0C0D0E0F101112131415161718191ACE
:082AE0001B1C1D1E1F20280015
:042AE80078563412D6
:04000005080A001CC9
:00000001FF
