:02000004080AE8
:1000000000000A083C400A0800000600060005013E
:0800100004027A050000000063
:04001800C43A0A08D4
:10001C0009480A4908B5884205D0094A824202D0EB
:10002C00121A03F005FD0748074A0021121A03F0C3
:10003C000AFD064808BD00BF00000020843F0A08E6
:10004C0090000020900000205C0700205C0700203E
:10005C0070B503F05DF8074B074C1E46E41AA40874
:10006C000025A54204D056F8253098470135F8E70D
:10007C0070BD00BF3C3F0A087C3F0A0800F068B91D
:10008C0008B500F091F8BDE8084003F003B802F0A1
:10009C001FB902F025B90078B0FA80F0400970471A
:1000AC00012303707047704710B50446054B03607D
:1000BC006433036102F06CFC204602F0A1FD204683
:1000CC0010BD00BFDC3D0A0810B50446182103F032
:1000DC00F8F8204610BD10B50446FFF7E5FF2046A2
:1000EC004C2103F0EEF8204610BD0000114808B575
:1000FC00012303701E2383706B230F4A43700F4B35
:10010C001A600F4B4FF07E521A6000F0B9FC78B9B0
:10011C0002F0CCFE0B4902F07EFA02F0C7FE0A494F
:10012C0002F079FA02F0C2FE084902F074FAFEE716
:10013C0008BD00BF180100200000A040F400002002
:10014C0014010020D83A0A08FC3A0A08113B0A08A4
:10015C0008B50121062003F02BF80121052003F03E
:10016C0027F80121042003F023F8BDE80840002102
:10017C00062003F02EB8000008B5084800F077FD03
:10018C00064800F0ABFD064A0023012199540133C7
:10019C00142BFBD1034A136008BD00BF00010020E3
:1001AC00BC010020B40100202DE9F843314C324E43
:1001BC0027460121308803F00CF8DFF8C0800023BB
:1001CC00DFF8BC90236023682A4DB3F5FA6F1FDA71
:1001DC000121B8F8000002F0FCFF0121B9F8000081
:1001EC0002F0F7FF4FF4FA7001F04CFE0021B9F861
:1001FC00000002F0EEFF0021B8F8000002F0E9FF69
:10020C004FF4FA7001F03EFE3B6801333B60DAE7D5
:10021C004FF47A7002F074F83088002102F0D9FFA4
:10022C00164E0023164F2B602368B3F5FA6F1BDABA
:10023C000121308802F0CDFF0121388802F0C9FF7E
:10024C004FF4FA7001F01EFE0021388802F0C1FF55
:10025C000021308802F0BDFF4FF4FA7001F012FE5D
:10026C002B6801332B60DFE74FF47A70BDE8F8435D
:10027C0002F046B8B80100200C0000201400002049
:10028C00040000202DE9F84F02F010FE294902F07D
:10029C00A9F9294EDFF8B0B0DFF8B0A00A2526483E
:1002AC0000F0D9FB10B1244800F082FCB6F92E10F6
:1002BC00214800F094F90146DBF8000003F052F9F4
:1002CC00B6F93010CBF800001B4800F088F9014655
:1002DC00DAF8000003F046F9184CCAF80000B6F939
:1002EC003210154800F07BF9216803F03BF9013D11
:1002FC00DFF85490DFF8548007462060CFD1D9F84E
:10030C0000000F4903F0EAFA0D49C9F80000D8F8CB
:10031C00000003F0E3FA0A49C8F80000384603F07D
:10032C00DDFA206002F0C2FDBDE8F84F054902F08D
:10033C0072B900BFBB3B0A08180100209C000020CA
:10034C0000002041D13B0A089400002098000020B6
:10035C0070B596B002F0AAFD4FF4165102F086FD6E
:10036C00434B0021188802F023FF424B00211888D0
:10037C0002F01EFF02F09AFD02F07FFD0028F9D07A
:10038C003D4C00231A461946606801F041FF0022DB
:10039C0011466068384D01F053FF0028F7D002F089
:1003AC0085FD364902F037F9354B0022198835485E
:1003BC0002F0C9FA00231946334A686801F078FF45
:1003CC0002F074FD064600244022002106A803F02A
:1003DC003AFB0094402306AA2146686801F070FF9E
:1003EC0006A902A802F03EFA0299304602F013F96F
:1003FC0002A802F0F0F902F059FD22460646214609
:10040C00686801F0FDFE214D811C06A802F00AF877
:10041C0006A9304602F009F92888012102F0C8FE2D
:10042C001B4B0121188802F0C3FE1A4B01211888BE
:10043C0002F0BEFE2146288802F0CBFE02F036FD0B
:10044C004FF4E13102F012FDFFF750FEFFF71AFFF7
:10045C00FFF77EFEFFF790FE0F4B4FF07C521C60B7
:10046C000E4B1A600E4B4FF080421A6016B070BDE6
:10047C00FC0000201000002058060020D63B0A0883
:10048C0008000020A0000020DC3B0A08000000202F
:10049C00040000200C000020F800002014010020B3
:1004AC00F400002038B501F005FD194D194800F095
:1004BC008FF8194C02231A461421284600F0FCFB35
:1004CC0022461649284602F0F7FE0021012001F0D1
:1004DC0073FE134B00221A705A804FF6FF72114DA7
:1004EC009A80022001F058FE284601F08DFF284624
:1004FC000D4D22460D4902F0DFFE284602F062FB4C
:10050C0022462846BDE83840094902F0D5BE00BF56
:10051C00000100201801002090000020270C0A0880
:10052C00EC0000209C010020A0000020B3000A0871
:10053C00B5000A0801F0BEBC30B50224017083700E
:10054C000621F523C47504244270C38001220023C4
:10055C000172017680F82040032107240271427455
:10056C008274C2740275827542768276C276C277C4
:10057C0080F8214043728372C37203734373837395
:10058C00C373037401774377837780F82230044672
:10059C0080F8231080F82720024680F8241080F879
:1005AC00253080F8263000250139E563A5646565A2
:1005BC0002F10202A2F85E30A2F86430A2F86A30AE
:1005CC0004F10404F0D14FF0000380F8803030BD0A
:1005DC0010B51E236B220121FFF7AEFF10BD10B525
:1005EC000446084603F072F8A16F03F0C3F810BD7F
:1005FC0010B50446C08803F065F84FF0605103F065
:10060C00B9F8606710BD10B50446C07D03F05AF808
:10061C004FF0605103F0AEF8A06710BD90F8203099
:10062C00043B0C2B14D8DFE803F0071313130A1345
:10063C0013130D1313131000064B1B6807E0054B27
:10064C005B6804E0034B9B6801E0024BDB68C3670B
:10065C00704700BF18000020C388F52B07D0B3F5F6
:10066C00FA7F04D0B3F5FA6F1CBFF523C380C27DAB
:10067C00102A03D8084BD340DA0701D40223C375E0
:10068C0090F82020102A03D8044BD340DB0702D467
:10069C00042380F820307047140101001011010070
:1006AC0010B50446012190F8730002F081FD94F816
:1006BC007300012102F08DFD94F87200012102F00B
:1006CC0077FD94F872000A4C012102F082FD20465D
:1006DC0002F012F82046082102F060F820460121B1
:1006EC0002F00FF82046BDE81040002102F00CB8D3
:1006FC009C060020F8B50C4617461E46094D2046B0
:10070C00002102F066FD07F03F01284602F05AF87E
:10071C003146284602F056F82046BDE8F840012143
:10072C0002F057BD9C060020F8B51E4690F87230BA
:10073C0002F03F028B429DF8187042F0800503D105
:10074C00012F88BF45F040058CB22046002102F0F5
:10075C0040FD2946094802F035F83546AB1B9F424F
:10076C0006DD0021054802F02DF805F8010BF5E730
:10077C002046012102F02DFD0120F8BD9C06002031
:10078C001FB5012300930DF10F03FFF7CDFF9DF86B
:10079C000F0005B05DF804FB08B502F033FDBDE8B1
:1007AC00084001F0F7BD70B50E4615461C4602F028
:1007BC0029FD314601F000FE02F024FD03682946B4
:1007CC009B68984702F01EFD036821469A68904783
:1007DC0002F018FDBDE8704001F0F6BD134602783A
:1007EC0010B4012A05D10A4610BC90F87310FFF71B
:1007FC00DABF2AB90A4610BC90F87310FFF77ABF1B
:10080C0010BC704710B50379044613B1037A5B0131
:10081C00DBB2E288B2F5FA7F05D0B2F5FA6F04D1FB
:10082C0043F0180301E043F00803627A102102F050
:10083C0003021A432046FFF7D1FF00221121204664
:10084C00FFF7CCFFA37A002BE37A14BF802200229F
:10085C002BB1237B03F00F0343F040031A43122107
:10086C002046FFF7BBFFE37C002BA37C0CBF0022D0
:10087C00202213B142F01002D2B2637C0BB142F0D1
:10088C000802237D0BB142F002021E212046FFF725
:10089C00A5FF637B002BA37B0CBF0022202213B18E
:1008AC0042F01002D2B2E37B0BB142F008022046B8
:1008BC00BDE810401321FFF791BF10B5C37E04466D
:1008CC00002B837E0CBF0022202213B142F01002B9
:1008DC00D2B2637E0BB142F008021F212046FFF713
:1008EC007DFFA27D12B1227E5201D2B2E37D082B94
:1008FC0006D0102B07D0042B07D142F0100204E0D5
:10090C0042F0180201E042F0080294F91C30202158
:10091C00002BA2BF03F003031A4342F0040220464B
:10092C00FFF75CFF627F2AB1A27F520102F06002E6
:10093C0042F080022046BDE810402121FFF74EBF57
:10094C001346027810B4012A05D10A4610BC90F85F
:10095C007210FFF728BF2AB90A4610BC90F8721023
:10096C00FFF7C8BE10BC704710B590F82230044693
:10097C00002B90F8233008BF00224FEA431303F0FA
:10098C00600190F8213018BF80229B0003F01C03FB
:10099C000B431A432021FFF7D3FF94F82030204655
:1009AC00083BDBB2082B96BF124A0022D25C2121F5
:1009BC00FFF7C6FF94F825302046002B94F826301C
:1009CC000CBF0022202203F003031A432221FFF75D
:1009DC00B7FF94F824202046920002F00C02232149
:1009EC00FFF7AEFF2046BDE8104000222421FFF7A0
:1009FC00A7BF00BF1C3C0A0838B50C46154602F0D0
:100A0C0001FC214601F0D8FC02F0FCFB03682946EE
:100A1C009B68984702F0F6FB002101F0D1FC02F034
:100A2C00F1FB0122214601F0C4FC02F0EBFB036850
:100A3C005B699847C0B238BD0A460178012903D1D9
:100A4C0090F87310FFF7D8BF19B990F87310FFF72F
:100A5C0097BE0020704708B52721FFF7EDFF00F087
:100A6C00010008BD0A460178012903D190F87210E3
:100A7C00FFF7C2BF19B990F87210FFF781BE70472B
:100A8C0038B50446437880F87330837880F8723038
:100A9C00FFF7E2FDFFF7ACFD2046FFF7BFFD204658
:100AAC00FFF7B1FD2378012B03D12046FFF774FE2D
:100ABC0003E013B92046FFF7F3FD0F212046FFF7A3
:100ACC00D1FF0F2105462046FFF7B6FF46F63D0342
:100ADC0045EA002005B29D420AD12046FFF792FE5E
:100AEC002046FFF7EAFE2046FFF73EFF284638BDBA
:100AFC00002038BD2DE9F04190460C461D469DF86E
:100B0C00186001F0CFF9074602F07CFB214601F09A
:100B1C0053FC02F077FB036848F080019B68984710
:100B2C0002F070FB002101F04BFC02F06BFB214644
:100B3C00324601F03EFC002407F57A77B4421ADA0B
:100B4C0002F060FB03681B69984740B102F05AFB46
:100B5C00036804F101085B6998472855444601F085
:100B6C00A1F9B842EAD92C44FF23621B964205DD59
:100B7C0004F8013BF9E70120BDE8F0810020BDE855
:100B8C00F08137B50D460178012907D190F8731023
:100B9C00009313462A46FFF7ADFF07E031B990F8F2
:100BAC007310009313462A46FFF7BEFD03B030BD09
:100BBC0037B506236A4628210446FFF7E2FF30B317
:100BCC009DF800309DF801109DF8032043EA0121A7
:100BDC009DF802309DF8055043EA02229DF804303E
:100BEC0009B243EA052394F8805012B21BB2E18596
:100BFC00228663865DB1B4F86650491BE185B4F872
:100C0C006810521A2286B4F86A209B1A638603B0C5
:100C1C0030BD01F04FB901F03DB910B50446C068C4
:100C2C0008B101F05DFB23781BB10021E07902F0E3
:100C3C00BFFA204610BD38B50446C0680D4608B151
:100C4C0001F04EFBA379062B0CBF04200320684354
:100C5C0080B2A08001F03CFBE06028B1A2880021AA
:100C6C0002F0F1FE658038BDA080608038BD10B503
:100C7C0004460121C07902F09BFA0021E07902F0D0
:100C8C00A8FA0123237010BD38B5037805460C462D
:100C9C001BB10021C07902F08BFA2B78EC7153B1A7
:100CAC00A4B22046012102F083FA2046BDE8384068
:100CBC00002102F08EBA38BD70B5044616460025E8
:100CCC00837105700572C5600561FFF7B4FF20469E
:100CDC003146FFF7D9FF204670BD0000C368002BDA
:100CEC0000F08E852DE9F0410446837986B0023BF5
:100CFC00DBB2042B96BF294A322552F82350FFF75A
:100D0C008AFF2369C01AA842F9D372B6A179A388C5
:100D1C000229ADF80A30D4F80CE000F072820729F1
:100D2C0000F06F82062900F03284052900F0AB83B5
:100D3C00082900F0A883002940F06385184A4FF475
:100D4C000006BDF80A309BB2002B00F09583049688
:100D5C00BDF80A300EF10305033B9BB2ADF80A3027
:100D6C009EF80030DBB28DF807309EF80130DBB214
:100D7C008DF806309EF80230DBB28DF808309DF805
:100D8C0007709DF806309DF808001B0243EA0743E4
:100D9C00034303938DF805101BE100BF283C0A08A0
:100DAC00D0010020004600BF00BF00BF00BF00BF45
:100DBC0000BF00BF00BF00BF00BF00BF00BF00BF2F
:100DCC0000BF00BF00BF00BF00BF00BF00BF00BF1F
:100DDC0000BF00BF00BF00BF00BF00BF00BF00BF0F
:100DEC0000BF00BF00BF00BF00BF00BF00BF00BFFF
:100DFC0000BF00BF00BF00BF00BF00BF00BF00BFEF
:100E0C0000BF00BF00BF00BF00BF00BF00BF00BFDE
:100E1C0000BF00BF00BF00BF00BF00BF00BF00BFCE
:100E2C0000BF00BF00BF00BF00BF00BF00BF00BFBE
:100E3C0000BF00BF00BF00BF00BF00BF00BF00BFAE
:100E4C0000BF00BF00BF00BF00BF00BF00BF00BF9E
:100E5C0000BF00BF00BF00BF00BF00BF00BF00BF8E
:100E6C0000BF00BF00BF00BF00BF00BF00BF00BF7E
:100E7C0000BF00BF00BF00BF00BF00BF00BF00BF6E
:100E8C0000BF00BF00BF00BF00BF00BF00BF00BF5E
:100E9C0000BF00BF00BF00BF00BF00BF00BF00BF4E
:100EAC0000BF00BF00BF00BF00BF00BFE3791068E8
:100EBC00C3EBC30300EB8307BF8850F823305F8379
:100ECC00004600BF00BF00BF00BF00BF00BF00BF97
:100EDC0000BF00BF00BF00BF00BF00BF00BF00BF0E
:100EEC0000BF00BF00BF00BF00BF00BF00BF00BFFE
:100EFC0000BF00BF00BF00BF00BF00BF00BF00BFEE
:100F0C0000BF00BF00BF00BF00BF00BF00BF00BFDD
:100F1C0000BF00BF00BF00BF00BF00BF00BF00BFCD
:100F2C0000BF00BF00BF00BF00BF00BF00BF00BFBD
:100F3C0000BF00BF00BF00BF00BF00BF00BF00BFAD
:100F4C0000BF00BF00BF00BF00BF00BF00BF00BF9D
:100F5C0000BF00BF00BF00BF00BF00BF00BF00BF8D
:100F6C0000BF00BF00BF00BF00BF00BF00BF00BF7D
:100F7C0000BF00BF00BF00BF00BF00BF00BF00BF6D
:100F8C0000BF00BF00BF00BF00BF00BF00BF00BF5D
:100F9C0000BF00BF00BF00BF00BF00BF00BF00BF4D
:100FAC0000BF00BF00BF00BF00BF00BF00BF00BF3D
:100FBC0000BF00BF00BF00BF00BF049B5B080493D1
:100FCC009DF805300133DBB2172B8DF8053000F29C
:100FDC00DB82E3791068C3EBC30300EB8307BF88A4
:100FEC0050F823301F830398049B18427FF4DAAE29
:100FFC00004600BF00BF00BF00BF00BF00BF00BF66
:10100C0000BF00BF00BF00BF00BF00BF00BF00BFDC
:10101C0000BF00BF00BF00BF00BF00BF00BF00BFCC
:10102C0000BF00BF00BF00BF00BF00BF00BF00BFBC
:10103C0000BF00BF00BF00BF00BF00BF00BF00BFAC
:10104C0000BFE3791068C3EBC30300EB8307BF88D1
:10105C0050F823305F83004600BF00BF00BF00BFC5
:10106C0000BF00BF00BF00BF00BF00BF00BF00BF7C
:10107C0000BF00BF00BF00BF00BF00BF00BF00BF6C
:10108C0000BF00BF00BF00BF00BF00BF00BF00BF5C
:10109C0000BF00BF00BF00BF00BF00BF00BF00BF4C
:1010AC0000BF00BF00BF00BF00BF00BF00BF00BF3C
:1010BC0000BF00BF00BF00BF00BF00BF00BF00BF2C
:1010CC0000BF00BF00BF00BF00BF00BF00BF00BF1C
:1010DC0000BF00BF00BF00BF00BF00BF00BF00BF0C
:1010EC0000BF00BF00BF00BF00BF00BF00BF00BFFC
:1010FC0000BF00BF00BF00BF00BF00BF00BF00BFEC
:10110C0000BF00BF00BF00BF00BF00BF00BF00BFDB
:10111C0000BF00BF00BF00BF00BF00BF00BF00BFCB
:10112C0000BF00BF00BF00BF00BF00BF00BF00BFBB
:10113C0000BF00BF00BF00BF00BF00BF00BF00BFAB
:10114C0000BF00BF00BF00BF00BF00BF00BF00BF9B
:10115C0000BF00BF00BF00BF00BF00BF00BF00BF8B
:10116C0000BF00BF00BF00BF00BF00BF00BF00BF7B
:10117C0000BF00BF00BF00BF00BF00BF00BF00BF6B
:10118C0000BF00BF00BF00BF00BF00BF00BF00BF5B
:10119C0000BF00BF00BF00BF00BF00BF00BF00BF4B
:1011AC0000BF00BF00BF00BF00BF00BF00BF00BF3B
:1011BC0000BF00BF00BF00BF00BF00BF00BF00BF2B
:1011CC0000BF00BF00BF00BF00BF00BF00BF00BF1B
:1011DC0000BF00BF00BF00BF00BF00BF00BF00BF0B
:1011EC0000BF00BF00BF00BF00BF00BF00BF00BFFB
:1011FC0000BF00BF00BF00BF00BF00BF00BF00BFEB
:10120C00DBE6BDF80A30174A9BB24FF40005002606
:10121C00002B00F031810495BDF80A300EF103016A
:10122C00033B9BB2ADF80A309EF80030DBB28DF870
:10123C0006309EF80130DBB28DF807309EF8023094
:10124C00DBB28DF808309DF806309DF807009DF84C
:10125C000870000240EA03433B4303938DF805609A
:10126C0080E000BFD0010020004600BF00BF00BFDF
:10127C0000BF00BF00BF00BF00BF00BF00BF00BF6A
:10128C0000BF00BF00BF00BF00BF00BF00BF00BF5A
:10129C0000BF00BF00BF00BF00BF00BF00BF00BF4A
:1012AC0000BF00BF00BF00BF00BF00BF00BF00BF3A
:1012BC0000BF00BF00BF00BF00BF00BF00BF00BF2A
:1012CC0000BF00BF00BF00BF00BF00BF00BF00BF1A
:1012DC0000BF00BF00BF00BF00BF00BF00BF00BF0A
:1012EC0000BF00BF00BF00BF00BF00BF00BF00BFFA
:1012FC0000BF00BF00BF00BF00BF00BF00BF00BFEA
:10130C0000BFE3791068C3EBC30300EB8307BF880E
:10131C0050F823305F83004600BF00BF00BF00BF02
:10132C0000BF00BF00BF00BF00BF00BF00BF00BFB9
:10133C0000BF00BF00BF00BF00BF00BF00BF00BFA9
:10134C0000BF00BF00BF00BF00BF00BF049B5B0815
:10135C0004939DF805300133DBB2172B8DF8053063
:10136C0000F28380E3791068C3EBC30300EB8307BF
:10137C00BF8850F823301F830398049B18427FF4D6
:10138C0073AF004600BF00BF00BF00BF00BF00BF6F
:10139C0000BF00BF00BF00BF00BF00BF00BF00BF49
:1013AC0000BF00BF00BF00BF00BFE3791068C3EBF4
:1013BC00C30300EB8307BF8850F823305F830046DC
:1013CC0000BF00BF00BF00BF00BF00BF00BF00BF19
:1013DC0000BF00BF00BF00BF00BF00BF00BF00BF09
:1013EC0000BF00BF00BF00BF00BF00BF00BF00BFF9
:1013FC0000BF00BF00BF00BF00BF00BF00BF00BFE9
:10140C0000BF00BF00BF00BF00BF00BF00BF00BFD8
:10141C0000BF00BF00BF00BF00BF00BF00BF00BFC8
:10142C0000BF00BF00BF00BF00BF00BF00BF00BFB8
:10143C0000BF00BF00BF00BF00BF00BF00BF00BFA8
:10144C0000BF00BF00BF00BF00BF00BF00BF00BF98
:10145C0000BF00BF00BF00BF00BF00BF00BF00BF88
:10146C0000BF00BF00BF00BF70E7BDF80A308E465A
:10147C009BB2002B7FF4CFAE62B6FFF7CCFB2061A2
:10148C0006B0BDE8F0815E4B5E4A184611684FF419
:10149C0000080027BDF80A2092B2002AECD0CDF843
:1014AC001080BDF80A200EF10305033A92B2ADF894
:1014BC000A209EF80020D2B28DF806209EF801205A
:1014CC00D2B28DF807209EF80220D2B28DF80820F7
:1014DC009DF806209DF807E09DF808C04FEA0E2EF7
:1014EC004EEA024242EA0C0203928DF80570E27950
:1014FC005E68C2EBC20201EB820EBEF804E051F84A
:10150C0022200596A2F818E0039E049A164223D0D6
:10151C005A68059E921B4F2AFAD9E279C2EBC20295
:10152C0001EB820EBEF804E051F82220A2F81AE07A
:10153C00426805925A68059E921B072AFAD9049AAA
:10154C00520804929DF805200132D2B2172A8DF868
:10155C000520CCD9AE469DE75A68059E921B182AE9
:10156C00FAD9E279C2EBC20201EB820EBEF804E0BA
:10157C0051F82220A2F81AE0426805925A68059E9A
:10158C00921B452AFAD9DAE7AE46FFF7DABB1D4AB9
:10159C004FF000450026BDF80A309BB2002B3FF4FB
:1015AC006BAF0495BDF80A300EF10401043B9BB2FD
:1015BC00ADF80A309EF80030DBB28DF807309EF89B
:1015CC000130DBB28DF806309EF80230DBB28DF8BC
:1015DC0008309EF80330DBB28DF809309DF80730E7
:1015EC009DF806709DF808E03F049DF8090047EA55
:1015FC000363034343EA0E2303938DF805607EE0F7
:10160C00001000E0D0010020004600BF00BF00BF6A
:10161C0000BF00BF00BF00BF00BF00BF00BF00BFC6
:10162C0000BF00BF00BF00BF00BF00BF00BF00BFB6
:10163C0000BF00BF00BF00BF00BF00BF00BF00BFA6
:10164C0000BF00BF00BF00BF00BF00BF00BF00BF96
:10165C0000BF00BF00BF00BF00BF00BF00BF00BF86
:10166C0000BF00BF00BF00BF00BF00BF00BF00BF76
:10167C0000BF00BF00BFE3791068C3EBC30300EBEE
:10168C008307BF8850F823305F83004600BF00BF3C
:10169C0000BF00BF00BF00BF00BF00BF00BF00BF46
:1016AC0000BF00BF00BF00BF00BF00BF00BF00BF36
:1016BC0000BF00BF00BF00BF00BF00BF00BF00BF26
:1016CC0000BF00BF00BF00BF00BF00BF00BF00BF16
:1016DC0000BF00BF00BF00BF00BF00BF00BF00BF06
:1016EC0000BF00BF00BF00BF049B5B0804939DF8C4
:1016FC0005300133DBB21F2B8DF805307ED8E37932
:10170C001068C3EBC30300EB8307BF8850F823308A
:10171C001F830398049B18427FF476AF004600BFEA
:10172C0000BF00BF00BF00BF00BF00BF00BF00BFB5
:10173C0000BF00BF00BF00BF00BF00BF00BF00BFA5
:10174C0000BF00BFE3791068C3EBC30300EB830752
:10175C00BF8850F823305F83004600BF00BF00BF36
:10176C0000BF00BF00BF00BF00BF00BF00BF00BF75
:10177C0000BF00BF00BF00BF00BF00BF00BF00BF65
:10178C0000BF00BF00BF00BF00BF00BF00BF00BF55
:10179C0000BF00BF00BF00BF00BF00BF00BF00BF45
:1017AC0000BF00BF00BF00BF00BF00BF00BF00BF35
:1017BC0000BF00BF00BF00BF00BF00BF00BF00BF25
:1017CC0000BF00BF00BF00BF00BF00BF00BF00BF15
:1017DC0000BF00BF00BF00BF00BF00BF00BF00BF05
:1017EC0000BF00BF00BF00BF00BF00BF00BF00BFF5
:1017FC0000BF00BF00BF00BF00BF75E78E46CAE642
:10180C007047032900F02E811E4A4FF40005002674
:10181C00BDF80A309BB2002B3FF42EAE0495BDF8F8
:10182C000A30E079033B9BB2ADF80A309EF80030E9
:10183C000EF10301DBB28DF807309EF80130C0EBDE
:10184C00C000DBB28DF808309EF80230D2F800E010
:10185C00DBB28DF806309DF807709DF808300EEB62
:10186C00800C1B0243EA07439DF80670BCF804C0C9
:10187C005EF820003B4303938DF80560A0F81AC076
:10188C007DE000BFD0010020049B5B080493004660
:10189C0000BF00BF00BF00BF00BF00BF00BF00BF44
:1018AC0000BF00BF00BF00BF00BF00BF00BF00BF34
:1018BC0000BF00BF00BF00BF00BF00BF00BF00BF24
:1018CC0000BF00BF00BF00BF00BF00BF00BF00BF14
:1018DC0000BF00BF00BF00BF00BF00BF00BF00BF04
:1018EC0000BF00BF00BF00BF00BF00BF00BF00BFF4
:1018FC0000BF00BF00BF00BF00BF00BF00BF00BFE4
:10190C0000BF00BF00BF00BF00BF00BF00BF00BFD3
:10191C0000BF00BFE07917689DF80530C0EBC00030
:10192C0007EB800EBEF804E057F820000133DBB261
:10193C008DF80530A0F818E0004600BF00BF00BFCE
:10194C0000BF00BF00BF00BF00BF00BF00BF00BF93
:10195C0000BF00BF00BF00BF00BF00BF00BF00BF83
:10196C0000BF9DF80530182B7AD0E3791068C3EBD3
:10197C00C30300EB8307BF8850F823305F830398C1
:10198C00049B184280D1004600BF00BF00BF00BFBF
:10199C0000BF00BF00BF00BF00BF00BF00BF00BF43
:1019AC0000BF00BF00BF00BFE3791068C3EBC303E7
:1019BC0000EB8307BF8850F823301F839DF8053058
:1019CC000133DBB28DF80530049B5B0804930046B1
:1019DC0000BF00BF00BF00BF00BF00BF00BF00BF03
:1019EC0000BF00BF00BF00BF00BF00BF00BF00BFF3
:1019FC0000BF00BF00BF00BF00BF00BF00BF00BFE3
:101A0C0000BF00BF00BF00BF00BF00BF00BF00BFD2
:101A1C0000BF00BF00BF00BF00BF00BF00BF00BFC2
:101A2C0000BF00BF00BF00BF00BF00BF00BF00BFB2
:101A3C0000BF00BF00BF00BF00BF00BF00BF00BFA2
:101A4C0000BF00BF00BF00BF00BF00BF00BF00BF92
:101A5C0000BF00BF00BF00BF9DF80530182B84D11C
:101A6C008E46D5E6174A4FF400050026BDF80A301D
:101A7C009BB2002B3FF400AD0495BDF80A300EF17B
:101A8C000301033B9BB2ADF80A309EF80030DBB289
:101A9C008DF807309EF80130DBB28DF806309EF8D9
:101AAC000230DBB28DF808309DF807709DF80630D7
:101ABC009DF808001B0243EA0743034303938DF888
:101ACC000560E0E0D0010020004600BF00BF00BF71
:101ADC0000BF00BF00BF00BF00BF00BF00BF00BF02
:101AEC0000BF00BF00BF00BF00BF00BF00BF00BFF2
:101AFC0000BF00BF00BF00BF00BF00BF00BF00BFE2
:101B0C0000BF00BF00BF00BF00BF00BF00BF00BFD1
:101B1C0000BF00BF00BF00BF00BF00BF00BF00BFC1
:101B2C0000BF00BF00BF00BF00BF00BF00BF00BFB1
:101B3C0000BF00BF00BF00BF00BF00BF00BF00BFA1
:101B4C0000BF00BF00BF00BF00BF00BF00BF00BF91
:101B5C0000BF00BF00BF00BF00BF00BF00BF00BF81
:101B6C0000BF00BF00BF00BF00BF00BF00BF00BF71
:101B7C0000BF00BF00BF00BF00BF00BF00BF00BF61
:101B8C0000BF00BF00BF00BF00BF00BF00BF00BF51
:101B9C0000BF00BF00BF00BF00BF00BF00BF00BF41
:101BAC0000BF00BF00BF00BF00BF00BF00BF00BF31
:101BBC0000BF00BF00BF00BF00BF00BF00BF00BF21
:101BCC0000BF00BF00BF00BF00BF00BF00BF00BF11
:101BDC0000BF00BF00BF00BF00BF00BF00BF00BF01
:101BEC0000BF00BF00BF00BF00BFE3791068C3EBAC
:101BFC00C30300EB8307BF8850F823305F83004694
:101C0C0000BF00BF00BF00BF00BF00BF00BF00BFD0
:101C1C0000BF00BF00BF00BF00BF00BF00BF00BFC0
:101C2C0000BF00BF00BF00BF00BF00BF00BF00BFB0
:101C3C0000BF00BF00BF00BF00BF00BF00BF00BFA0
:101C4C0000BF00BF00BF00BF00BF00BF00BF00BF90
:101C5C0000BF00BF00BF00BF00BF00BF00BF00BF80
:101C6C0000BF00BF00BF00BF00BF00BF00BF049B90
:101C7C005B0804939DF805300133DBB2172B8DF80C
:101C8C00053000F2E380E3791068C3EBC30300EB8B
:101C9C008307BF8850F823301F830398049B184296
:101CAC007FF412AF004600BF00BF00BF00BF00BFF3
:101CBC0000BF00BF00BF00BF00BF00BF00BF00BF20
:101CCC0000BF00BF00BF00BF00BF00BF00BF00BF10
:101CDC0000BF00BF00BF00BF00BF00BF00BF00BF00
:101CEC0000BF00BF00BF00BF00BF00BF00BF00BFF0
:101CFC0000BF00BF00BF00BF00BF00BF00BF00BFE0
:101D0C0000BF00BF00BF00BF00BF00BF00BF00BFCF
:101D1C0000BF00BF00BF00BF00BF00BF00BF00BFBF
:101D2C0000BF00BF00BFE3791068C3EBC30300EB37
:101D3C008307BF8850F823305F83004600BF00BF85
:101D4C0000BF00BF00BF00BF00BF00BF00BF00BF8F
:101D5C0000BF00BF00BF00BF00BF00BF00BF00BF7F
:101D6C0000BF00BF00BF00BF00BF00BF00BF00BF6F
:101D7C0000BF00BF00BF00BF00BF00BF00BF00BF5F
:101D8C0000BF00BF00BF00BF00BF00BF00BF00BF4F
:101D9C0000BF00BF00BF00BF00BF00BF00BF00BF3F
:101DAC0000BF00BF00BF00BF00BF00BF00BF00BF2F
:101DBC0000BF00BF00BF00BF00BF00BF00BF00BF1F
:101DCC0000BF00BF00BF00BF00BF00BF00BF00BF0F
:101DDC0000BF00BF00BF00BF00BF00BF00BF00BFFF
:101DEC0000BF00BF00BF00BF00BF00BF00BF00BFEF
:101DFC0000BF00BF00BF00BF00BF00BF00BF00BFDF
:101E0C0000BF00BF00BF00BF00BF00BF00BF00BFCE
:101E1C0000BF00BF00BF00BF00BF00BF00BF00BFBE
:101E2C0000BF00BF00BF00BF00BF00BF00BF00BFAE
:101E3C0000BF00BF00BF00BF00BF00BF00BF00BF9E
:101E4C0000BF00BF00BF00BF00BF10E78E460DE60D
:101E5C0008B500F02FF800F02DF8014B186008BD04
:101E6C00D001002008B5024B1B681B6B019308BD09
:101E7C00D001060808B5024B1B685B68019308BDCE
:101E8C009C01060808B5024B1B68DB68019308BD72
:101E9C009C01060808B5024B1B681B69019308BD21
:101EAC009C01060808B5024B1B685B69019308BDD1
:101EBC009C01060808B5024B1B681B68019308BD02
:101ECC00B001060808B5024B1B689B68019308BD5E
:101EDC00B001060808B5024B1B68DB68019308BD0E
:101EEC00B001060808B5024B1B681B69019308BDBD
:101EFC00B001060808B5024B1B68DB6C019308BDEA
:101F0C00AC01060808B5024B1B685B6D019308BD5C
:101F1C00AC01060808B5024B1B689B6D019308BD0C
:101F2C00AC01060808B5024B1B68DB6D019308BDBC
:101F3C00AC01060808B5024B1B681B6E019308BD6B
:101F4C00AC01060808B5024B1B685B6E019308BD1B
:101F5C00AC01060808B5024B1B689B6E019308BDCB
:101F6C00AC01060808B5024B1B68DB6E019308BD7B
:101F7C00AC01060808B5024B1B681B6F019308BD2A
:101F8C00AC01060808B5024B1B685B6F019308BDDA
:101F9C00AC01060808B5034B1B68D3F880300193DD
:101FAC0008BD0000AC01060808B5024B1B685B6855
:101FBC00019308BDBC01060808B5024B1B689B6861
:101FCC00019308BDBC01060808B5024B1B685B6990
:101FDC00019308BDBC01060808B5024B1B68DB6900
:101FEC00019308BDBC01060808B5024B1B681B6AAF
:101FFC00019308BDBC01060808B5024B1B681B6B9E
:10200C00019308BDBC01060808B5024B1B681B6890
:10201C00019308BDB401060808B5024B1B689B6808
:10202C00019308BDB401060808B5024B1B68DB68B8
:10203C00019308BDB401060808B5024B1B681B6967
:10204C00019308BDB401060808B5024B1B685B6917
:10205C00019308BDB401060808B5024B1B68DB6987
:10206C00019308BDB401060808B5024B1B681B6A36
:10207C00019308BDB401060808B5024B1B685B6AE6
:10208C00019308BDB401060808B5024B1B689B6997
:10209C00019308BDC401060808B5024B1B685B6AB6
:1020AC00019308BDC401060808B5024B1B689B6A66
:1020BC00019308BDC401060808B5024B1B68DB6A16
:1020CC00019308BDC401060808B5024B1B681B6BC5
:1020DC00019308BDC401060808B5024B1B685B6B75
:1020EC00019308BDC401060808B5024B1B689B6B25
:1020FC00019308BDC401060808B5024B1B681B6C94
:10210C00019308BDC401060808B5024B1B681B6887
:10211C00019308BDD801060808B5024B1B685B6823
:10212C00019308BDD801060808B5024B1B681B6952
:10213C00019308BDD801060808B5024B1B685B6902
:10214C00019308BDD801060808B5024B1B689B69B2
:10215C00019308BDD801060808B5024B1B68DB6962
:10216C00019308BDD801060808B5024B1B681B6A11
:10217C00019308BDD801060808B5024B1B685B6AC1
:10218C00019308BDD801060808B5024B1B689B6C6F
:10219C00019308BDC001060808B5024B1B685B68BB
:1021AC00019308BDA401060808B5024B1B685B69C6
:1021BC00019308BDA401060808B5024B1B68DB6A35
:1021CC00019308BDA401060808B5034B1B68D3F89E
:1021DC009030019308BD0000A401060808B5034B1C
:1021EC001B68D3F89C30019308BD0000A4010608BD
:1021FC0008B5024B1B68DB6B019308BDCC010608CC
:10220C0008B5024B1B681B68019308BDC801060882
:10221C0008B5024B1B685B68019308BDC801060832
:10222C0008B5024B1B689B68019308BDC8010608E2
:10223C0008B5024B1B68DB68019308BDC801060892
:10224C0008B5024B1B681B69019308BDC801060841
:10225C0008B5024B1B685B69019308BDC8010608F1
:10226C0008B5024B1B689B69019308BDC8010608A1
:10227C0008B5024B1B68DB69019308BDC801060851
:10228C0008B5024B1B681B6A019308BDC801060800
:10229C0008B5024B1B681B6B019308BDC8010608EF
:1022AC0008B5024B1B685B6B019308BDC80106089F
:1022BC0008B5024B1B689B6B019308BDC80106084F
:1022CC0008B5024B1B68DB6B019308BDC8010608FF
:1022DC0008B5024B1B681B68019308BDA0010608DA
:1022EC0008B5024B1B685B68019308BDA00106088A
:1022FC0008B5024B1B689B68019308BDA00106083A
:10230C000021FFF751BF10B58368044613B10322B7
:10231C0001469847204610BD7047F8B5064615464D
:10232C000C468F18BC4206D0336814F8011B9B680E
:10233C0030469847F6E72846F8BD0022007CFFF7A8
:10234C00F9BD0021007CFFF7FDBD0021007CFFF7EB
:10235C0001BE0021007CFFF705BE0021007CFFF7C9
:10236C0009BE10B50446142100F0ABFF204610BD89
:10237C0010B5044608464FF47A73A360044B002151
:10238C00207461602360FFF705FE204610BD00BF7E
:10239C00443C0A0800231A461946007CFFF7AABDE4
:1023AC0013B50024007C0094FFF7ACFDC0B202B062
:1023BC0010BD0123FFF7F4BF0022007CFFF7AABD7C
:1023CC000022007CFFF7AEBD0121FFF7F9BF002111
:1023DC00007CFFF7D7BDF8B50F4600F10806051DC8
:1023EC00002416F8011D0A22384600F052F9AE42BC
:1023FC00044407D0002CF4D02E21384600F0F6F817
:10240C000444EEE72046F8BD10B50446044B1122F7
:10241C0040F8043B002101F016FB204610BD00BF24
:10242C006C3C0A080346074A10B543F8042B01F12B
:10243C00100251F8044B914243F8044BF9D10A783D
:10244C001A7010BD6C3C0A08024A416002600422FA
:10245C00027570476C3C0A0810B59DF8084044EAB8
:10246C00032343EA024242EA0161042341600375FB
:10247C0010BD000037B5044D05609DF8185000954F
:10248C00FFF7EAFF03B030BD6C3C0A0837B50D7896
:10249C008B784A78C97800912946FFF7DDFF03B0A5
:1024AC0030BD0000014A024B1A607047EE3C0A082E
:1024BC00D401002000231A464068FFF7A9BE002271
:1024CC0002214068FFF7B4BE002211464068FFF7B6
:1024DC00A7BE002211464068FFF7B2BE00231A4681
:1024EC0019464068FFF7B4BE00231A4619464068E7
:1024FC00FFF7B6BE002281F001014068FFF7B8BEBD
:10250C0000224068FFF7C4BE002211464068FFF766
:10251C00C7BE002211464068FFF7B2BE70B5164622
:10252C008EB0044608A8FFF76FFF1122002103A804
:10253C0001F089FA304601F0B7FA00250A4B0095F4
:10254C0081B25B6803AA3046FFF71EFE20B1294614
:10255C002046FFF779FF03E003A92046FFF762FF4F
:10256C0020460EB070BD00BF58060020034B044A35
:10257C0004280CBF10461846704700BFD801002035
:10258C0058060020024B034A1A6000225A6070471A
:10259C00D8010020643D0A08F8B506460D468F1890
:1025AC000024BD420CD0336815F8011B9B683046E3
:1025BC009847002801DB0444F3E7002C08BF0446CD
:1025CC002046F8BD70B505460C46084649B101F0E9
:1025DC006BFA2B68024621462846BDE87040DB6842
:1025EC00184770BD08B5FFF7EDFF08BD03689B6881
:1025FC0018470B460A68014612681846104738B54A
:10260C000D210546FFF7F2FF0A2104462846FFF785
:10261C00EDFF204438BD38B50546FFF7D3FF04461F
:10262C002846FFF7ECFF204438BD38B50546FFF7C8
:10263C00E0FF04462846FFF7E2FF204438BD012A9C
:10264C0098BF0A2230B50B468BB000218DF82410B0
:10265C000DF12304B3FBF2F505FB1233DBB2092BAE
:10266C0094BF30333733DBB2214604F801392B46A3
:10267C00002DEFD1FFF7A6FF0BB030BD10B422B97F
:10268C000368C9B29B6810BC1847D2B210BCFFF7E4
:10269C00D6BFFFF7F3BF10B50446FFF734FE204654
:1026AC0010BD0000034800238360034A034900F077
:1026BC0003BE00BFE001002090000020A3260A0802
:1026CC00704710B50446102100F0FBFD204610BDEC
:1026DC0070B504460E46074B0025036040F80C5FAE
:1026EC00FFF7C0FB30462671FFF7B6FCA56020460D
:1026FC0070BD00BF983D0A084FF6FF710079FFF7D7
:10270C0083BC0079FFF788BC0079FFF78DBC000013
:10271C00054A0023995C814202D00133082BF9D180
:10272C00581CC0B2704700BFA03D0A08400830B525
:10273C00186000241868E5B2884206D90134082CC8
:10274C0002D040081860F5E70725024B5B5D13705B
:10275C0030BD00BFA03D0A0870B5044602FB01F570
:10276C0088B006791422002103A801F06CF90B2320
:10277C0003A930460022ADF80C30FFF77DFC02AB0C
:10278C000DF1070229460498FFF7D0FF20799DF838
:10279C000710FFF751FC029808B070BD38B504461D
:1027AC00A56808464DB1FFF7B3FF012225FA00F1E9
:1027BC002046BDE83840FFF7CFBF2079BDE8384050
:1027CC00FFF73ABC08B50079FFF73EFCC0B208BD74
:1027DC000079FFF749BC10B504460068FFF780FD8F
:1027EC00204610BD10B50446006808B1FFF778FD0F
:1027FC0000232360A360636010BD38B504460D460A
:10280C0000680131FFF774FD10B184E8210001204C
:10281C0038BD10B50368044613B143688B4207D228
:10282C002046FFF7EAFF20B1A3680BB922681370AA
:10283C00012010BD70B50E46114604461546FFF733
:10284C00E8FF18B92046FFF7CDFF09E02A463146CC
:10285C00A560206801F0ECF82268A3680021D1542F
:10286C00204670BD38B50023044603604360836086
:10287C0003730D4639B1084601F016F92946024694
:10288C002046FFF7D7FF204638BD00004FF6FF72F9
:10289C00034B0020187058809A80FFF77DBC00BF56
:1028AC00F0010020024B1A68024B1A60704700BFFF
:1028BC0028000020F801002010B40468246BA44602
:1028CC0010BC604703689B6C1847808E7047028F62
:1028DC00C08E101A704713B502AB026803F8011DC5
:1028EC00D46819460122A04702B010BD10B5036888
:1028FC0004461B69984728B1E38EE26B591CE186AC
:10290C00D05C10BD4FF0FF3010BD10B5036804460D
:10291C001B69984718B1E38EE26BD05C10BD4FF089
:10292C00FF3010BD70470346084610B4D98EDC6BDF
:10293C001A8F0368521ADB68214410BC1847A0F1A7
:10294C001000FFF7F0BFF7B5054610460F461646C8
:10295C00FFF70CFE0368DB689847B8B102213B46D1
:10296C00112208460096FFF727FB6861FFF71CFB56
:10297C00044630B10023EB862B872F836E64012035
:10298C0004E02B6828465B6A9847204603B0F0BDEC
:10299C0038B504464569FFF72FFB854202D06069C4
:1029AC00FFF722FBFFF728FB00236061E3862387F8
:1029BC0038BD30B587B0BDF828400225ADF80850B9
:1029CC008DF80B40250ADC798DF80A508DF80C40F7
:1029DC009C798DF80D405C791B798DF80E408DF843
:1029EC000F301023019302AB009340690023FFF7D3
:1029FC00F3FA07B030BD38B5C36B0546C08E13B1C2
:102A0C002C6C241A00E01C46944228BF144618442F
:102A1C00224601F00DF8EB8E20462344EB8638BDA0
:102A2C0070B5036804461B690E461546984788B175
:102A3C00236820461B6998478542A8BF0546E38E4C
:102A4C00E16B2A461944304600F0F2FFE38E2B442A
:102A5C00E38601E04FF0FF35284670BDF0B5044623
:102A6C0089B0406C0D461646FFF780FD0368DB68A5
:102A7C00984710B36769FFF7BFFA87421DD0E5B1DD
:102A8C0008AB102243F8142D01930DEB02030093B5
:102A9C002946002332466069FFF796FA051E0EDBC5
:102AAC009DF812209DF8133005A943EA0223A38652
:102ABC0004F11C00FFF7EAFC01E04FF0FF3528465B
:102ACC0009B0F0BD2DE9F041064694B0406C0D46BE
:102ADC009046FFF74BFD0368DB689847F8B1284632
:102AEC0000F0E2FF002481B20094736C03AA284624
:102AFC00FFF74AFB90B903A908A8FFF793FC3368CA
:102B0C000FAC9F6B074B09AD0E930FCD0FC42B6809
:102B1C00424623700EA93046B84700E0204614B058
:102B2C00BDE8F0816C3C0A0870B504460646054BBE
:102B3C0001F1200544F8043B0FCD0FC42B6830463F
:102B4C00237070BD6C3C0A08F0B594468E46064660
:102B5C00026889B0976A094A03AC1D1D02920FCD19
:102B6C000FC42B6862462370BDF838307146009351
:102B7C00304602ABB84709B0F0BD00BF6C3C0A0848
:102B8C00F0B50446036889B09F6A0D4B03AD00F1A4
:102B9C002006B0F836E002930FCE0FC533687246AC
:102BAC002B70A38EE16B0093204602ABB847054611
:102BBC0023682046DB699847284609B0F0BD00BF62
:102BCC006C3C0A0838B54FF47A7383600B4B0025C4
:102BDC0003F108026C330260036145600446FFF7A1
:102BEC000BFA606104F11C00FFF70EFC4FF400734C
:102BFC00E5862587E5632364204638BDD43D0A0865
:102C0C0010B590F84830044623B1C06B10B10121C7
:102C1C0000F057FB0023E36384F848302364E38619
:102C2C00238710BD70B5044616460D46FFF7E8FF26
:102C3C000023E66323643EB935B12846FDF727FA35
:102C4C000123E06384F84830E36B03B12564206C06
:102C5C00003018BF012070BDF8B51746C26B054691
:102C6C000C461AB9016C09B1FFF7DCFF05F120061F
:102C7C0004340FCC0FC6236833700023AF86EB8669
:102C8C002B87286CF8BD70B5C26B04461AB9016C61
:102C9C0009B1FFF7C7FFE16B0023E386238741B13E
:102CAC00226C32B12068056B2046A8470028C8BFAB
:102CBC00208723682046BDE870401B691847704781
:102CCC004174704708B5007CFFF716FA20EAE070F3
:102CDC0008BD08B5007CFFF7E7F920EAE07008BDF5
:102CEC0008B5007CFFF7F0F930EA200028BF4FF060
:102CFC00FF3008BD08B5007CFFF7DEF930EA200094
:102D0C0028BF4FF0FF3008BD007CFFF7E5B910B5C8
:102D1C000446142100F0D5FA204610BD70B5457C50
:102D2C0004460E4625B9007CFFF7E6F9002805DDC0
:102D3C003146207CBDE87040FFF7AEB9284670BD27
:102D4C0010B5044608461146002262604FF47A72B0
:102D5C00A260054A20742260012262741A46FFF7B1
:102D6C0093F9204610BD00BF4C3E0A08007CFFF7CB
:102D7C00BBB9000038B50C4D296811F0010411D114
:102D8C002846FDF788F968B1084A2146084B0948DE
:102D9C00FFF7D6FF2846FDF783F9074A0749054890
:102DAC0000F08AFA034838BD9402002098020020F3
:102DBC0010020020FC01002090000020CB2C0A08FF
:102DCC0041747047704708B50021007CFFF7BCF9CF
:102DDC0030EA200028BF4FF0FF3008BD08B50121B4
:102DEC00007CFFF7B1F930EA200028BF4FF0FF302C
:102DFC0008BD08B5007CFFF79FF920EAE07008BD1C
:102E0C0008B5007CFFF790F920EAE07008BD007C63
:102E1C00FFF7AAB910B50446142100F052FA204667
:102E2C0010BD38B50446007C0D46FFF785F9002827
:102E3C0001DC607C28B12946207CFFF78DF920EA63
:102E4C00E07038BD10B50446002363604FF47A730C
:102E5C00A360054B0846236001232174637411465B
:102E6C00FFF752F9204610BD7C3E0A080022007C78
:102E7C00FFF752B9007CFFF77FB9FFF7FBBF0000EB
:102E8C0010B504461422002100F0DDFD054B204650
:102E9C006360054BE36040F201132381812323829D
:102EAC0010BD00BFA10300202003002030B50E4D43
:102EBC0087B001A8FFF7E4FF296811F0010410D1D5
:102ECC002846FDF7E8F860B101AA21460748FFF74C
:102EDC00B9FF2846FDF7E4F8054A0649034800F017
:102EEC00EBF9024807B030BD1C030020A4040020FD
:102EFC0090000020D12D0A0810B5044614220021A0
:102F0C0000F0A1FD054B20466360054BE36040F2E9
:102F1C00011323818123238210BD00BF540500209F
:102F2C00BC04002010B50E4C86B001A8FFF7E4FFDE
:102F3C002368DB0710D42046FDF7ADF860B101AA79
:102F4C0001210848FFF77EFF2046FDF7A9F8064A45
:102F5C000649044800F0B0F9024806B010BD00BFA5
:102F6C00B80400204005002090000020D12D0A0854
:102F7C00002211464068FFF763B9F0B5164689B0D8
:102F8C0011220F460446002103A800F05CFD3046D8
:102F9C0000F08AFD0025009581B27B6803AA3046BB
:102FAC00FFF7F2F820B129462046FFF74DFA03E06F
:102FBC0003A92046FFF736FA204609B0F0BD0022DF
:102FCC0011464068FFF75CB9002211464068FFF7D4
:102FDC0067B900224068FFF75BB9002281F001015C
:102FEC004068FFF745B900231A4619464068FFF7B9
:102FFC0037B900231A4619464068FFF729B9002251
:10300C0011464068FFF70CB9002202214068FFF717
:10301C000FB900231A464068FFF7FAB8024B042296
:10302C005A60024A1A60704758060020AC3E0A08E3
:10303C0008B5144B33B1FFF739FF03681B69984788
:10304C00002816DC104B33B1FFF794FE03681B69A4
:10305C009847002810DC0D4B0BB1AFF300800C4BE4
:10306C007BB1FFF75FFF03681B699847002806DCFC
:10307C0008BDAFF30080E5E7AFF30080EBE7AFF3FB
:10308C00008008BD000000000000000000000000EF
:10309C000000000008B5FFF7CBFFFEF703FF014B64
:1030AC00186008BD680600200248034A0349121A3A
:1030BC0000F0BEBC0040024004400240803F0A08C1
:1030CC0007B5002300931A466FF07701FFF786F8D7
:1030DC0003B05DF804FB000007B543880A2B08D049
:1030EC00502B09D1094B1B683BB103B05DF804EBC5
:1030FC001847FFF7E5FF06E0002300931A466FF030
:10310C007701FFF76BF803B05DF804FB6006002055
:10311C0038B5104C104D2368AB42104B0CBF01223C
:10312C0000221A7002D0FFF7BFFF2560FEF7A2FE47
:10313C00044600F091FC0A4B13B12046AFF300801B
:10314C0000210748FFF754F8BDE838400021054836
:10315C00FFF73AB8004002401E1C279A6406002074
:10316C0000000000E5300A0810B504460F48FFF7D0
:10317C002FFB28B1A4F10D03022B01D8002010BDA8
:10318C0000F040F8FFF723F908B1012CF6D9FFF74E
:10319C00F1FDFFF7EBFD18B1A4F11203012BEDD9F2
:1031AC00172C8CBF0020012010BD00BF9C060020F6
:1031BC00172838B504460D460AD8FF2908D0FFF762
:1031CC00D3FF28B129462046BDE83840FEF77ABE29
:1031DC0038BD38B504460D46FEF77CFEFF2810D0EE
:1031EC00062804D84D2323FA00F0C30709D420463F
:1031FC00FFF7BAFF28B129462046BDE83840FEF754
:10320C0071BE38BD38B50B4D296811F001040FD1D2
:10321C002846FCF740FF58B121460748FFF7A8F8AD
:10322C002846FCF73DFF054A0549034800F044F8E1
:10323C00014838BD6C06002070060020900000206C
:10324C0025230A0813B5084C00231A461946009387
:10325C002046FFF70FF92046044A054902B0BDE8A5
:10326C00104000F029B800BF840600209000002018
:10327C00B3000A0870B50C4C0C4E0D4D00212046C5
:10328C00FFF726FA20460B4C3246294600F014F87C
:10329C0001212046FFF71CFA324629462046BDE89C
:1032AC00704000F009B800BF9C0600209000002080
:1032BC00CD260A08AC0600200B460146184600F045
:1032CC00A9BBFCF7E6BE0000244B1A68D0075CBF14
:1032DC0001221A60224B1A68D1075CBF01221A60C6
:1032EC00204B1A68D2075CBF01221A601E4B1A6869
:1032FC00D0075CBF01221A601C4B1A68D1075CBF57
:10330C0001221A601A4B1A68D2075CBF01221A609C
:10331C00184B1A68D0075CBF01221A60164B1A684A
:10332C00D1075CBF01221A60144B1A68D2075CBF2C
:10333C0001221A60124B1A68D0075CBF01221A6076
:10334C00104B1A68D1075CBF01221A600E4B1A6829
:10335C00D2075CBF01221A60704700BFE80600204C
:10336C00E4060020E0060020DC060020D806002041
:10337C00D4060020D0060020CC060020C806002071
:10338C00C4060020C0060020BC060020184B1A689A
:10339C00D1075CBF01221A60164B1A68D2075CBFBA
:1033AC0001221A60144B1A68D0075CBF01221A6004
:1033BC00124B1A68D1075CBF01221A60104B1A68B5
:1033CC00D2075CBF01221A600E4B1A68D0075CBF93
:1033DC0001221A600C4B1A68D1075CBF01221A60DB
:1033EC000A4B1A68D2075CBF01221A60704700BFF3
:1033FC00080700200407002000070020FC0600201E
:10340C00F8060020F4060020F0060020EC06002050
:10341C00184B1A68D1075CBF01221A60164B1A6848
:10342C00D2075CBF01221A60144B1A68D0075CBF2C
:10343C0001221A60124B1A68D1075CBF01221A6074
:10344C00104B1A68D2075CBF01221A600E4B1A6827
:10345C00D0075CBF01221A600C4B1A68D1075CBF05
:10346C0001221A600A4B1A68D2075CBF01221A604B
:10347C00704700BF280700202407002020070020E9
:10348C001C0700201807002014070020100700203C
:10349C000C070020244B1A68D0075CBF01221A606D
:1034AC00224B1A68D1075CBF01221A60204B1A68A4
:1034BC00D2075CBF01221A601E4B1A68D0075CBF92
:1034CC0001221A601C4B1A68D1075CBF01221A60DA
:1034DC001A4B1A68D2075CBF01221A60184B1A6883
:1034EC00D0075CBF01221A60164B1A68D1075CBF6B
:1034FC0001221A60144B1A68D2075CBF01221A60B1
:10350C00124B1A68D0075CBF01221A60104B1A6864
:10351C00D1075CBF01221A600E4B1A68D2075CBF40
:10352C0001221A60704700BF580700205407002082
:10353C00500700204C0700204807002044070020BB
:10354C00400700203C0700203807002034070020EB
:10355C00300700202C07002080F0004002E000BF64
:10356C0081F0004142001FBF5FEA410392EA030F62
:10357C007FEA226C7FEA236C6AD04FEA1262D2EBAC
:10358C001363C1BFD218414048404140B8BF5B42B1
:10359C00192B88BF704710F0004F40F4000020F04A
:1035AC007F4018BF404211F0004F41F4000121F060
:1035BC007F4118BF494292EA030F3FD0A2F10102AA
:1035CC0041FA03FC10EB0C00C3F1200301FA03F1E8
:1035DC0000F0004302D5494260EB4000B0F5000F0B
:1035EC0013D3B0F1807F06D340084FEA310102F1CA
:1035FC000102FE2A51D2B1F1004F40EBC25008BF7C
:10360C0020F0010040EA03007047490040EB000045
:10361C0010F4000FA2F10102EDD1B0FA80FCACF174
:10362C00080CB2EB0C0200FA0CF0AABF00EBC25073
:10363C0052421843BCBFD0401843704792F0000F61
:10364C0081F4000106BF80F400000132013BB5E7B4
:10365C004FEA41037FEA226C18BF7FEA236C21D02A
:10366C0092EA030F04D092F0000F08BF084670478F
:10367C0090EA010F1CBF0020704712F07F4F04D15D
:10368C00400028BF40F00040704712F100723CBF70
:10369C0000F50000704700F0004343F0FE4040F49A
:1036AC00000070477FEA226216BF08467FEA236358
:1036BC000146420206BF5FEA412390EA010F40F443
:1036CC00800070474FF0000304E000BF10F000438F
:1036DC0048BF40425FEA000C08BF704743F0964376
:1036EC0001464FF000001CE050EA010208BF704791
:1036FC004FF000030AE000BF50EA010208BF704718
:10370C0011F0004302D5404261EB41015FEA010C2C
:10371C0002BF84460146002043F0B64308BFA3F124
:10372C008053A3F50003BCFA8CF2083AA3EBC25306
:10373C0010DB01FA02FC634400FA02FCC2F1200225
:10374C00BCF1004F20FA02F243EB020008BF20F05C
:10375C000100704702F1200201FA02FCC2F12002C2
:10376C0050EA4C0021FA02F243EB020008BF20EAB7
:10377C00DC7070474FF0FF0C1CEAD0521EBF1CEAE5
:10378C00D15392EA0C0F93EA0C0F6FD01A4480EAD3
:10379C00010C400218BF5FEA41211ED04FF00063BC
:1037AC0043EA501043EA5111A0FB01310CF00040E8
:1037BC00B1F5000F3EBF490041EAD3715B0040EA0E
:1037CC00010062F17F02FD2A1DD8B3F1004F40EBDE
:1037DC00C25008BF20F00100704790F0000F0CF0B1
:1037EC00004C08BF49024CEA502040EA51207F3A75
:1037FC00C2BFD2F1FF0340EAC250704740F4000050
:10380C004FF00003013A5DDC12F1190FDCBF00F040
:10381C0000407047C2F10002410021FA02F1C2F1EE
:10382C00200200FA02FC5FEA310040F1000053EA8A
:10383C004C0308BF20EADC70704792F0000F00F0D8
:10384C00004C02BF400010F4000F013AF9D040EADE
:10385C000C0093F0000F01F0004C02BF490011F472
:10386C00000F013BF9D041EA0C018FE70CEAD15370
:10387C0092EA0C0F18BF93EA0C0F0AD030F0004CF0
:10388C0018BF31F0004CD8D180EA010000F00040A4
:10389C00704790F0000F17BF90F0004F084691F062
:1038AC00000F91F0004F14D092EA0C0F01D142029C
:1038BC000FD193EA0C0F03D14B0218BF084608D165
:1038CC0080EA010000F0004040F0FE4040F40000AF
:1038DC00704740F0FE4040F4400070474FF0FF0C42
:1038EC001CEAD0521EBF1CEAD15392EA0C0F93EA89
:1038FC000C0F69D0A2EB030280EA010C49024FEADB
:10390C00402037D04FF0805343EA111143EA101393
:10391C000CF000408B4238BF5B0042F17D024FF44B
:10392C00000C8B4224BF5B1A40EA0C00B3EB510F26
:10393C0024BFA3EB510340EA5C00B3EB910F24BF0F
:10394C00A3EB910340EA9C00B3EBD10F24BFA3EB94
:10395C00D10340EADC001B0118BF5FEA1C1CE0D15C
:10396C00FD2A3FF650AF8B4240EBC25008BF20F00F
:10397C00010070470CF0004C4CEA50207F32C2BF63
:10398C00D2F1FF0340EAC250704740F400004FF000
:10399C000003013A37E792F0000F00F0004C02BF31
:1039AC00400010F4000F013AF9D040EA0C0093F0FB
:1039BC00000F01F0004C02BF490011F4000F013B55
:1039CC00F9D041EA0C0195E70CEAD15392EA0C0FBD
:1039DC0008D142027FF47DAF93EA0C0F7FF470AFF5
:1039EC00084676E793EA0C0F04D14B023FF44CAF38
:1039FC0008466EE730F0004C18BF31F0004CCAD1CD
:103A0C0030F000427FF45CAF31F000437FF43CAF08
:103A1C005FE700BF10B5054C13462CB10A460146B2
:103A2C000220AFF3008010BD204610BD0000000046
:103A3C0010B5431E0A44914204D011F8014B03F80F
:103A4C00014FF8E710BD03460244934202D003F83D
:103A5C00011BFAE77047000038B5124B05461C688D
:103A6C00A36BD3B91820FEF733FC43F20E33A063DB
:103A7C0003804AF6CD33438041F2342383804EF2E7
:103A8C006D63C3804DF6EC630381052343810B23E7
:103A9C00838101220023C0E90423A36B00221D6152
:103AAC005A6138BD8C000020034613F8012B002A04
:103ABC00FBD1181A013870471D000A085D000A086E
:103ACC0089000A088D000A08000000004661696C34
:103ADC00656420746F20636F6D6D756E69636174BE
:103AEC00652077697468204C534D394453312E004E
:103AFC00446F75626C652D636865636B20776972C2
:103B0C00696E672E0044656661756C74207365740C
:103B1C0074696E677320696E207468697320736BA7
:103B2C00657463682077696C6C20776F726B2066A4
:103B3C006F7220616E206F7574206F6620746865DB
:103B4C0020626F78204C534D3944533120427265BA
:103B5C00616B6F75742C20627574206D6179206EA9
:103B6C0065656420746F206265206D6F6469666999
:103B7C0065642069662074686520626F61726420D8
:103B8C006A756D70657273206172652E00413A2002
:103B9C00002C200020670050697463682C20526F41
:103BAC006C6C3A200048656164696E673A2000636A
:103BBC00616C6962726174696E672073656E736F94
:103BCC00722E2E2E00646F6E650053657475700036
:103BDC004851526F757465725F5055424C49534849
:103BEC0000626C656163680070726F7370657269F6
:103BFC00747900656E64616E676572656400783A0D
:103C0C00200020593A00205A3A002061763A2000D0
:103C1C002000000040000000600000002C010000AB
:103C2C0018000000F40100002C01000050000000FE
:103C3C00000000000000000025230A086F230A087A
:103C4C0047230A0827230A084F230A0857230A0880
:103C5C005F230A0867230A08000000000000000028
:103C6C00E3230A08B3000A08D5000A0862617564E8
:103C7C000053657269616C005553425365726961FA
:103C8C006C31007479706500706172616D00636DE8
:103C9C006400696400686E64007374726D00666918
:103CAC006C74006C766C0061646448616E646C6565
:103CBC00720072656D6F766548616E646C6572003A
:103CCC00656E756D48616E646C657273004A534F16
:103CDC004E53747265616D4C6F6748616E646C65B0
:103CEC00720061707000253031307520005D20004D
:103CFC0025640028293A2000205B00636F6465204E
:103D0C003D200025690064657461696C73203D2059
:103D1C00000D0A0066006C6E00666E00636F6465D1
:103D2C000064657461696C006E6F6E65007472611D
:103D3C00636500696E666F007761726E0065727202
:103D4C006F720070616E696300616C6C0000000042
:103D5C000000000000000000C1240A08CB240A085F
:103D6C00D5240A08DF240A08E9240A08F5240A08DD
:103D7C0001250A080D250A0815250A081F250A0819
:103D8C0029250A080000000000000000CD260A08C2
:103D9C00CF260A0800081018202830385A00252B86
:103DAC003033643A253032750025592D256D2D257B
:103DBC00645425483A254D3A2553257A006173639E
:103DCC0074696D6500000000000000000000000038
:103DDC00B5000A08E3000A08E3280A08032A0A08BF
:103DEC00DB280A08F9280A0817290A0831290A08C1
:103DFC0053290A089D290A08BF290A08552B0A08C5
:103E0C00692A0A08C5280A08652C0A08D12A0A0852
:103E1C008D2B0A08932C0A082D2A0A08D1280A0887
:103E2C00352B0A08D7280A0833290A08F0FFFFFFA8
:103E3C00000000004B290A080000000000000000F0
:103E4C00CB2C0A081B2D0A08292D0A08A5250A08BF
:103E5C00DF2C0A08012D0A08ED2C0A08152D0A087A
:103E6C00CD2C0A08D12C0A0800000000000000002C
:103E7C00D12D0A08212E0A082F2E0A08A5250A087A
:103E8C000D2E0A08D32D0A08E92D0A081B2E0A0844
:103E9C00FF2D0A08CD2D0A080000000000000000CC
:103EAC001F300A0815300A080B300A087D2F0A0843
:103EBC00FF2F0A08F32F0A08E72F0A08DF2F0A083A
:103ECC00D52F0A08CB2F0A08872F0A0800000000FC
:103EDC0000000000000000000000000000000000D6
:103EEC0000000000000000000000000000000000C6
:103EFC0000000000000000000000000000000000B6
:103F0C0000000000000000000000000000000000A5
:103F1C000000000000000000000000000000000095
:103F2C000000000000000000000000004300000042
:103F3C00B1040A0841050A081F0C0A085D1E0A088C
:103F4C00B1240A0891250A08B1260A0899280A08FA
:103F5C00B1280A0829300A0851320A0881320A08A5
:103F6C00D5320A0899330A081D340A08A1340A0804
:043F7C000000000041
:043F8000000000003D
:103F84000F0000000E000000B82200000D00000029
:103F94000100000007000000F7CC1239240B983907
:103FA4009F71E139240B183AC93D0A08000000004A
:103FB400D83E0A08F83E0A08183F0A080000000024
:103FC400000000000000000000000000383F0A0864
:103FD40000000000000000000000000000000000DD
:103FE40000000000000000000000000000000000CD
:103FF40000000000000000000000000000000000BD
:104004000000000000000000000000002C00002060
:10401400FFFFFFFF00000102030405060708090A69
:104024000B0C0D0E0F101112131415161718191A64
:084034001B1C1D1E1F202800AB
:04403C00785634126C
:04000005080A001CC9
:00000001FF
