:02000004080AE8
:1000000000000A082C1D0A08000006000600050171
:0800100004027A050000000063
:0400180024190A0895
:10001C0009480A4908B5884205D0094A824202D0EB
:10002C00121A01F035FC0748074A0021121A01F098
:10003C003AFC064808BD00BF00000020841C0A08DA
:10004C008000002080000020800600208006002018
:10005C0070B501F0EBF9074B074C1E46E41AA408E7
:10006C000025A54204D056F8253098470135F8E70D
:10007C0070BD00BF481C0A08801C0A0800F036B886
:10008C0008B500F0BFF8BDE8084001F091B900F0E8
:10009C0039BB00F03FBB0078B0FA80F040097047E4
:1000AC00012303707047704710B50446054B03607D
:1000BC006433036100F0FAFD204600F02FFF204668
:1000CC0010BD00BFE81A0A0810B50446182101F04B
:1000DC0086FA204610BD10B50446FFF7E5FF204612
:1000EC004C2101F07CFA204610BD000070B596B092
:1000FC0001F06AF84FF4165101F046F8374B002125
:10010C00188801F0E3F9364B0021188801F0DEF96C
:10011C0001F05AF801F03FF80028F9D0314C0023D7
:10012C001A461946606800F08DFA00221146606884
:10013C002C4D00F09FFA0028F7D001F045F82A4921
:10014C0000F063FC294B00221988294800F089FD36
:10015C0000231946274A686800F0C4FA01F034F805
:10016C00064600244022002106A801F09CFB0094C6
:10017C00402306AA2146686800F0BCFA06A902A82A
:10018C0000F0FEFC0299304600F03FFC02A800F0A3
:10019C00B0FC01F019F8224606462146686800F0CA
:1001AC0049FA154D811C06A800F03AFB06A9304609
:1001BC0000F035FC2888012101F088F90F4B012152
:1001CC00188801F083F90E4B0121188801F07EF993
:1001DC002146288801F08BF916B070BDDC00002098
:1001EC00100000207C05002038190A080C000020A3
:1001FC00840000203E190A080000002004000020A2
:10020C00140000202DE9F843314C324E27460121D1
:10021C00308801F06CF9DFF8C0800023DFF8BC9067
:10022C00236023682A4DB3F5FA6F1FDA0121B8F861
:10023C00000001F05CF90121B9F8000001F057F958
:10024C004FF4FA7000F090F80021B9F8000001F0BA
:10025C004EF90021B8F8000001F049F94FF4FA709A
:10026C0000F082F83B6801333B60DAE74FF47A70B8
:10027C0000F060FA3088002101F039F9164E0023A5
:10028C00164F2B602368B3F5FA6F1BDA0121308807
:10029C0001F02DF90121388801F029F94FF4FA7099
:1002AC0000F062F80021388801F021F90021308833
:1002BC0001F01DF94FF4FA7000F056F82B68013379
:1002CC002B60DFE74FF47A70BDE8F84300F032BAE8
:1002DC00D80000201400002008000020040000209A
:1002EC0038B500F051F80021012000F07FF90F4BD8
:1002FC0000221A705A804FF6FF720D4C9A80022021
:10030C0000F064F90B4D204600F07CFA20460A4CB4
:10031C002A460A4901F05EF9204600F0E1FD2A4622
:10032C002046BDE83840064901F054B9D000002001
:10033C00E00000208000002084000020B3000A08A8
:10034C00B5000A0800F020B808B5024B1B681B6BFF
:10035C00019308BDD001060808B5024B1B685B6809
:10036C00019308BD9C01060808B5024B1B68DB68AD
:10037C00019308BD9C01060808B5024B1B685B691C
:10038C00019308BD9C01060808B5024B1B681B684D
:10039C00019308BDB001060808B5024B1B689B68A9
:1003AC00019308BDB001060808B5024B1B68DB6859
:1003BC00019308BDB001060808B5024B1B681B6908
:1003CC00019308BDB001060808B5024B1B681B6EF3
:1003DC00019308BDAC01060808B5024B1B685B6EA7
:1003EC00019308BDAC01060808B5024B1B689B6E57
:1003FC00019308BDAC01060808B5024B1B68DB6E07
:10040C00019308BDAC01060808B5024B1B681B6FB5
:10041C00019308BDAC01060808B5024B1B685B6F65
:10042C00019308BDAC01060808B5034B1B68D3F853
:10043C008030019308BD0000AC01060808B5024BE2
:10044C001B685B68019308BDBC01060808B5024B2C
:10045C001B689B68019308BDBC01060808B5024BDC
:10046C001B685B69019308BDBC01060808B5024B0B
:10047C001B68DB69019308BDBC01060808B5024B7B
:10048C001B681B6A019308BDBC01060808B5024B2A
:10049C001B681B6B019308BDBC01060808B5024B19
:1004AC001B68DB69019308BDB401060808B5024B53
:1004BC001B681B6A019308BDB401060808B5024B02
:1004CC001B689B69019308BDC401060808B5024B63
:1004DC001B685B6A019308BDC401060808B5024B92
:1004EC001B689B6A019308BDC401060808B5024B42
:1004FC001B68DB6A019308BDC401060808B5024BF2
:10050C001B681B6B019308BDC401060808B5024BA0
:10051C001B685B6B019308BDC401060808B5024B50
:10052C001B689B6B019308BDC401060808B5024B00
:10053C001B681B6C019308BDC401060808B5024B6F
:10054C001B681B68019308BDD801060808B5024B4F
:10055C001B685B68019308BDD801060808B5024BFF
:10056C001B681B69019308BDD801060808B5024B2E
:10057C001B685B69019308BDD801060808B5024BDE
:10058C001B689B69019308BDD801060808B5024B8E
:10059C001B68DB69019308BDD801060808B5024B3E
:1005AC001B681B6A019308BDD801060808B5024BED
:1005BC001B685B6A019308BDD801060808B5024B9D
:1005CC001B689B6C019308BDC001060808B5024B63
:1005DC001B685B68019308BDA401060808B5024BB3
:1005EC001B685B69019308BDA401060808B5024BA2
:1005FC001B68DB6A019308BDA401060808B5034B10
:10060C001B68D3F89030019308BD0000A4010608C4
:10061C0008B5034B1B68D3F89C30019308BD000050
:10062C00A401060808B5024B1B68DB6B019308BDDF
:10063C00CC01060808B5024B1B681B68019308BD6A
:10064C00C801060808B5024B1B685B68019308BD1E
:10065C00C801060808B5024B1B689B68019308BDCE
:10066C00C801060808B5024B1B68DB68019308BD7E
:10067C00C801060808B5024B1B681B69019308BD2D
:10068C00C801060808B5024B1B685B69019308BDDD
:10069C00C801060808B5024B1B689B69019308BD8D
:1006AC00C801060808B5024B1B68DB69019308BD3D
:1006BC00C801060808B5024B1B681B6A019308BDEC
:1006CC00C801060808B5024B1B681B6B019308BDDB
:1006DC00C801060808B5024B1B685B6B019308BD8B
:1006EC00C801060808B5024B1B689B6B019308BD3B
:1006FC00C801060808B5024B1B68DB6B019308BDEB
:10070C00C801060808B5024B1B681B68019308BD9D
:10071C00A001060808B5024B1B685B68019308BD75
:10072C00A001060808B5024B1B689B68019308BD25
:10073C00A00106080021FFF751BF10B583680446DD
:10074C0013B1032201469847204610BD7047F8B5F7
:10075C00064615460C468F18BC4206D0336814F872
:10076C00011B9B6830469847F6E72846F8BD0022E7
:10077C00007CFFF729BE0021007CFFF72DBE002175
:10078C00007CFFF731BE0021007CFFF735BE002155
:10079C00007CFFF739BE10B50446142100F01FFF92
:1007AC00204610BD10B5044608464FF47A73A3607A
:1007BC00044B0021207461602360FFF735FE204656
:1007CC0010BD00BF58190A080021007CFFF724BE99
:1007DC00F8B50F4600F10806051D002416F8011D9A
:1007EC000A22384600F04FF9AE42044407D0002CE0
:1007FC00F4D02E21384600F0F3F80444EEE72046FE
:10080C00F8BD000010B50446044B112240F8043B1F
:10081C00002101F048F8204610BD00BF80190A08DD
:10082C000346074A10B543F8042B01F1100251F8A6
:10083C00044B914243F8044BF9D10A781A7010BD5D
:10084C0080190A08024A416002600422027570474E
:10085C0080190A0810B59DF8084044EA032343EABE
:10086C00024242EA016104234160037510BD00009D
:10087C0037B5044D05609DF818500095FFF7EAFF59
:10088C0003B030BD80190A0837B50D788B784A78DB
:10089C00C97800912946FFF7DDFF03B030BD000099
:1008AC00014A024B1A607047021A0A08F80000202D
:1008BC0000231A464068FFF7C5BE0022022140689B
:1008CC00FFF7D0BE002211464068FFF7C3BE0022DE
:1008DC0011464068FFF7CEBE00231A461946406801
:1008EC00FFF7D0BE00231A4619464068FFF7D2BE68
:1008FC00002281F001014068FFF7D4BE002240685D
:10090C00FFF7E0BE002211464068FFF7E3BE00226D
:10091C0011464068FFF7CEBE70B516468EB0044641
:10092C0008A8FFF76FFF1122002103A800F0BBFFFE
:10093C00304600F0E9FF00250A4B009581B25B6858
:10094C0003AA3046FFF73AFE20B129462046FFF7AE
:10095C0079FF03E003A92046FFF762FF20460EB0A3
:10096C0070BD00BF7C050020034B044A04280CBF5B
:10097C0010461846704700BFFC0000207C05002084
:10098C00024B034A1A6000225A607047FC00002098
:10099C00781A0A08F8B506460D468F180024BD4291
:1009AC000CD0336815F8011B9B683046984700281B
:1009BC0001DB0444F3E7002C08BF04462046F8BDD5
:1009CC0070B505460C46084649B100F09DFF2B68F2
:1009DC00024621462846BDE87040DB68184770BDCA
:1009EC0003689B6818470B460A680146126818464C
:1009FC00104738B50D210546FFF7F2FF0A210446D2
:100A0C002846FFF7EDFF204438BD38B50546FFF703
:100A1C00D7FF04462846FFF7ECFF204438BD38B515
:100A2C000546FFF7E0FF04462846FFF7E2FF2044A7
:100A3C0038BD012A98BF0A2230B50B468BB0002175
:100A4C008DF824100DF12304B3FBF2F505FB1233E2
:100A5C00DBB2092B94BF30333733DBB2214604F8B9
:100A6C0001392B46002DEFD1FFF7AAFF0BB030BD9B
:100A7C0010B422B90368C9B29B6810BC1847D2B233
:100A8C0010BCFFF7D6BFFFF7F3BF10B50446FFF756
:100A9C0054FE204610BD0000034800238360034A27
:100AAC00034900F097BD00BF040100208000002026
:100ABC00970A0A08704710B50446102100F08FFD04
:100ACC00204610BD70B504460E46074B002503604A
:100ADC0040F80C5FFFF738FC30462671FFF7DEFC60
:100AEC00A560204670BD00BFAC1A0A080079FFF75C
:100AFC00DDBC10B504460068FFF70CFE204610BDA7
:100B0C0010B50446006808B1FFF704FE002323600B
:100B1C00A360636010BD38B504460D460068013112
:100B2C00FFF700FE10B184E82100012038BD10B59C
:100B3C000368044613B143688B4207D22046FFF783
:100B4C00EAFF20B1A3680BB922681370012010BD15
:100B5C0070B50E46114604461546FFF7E8FF18B966
:100B6C002046FFF7CDFF09E02A463146A5602068F4
:100B7C0000F08EFE2268A3680021D154204670BD7F
:100B8C0038B50023044603604360836003730D464D
:100B9C0039B1084600F0B8FE294602462046FFF758
:100BAC00D7FF204638BD00004FF6FF72034B0020E4
:100BBC00187058809A80FFF709BD00BF14010020FF
:100BCC00024B1A68024B1A60704700BF18000020D5
:100BDC001C01002010B40468246BA44610BC6047B0
:100BEC0003689B6C1847808E7047028FC08E101A5A
:100BFC00704713B502AB026803F8011DD46819469F
:100C0C000122A04702B010BD10B5036804461B6951
:100C1C00984728B1E38EE26B591CE186D05C10BD7D
:100C2C004FF0FF3010BD10B5036804461B699847A0
:100C3C0018B1E38EE26BD05C10BD4FF0FF3010BDED
:100C4C0070470346084610B4D98EDC6B1A8F0368C4
:100C5C00521ADB68214410BC1847A0F11000FFF7B2
:100C6C00F0BFF7B5054610460F461646FFF77CFE5B
:100C7C000368DB689847B8B102213B46112208464D
:100C8C000096FFF7E3FB6861FFF7D8FB044630B131
:100C9C000023EB862B872F836E64012004E02B68E6
:100CAC0028465B6A9847204603B0F0BD38B5044629
:100CBC004569FFF7EBFB854202D06069FFF7DEFB6D
:100CCC00FFF7E4FB00236061E386238738BD30B572
:100CDC0087B0BDF828400225ADF808508DF80B40C0
:100CEC00250ADC798DF80A508DF80C409C798DF82A
:100CFC000D405C791B798DF80E408DF80F30102368
:100D0C00019302AB009340690023FFF7AFFB07B0E0
:100D1C0030BD38B5C36B0546C08E13B12C6C241A8C
:100D2C0000E01C46944228BF14461844224600F0AA
:100D3C00AFFDEB8E20462344EB8638BD70B50368BF
:100D4C0004461B690E461546984788B12368204611
:100D5C001B6998478542A8BF0546E38EE16B2A467E
:100D6C001944304600F094FDE38E2B44E38601E0F9
:100D7C004FF0FF35284670BDF0B5044689B0406C85
:100D8C000D461646FFF7F0FD0368DB68984710B375
:100D9C006769FFF77BFB87421DD0E5B108AB1022DA
:100DAC0043F8142D01930DEB020300932946002305
:100DBC0032466069FFF752FB051E0EDB9DF81220D0
:100DCC009DF8133005A943EA0223A38604F11C0005
:100DDC00FFF75AFD01E04FF0FF35284609B0F0BD92
:100DEC002DE9F041064694B0406C0D469046FFF755
:100DFC00BBFD0368DB689847F8B1284600F084FD1A
:100E0C00002481B20094736C03AA2846FFF7D6FB2A
:100E1C0090B903A908A8FFF703FD33680FAC9F6BCB
:100E2C00074B09AD0E930FCD0FC42B6842462370B0
:100E3C000EA93046B84700E0204614B0BDE8F0815A
:100E4C0080190A0870B504460646054B01F12005C9
:100E5C0044F8043B0FCD0FC42B683046237070BD93
:100E6C0080190A08F0B594468E460646026889B089
:100E7C00976A094A03AC1D1D02920FCD0FC42B6853
:100E8C0062462370BDF8383071460093304602AB91
:100E9C00B84709B0F0BD00BF80190A08F0B5044688
:100EAC00036889B09F6A0D4B03AD00F12006B0F8C2
:100EBC0036E002930FCE0FC5336872462B70A38EAB
:100ECC00E16B0093204602ABB847054623682046E9
:100EDC00DB699847284609B0F0BD00BF80190A08A5
:100EEC0038B54FF47A7383600B4B002503F108027D
:100EFC006C330260036145600446FFF7C7FA60611A
:100F0C0004F11C00FFF77EFC4FF40073E586258787
:100F1C00E5632364204638BDE01A0A0810B590F842
:100F2C004830044623B1C06B10B1012100F057FBCF
:100F3C000023E36384F848302364E386238710BDE1
:100F4C0070B5044616460D46FFF7E8FF0023E6632E
:100F5C0023643EB935B12846FFF799F80123E063C5
:100F6C0084F84830E36B03B12564206C003018BF63
:100F7C00012070BDF8B51746C26B05460C461AB970
:100F8C00016C09B1FFF7DCFF05F1200604340FCC2E
:100F9C000FC6236833700023AF86EB862B87286C33
:100FAC00F8BD70B5C26B04461AB9016C09B1FFF7F4
:100FBC00C7FFE16B0023E386238741B1226C32B17A
:100FCC002068056B2046A8470028C8BF20872368E7
:100FDC002046BDE870401B69184770474174704744
:100FEC0008B5007CFFF7A2FA20EAE07008BD08B54E
:100FFC00007CFFF773FA20EAE07008BD08B5007CAE
:10100C00FFF77CFA30EA200028BF4FF0FF3008BD14
:10101C0008B5007CFFF76AFA30EA200028BF4FF0D1
:10102C00FF3008BD007CFFF771BA10B504461421DF
:10103C0000F0D5FA204610BD70B5457C04460E462E
:10104C0025B9007CFFF772FA002805DD3146207CBB
:10105C00BDE87040FFF73ABA284670BD10B504469B
:10106C0008461146002262604FF47A72A260054A6B
:10107C0020742260012262741A46FFF71FFA204680
:10108C0010BD00BF581B0A08007CFFF747BA0000D0
:10109C0038B50C4D296811F0010411D12846FEF722
:1010AC00FAFF68B1084A2146084B0948FFF7D6FFFA
:1010BC002846FEF7F5FF074A0749054800F08AFA6B
:1010CC00034838BDB8010020BC01002034010020C9
:1010DC002001002080000020E70F0A0841747047AF
:1010EC00704708B50021007CFFF748FA30EA200071
:1010FC0028BF4FF0FF3008BD08B50121007CFFF779
:10110C003DFA30EA200028BF4FF0FF3008BD08B58B
:10111C00007CFFF72BFA20EAE07008BD08B5007CD4
:10112C00FFF71CFA20EAE07008BD007CFFF736BA26
:10113C0010B50446142100F052FA204610BD38B503
:10114C000446007C0D46FFF711FA002801DC607C98
:10115C0028B12946207CFFF719FA20EAE07038BD47
:10116C0010B50446002363604FF47A73A360054BFB
:10117C00084623600123217463741146FFF7DEF9DE
:10118C00204610BD881B0A080022007CFFF7DEB940
:10119C00007CFFF70BBAFFF7FBBF000010B504464D
:1011AC001422002100F07FFB054B20466360054BA9
:1011BC00E36040F2011323818123238210BD00BF21
:1011CC00C50200204402002030B50E4D87B001A8A6
:1011DC00FFF7E4FF296811F0010410D12846FEF74F
:1011EC005AFF60B101AA21460748FFF7B9FF28460C
:1011FC00FEF756FF054A0649034800F0EBF9024892
:10120C0007B030BD40020020C80300208000002041
:10121C00ED100A0810B504461422002100F043FB1F
:10122C00054B20466360054BE36040F201132381BC
:10123C008123238210BD00BF78040020E00300202E
:10124C0010B50E4C86B001A8FFF7E4FF2368DB074E
:10125C0010D42046FEF71FFF60B101AA01210848F7
:10126C00FFF77EFF2046FEF71BFF064A064904489F
:10127C0000F0B0F9024806B010BD00BFDC0300203E
:10128C006404002080000020ED100A0800221146A2
:10129C004068FFF7EFB9F0B5164689B011220F463A
:1012AC000446002103A800F0FEFA304600F02CFBA7
:1012BC000025009581B27B6803AA3046FFF77EF9C2
:1012CC0020B129462046FFF7BDFA03E003A92046CA
:1012DC00FFF7A6FA204609B0F0BD0022114640687F
:1012EC00FFF7E8B9002211464068FFF7F3B9002276
:1012FC004068FFF7E7B9002281F001014068FFF771
:10130C00D1B900231A4619464068FFF7C3B9002328
:10131C001A4619464068FFF7B5B9002211464068D5
:10132C00FFF798B9002202214068FFF79BB9002310
:10133C001A464068FFF786B9024B04225A60024AEB
:10134C001A6070477C050020B81B0A0808B5144BBE
:10135C0033B1FFF739FF03681B699847002816DC87
:10136C00104B33B1FFF794FE03681B6998470028B4
:10137C0010DC0D4B0BB1AFF300800C4B7BB1FFF7C6
:10138C005FFF03681B699847002806DC08BDAFF3B4
:10139C000080E5E7AFF30080EBE7AFF3008008BD1A
:1013AC000000000000000000000000000000000031
:1013BC0008B5FFF7CBFFFEF7DFFF014B186008BD48
:1013CC008C0500200248034A0349121A00F060BA47
:1013DC000040024004400240801C0A0807B500236C
:1013EC0000931A466FF07701FFF712F903B05DF81E
:1013FC0004FB000007B543880A2B08D0502B09D1F9
:10140C00094B1B683BB103B05DF804EB1847FFF7C1
:10141C00E5FF06E0002300931A466FF07701FFF713
:10142C00F7F803B05DF804FB8405002038B5104CC8
:10143C00104D2368AB42104B0CBF012200221A70D6
:10144C0002D0FFF7BFFF2560FEF786FF044600F0D1
:10145C0033FA0A4B13B12046AFF300800021074842
:10146C00FFF7E0F8BDE8384000210548FFF7C6B8A3
:10147C00004002401E1C279A880500200000000036
:10148C0001140A0810B504460F48FFF72FFB28B1CA
:10149C00A4F10D03022B01D8002010BD00F040F880
:1014AC00FFF792F908B1012CF6D9FFF7F1FDFFF720
:1014BC00EBFD18B1A4F11203012BEDD9172C8CBF45
:1014CC000020012010BD00BFC0050020172838B532
:1014DC0004460D460AD8FF2908D0FFF7D3FF28B1E0
:1014EC0029462046BDE83840FEF756BF38BD38B512
:1014FC0004460D46FEF758FFFF2810D0062804D8E6
:10150C004D2323FA00F0C30709D42046FFF7BAFF96
:10151C0028B129462046BDE83840FEF74DBF38BDFE
:10152C0038B50B4D296811F001040FD12846FEF790
:10153C00B2FD58B121460748FFF734F92846FEF7AB
:10154C00AFFD054A0549034800F044F8014838BD91
:10155C0090050020940500208000002059070A08FF
:10156C0013B5084C00231A46194600932046FFF782
:10157C007FF92046044A054902B0BDE8104000F04E
:10158C0029B800BFA805002080000020B3000A087D
:10159C0070B50C4C0C4E0D4D00212046FFF792FA05
:1015AC0020460B4C3246294600F014F80121204607
:1015BC00FFF788FA324629462046BDE8704000F015
:1015CC0009B800BFC005002080000020C10A0A082D
:1015DC00D00500200B460146184600F04BB9FEF72B
:1015EC0058BD0000244B1A68D0075CBF01221A605A
:1015FC00224B1A68D1075CBF01221A60204B1A6873
:10160C00D2075CBF01221A601E4B1A68D0075CBF60
:10161C0001221A601C4B1A68D1075CBF01221A60A8
:10162C001A4B1A68D2075CBF01221A60184B1A6851
:10163C00D0075CBF01221A60164B1A68D1075CBF39
:10164C0001221A60144B1A68D2075CBF01221A607F
:10165C00124B1A68D0075CBF01221A60104B1A6833
:10166C00D1075CBF01221A600E4B1A68D2075CBF0F
:10167C0001221A60704700BF0C06002008060020EB
:10168C000406002000060020FC050020F8050020C0
:10169C00F4050020F0050020EC050020E8050020F2
:1016AC00E4050020E0050020184B1A68D1075CBF48
:1016BC0001221A60164B1A68D2075CBF01221A600D
:1016CC00144B1A68D0075CBF01221A60124B1A68BF
:1016DC00D1075CBF01221A60104B1A68D2075CBF9D
:1016EC0001221A600E4B1A68D0075CBF01221A60E7
:1016FC000C4B1A68D1075CBF01221A600A4B1A689E
:10170C00D2075CBF01221A60704700BF2C06002074
:10171C002806002024060020200600201C0600209D
:10172C00180600201406002010060020184B1A681A
:10173C00D1075CBF01221A60164B1A68D2075CBF36
:10174C0001221A60144B1A68D0075CBF01221A6080
:10175C00124B1A68D1075CBF01221A60104B1A6831
:10176C00D2075CBF01221A600E4B1A68D0075CBF0F
:10177C0001221A600C4B1A68D1075CBF01221A6057
:10178C000A4B1A68D2075CBF01221A60704700BF6F
:10179C004C0600204806002044060020400600208D
:1017AC003C060020380600203406002030060020BD
:1017BC00244B1A68D0075CBF01221A60224B1A68AE
:1017CC00D1075CBF01221A60204B1A68D2075CBF9C
:1017DC0001221A601E4B1A68D0075CBF01221A60E6
:1017EC001C4B1A68D1075CBF01221A601A4B1A688D
:1017FC00D2075CBF01221A60184B1A68D0075CBF75
:10180C0001221A60164B1A68D1075CBF01221A60BC
:10181C00144B1A68D2075CBF01221A60124B1A686B
:10182C00D0075CBF01221A60104B1A68D1075CBF4D
:10183C0001221A600E4B1A68D2075CBF01221A6093
:10184C00704700BF7C06002078060020740600203C
:10185C00700600206C06002068060020640600203C
:10186C00600600205C06002058060020540600206C
:10187C005006002010B5054C13462CB10A46014603
:10188C000220AFF3008010BD204610BD0000000008
:10189C0010B5431E0A44914204D011F8014B03F8D1
:1018AC00014FF8E710BD03460244934202D003F8FF
:1018BC00011BFAE77047000038B5124B05461C684F
:1018CC00A36BD3B91820FEF71DFF43F20E33A063B0
:1018DC0003804AF6CD33438041F2342383804EF2A9
:1018EC006D63C3804DF6EC630381052343810B23A9
:1018FC00838101220023C0E90423A36B00221D6114
:10190C005A6138BD7C000020034613F8012B002AD5
:10191C00FBD1181A013870471D000A085D000A082F
:10192C0089000A088D000A080000000053657475D0
:10193C0070004851526F757465725F5055424C4936
:10194C0053480000000000000000000059070A087E
:10195C00A3070A087B070A085B070A0883070A081B
:10196C008B070A0893070A089B070A080000000067
:10197C0000000000DD070A08B3000A08D5000A08B9
:10198C00626175640053657269616C005553425312
:10199C00657269616C310074797065007061726197
:1019AC006D00636D6400696400686E64007374722A
:1019BC006D0066696C74006C766C006164644861DF
:1019CC006E646C65720072656D6F766548616E64ED
:1019DC006C657200656E756D48616E646C657273D2
:1019EC00004A534F4E53747265616D4C6F6748617A
:1019FC006E646C657200617070002530313075203A
:101A0C00005D20002564002C200028293A200020AD
:101A1C005B00636F6465203D20002569006465747C
:101A2C0061696C73203D20000D0A0066006C6E002D
:101A3C00666E00636F64650064657461696C006E4A
:101A4C006F6E6500747261636500696E666F007716
:101A5C0061726E006572726F720070616E69630004
:101A6C00616C6C000000000000000000BD080A085A
:101A7C00C7080A08D1080A08DB080A08E5080A089A
:101A8C00F1080A08FD080A0809090A0811090A08D8
:101A9C001B090A0825090A080000000000000000C4
:101AAC00C10A0A08C30A0A085A00252B3033643AC3
:101ABC00253032750025592D256D2D25645425486A
:101ACC003A254D3A2553257A0061736374696D6527
:101ADC00000000000000000000000000B5000A0833
:101AEC00E3000A08FF0B0A081F0D0A08F70B0A0887
:101AFC00150C0A08330C0A084D0C0A086F0C0A085E
:101B0C00B90C0A08DB0C0A08710E0A08850D0A08C4
:101B1C00E10B0A08810F0A08ED0D0A08A90E0A0844
:101B2C00AF0F0A08490D0A08ED0B0A08510E0A08F6
:101B3C00F30B0A084F0C0A08F0FFFFFF000000002F
:101B4C00670C0A080000000000000000E70F0A08FC
:101B5C0037100A0845100A08A1090A08FB0F0A08E1
:101B6C001D100A0809100A0831100A08E90F0A08A2
:101B7C00ED0F0A080000000000000000ED100A083C
:101B8C003D110A084B110A08A1090A0829110A0873
:101B9C00EF100A0805110A0837110A081B110A0868
:101BAC00E9100A0800000000000000003B130A08BE
:101BBC0031130A0827130A0899120A081B130A087A
:101BCC000F130A0803130A08FB120A08F1120A0879
:101BDC00E7120A08A3120A08000000000000000027
:101BEC0000000000000000000000000000000000E9
:101BFC0000000000000000000000000000000000D9
:101C0C0000000000000000000000000000000000C8
:101C1C0000000000000000000000000000000000B8
:101C2C0000000000000000000000000000000000A8
:101C3C00000000000000000043000000ED020A0854
:101C4C0051030A08AD080A088D090A08A50A0A08F2
:101C5C00B50B0A08CD0B0A0845130A086D150A08BE
:101C6C009D150A08F1150A08B5160A0839170A084D
:041C7C00BD170A087E
:041C80000000000060
:101C84000F0000000E00000007000000B822000052
:101C9400010000000D000000D51A0A080000000031
:101CA400E41B0A08041C0A08241C0A08000000009B
:101CB400000000000000000000000000441C0A08AE
:101CC4000000000000000000000000000000000010
:101CD4000000000000000000000000000000000000
:101CE40000000000000000000000000000000000F0
:101CF4000000000000000000000000001C000020A4
:101D0400FFFFFFFF00000102030405060708090A9C
:101D14000B0C0D0E0F101112131415161718191A97
:081D24001B1C1D1E1F202800DE
:041D2C00785634129F
:04000005080A001CC9
:00000001FF
